{
	"Solidity/Zombies Attack Their Victims/zombiefeeding.sol": {
		"ZombieFeeding": {
			"abi": [
				{
					"anonymous": false,
					"inputs": [
						{
							"indexed": false,
							"internalType": "uint256",
							"name": "zombieId",
							"type": "uint256"
						},
						{
							"indexed": false,
							"internalType": "string",
							"name": "name",
							"type": "string"
						},
						{
							"indexed": false,
							"internalType": "uint256",
							"name": "dna",
							"type": "uint256"
						}
					],
					"name": "NewZombie",
					"type": "event"
				},
				{
					"constant": false,
					"inputs": [
						{
							"internalType": "string",
							"name": "_name",
							"type": "string"
						}
					],
					"name": "createRandomZombie",
					"outputs": [],
					"payable": false,
					"stateMutability": "nonpayable",
					"type": "function"
				},
				{
					"constant": false,
					"inputs": [
						{
							"internalType": "uint256",
							"name": "_zombieId",
							"type": "uint256"
						},
						{
							"internalType": "uint256",
							"name": "_targetDna",
							"type": "uint256"
						}
					],
					"name": "feedAndMultiply",
					"outputs": [],
					"payable": false,
					"stateMutability": "nonpayable",
					"type": "function"
				},
				{
					"constant": false,
					"inputs": [
						{
							"internalType": "uint256",
							"name": "_zombieId",
							"type": "uint256"
						},
						{
							"internalType": "uint256",
							"name": "_kittyId",
							"type": "uint256"
						}
					],
					"name": "feedOnKitty",
					"outputs": [],
					"payable": false,
					"stateMutability": "nonpayable",
					"type": "function"
				},
				{
					"constant": true,
					"inputs": [
						{
							"internalType": "uint256",
							"name": "",
							"type": "uint256"
						}
					],
					"name": "zombieToOwner",
					"outputs": [
						{
							"internalType": "address",
							"name": "",
							"type": "address"
						}
					],
					"payable": false,
					"stateMutability": "view",
					"type": "function"
				},
				{
					"constant": true,
					"inputs": [
						{
							"internalType": "uint256",
							"name": "",
							"type": "uint256"
						}
					],
					"name": "zombies",
					"outputs": [
						{
							"internalType": "string",
							"name": "name",
							"type": "string"
						},
						{
							"internalType": "uint256",
							"name": "dna",
							"type": "uint256"
						}
					],
					"payable": false,
					"stateMutability": "view",
					"type": "function"
				}
			],
			"devdoc": {
				"methods": {}
			},
			"evm": {
				"assembly": "    /* \"Solidity/Zombies Attack Their Victims/zombiefeeding.sol\":381:1156  contract ZombieFeeding is ZombieFactory {... */\n  mstore(0x40, 0x80)\n    /* \"Solidity/Zombies Attack Their Victims/zombiefactory.sol\":140:142  16 */\n  0x10\n    /* \"Solidity/Zombies Attack Their Victims/zombiefactory.sol\":123:142  uint dnaDigits = 16 */\n  0x00\n  sstore\n    /* \"Solidity/Zombies Attack Their Victims/zombiefactory.sol\":172:181  dnaDigits */\n  sload(0x00)\n    /* \"Solidity/Zombies Attack Their Victims/zombiefactory.sol\":166:168  10 */\n  0x0a\n    /* \"Solidity/Zombies Attack Their Victims/zombiefactory.sol\":166:181  10 ** dnaDigits */\n  exp\n    /* \"Solidity/Zombies Attack Their Victims/zombiefactory.sol\":148:181  uint dnaModulus = 10 ** dnaDigits */\n  0x01\n  sstore\n    /* \"Solidity/Zombies Attack Their Victims/zombiefeeding.sol\":446:488  0x06012c8cf97BEaD5deAe237070F9587f8E7A266d */\n  0x06012c8cf97bead5deae237070f9587f8e7a266d\n    /* \"Solidity/Zombies Attack Their Victims/zombiefeeding.sol\":426:488  address ckAddress = 0x06012c8cf97BEaD5deAe237070F9587f8E7A266d */\n  0x05\n  exp(0x0100, 0x00)\n  dup2\n  sload\n  dup2\n  0xffffffffffffffffffffffffffffffffffffffff\n  mul\n  not\n  and\n  swap1\n  dup4\n  0xffffffffffffffffffffffffffffffffffffffff\n  and\n  mul\n  or\n  swap1\n  sstore\n  pop\n    /* \"Solidity/Zombies Attack Their Victims/zombiefeeding.sol\":538:547  ckAddress */\n  0x05\n  0x00\n  swap1\n  sload\n  swap1\n  0x0100\n  exp\n  swap1\n  div\n  0xffffffffffffffffffffffffffffffffffffffff\n  and\n    /* \"Solidity/Zombies Attack Their Victims/zombiefeeding.sol\":492:548  KittyInterface kittyContract = KittyInterface(ckAddress) */\n  0x06\n  exp(0x0100, 0x00)\n  dup2\n  sload\n  dup2\n  0xffffffffffffffffffffffffffffffffffffffff\n  mul\n  not\n  and\n  swap1\n  dup4\n  0xffffffffffffffffffffffffffffffffffffffff\n  and\n  mul\n  or\n  swap1\n  sstore\n  pop\n    /* \"Solidity/Zombies Attack Their Victims/zombiefeeding.sol\":381:1156  contract ZombieFeeding is ZombieFactory {... */\n  callvalue\n    /* \"--CODEGEN--\":8:17   */\n  dup1\n    /* \"--CODEGEN--\":5:7   */\n  iszero\n  tag_1\n  jumpi\n    /* \"--CODEGEN--\":30:31   */\n  0x00\n    /* \"--CODEGEN--\":27:28   */\n  dup1\n    /* \"--CODEGEN--\":20:32   */\n  revert\n    /* \"--CODEGEN--\":5:7   */\ntag_1:\n    /* \"Solidity/Zombies Attack Their Victims/zombiefeeding.sol\":381:1156  contract ZombieFeeding is ZombieFactory {... */\n  pop\n  dataSize(sub_0)\n  dup1\n  dataOffset(sub_0)\n  0x00\n  codecopy\n  0x00\n  return\nstop\n\nsub_0: assembly {\n        /* \"Solidity/Zombies Attack Their Victims/zombiefeeding.sol\":381:1156  contract ZombieFeeding is ZombieFactory {... */\n      mstore(0x40, 0x80)\n      callvalue\n        /* \"--CODEGEN--\":8:17   */\n      dup1\n        /* \"--CODEGEN--\":5:7   */\n      iszero\n      tag_1\n      jumpi\n        /* \"--CODEGEN--\":30:31   */\n      0x00\n        /* \"--CODEGEN--\":27:28   */\n      dup1\n        /* \"--CODEGEN--\":20:32   */\n      revert\n        /* \"--CODEGEN--\":5:7   */\n    tag_1:\n        /* \"Solidity/Zombies Attack Their Victims/zombiefeeding.sol\":381:1156  contract ZombieFeeding is ZombieFactory {... */\n      pop\n      jumpi(tag_2, lt(calldatasize, 0x04))\n      shr(0xe0, calldataload(0x00))\n      dup1\n      0x0dedffb8\n      eq\n      tag_3\n      jumpi\n      dup1\n      0x17a7f4cc\n      eq\n      tag_4\n      jumpi\n      dup1\n      0x2052465e\n      eq\n      tag_5\n      jumpi\n      dup1\n      0x528b7b8f\n      eq\n      tag_6\n      jumpi\n      dup1\n      0x7bff0a01\n      eq\n      tag_7\n      jumpi\n    tag_2:\n      0x00\n      dup1\n      revert\n        /* \"Solidity/Zombies Attack Their Victims/zombiefeeding.sol\":591:926  function feedAndMultiply(uint _zombieId, uint _targetDna) public {... */\n    tag_3:\n      tag_8\n      0x04\n      dup1\n      calldatasize\n      sub\n        /* \"--CODEGEN--\":13:15   */\n      0x40\n        /* \"--CODEGEN--\":8:11   */\n      dup2\n        /* \"--CODEGEN--\":5:16   */\n      lt\n        /* \"--CODEGEN--\":2:4   */\n      iszero\n      tag_9\n      jumpi\n        /* \"--CODEGEN--\":29:30   */\n      0x00\n        /* \"--CODEGEN--\":26:27   */\n      dup1\n        /* \"--CODEGEN--\":19:31   */\n      revert\n        /* \"--CODEGEN--\":2:4   */\n    tag_9:\n        /* \"Solidity/Zombies Attack Their Victims/zombiefeeding.sol\":591:926  function feedAndMultiply(uint _zombieId, uint _targetDna) public {... */\n      dup2\n      add\n      swap1\n      dup1\n      dup1\n      calldataload\n      swap1\n      0x20\n      add\n      swap1\n      swap3\n      swap2\n      swap1\n      dup1\n      calldataload\n      swap1\n      0x20\n      add\n      swap1\n      swap3\n      swap2\n      swap1\n      pop\n      pop\n      pop\n      tag_10\n      jump\t// in\n    tag_8:\n      stop\n        /* \"Solidity/Zombies Attack Their Victims/zombiefeeding.sol\":930:1153  function feedOnKitty(uint _zombieId, uint _kittyId) public {... */\n    tag_4:\n      tag_11\n      0x04\n      dup1\n      calldatasize\n      sub\n        /* \"--CODEGEN--\":13:15   */\n      0x40\n        /* \"--CODEGEN--\":8:11   */\n      dup2\n        /* \"--CODEGEN--\":5:16   */\n      lt\n        /* \"--CODEGEN--\":2:4   */\n      iszero\n      tag_12\n      jumpi\n        /* \"--CODEGEN--\":29:30   */\n      0x00\n        /* \"--CODEGEN--\":26:27   */\n      dup1\n        /* \"--CODEGEN--\":19:31   */\n      revert\n        /* \"--CODEGEN--\":2:4   */\n    tag_12:\n        /* \"Solidity/Zombies Attack Their Victims/zombiefeeding.sol\":930:1153  function feedOnKitty(uint _zombieId, uint _kittyId) public {... */\n      dup2\n      add\n      swap1\n      dup1\n      dup1\n      calldataload\n      swap1\n      0x20\n      add\n      swap1\n      swap3\n      swap2\n      swap1\n      dup1\n      calldataload\n      swap1\n      0x20\n      add\n      swap1\n      swap3\n      swap2\n      swap1\n      pop\n      pop\n      pop\n      tag_13\n      jump\t// in\n    tag_11:\n      stop\n        /* \"Solidity/Zombies Attack Their Victims/zombiefactory.sol\":254:277  Zombie[] public zombies */\n    tag_5:\n      tag_14\n      0x04\n      dup1\n      calldatasize\n      sub\n        /* \"--CODEGEN--\":13:15   */\n      0x20\n        /* \"--CODEGEN--\":8:11   */\n      dup2\n        /* \"--CODEGEN--\":5:16   */\n      lt\n        /* \"--CODEGEN--\":2:4   */\n      iszero\n      tag_15\n      jumpi\n        /* \"--CODEGEN--\":29:30   */\n      0x00\n        /* \"--CODEGEN--\":26:27   */\n      dup1\n        /* \"--CODEGEN--\":19:31   */\n      revert\n        /* \"--CODEGEN--\":2:4   */\n    tag_15:\n        /* \"Solidity/Zombies Attack Their Victims/zombiefactory.sol\":254:277  Zombie[] public zombies */\n      dup2\n      add\n      swap1\n      dup1\n      dup1\n      calldataload\n      swap1\n      0x20\n      add\n      swap1\n      swap3\n      swap2\n      swap1\n      pop\n      pop\n      pop\n      tag_16\n      jump\t// in\n    tag_14:\n      mload(0x40)\n      dup1\n      dup1\n      0x20\n      add\n      dup4\n      dup2\n      mstore\n      0x20\n      add\n      dup3\n      dup2\n      sub\n      dup3\n      mstore\n      dup5\n      dup2\n      dup2\n      mload\n      dup2\n      mstore\n      0x20\n      add\n      swap2\n      pop\n      dup1\n      mload\n      swap1\n      0x20\n      add\n      swap1\n      dup1\n      dup4\n      dup4\n        /* \"--CODEGEN--\":23:24   */\n      0x00\n        /* \"--CODEGEN--\":8:108   */\n    tag_17:\n        /* \"--CODEGEN--\":33:36   */\n      dup4\n        /* \"--CODEGEN--\":30:31   */\n      dup2\n        /* \"--CODEGEN--\":27:37   */\n      lt\n        /* \"--CODEGEN--\":8:108   */\n      iszero\n      tag_19\n      jumpi\n        /* \"--CODEGEN--\":99:100   */\n      dup1\n        /* \"--CODEGEN--\":94:97   */\n      dup3\n        /* \"--CODEGEN--\":90:101   */\n      add\n        /* \"--CODEGEN--\":84:102   */\n      mload\n        /* \"--CODEGEN--\":80:81   */\n      dup2\n        /* \"--CODEGEN--\":75:78   */\n      dup5\n        /* \"--CODEGEN--\":71:82   */\n      add\n        /* \"--CODEGEN--\":64:103   */\n      mstore\n        /* \"--CODEGEN--\":52:54   */\n      0x20\n        /* \"--CODEGEN--\":49:50   */\n      dup2\n        /* \"--CODEGEN--\":45:55   */\n      add\n        /* \"--CODEGEN--\":40:55   */\n      swap1\n      pop\n        /* \"--CODEGEN--\":8:108   */\n      jump(tag_17)\n    tag_19:\n        /* \"--CODEGEN--\":12:26   */\n      pop\n        /* \"Solidity/Zombies Attack Their Victims/zombiefactory.sol\":254:277  Zombie[] public zombies */\n      pop\n      pop\n      pop\n      swap1\n      pop\n      swap1\n      dup2\n      add\n      swap1\n      0x1f\n      and\n      dup1\n      iszero\n      tag_20\n      jumpi\n      dup1\n      dup3\n      sub\n      dup1\n      mload\n      0x01\n      dup4\n      0x20\n      sub\n      0x0100\n      exp\n      sub\n      not\n      and\n      dup2\n      mstore\n      0x20\n      add\n      swap2\n      pop\n    tag_20:\n      pop\n      swap4\n      pop\n      pop\n      pop\n      pop\n      mload(0x40)\n      dup1\n      swap2\n      sub\n      swap1\n      return\n        /* \"Solidity/Zombies Attack Their Victims/zombiefactory.sol\":284:330  mapping (uint => address) public zombieToOwner */\n    tag_6:\n      tag_21\n      0x04\n      dup1\n      calldatasize\n      sub\n        /* \"--CODEGEN--\":13:15   */\n      0x20\n        /* \"--CODEGEN--\":8:11   */\n      dup2\n        /* \"--CODEGEN--\":5:16   */\n      lt\n        /* \"--CODEGEN--\":2:4   */\n      iszero\n      tag_22\n      jumpi\n        /* \"--CODEGEN--\":29:30   */\n      0x00\n        /* \"--CODEGEN--\":26:27   */\n      dup1\n        /* \"--CODEGEN--\":19:31   */\n      revert\n        /* \"--CODEGEN--\":2:4   */\n    tag_22:\n        /* \"Solidity/Zombies Attack Their Victims/zombiefactory.sol\":284:330  mapping (uint => address) public zombieToOwner */\n      dup2\n      add\n      swap1\n      dup1\n      dup1\n      calldataload\n      swap1\n      0x20\n      add\n      swap1\n      swap3\n      swap2\n      swap1\n      pop\n      pop\n      pop\n      tag_23\n      jump\t// in\n    tag_21:\n      mload(0x40)\n      dup1\n      dup3\n      0xffffffffffffffffffffffffffffffffffffffff\n      and\n      0xffffffffffffffffffffffffffffffffffffffff\n      and\n      dup2\n      mstore\n      0x20\n      add\n      swap2\n      pop\n      pop\n      mload(0x40)\n      dup1\n      swap2\n      sub\n      swap1\n      return\n        /* \"Solidity/Zombies Attack Their Victims/zombiefactory.sol\":824:1071  function createRandomZombie(string memory _name) public {... */\n    tag_7:\n      tag_24\n      0x04\n      dup1\n      calldatasize\n      sub\n        /* \"--CODEGEN--\":13:15   */\n      0x20\n        /* \"--CODEGEN--\":8:11   */\n      dup2\n        /* \"--CODEGEN--\":5:16   */\n      lt\n        /* \"--CODEGEN--\":2:4   */\n      iszero\n      tag_25\n      jumpi\n        /* \"--CODEGEN--\":29:30   */\n      0x00\n        /* \"--CODEGEN--\":26:27   */\n      dup1\n        /* \"--CODEGEN--\":19:31   */\n      revert\n        /* \"--CODEGEN--\":2:4   */\n    tag_25:\n        /* \"Solidity/Zombies Attack Their Victims/zombiefactory.sol\":824:1071  function createRandomZombie(string memory _name) public {... */\n      dup2\n      add\n      swap1\n      dup1\n      dup1\n      calldataload\n      swap1\n      0x20\n      add\n      swap1\n        /* \"--CODEGEN--\":21:32   */\n      0x0100000000\n        /* \"--CODEGEN--\":8:19   */\n      dup2\n        /* \"--CODEGEN--\":5:33   */\n      gt\n        /* \"--CODEGEN--\":2:4   */\n      iszero\n      tag_26\n      jumpi\n        /* \"--CODEGEN--\":46:47   */\n      0x00\n        /* \"--CODEGEN--\":43:44   */\n      dup1\n        /* \"--CODEGEN--\":36:48   */\n      revert\n        /* \"--CODEGEN--\":2:4   */\n    tag_26:\n        /* \"Solidity/Zombies Attack Their Victims/zombiefactory.sol\":824:1071  function createRandomZombie(string memory _name) public {... */\n      dup3\n      add\n        /* \"--CODEGEN--\":35:44   */\n      dup4\n        /* \"--CODEGEN--\":28:32   */\n      0x20\n        /* \"--CODEGEN--\":12:26   */\n      dup3\n        /* \"--CODEGEN--\":8:33   */\n      add\n        /* \"--CODEGEN--\":5:45   */\n      gt\n        /* \"--CODEGEN--\":2:4   */\n      iszero\n      tag_27\n      jumpi\n        /* \"--CODEGEN--\":58:59   */\n      0x00\n        /* \"--CODEGEN--\":55:56   */\n      dup1\n        /* \"--CODEGEN--\":48:60   */\n      revert\n        /* \"--CODEGEN--\":2:4   */\n    tag_27:\n        /* \"Solidity/Zombies Attack Their Victims/zombiefactory.sol\":824:1071  function createRandomZombie(string memory _name) public {... */\n      dup1\n      calldataload\n      swap1\n      0x20\n      add\n      swap2\n        /* \"--CODEGEN--\":100:109   */\n      dup5\n        /* \"--CODEGEN--\":95:96   */\n      0x01\n        /* \"--CODEGEN--\":81:93   */\n      dup4\n        /* \"--CODEGEN--\":77:97   */\n      mul\n        /* \"--CODEGEN--\":67:75   */\n      dup5\n        /* \"--CODEGEN--\":63:98   */\n      add\n        /* \"--CODEGEN--\":60:110   */\n      gt\n        /* \"--CODEGEN--\":39:50   */\n      0x0100000000\n        /* \"--CODEGEN--\":25:37   */\n      dup4\n        /* \"--CODEGEN--\":22:51   */\n      gt\n        /* \"--CODEGEN--\":11:118   */\n      or\n        /* \"--CODEGEN--\":8:10   */\n      iszero\n      tag_28\n      jumpi\n        /* \"--CODEGEN--\":131:132   */\n      0x00\n        /* \"--CODEGEN--\":128:129   */\n      dup1\n        /* \"--CODEGEN--\":121:133   */\n      revert\n        /* \"--CODEGEN--\":8:10   */\n    tag_28:\n        /* \"Solidity/Zombies Attack Their Victims/zombiefactory.sol\":824:1071  function createRandomZombie(string memory _name) public {... */\n      swap2\n      swap1\n      dup1\n      dup1\n      0x1f\n      add\n      0x20\n      dup1\n      swap2\n      div\n      mul\n      0x20\n      add\n      mload(0x40)\n      swap1\n      dup2\n      add\n      0x40\n      mstore\n      dup1\n      swap4\n      swap3\n      swap2\n      swap1\n      dup2\n      dup2\n      mstore\n      0x20\n      add\n      dup4\n      dup4\n        /* \"--CODEGEN--\":30:33   */\n      dup1\n        /* \"--CODEGEN--\":22:28   */\n      dup3\n        /* \"--CODEGEN--\":14:20   */\n      dup5\n        /* \"--CODEGEN--\":1:34   */\n      calldatacopy\n        /* \"--CODEGEN--\":99:100   */\n      0x00\n        /* \"--CODEGEN--\":93:96   */\n      dup2\n        /* \"--CODEGEN--\":85:91   */\n      dup5\n        /* \"--CODEGEN--\":81:97   */\n      add\n        /* \"--CODEGEN--\":74:101   */\n      mstore\n        /* \"--CODEGEN--\":137:141   */\n      0x1f\n        /* \"--CODEGEN--\":133:142   */\n      not\n        /* \"--CODEGEN--\":126:130   */\n      0x1f\n        /* \"--CODEGEN--\":121:124   */\n      dup3\n        /* \"--CODEGEN--\":117:131   */\n      add\n        /* \"--CODEGEN--\":113:143   */\n      and\n        /* \"--CODEGEN--\":106:143   */\n      swap1\n      pop\n        /* \"--CODEGEN--\":169:172   */\n      dup1\n        /* \"--CODEGEN--\":161:167   */\n      dup4\n        /* \"--CODEGEN--\":157:173   */\n      add\n        /* \"--CODEGEN--\":147:173   */\n      swap3\n      pop\n        /* \"Solidity/Zombies Attack Their Victims/zombiefactory.sol\":824:1071  function createRandomZombie(string memory _name) public {... */\n      pop\n      pop\n      pop\n      pop\n      pop\n      pop\n      swap2\n      swap3\n      swap2\n      swap3\n      swap1\n      pop\n      pop\n      pop\n      tag_29\n      jump\t// in\n    tag_24:\n      stop\n        /* \"Solidity/Zombies Attack Their Victims/zombiefeeding.sol\":591:926  function feedAndMultiply(uint _zombieId, uint _targetDna) public {... */\n    tag_10:\n        /* \"Solidity/Zombies Attack Their Victims/zombiefeeding.sol\":684:697  zombieToOwner */\n      0x03\n        /* \"Solidity/Zombies Attack Their Victims/zombiefeeding.sol\":684:708  zombieToOwner[_zombieId] */\n      0x00\n        /* \"Solidity/Zombies Attack Their Victims/zombiefeeding.sol\":698:707  _zombieId */\n      dup4\n        /* \"Solidity/Zombies Attack Their Victims/zombiefeeding.sol\":684:708  zombieToOwner[_zombieId] */\n      dup2\n      mstore\n      0x20\n      add\n      swap1\n      dup2\n      mstore\n      0x20\n      add\n      0x00\n      keccak256\n      0x00\n      swap1\n      sload\n      swap1\n      0x0100\n      exp\n      swap1\n      div\n      0xffffffffffffffffffffffffffffffffffffffff\n      and\n        /* \"Solidity/Zombies Attack Their Victims/zombiefeeding.sol\":670:708  msg.sender == zombieToOwner[_zombieId] */\n      0xffffffffffffffffffffffffffffffffffffffff\n      and\n        /* \"Solidity/Zombies Attack Their Victims/zombiefeeding.sol\":670:680  msg.sender */\n      caller\n        /* \"Solidity/Zombies Attack Their Victims/zombiefeeding.sol\":670:708  msg.sender == zombieToOwner[_zombieId] */\n      0xffffffffffffffffffffffffffffffffffffffff\n      and\n      eq\n        /* \"Solidity/Zombies Attack Their Victims/zombiefeeding.sol\":662:709  require(msg.sender == zombieToOwner[_zombieId]) */\n      tag_31\n      jumpi\n      0x00\n      dup1\n      revert\n    tag_31:\n        /* \"Solidity/Zombies Attack Their Victims/zombiefeeding.sol\":715:738  Zombie storage myZombie */\n      0x00\n        /* \"Solidity/Zombies Attack Their Victims/zombiefeeding.sol\":741:748  zombies */\n      0x02\n        /* \"Solidity/Zombies Attack Their Victims/zombiefeeding.sol\":749:758  _zombieId */\n      dup4\n        /* \"Solidity/Zombies Attack Their Victims/zombiefeeding.sol\":741:759  zombies[_zombieId] */\n      dup2\n      sload\n      dup2\n      lt\n      tag_32\n      jumpi\n      invalid\n    tag_32:\n      swap1\n      0x00\n      mstore\n      keccak256(0x00, 0x20)\n      swap1\n      0x02\n      mul\n      add\n        /* \"Solidity/Zombies Attack Their Victims/zombiefeeding.sol\":715:759  Zombie storage myZombie = zombies[_zombieId] */\n      swap1\n      pop\n        /* \"Solidity/Zombies Attack Their Victims/zombiefeeding.sol\":791:801  dnaModulus */\n      sload(0x01)\n        /* \"Solidity/Zombies Attack Their Victims/zombiefeeding.sol\":778:788  _targetDna */\n      dup3\n        /* \"Solidity/Zombies Attack Their Victims/zombiefeeding.sol\":778:801  _targetDna % dnaModulus */\n      dup2\n      tag_34\n      jumpi\n      invalid\n    tag_34:\n      mod\n        /* \"Solidity/Zombies Attack Their Victims/zombiefeeding.sol\":765:801  _targetDna = _targetDna % dnaModulus */\n      swap2\n      pop\n        /* \"Solidity/Zombies Attack Their Victims/zombiefeeding.sol\":807:818  uint newDna */\n      0x00\n        /* \"Solidity/Zombies Attack Their Victims/zombiefeeding.sol\":851:852  2 */\n      0x02\n        /* \"Solidity/Zombies Attack Their Victims/zombiefeeding.sol\":837:847  _targetDna */\n      dup4\n        /* \"Solidity/Zombies Attack Their Victims/zombiefeeding.sol\":822:830  myZombie */\n      dup4\n        /* \"Solidity/Zombies Attack Their Victims/zombiefeeding.sol\":822:834  myZombie.dna */\n      0x01\n      add\n      sload\n        /* \"Solidity/Zombies Attack Their Victims/zombiefeeding.sol\":822:847  myZombie.dna + _targetDna */\n      add\n        /* \"Solidity/Zombies Attack Their Victims/zombiefeeding.sol\":821:852  (myZombie.dna + _targetDna) / 2 */\n      dup2\n      tag_35\n      jumpi\n      invalid\n    tag_35:\n      div\n        /* \"Solidity/Zombies Attack Their Victims/zombiefeeding.sol\":807:852  uint newDna = (myZombie.dna + _targetDna) / 2 */\n      swap1\n      pop\n        /* \"Solidity/Zombies Attack Their Victims/zombiefeeding.sol\":890:921  _createZombie(\"NoName\", newDna) */\n      tag_36\n      mload(0x40)\n      dup1\n      0x40\n      add\n      0x40\n      mstore\n      dup1\n      0x06\n      dup2\n      mstore\n      0x20\n      add\n      0x4e6f4e616d650000000000000000000000000000000000000000000000000000\n      dup2\n      mstore\n      pop\n        /* \"Solidity/Zombies Attack Their Victims/zombiefeeding.sol\":914:920  newDna */\n      dup3\n        /* \"Solidity/Zombies Attack Their Victims/zombiefeeding.sol\":890:903  _createZombie */\n      tag_37\n        /* \"Solidity/Zombies Attack Their Victims/zombiefeeding.sol\":890:921  _createZombie(\"NoName\", newDna) */\n      jump\t// in\n    tag_36:\n        /* \"Solidity/Zombies Attack Their Victims/zombiefeeding.sol\":591:926  function feedAndMultiply(uint _zombieId, uint _targetDna) public {... */\n      pop\n      pop\n      pop\n      pop\n      jump\t// out\n        /* \"Solidity/Zombies Attack Their Victims/zombiefeeding.sol\":930:1153  function feedOnKitty(uint _zombieId, uint _kittyId) public {... */\n    tag_13:\n        /* \"Solidity/Zombies Attack Their Victims/zombiefeeding.sol\":995:1008  uint kittyDna */\n      0x00\n        /* \"Solidity/Zombies Attack Their Victims/zombiefeeding.sol\":1036:1049  kittyContract */\n      0x06\n      0x00\n      swap1\n      sload\n      swap1\n      0x0100\n      exp\n      swap1\n      div\n      0xffffffffffffffffffffffffffffffffffffffff\n      and\n        /* \"Solidity/Zombies Attack Their Victims/zombiefeeding.sol\":1036:1058  kittyContract.getKitty */\n      0xffffffffffffffffffffffffffffffffffffffff\n      and\n      0xe98b7f4d\n        /* \"Solidity/Zombies Attack Their Victims/zombiefeeding.sol\":1059:1067  _kittyId */\n      dup4\n        /* \"Solidity/Zombies Attack Their Victims/zombiefeeding.sol\":1036:1068  kittyContract.getKitty(_kittyId) */\n      mload(0x40)\n      dup3\n      0xffffffff\n      and\n      0xe0\n      shl\n      dup2\n      mstore\n      0x04\n      add\n      dup1\n      dup3\n      dup2\n      mstore\n      0x20\n      add\n      swap2\n      pop\n      pop\n      0x0140\n      mload(0x40)\n      dup1\n      dup4\n      sub\n      dup2\n      dup7\n      dup1\n      extcodesize\n      iszero\n        /* \"--CODEGEN--\":8:17   */\n      dup1\n        /* \"--CODEGEN--\":5:7   */\n      iszero\n      tag_39\n      jumpi\n        /* \"--CODEGEN--\":30:31   */\n      0x00\n        /* \"--CODEGEN--\":27:28   */\n      dup1\n        /* \"--CODEGEN--\":20:32   */\n      revert\n        /* \"--CODEGEN--\":5:7   */\n    tag_39:\n        /* \"Solidity/Zombies Attack Their Victims/zombiefeeding.sol\":1036:1068  kittyContract.getKitty(_kittyId) */\n      pop\n      gas\n      staticcall\n      iszero\n        /* \"--CODEGEN--\":8:17   */\n      dup1\n        /* \"--CODEGEN--\":5:7   */\n      iszero\n      tag_40\n      jumpi\n        /* \"--CODEGEN--\":45:61   */\n      returndatasize\n        /* \"--CODEGEN--\":42:43   */\n      0x00\n        /* \"--CODEGEN--\":39:40   */\n      dup1\n        /* \"--CODEGEN--\":24:62   */\n      returndatacopy\n        /* \"--CODEGEN--\":77:93   */\n      returndatasize\n        /* \"--CODEGEN--\":74:75   */\n      0x00\n        /* \"--CODEGEN--\":67:94   */\n      revert\n        /* \"--CODEGEN--\":5:7   */\n    tag_40:\n        /* \"Solidity/Zombies Attack Their Victims/zombiefeeding.sol\":1036:1068  kittyContract.getKitty(_kittyId) */\n      pop\n      pop\n      pop\n      pop\n      mload(0x40)\n      returndatasize\n        /* \"--CODEGEN--\":13:16   */\n      0x0140\n        /* \"--CODEGEN--\":8:11   */\n      dup2\n        /* \"--CODEGEN--\":5:17   */\n      lt\n        /* \"--CODEGEN--\":2:4   */\n      iszero\n      tag_41\n      jumpi\n        /* \"--CODEGEN--\":30:31   */\n      0x00\n        /* \"--CODEGEN--\":27:28   */\n      dup1\n        /* \"--CODEGEN--\":20:32   */\n      revert\n        /* \"--CODEGEN--\":2:4   */\n    tag_41:\n        /* \"Solidity/Zombies Attack Their Victims/zombiefeeding.sol\":1036:1068  kittyContract.getKitty(_kittyId) */\n      dup2\n      add\n      swap1\n      dup1\n      dup1\n      mload\n      swap1\n      0x20\n      add\n      swap1\n      swap3\n      swap2\n      swap1\n      dup1\n      mload\n      swap1\n      0x20\n      add\n      swap1\n      swap3\n      swap2\n      swap1\n      dup1\n      mload\n      swap1\n      0x20\n      add\n      swap1\n      swap3\n      swap2\n      swap1\n      dup1\n      mload\n      swap1\n      0x20\n      add\n      swap1\n      swap3\n      swap2\n      swap1\n      dup1\n      mload\n      swap1\n      0x20\n      add\n      swap1\n      swap3\n      swap2\n      swap1\n      dup1\n      mload\n      swap1\n      0x20\n      add\n      swap1\n      swap3\n      swap2\n      swap1\n      dup1\n      mload\n      swap1\n      0x20\n      add\n      swap1\n      swap3\n      swap2\n      swap1\n      dup1\n      mload\n      swap1\n      0x20\n      add\n      swap1\n      swap3\n      swap2\n      swap1\n      dup1\n      mload\n      swap1\n      0x20\n      add\n      swap1\n      swap3\n      swap2\n      swap1\n      dup1\n      mload\n      swap1\n      0x20\n      add\n      swap1\n      swap3\n      swap2\n      swap1\n      pop\n      pop\n      pop\n        /* \"Solidity/Zombies Attack Their Victims/zombiefeeding.sol\":1014:1068  (,,,,,,,,,kittyDna) = kittyContract.getKitty(_kittyId) */\n      swap1\n      swap2\n      swap3\n      swap4\n      swap5\n      swap6\n      swap7\n      swap8\n      swap9\n      pop\n      swap1\n      swap2\n      swap3\n      swap4\n      swap5\n      swap6\n      swap7\n      swap8\n      pop\n      swap1\n      swap2\n      swap3\n      swap4\n      swap5\n      swap6\n      swap7\n      pop\n      swap1\n      swap2\n      swap3\n      swap4\n      swap5\n      swap6\n      pop\n      swap1\n      swap2\n      swap3\n      swap4\n      swap5\n      pop\n      swap1\n      swap2\n      swap3\n      swap4\n      pop\n      swap1\n      swap2\n      swap3\n      pop\n      swap1\n      swap2\n      pop\n      swap1\n      pop\n      dup1\n      swap2\n      pop\n      pop\n        /* \"Solidity/Zombies Attack Their Victims/zombiefeeding.sol\":1112:1148  feedAndMultiply(_zombieId, kittyDna) */\n      tag_42\n        /* \"Solidity/Zombies Attack Their Victims/zombiefeeding.sol\":1128:1137  _zombieId */\n      dup4\n        /* \"Solidity/Zombies Attack Their Victims/zombiefeeding.sol\":1139:1147  kittyDna */\n      dup3\n        /* \"Solidity/Zombies Attack Their Victims/zombiefeeding.sol\":1112:1127  feedAndMultiply */\n      tag_10\n        /* \"Solidity/Zombies Attack Their Victims/zombiefeeding.sol\":1112:1148  feedAndMultiply(_zombieId, kittyDna) */\n      jump\t// in\n    tag_42:\n        /* \"Solidity/Zombies Attack Their Victims/zombiefeeding.sol\":930:1153  function feedOnKitty(uint _zombieId, uint _kittyId) public {... */\n      pop\n      pop\n      pop\n      jump\t// out\n        /* \"Solidity/Zombies Attack Their Victims/zombiefactory.sol\":254:277  Zombie[] public zombies */\n    tag_16:\n      0x02\n      dup2\n      dup2\n      sload\n      dup2\n      lt\n      tag_43\n      jumpi\n      invalid\n    tag_43:\n      swap1\n      0x00\n      mstore\n      keccak256(0x00, 0x20)\n      swap1\n      0x02\n      mul\n      add\n      0x00\n      swap2\n      pop\n      swap1\n      pop\n      dup1\n      0x00\n      add\n      dup1\n      sload\n      0x01\n      dup2\n      0x01\n      and\n      iszero\n      0x0100\n      mul\n      sub\n      and\n      0x02\n      swap1\n      div\n      dup1\n      0x1f\n      add\n      0x20\n      dup1\n      swap2\n      div\n      mul\n      0x20\n      add\n      mload(0x40)\n      swap1\n      dup2\n      add\n      0x40\n      mstore\n      dup1\n      swap3\n      swap2\n      swap1\n      dup2\n      dup2\n      mstore\n      0x20\n      add\n      dup3\n      dup1\n      sload\n      0x01\n      dup2\n      0x01\n      and\n      iszero\n      0x0100\n      mul\n      sub\n      and\n      0x02\n      swap1\n      div\n      dup1\n      iszero\n      tag_45\n      jumpi\n      dup1\n      0x1f\n      lt\n      tag_46\n      jumpi\n      0x0100\n      dup1\n      dup4\n      sload\n      div\n      mul\n      dup4\n      mstore\n      swap2\n      0x20\n      add\n      swap2\n      jump(tag_45)\n    tag_46:\n      dup3\n      add\n      swap2\n      swap1\n      0x00\n      mstore\n      keccak256(0x00, 0x20)\n      swap1\n    tag_47:\n      dup2\n      sload\n      dup2\n      mstore\n      swap1\n      0x01\n      add\n      swap1\n      0x20\n      add\n      dup1\n      dup4\n      gt\n      tag_47\n      jumpi\n      dup3\n      swap1\n      sub\n      0x1f\n      and\n      dup3\n      add\n      swap2\n    tag_45:\n      pop\n      pop\n      pop\n      pop\n      pop\n      swap1\n      dup1\n      0x01\n      add\n      sload\n      swap1\n      pop\n      dup3\n      jump\t// out\n        /* \"Solidity/Zombies Attack Their Victims/zombiefactory.sol\":284:330  mapping (uint => address) public zombieToOwner */\n    tag_23:\n      mstore(0x20, 0x03)\n      dup1\n      0x00\n      mstore\n      keccak256(0x00, 0x40)\n      0x00\n      swap2\n      pop\n      sload\n      swap1\n      0x0100\n      exp\n      swap1\n      div\n      0xffffffffffffffffffffffffffffffffffffffff\n      and\n      dup2\n      jump\t// out\n        /* \"Solidity/Zombies Attack Their Victims/zombiefactory.sol\":824:1071  function createRandomZombie(string memory _name) public {... */\n    tag_29:\n        /* \"Solidity/Zombies Attack Their Victims/zombiefactory.sol\":930:931  0 */\n      0x00\n        /* \"Solidity/Zombies Attack Their Victims/zombiefactory.sol\":898:914  ownerZombieCount */\n      0x04\n        /* \"Solidity/Zombies Attack Their Victims/zombiefactory.sol\":898:926  ownerZombieCount[msg.sender] */\n      0x00\n        /* \"Solidity/Zombies Attack Their Victims/zombiefactory.sol\":915:925  msg.sender */\n      caller\n        /* \"Solidity/Zombies Attack Their Victims/zombiefactory.sol\":898:926  ownerZombieCount[msg.sender] */\n      0xffffffffffffffffffffffffffffffffffffffff\n      and\n      0xffffffffffffffffffffffffffffffffffffffff\n      and\n      dup2\n      mstore\n      0x20\n      add\n      swap1\n      dup2\n      mstore\n      0x20\n      add\n      0x00\n      keccak256\n      sload\n        /* \"Solidity/Zombies Attack Their Victims/zombiefactory.sol\":898:931  ownerZombieCount[msg.sender] == 0 */\n      eq\n        /* \"Solidity/Zombies Attack Their Victims/zombiefactory.sol\":890:932  require(ownerZombieCount[msg.sender] == 0) */\n      tag_49\n      jumpi\n      0x00\n      dup1\n      revert\n    tag_49:\n        /* \"Solidity/Zombies Attack Their Victims/zombiefactory.sol\":942:954  uint randDna */\n      0x00\n        /* \"Solidity/Zombies Attack Their Victims/zombiefactory.sol\":957:982  _generateRandomDna(_name) */\n      tag_50\n        /* \"Solidity/Zombies Attack Their Victims/zombiefactory.sol\":976:981  _name */\n      dup3\n        /* \"Solidity/Zombies Attack Their Victims/zombiefactory.sol\":957:975  _generateRandomDna */\n      tag_51\n        /* \"Solidity/Zombies Attack Their Victims/zombiefactory.sol\":957:982  _generateRandomDna(_name) */\n      jump\t// in\n    tag_50:\n        /* \"Solidity/Zombies Attack Their Victims/zombiefactory.sol\":942:982  uint randDna = _generateRandomDna(_name) */\n      swap1\n      pop\n        /* \"Solidity/Zombies Attack Their Victims/zombiefactory.sol\":1022:1025  100 */\n      0x64\n        /* \"Solidity/Zombies Attack Their Victims/zombiefactory.sol\":1012:1019  randDna */\n      dup2\n        /* \"Solidity/Zombies Attack Their Victims/zombiefactory.sol\":1012:1025  randDna % 100 */\n      dup2\n      tag_52\n      jumpi\n      invalid\n    tag_52:\n      mod\n        /* \"Solidity/Zombies Attack Their Victims/zombiefactory.sol\":1002:1009  randDna */\n      dup2\n        /* \"Solidity/Zombies Attack Their Victims/zombiefactory.sol\":1002:1025  randDna - randDna % 100 */\n      sub\n        /* \"Solidity/Zombies Attack Their Victims/zombiefactory.sol\":992:1025  randDna = randDna - randDna % 100 */\n      swap1\n      pop\n        /* \"Solidity/Zombies Attack Their Victims/zombiefactory.sol\":1035:1064  _createZombie(_name, randDna) */\n      tag_53\n        /* \"Solidity/Zombies Attack Their Victims/zombiefactory.sol\":1049:1054  _name */\n      dup3\n        /* \"Solidity/Zombies Attack Their Victims/zombiefactory.sol\":1056:1063  randDna */\n      dup3\n        /* \"Solidity/Zombies Attack Their Victims/zombiefactory.sol\":1035:1048  _createZombie */\n      tag_37\n        /* \"Solidity/Zombies Attack Their Victims/zombiefactory.sol\":1035:1064  _createZombie(_name, randDna) */\n      jump\t// in\n    tag_53:\n        /* \"Solidity/Zombies Attack Their Victims/zombiefactory.sol\":824:1071  function createRandomZombie(string memory _name) public {... */\n      pop\n      pop\n      jump\t// out\n        /* \"Solidity/Zombies Attack Their Victims/zombiefactory.sol\":385:634  function _createZombie(string memory _name, uint _dna) internal {... */\n    tag_37:\n        /* \"Solidity/Zombies Attack Their Victims/zombiefactory.sol\":459:466  uint id */\n      0x00\n        /* \"Solidity/Zombies Attack Their Victims/zombiefactory.sol\":505:506  1 */\n      0x01\n        /* \"Solidity/Zombies Attack Their Victims/zombiefactory.sol\":469:476  zombies */\n      0x02\n        /* \"Solidity/Zombies Attack Their Victims/zombiefactory.sol\":482:501  Zombie(_name, _dna) */\n      mload(0x40)\n      dup1\n      0x40\n      add\n      0x40\n      mstore\n      dup1\n        /* \"Solidity/Zombies Attack Their Victims/zombiefactory.sol\":489:494  _name */\n      dup7\n        /* \"Solidity/Zombies Attack Their Victims/zombiefactory.sol\":482:501  Zombie(_name, _dna) */\n      dup2\n      mstore\n      0x20\n      add\n        /* \"Solidity/Zombies Attack Their Victims/zombiefactory.sol\":496:500  _dna */\n      dup6\n        /* \"Solidity/Zombies Attack Their Victims/zombiefactory.sol\":482:501  Zombie(_name, _dna) */\n      dup2\n      mstore\n      pop\n        /* \"Solidity/Zombies Attack Their Victims/zombiefactory.sol\":469:502  zombies.push(Zombie(_name, _dna)) */\n      swap1\n      dup1\n        /* \"--CODEGEN--\":39:40   */\n      0x01\n        /* \"--CODEGEN--\":33:36   */\n      dup2\n        /* \"--CODEGEN--\":27:37   */\n      sload\n        /* \"--CODEGEN--\":23:41   */\n      add\n        /* \"--CODEGEN--\":57:67   */\n      dup1\n        /* \"--CODEGEN--\":52:55   */\n      dup3\n        /* \"--CODEGEN--\":45:68   */\n      sstore\n        /* \"--CODEGEN--\":79:89   */\n      dup1\n        /* \"--CODEGEN--\":72:89   */\n      swap2\n      pop\n        /* \"--CODEGEN--\":0:93   */\n      pop\n        /* \"Solidity/Zombies Attack Their Victims/zombiefactory.sol\":469:502  zombies.push(Zombie(_name, _dna)) */\n      swap1\n      0x01\n      dup3\n      sub\n      swap1\n      0x00\n      mstore\n      keccak256(0x00, 0x20)\n      swap1\n      0x02\n      mul\n      add\n      0x00\n      swap1\n      swap2\n      swap3\n      swap1\n      swap2\n      swap1\n      swap2\n      pop\n      0x00\n      dup3\n      add\n      mload\n      dup2\n      0x00\n      add\n      swap1\n      dup1\n      mload\n      swap1\n      0x20\n      add\n      swap1\n      tag_56\n      swap3\n      swap2\n      swap1\n      tag_57\n      jump\t// in\n    tag_56:\n      pop\n      0x20\n      dup3\n      add\n      mload\n      dup2\n      0x01\n      add\n      sstore\n      pop\n      pop\n        /* \"Solidity/Zombies Attack Their Victims/zombiefactory.sol\":469:506  zombies.push(Zombie(_name, _dna)) - 1 */\n      sub\n        /* \"Solidity/Zombies Attack Their Victims/zombiefactory.sol\":459:506  uint id = zombies.push(Zombie(_name, _dna)) - 1 */\n      swap1\n      pop\n        /* \"Solidity/Zombies Attack Their Victims/zombiefactory.sol\":536:546  msg.sender */\n      caller\n        /* \"Solidity/Zombies Attack Their Victims/zombiefactory.sol\":516:529  zombieToOwner */\n      0x03\n        /* \"Solidity/Zombies Attack Their Victims/zombiefactory.sol\":516:533  zombieToOwner[id] */\n      0x00\n        /* \"Solidity/Zombies Attack Their Victims/zombiefactory.sol\":530:532  id */\n      dup4\n        /* \"Solidity/Zombies Attack Their Victims/zombiefactory.sol\":516:533  zombieToOwner[id] */\n      dup2\n      mstore\n      0x20\n      add\n      swap1\n      dup2\n      mstore\n      0x20\n      add\n      0x00\n      keccak256\n      0x00\n        /* \"Solidity/Zombies Attack Their Victims/zombiefactory.sol\":516:546  zombieToOwner[id] = msg.sender */\n      0x0100\n      exp\n      dup2\n      sload\n      dup2\n      0xffffffffffffffffffffffffffffffffffffffff\n      mul\n      not\n      and\n      swap1\n      dup4\n      0xffffffffffffffffffffffffffffffffffffffff\n      and\n      mul\n      or\n      swap1\n      sstore\n      pop\n        /* \"Solidity/Zombies Attack Their Victims/zombiefactory.sol\":556:572  ownerZombieCount */\n      0x04\n        /* \"Solidity/Zombies Attack Their Victims/zombiefactory.sol\":556:584  ownerZombieCount[msg.sender] */\n      0x00\n        /* \"Solidity/Zombies Attack Their Victims/zombiefactory.sol\":573:583  msg.sender */\n      caller\n        /* \"Solidity/Zombies Attack Their Victims/zombiefactory.sol\":556:584  ownerZombieCount[msg.sender] */\n      0xffffffffffffffffffffffffffffffffffffffff\n      and\n      0xffffffffffffffffffffffffffffffffffffffff\n      and\n      dup2\n      mstore\n      0x20\n      add\n      swap1\n      dup2\n      mstore\n      0x20\n      add\n      0x00\n      keccak256\n      0x00\n        /* \"Solidity/Zombies Attack Their Victims/zombiefactory.sol\":556:586  ownerZombieCount[msg.sender]++ */\n      dup2\n      sload\n      dup1\n      swap3\n      swap2\n      swap1\n      0x01\n      add\n      swap2\n      swap1\n      pop\n      sstore\n      pop\n        /* \"Solidity/Zombies Attack Their Victims/zombiefactory.sol\":601:627  NewZombie(id, _name, _dna) */\n      0x88f026aacbbecc90c18411df4b1185fd8d9be2470f1962f192bf84a27d0704b7\n        /* \"Solidity/Zombies Attack Their Victims/zombiefactory.sol\":611:613  id */\n      dup2\n        /* \"Solidity/Zombies Attack Their Victims/zombiefactory.sol\":615:620  _name */\n      dup5\n        /* \"Solidity/Zombies Attack Their Victims/zombiefactory.sol\":622:626  _dna */\n      dup5\n        /* \"Solidity/Zombies Attack Their Victims/zombiefactory.sol\":601:627  NewZombie(id, _name, _dna) */\n      mload(0x40)\n      dup1\n      dup5\n      dup2\n      mstore\n      0x20\n      add\n      dup1\n      0x20\n      add\n      dup4\n      dup2\n      mstore\n      0x20\n      add\n      dup3\n      dup2\n      sub\n      dup3\n      mstore\n      dup5\n      dup2\n      dup2\n      mload\n      dup2\n      mstore\n      0x20\n      add\n      swap2\n      pop\n      dup1\n      mload\n      swap1\n      0x20\n      add\n      swap1\n      dup1\n      dup4\n      dup4\n        /* \"--CODEGEN--\":23:24   */\n      0x00\n        /* \"--CODEGEN--\":8:108   */\n    tag_58:\n        /* \"--CODEGEN--\":33:36   */\n      dup4\n        /* \"--CODEGEN--\":30:31   */\n      dup2\n        /* \"--CODEGEN--\":27:37   */\n      lt\n        /* \"--CODEGEN--\":8:108   */\n      iszero\n      tag_60\n      jumpi\n        /* \"--CODEGEN--\":99:100   */\n      dup1\n        /* \"--CODEGEN--\":94:97   */\n      dup3\n        /* \"--CODEGEN--\":90:101   */\n      add\n        /* \"--CODEGEN--\":84:102   */\n      mload\n        /* \"--CODEGEN--\":80:81   */\n      dup2\n        /* \"--CODEGEN--\":75:78   */\n      dup5\n        /* \"--CODEGEN--\":71:82   */\n      add\n        /* \"--CODEGEN--\":64:103   */\n      mstore\n        /* \"--CODEGEN--\":52:54   */\n      0x20\n        /* \"--CODEGEN--\":49:50   */\n      dup2\n        /* \"--CODEGEN--\":45:55   */\n      add\n        /* \"--CODEGEN--\":40:55   */\n      swap1\n      pop\n        /* \"--CODEGEN--\":8:108   */\n      jump(tag_58)\n    tag_60:\n        /* \"--CODEGEN--\":12:26   */\n      pop\n        /* \"Solidity/Zombies Attack Their Victims/zombiefactory.sol\":601:627  NewZombie(id, _name, _dna) */\n      pop\n      pop\n      pop\n      swap1\n      pop\n      swap1\n      dup2\n      add\n      swap1\n      0x1f\n      and\n      dup1\n      iszero\n      tag_61\n      jumpi\n      dup1\n      dup3\n      sub\n      dup1\n      mload\n      0x01\n      dup4\n      0x20\n      sub\n      0x0100\n      exp\n      sub\n      not\n      and\n      dup2\n      mstore\n      0x20\n      add\n      swap2\n      pop\n    tag_61:\n      pop\n      swap5\n      pop\n      pop\n      pop\n      pop\n      pop\n      mload(0x40)\n      dup1\n      swap2\n      sub\n      swap1\n      log1\n        /* \"Solidity/Zombies Attack Their Victims/zombiefactory.sol\":385:634  function _createZombie(string memory _name, uint _dna) internal {... */\n      pop\n      pop\n      pop\n      jump\t// out\n        /* \"Solidity/Zombies Attack Their Victims/zombiefactory.sol\":640:818  function _generateRandomDna(string memory _str) private view returns (uint) {... */\n    tag_51:\n        /* \"Solidity/Zombies Attack Their Victims/zombiefactory.sol\":710:714  uint */\n      0x00\n        /* \"Solidity/Zombies Attack Their Victims/zombiefactory.sol\":726:735  uint rand */\n      dup1\n        /* \"Solidity/Zombies Attack Their Victims/zombiefactory.sol\":770:774  _str */\n      dup3\n        /* \"Solidity/Zombies Attack Their Victims/zombiefactory.sol\":753:775  abi.encodePacked(_str) */\n      add(0x20, mload(0x40))\n      dup1\n      dup3\n      dup1\n      mload\n      swap1\n      0x20\n      add\n      swap1\n      dup1\n      dup4\n      dup4\n        /* \"--CODEGEN--\":36:189   */\n    tag_63:\n        /* \"--CODEGEN--\":66:68   */\n      0x20\n        /* \"--CODEGEN--\":61:64   */\n      dup4\n        /* \"--CODEGEN--\":58:69   */\n      lt\n        /* \"--CODEGEN--\":36:189   */\n      tag_65\n      jumpi\n        /* \"--CODEGEN--\":182:185   */\n      dup1\n        /* \"--CODEGEN--\":176:186   */\n      mload\n        /* \"--CODEGEN--\":171:174   */\n      dup3\n        /* \"--CODEGEN--\":164:187   */\n      mstore\n        /* \"--CODEGEN--\":98:100   */\n      0x20\n        /* \"--CODEGEN--\":93:96   */\n      dup3\n        /* \"--CODEGEN--\":89:101   */\n      add\n        /* \"--CODEGEN--\":82:101   */\n      swap2\n      pop\n        /* \"--CODEGEN--\":123:125   */\n      0x20\n        /* \"--CODEGEN--\":118:121   */\n      dup2\n        /* \"--CODEGEN--\":114:126   */\n      add\n        /* \"--CODEGEN--\":107:126   */\n      swap1\n      pop\n        /* \"--CODEGEN--\":148:150   */\n      0x20\n        /* \"--CODEGEN--\":143:146   */\n      dup4\n        /* \"--CODEGEN--\":139:151   */\n      sub\n        /* \"--CODEGEN--\":132:151   */\n      swap3\n      pop\n        /* \"--CODEGEN--\":36:189   */\n      jump(tag_63)\n    tag_65:\n        /* \"--CODEGEN--\":274:275   */\n      0x01\n        /* \"--CODEGEN--\":267:270   */\n      dup4\n        /* \"--CODEGEN--\":263:265   */\n      0x20\n        /* \"--CODEGEN--\":259:271   */\n      sub\n        /* \"--CODEGEN--\":254:257   */\n      0x0100\n        /* \"--CODEGEN--\":250:272   */\n      exp\n        /* \"--CODEGEN--\":246:276   */\n      sub\n        /* \"--CODEGEN--\":315:319   */\n      dup1\n        /* \"--CODEGEN--\":311:320   */\n      not\n        /* \"--CODEGEN--\":305:308   */\n      dup3\n        /* \"--CODEGEN--\":299:309   */\n      mload\n        /* \"--CODEGEN--\":295:321   */\n      and\n        /* \"--CODEGEN--\":356:360   */\n      dup2\n        /* \"--CODEGEN--\":350:353   */\n      dup5\n        /* \"--CODEGEN--\":344:354   */\n      mload\n        /* \"--CODEGEN--\":340:361   */\n      and\n        /* \"--CODEGEN--\":389:396   */\n      dup1\n        /* \"--CODEGEN--\":380:387   */\n      dup3\n        /* \"--CODEGEN--\":377:397   */\n      or\n        /* \"--CODEGEN--\":372:375   */\n      dup6\n        /* \"--CODEGEN--\":365:398   */\n      mstore\n        /* \"--CODEGEN--\":3:402   */\n      pop\n      pop\n      pop\n        /* \"Solidity/Zombies Attack Their Victims/zombiefactory.sol\":753:775  abi.encodePacked(_str) */\n      pop\n      pop\n      pop\n      swap1\n      pop\n      add\n      swap2\n      pop\n      pop\n      mload(0x40)\n        /* \"--CODEGEN--\":49:53   */\n      0x20\n        /* \"--CODEGEN--\":39:46   */\n      dup2\n        /* \"--CODEGEN--\":30:37   */\n      dup4\n        /* \"--CODEGEN--\":26:47   */\n      sub\n        /* \"--CODEGEN--\":22:54   */\n      sub\n        /* \"--CODEGEN--\":13:20   */\n      dup2\n        /* \"--CODEGEN--\":6:55   */\n      mstore\n        /* \"Solidity/Zombies Attack Their Victims/zombiefactory.sol\":753:775  abi.encodePacked(_str) */\n      swap1\n      0x40\n      mstore\n        /* \"Solidity/Zombies Attack Their Victims/zombiefactory.sol\":743:776  keccak256(abi.encodePacked(_str)) */\n      dup1\n      mload\n      swap1\n      0x20\n      add\n      keccak256\n        /* \"Solidity/Zombies Attack Their Victims/zombiefactory.sol\":738:777  uint(keccak256(abi.encodePacked(_str))) */\n      0x00\n      shr\n        /* \"Solidity/Zombies Attack Their Victims/zombiefactory.sol\":726:777  uint rand = uint(keccak256(abi.encodePacked(_str))) */\n      swap1\n      pop\n        /* \"Solidity/Zombies Attack Their Victims/zombiefactory.sol\":801:811  dnaModulus */\n      sload(0x01)\n        /* \"Solidity/Zombies Attack Their Victims/zombiefactory.sol\":794:798  rand */\n      dup2\n        /* \"Solidity/Zombies Attack Their Victims/zombiefactory.sol\":794:811  rand % dnaModulus */\n      dup2\n      tag_66\n      jumpi\n      invalid\n    tag_66:\n      mod\n        /* \"Solidity/Zombies Attack Their Victims/zombiefactory.sol\":787:811  return rand % dnaModulus */\n      swap2\n      pop\n      pop\n        /* \"Solidity/Zombies Attack Their Victims/zombiefactory.sol\":640:818  function _generateRandomDna(string memory _str) private view returns (uint) {... */\n      swap2\n      swap1\n      pop\n      jump\t// out\n        /* \"Solidity/Zombies Attack Their Victims/zombiefeeding.sol\":381:1156  contract ZombieFeeding is ZombieFactory {... */\n    tag_57:\n      dup3\n      dup1\n      sload\n      0x01\n      dup2\n      0x01\n      and\n      iszero\n      0x0100\n      mul\n      sub\n      and\n      0x02\n      swap1\n      div\n      swap1\n      0x00\n      mstore\n      keccak256(0x00, 0x20)\n      swap1\n      0x1f\n      add\n      0x20\n      swap1\n      div\n      dup2\n      add\n      swap3\n      dup3\n      0x1f\n      lt\n      tag_68\n      jumpi\n      dup1\n      mload\n      not(0xff)\n      and\n      dup4\n      dup1\n      add\n      or\n      dup6\n      sstore\n      jump(tag_67)\n    tag_68:\n      dup3\n      dup1\n      add\n      0x01\n      add\n      dup6\n      sstore\n      dup3\n      iszero\n      tag_67\n      jumpi\n      swap2\n      dup3\n      add\n    tag_69:\n      dup3\n      dup2\n      gt\n      iszero\n      tag_70\n      jumpi\n      dup3\n      mload\n      dup3\n      sstore\n      swap2\n      0x20\n      add\n      swap2\n      swap1\n      0x01\n      add\n      swap1\n      jump(tag_69)\n    tag_70:\n    tag_67:\n      pop\n      swap1\n      pop\n      tag_71\n      swap2\n      swap1\n      tag_72\n      jump\t// in\n    tag_71:\n      pop\n      swap1\n      jump\t// out\n    tag_72:\n      tag_73\n      swap2\n      swap1\n    tag_74:\n      dup1\n      dup3\n      gt\n      iszero\n      tag_75\n      jumpi\n      0x00\n      dup2\n      0x00\n      swap1\n      sstore\n      pop\n      0x01\n      add\n      jump(tag_74)\n    tag_75:\n      pop\n      swap1\n      jump\n    tag_73:\n      swap1\n      jump\t// out\n\n    auxdata: 0xa265627a7a723158208ed5fa5c2c1cb714a23bd2721cf807ceaf952e4a4887e6a849bdffdb96e3ae6c64736f6c63430005110032\n}\n",
				"bytecode": {
					"linkReferences": {},
					"object": "60806040526010600055600054600a0a6001557306012c8cf97bead5deae237070f9587f8e7a266d600560006101000a81548173ffffffffffffffffffffffffffffffffffffffff021916908373ffffffffffffffffffffffffffffffffffffffff160217905550600560009054906101000a900473ffffffffffffffffffffffffffffffffffffffff16600660006101000a81548173ffffffffffffffffffffffffffffffffffffffff021916908373ffffffffffffffffffffffffffffffffffffffff1602179055503480156100d657600080fd5b50610988806100e66000396000f3fe608060405234801561001057600080fd5b50600436106100575760003560e01c80630dedffb81461005c57806317a7f4cc146100945780632052465e146100cc578063528b7b8f1461017a5780637bff0a01146101e8575b600080fd5b6100926004803603604081101561007257600080fd5b8101908080359060200190929190803590602001909291905050506102a3565b005b6100ca600480360360408110156100aa57600080fd5b810190808035906020019092919080359060200190929190505050610395565b005b6100f8600480360360208110156100e257600080fd5b81019080803590602001909291905050506104ea565b6040518080602001838152602001828103825284818151815260200191508051906020019080838360005b8381101561013e578082015181840152602081019050610123565b50505050905090810190601f16801561016b5780820380516001836020036101000a031916815260200191505b50935050505060405180910390f35b6101a66004803603602081101561019057600080fd5b81019080803590602001909291905050506105b3565b604051808273ffffffffffffffffffffffffffffffffffffffff1673ffffffffffffffffffffffffffffffffffffffff16815260200191505060405180910390f35b6102a1600480360360208110156101fe57600080fd5b810190808035906020019064010000000081111561021b57600080fd5b82018360208201111561022d57600080fd5b8035906020019184600183028401116401000000008311171561024f57600080fd5b91908080601f016020809104026020016040519081016040528093929190818152602001838380828437600081840152601f19601f8201169050808301925050505050505091929192905050506105e6565b005b6003600083815260200190815260200160002060009054906101000a900473ffffffffffffffffffffffffffffffffffffffff1673ffffffffffffffffffffffffffffffffffffffff163373ffffffffffffffffffffffffffffffffffffffff161461030e57600080fd5b60006002838154811061031d57fe5b90600052602060002090600202019050600154828161033857fe5b06915060006002838360010154018161034d57fe5b04905061038f6040518060400160405280600681526020017f4e6f4e616d6500000000000000000000000000000000000000000000000000008152508261065c565b50505050565b6000600660009054906101000a900473ffffffffffffffffffffffffffffffffffffffff1673ffffffffffffffffffffffffffffffffffffffff1663e98b7f4d836040518263ffffffff1660e01b8152600401808281526020019150506101406040518083038186803b15801561040b57600080fd5b505afa15801561041f573d6000803e3d6000fd5b505050506040513d61014081101561043657600080fd5b8101908080519060200190929190805190602001909291908051906020019092919080519060200190929190805190602001909291908051906020019092919080519060200190929190805190602001909291908051906020019092919080519060200190929190505050909192939495969798509091929394959697509091929394959650909192939495509091929394509091929350909192509091509050809150506104e583826102a3565b505050565b600281815481106104f757fe5b9060005260206000209060020201600091509050806000018054600181600116156101000203166002900480601f0160208091040260200160405190810160405280929190818152602001828054600181600116156101000203166002900480156105a35780601f10610578576101008083540402835291602001916105a3565b820191906000526020600020905b81548152906001019060200180831161058657829003601f168201915b5050505050908060010154905082565b60036020528060005260406000206000915054906101000a900473ffffffffffffffffffffffffffffffffffffffff1681565b6000600460003373ffffffffffffffffffffffffffffffffffffffff1673ffffffffffffffffffffffffffffffffffffffff168152602001908152602001600020541461063257600080fd5b600061063d82610820565b90506064818161064957fe5b0681039050610658828261065c565b5050565b6000600160026040518060400160405280868152602001858152509080600181540180825580915050906001820390600052602060002090600202016000909192909190915060008201518160000190805190602001906106be9291906108ae565b50602082015181600101555050039050336003600083815260200190815260200160002060006101000a81548173ffffffffffffffffffffffffffffffffffffffff021916908373ffffffffffffffffffffffffffffffffffffffff160217905550600460003373ffffffffffffffffffffffffffffffffffffffff1673ffffffffffffffffffffffffffffffffffffffff168152602001908152602001600020600081548092919060010191905055507f88f026aacbbecc90c18411df4b1185fd8d9be2470f1962f192bf84a27d0704b78184846040518084815260200180602001838152602001828103825284818151815260200191508051906020019080838360005b838110156107df5780820151818401526020810190506107c4565b50505050905090810190601f16801561080c5780820380516001836020036101000a031916815260200191505b5094505050505060405180910390a1505050565b600080826040516020018082805190602001908083835b6020831061085a5780518252602082019150602081019050602083039250610837565b6001836020036101000a0380198251168184511680821785525050505050509050019150506040516020818303038152906040528051906020012060001c905060015481816108a557fe5b06915050919050565b828054600181600116156101000203166002900490600052602060002090601f016020900481019282601f106108ef57805160ff191683800117855561091d565b8280016001018555821561091d579182015b8281111561091c578251825591602001919060010190610901565b5b50905061092a919061092e565b5090565b61095091905b8082111561094c576000816000905550600101610934565b5090565b9056fea265627a7a723158208ed5fa5c2c1cb714a23bd2721cf807ceaf952e4a4887e6a849bdffdb96e3ae6c64736f6c63430005110032",
					"opcodes": "PUSH1 0x80 PUSH1 0x40 MSTORE PUSH1 0x10 PUSH1 0x0 SSTORE PUSH1 0x0 SLOAD PUSH1 0xA EXP PUSH1 0x1 SSTORE PUSH20 0x6012C8CF97BEAD5DEAE237070F9587F8E7A266D PUSH1 0x5 PUSH1 0x0 PUSH2 0x100 EXP DUP2 SLOAD DUP2 PUSH20 0xFFFFFFFFFFFFFFFFFFFFFFFFFFFFFFFFFFFFFFFF MUL NOT AND SWAP1 DUP4 PUSH20 0xFFFFFFFFFFFFFFFFFFFFFFFFFFFFFFFFFFFFFFFF AND MUL OR SWAP1 SSTORE POP PUSH1 0x5 PUSH1 0x0 SWAP1 SLOAD SWAP1 PUSH2 0x100 EXP SWAP1 DIV PUSH20 0xFFFFFFFFFFFFFFFFFFFFFFFFFFFFFFFFFFFFFFFF AND PUSH1 0x6 PUSH1 0x0 PUSH2 0x100 EXP DUP2 SLOAD DUP2 PUSH20 0xFFFFFFFFFFFFFFFFFFFFFFFFFFFFFFFFFFFFFFFF MUL NOT AND SWAP1 DUP4 PUSH20 0xFFFFFFFFFFFFFFFFFFFFFFFFFFFFFFFFFFFFFFFF AND MUL OR SWAP1 SSTORE POP CALLVALUE DUP1 ISZERO PUSH2 0xD6 JUMPI PUSH1 0x0 DUP1 REVERT JUMPDEST POP PUSH2 0x988 DUP1 PUSH2 0xE6 PUSH1 0x0 CODECOPY PUSH1 0x0 RETURN INVALID PUSH1 0x80 PUSH1 0x40 MSTORE CALLVALUE DUP1 ISZERO PUSH2 0x10 JUMPI PUSH1 0x0 DUP1 REVERT JUMPDEST POP PUSH1 0x4 CALLDATASIZE LT PUSH2 0x57 JUMPI PUSH1 0x0 CALLDATALOAD PUSH1 0xE0 SHR DUP1 PUSH4 0xDEDFFB8 EQ PUSH2 0x5C JUMPI DUP1 PUSH4 0x17A7F4CC EQ PUSH2 0x94 JUMPI DUP1 PUSH4 0x2052465E EQ PUSH2 0xCC JUMPI DUP1 PUSH4 0x528B7B8F EQ PUSH2 0x17A JUMPI DUP1 PUSH4 0x7BFF0A01 EQ PUSH2 0x1E8 JUMPI JUMPDEST PUSH1 0x0 DUP1 REVERT JUMPDEST PUSH2 0x92 PUSH1 0x4 DUP1 CALLDATASIZE SUB PUSH1 0x40 DUP2 LT ISZERO PUSH2 0x72 JUMPI PUSH1 0x0 DUP1 REVERT JUMPDEST DUP2 ADD SWAP1 DUP1 DUP1 CALLDATALOAD SWAP1 PUSH1 0x20 ADD SWAP1 SWAP3 SWAP2 SWAP1 DUP1 CALLDATALOAD SWAP1 PUSH1 0x20 ADD SWAP1 SWAP3 SWAP2 SWAP1 POP POP POP PUSH2 0x2A3 JUMP JUMPDEST STOP JUMPDEST PUSH2 0xCA PUSH1 0x4 DUP1 CALLDATASIZE SUB PUSH1 0x40 DUP2 LT ISZERO PUSH2 0xAA JUMPI PUSH1 0x0 DUP1 REVERT JUMPDEST DUP2 ADD SWAP1 DUP1 DUP1 CALLDATALOAD SWAP1 PUSH1 0x20 ADD SWAP1 SWAP3 SWAP2 SWAP1 DUP1 CALLDATALOAD SWAP1 PUSH1 0x20 ADD SWAP1 SWAP3 SWAP2 SWAP1 POP POP POP PUSH2 0x395 JUMP JUMPDEST STOP JUMPDEST PUSH2 0xF8 PUSH1 0x4 DUP1 CALLDATASIZE SUB PUSH1 0x20 DUP2 LT ISZERO PUSH2 0xE2 JUMPI PUSH1 0x0 DUP1 REVERT JUMPDEST DUP2 ADD SWAP1 DUP1 DUP1 CALLDATALOAD SWAP1 PUSH1 0x20 ADD SWAP1 SWAP3 SWAP2 SWAP1 POP POP POP PUSH2 0x4EA JUMP JUMPDEST PUSH1 0x40 MLOAD DUP1 DUP1 PUSH1 0x20 ADD DUP4 DUP2 MSTORE PUSH1 0x20 ADD DUP3 DUP2 SUB DUP3 MSTORE DUP5 DUP2 DUP2 MLOAD DUP2 MSTORE PUSH1 0x20 ADD SWAP2 POP DUP1 MLOAD SWAP1 PUSH1 0x20 ADD SWAP1 DUP1 DUP4 DUP4 PUSH1 0x0 JUMPDEST DUP4 DUP2 LT ISZERO PUSH2 0x13E JUMPI DUP1 DUP3 ADD MLOAD DUP2 DUP5 ADD MSTORE PUSH1 0x20 DUP2 ADD SWAP1 POP PUSH2 0x123 JUMP JUMPDEST POP POP POP POP SWAP1 POP SWAP1 DUP2 ADD SWAP1 PUSH1 0x1F AND DUP1 ISZERO PUSH2 0x16B JUMPI DUP1 DUP3 SUB DUP1 MLOAD PUSH1 0x1 DUP4 PUSH1 0x20 SUB PUSH2 0x100 EXP SUB NOT AND DUP2 MSTORE PUSH1 0x20 ADD SWAP2 POP JUMPDEST POP SWAP4 POP POP POP POP PUSH1 0x40 MLOAD DUP1 SWAP2 SUB SWAP1 RETURN JUMPDEST PUSH2 0x1A6 PUSH1 0x4 DUP1 CALLDATASIZE SUB PUSH1 0x20 DUP2 LT ISZERO PUSH2 0x190 JUMPI PUSH1 0x0 DUP1 REVERT JUMPDEST DUP2 ADD SWAP1 DUP1 DUP1 CALLDATALOAD SWAP1 PUSH1 0x20 ADD SWAP1 SWAP3 SWAP2 SWAP1 POP POP POP PUSH2 0x5B3 JUMP JUMPDEST PUSH1 0x40 MLOAD DUP1 DUP3 PUSH20 0xFFFFFFFFFFFFFFFFFFFFFFFFFFFFFFFFFFFFFFFF AND PUSH20 0xFFFFFFFFFFFFFFFFFFFFFFFFFFFFFFFFFFFFFFFF AND DUP2 MSTORE PUSH1 0x20 ADD SWAP2 POP POP PUSH1 0x40 MLOAD DUP1 SWAP2 SUB SWAP1 RETURN JUMPDEST PUSH2 0x2A1 PUSH1 0x4 DUP1 CALLDATASIZE SUB PUSH1 0x20 DUP2 LT ISZERO PUSH2 0x1FE JUMPI PUSH1 0x0 DUP1 REVERT JUMPDEST DUP2 ADD SWAP1 DUP1 DUP1 CALLDATALOAD SWAP1 PUSH1 0x20 ADD SWAP1 PUSH5 0x100000000 DUP2 GT ISZERO PUSH2 0x21B JUMPI PUSH1 0x0 DUP1 REVERT JUMPDEST DUP3 ADD DUP4 PUSH1 0x20 DUP3 ADD GT ISZERO PUSH2 0x22D JUMPI PUSH1 0x0 DUP1 REVERT JUMPDEST DUP1 CALLDATALOAD SWAP1 PUSH1 0x20 ADD SWAP2 DUP5 PUSH1 0x1 DUP4 MUL DUP5 ADD GT PUSH5 0x100000000 DUP4 GT OR ISZERO PUSH2 0x24F JUMPI PUSH1 0x0 DUP1 REVERT JUMPDEST SWAP2 SWAP1 DUP1 DUP1 PUSH1 0x1F ADD PUSH1 0x20 DUP1 SWAP2 DIV MUL PUSH1 0x20 ADD PUSH1 0x40 MLOAD SWAP1 DUP2 ADD PUSH1 0x40 MSTORE DUP1 SWAP4 SWAP3 SWAP2 SWAP1 DUP2 DUP2 MSTORE PUSH1 0x20 ADD DUP4 DUP4 DUP1 DUP3 DUP5 CALLDATACOPY PUSH1 0x0 DUP2 DUP5 ADD MSTORE PUSH1 0x1F NOT PUSH1 0x1F DUP3 ADD AND SWAP1 POP DUP1 DUP4 ADD SWAP3 POP POP POP POP POP POP POP SWAP2 SWAP3 SWAP2 SWAP3 SWAP1 POP POP POP PUSH2 0x5E6 JUMP JUMPDEST STOP JUMPDEST PUSH1 0x3 PUSH1 0x0 DUP4 DUP2 MSTORE PUSH1 0x20 ADD SWAP1 DUP2 MSTORE PUSH1 0x20 ADD PUSH1 0x0 KECCAK256 PUSH1 0x0 SWAP1 SLOAD SWAP1 PUSH2 0x100 EXP SWAP1 DIV PUSH20 0xFFFFFFFFFFFFFFFFFFFFFFFFFFFFFFFFFFFFFFFF AND PUSH20 0xFFFFFFFFFFFFFFFFFFFFFFFFFFFFFFFFFFFFFFFF AND CALLER PUSH20 0xFFFFFFFFFFFFFFFFFFFFFFFFFFFFFFFFFFFFFFFF AND EQ PUSH2 0x30E JUMPI PUSH1 0x0 DUP1 REVERT JUMPDEST PUSH1 0x0 PUSH1 0x2 DUP4 DUP2 SLOAD DUP2 LT PUSH2 0x31D JUMPI INVALID JUMPDEST SWAP1 PUSH1 0x0 MSTORE PUSH1 0x20 PUSH1 0x0 KECCAK256 SWAP1 PUSH1 0x2 MUL ADD SWAP1 POP PUSH1 0x1 SLOAD DUP3 DUP2 PUSH2 0x338 JUMPI INVALID JUMPDEST MOD SWAP2 POP PUSH1 0x0 PUSH1 0x2 DUP4 DUP4 PUSH1 0x1 ADD SLOAD ADD DUP2 PUSH2 0x34D JUMPI INVALID JUMPDEST DIV SWAP1 POP PUSH2 0x38F PUSH1 0x40 MLOAD DUP1 PUSH1 0x40 ADD PUSH1 0x40 MSTORE DUP1 PUSH1 0x6 DUP2 MSTORE PUSH1 0x20 ADD PUSH32 0x4E6F4E616D650000000000000000000000000000000000000000000000000000 DUP2 MSTORE POP DUP3 PUSH2 0x65C JUMP JUMPDEST POP POP POP POP JUMP JUMPDEST PUSH1 0x0 PUSH1 0x6 PUSH1 0x0 SWAP1 SLOAD SWAP1 PUSH2 0x100 EXP SWAP1 DIV PUSH20 0xFFFFFFFFFFFFFFFFFFFFFFFFFFFFFFFFFFFFFFFF AND PUSH20 0xFFFFFFFFFFFFFFFFFFFFFFFFFFFFFFFFFFFFFFFF AND PUSH4 0xE98B7F4D DUP4 PUSH1 0x40 MLOAD DUP3 PUSH4 0xFFFFFFFF AND PUSH1 0xE0 SHL DUP2 MSTORE PUSH1 0x4 ADD DUP1 DUP3 DUP2 MSTORE PUSH1 0x20 ADD SWAP2 POP POP PUSH2 0x140 PUSH1 0x40 MLOAD DUP1 DUP4 SUB DUP2 DUP7 DUP1 EXTCODESIZE ISZERO DUP1 ISZERO PUSH2 0x40B JUMPI PUSH1 0x0 DUP1 REVERT JUMPDEST POP GAS STATICCALL ISZERO DUP1 ISZERO PUSH2 0x41F JUMPI RETURNDATASIZE PUSH1 0x0 DUP1 RETURNDATACOPY RETURNDATASIZE PUSH1 0x0 REVERT JUMPDEST POP POP POP POP PUSH1 0x40 MLOAD RETURNDATASIZE PUSH2 0x140 DUP2 LT ISZERO PUSH2 0x436 JUMPI PUSH1 0x0 DUP1 REVERT JUMPDEST DUP2 ADD SWAP1 DUP1 DUP1 MLOAD SWAP1 PUSH1 0x20 ADD SWAP1 SWAP3 SWAP2 SWAP1 DUP1 MLOAD SWAP1 PUSH1 0x20 ADD SWAP1 SWAP3 SWAP2 SWAP1 DUP1 MLOAD SWAP1 PUSH1 0x20 ADD SWAP1 SWAP3 SWAP2 SWAP1 DUP1 MLOAD SWAP1 PUSH1 0x20 ADD SWAP1 SWAP3 SWAP2 SWAP1 DUP1 MLOAD SWAP1 PUSH1 0x20 ADD SWAP1 SWAP3 SWAP2 SWAP1 DUP1 MLOAD SWAP1 PUSH1 0x20 ADD SWAP1 SWAP3 SWAP2 SWAP1 DUP1 MLOAD SWAP1 PUSH1 0x20 ADD SWAP1 SWAP3 SWAP2 SWAP1 DUP1 MLOAD SWAP1 PUSH1 0x20 ADD SWAP1 SWAP3 SWAP2 SWAP1 DUP1 MLOAD SWAP1 PUSH1 0x20 ADD SWAP1 SWAP3 SWAP2 SWAP1 DUP1 MLOAD SWAP1 PUSH1 0x20 ADD SWAP1 SWAP3 SWAP2 SWAP1 POP POP POP SWAP1 SWAP2 SWAP3 SWAP4 SWAP5 SWAP6 SWAP7 SWAP8 SWAP9 POP SWAP1 SWAP2 SWAP3 SWAP4 SWAP5 SWAP6 SWAP7 SWAP8 POP SWAP1 SWAP2 SWAP3 SWAP4 SWAP5 SWAP6 SWAP7 POP SWAP1 SWAP2 SWAP3 SWAP4 SWAP5 SWAP6 POP SWAP1 SWAP2 SWAP3 SWAP4 SWAP5 POP SWAP1 SWAP2 SWAP3 SWAP4 POP SWAP1 SWAP2 SWAP3 POP SWAP1 SWAP2 POP SWAP1 POP DUP1 SWAP2 POP POP PUSH2 0x4E5 DUP4 DUP3 PUSH2 0x2A3 JUMP JUMPDEST POP POP POP JUMP JUMPDEST PUSH1 0x2 DUP2 DUP2 SLOAD DUP2 LT PUSH2 0x4F7 JUMPI INVALID JUMPDEST SWAP1 PUSH1 0x0 MSTORE PUSH1 0x20 PUSH1 0x0 KECCAK256 SWAP1 PUSH1 0x2 MUL ADD PUSH1 0x0 SWAP2 POP SWAP1 POP DUP1 PUSH1 0x0 ADD DUP1 SLOAD PUSH1 0x1 DUP2 PUSH1 0x1 AND ISZERO PUSH2 0x100 MUL SUB AND PUSH1 0x2 SWAP1 DIV DUP1 PUSH1 0x1F ADD PUSH1 0x20 DUP1 SWAP2 DIV MUL PUSH1 0x20 ADD PUSH1 0x40 MLOAD SWAP1 DUP2 ADD PUSH1 0x40 MSTORE DUP1 SWAP3 SWAP2 SWAP1 DUP2 DUP2 MSTORE PUSH1 0x20 ADD DUP3 DUP1 SLOAD PUSH1 0x1 DUP2 PUSH1 0x1 AND ISZERO PUSH2 0x100 MUL SUB AND PUSH1 0x2 SWAP1 DIV DUP1 ISZERO PUSH2 0x5A3 JUMPI DUP1 PUSH1 0x1F LT PUSH2 0x578 JUMPI PUSH2 0x100 DUP1 DUP4 SLOAD DIV MUL DUP4 MSTORE SWAP2 PUSH1 0x20 ADD SWAP2 PUSH2 0x5A3 JUMP JUMPDEST DUP3 ADD SWAP2 SWAP1 PUSH1 0x0 MSTORE PUSH1 0x20 PUSH1 0x0 KECCAK256 SWAP1 JUMPDEST DUP2 SLOAD DUP2 MSTORE SWAP1 PUSH1 0x1 ADD SWAP1 PUSH1 0x20 ADD DUP1 DUP4 GT PUSH2 0x586 JUMPI DUP3 SWAP1 SUB PUSH1 0x1F AND DUP3 ADD SWAP2 JUMPDEST POP POP POP POP POP SWAP1 DUP1 PUSH1 0x1 ADD SLOAD SWAP1 POP DUP3 JUMP JUMPDEST PUSH1 0x3 PUSH1 0x20 MSTORE DUP1 PUSH1 0x0 MSTORE PUSH1 0x40 PUSH1 0x0 KECCAK256 PUSH1 0x0 SWAP2 POP SLOAD SWAP1 PUSH2 0x100 EXP SWAP1 DIV PUSH20 0xFFFFFFFFFFFFFFFFFFFFFFFFFFFFFFFFFFFFFFFF AND DUP2 JUMP JUMPDEST PUSH1 0x0 PUSH1 0x4 PUSH1 0x0 CALLER PUSH20 0xFFFFFFFFFFFFFFFFFFFFFFFFFFFFFFFFFFFFFFFF AND PUSH20 0xFFFFFFFFFFFFFFFFFFFFFFFFFFFFFFFFFFFFFFFF AND DUP2 MSTORE PUSH1 0x20 ADD SWAP1 DUP2 MSTORE PUSH1 0x20 ADD PUSH1 0x0 KECCAK256 SLOAD EQ PUSH2 0x632 JUMPI PUSH1 0x0 DUP1 REVERT JUMPDEST PUSH1 0x0 PUSH2 0x63D DUP3 PUSH2 0x820 JUMP JUMPDEST SWAP1 POP PUSH1 0x64 DUP2 DUP2 PUSH2 0x649 JUMPI INVALID JUMPDEST MOD DUP2 SUB SWAP1 POP PUSH2 0x658 DUP3 DUP3 PUSH2 0x65C JUMP JUMPDEST POP POP JUMP JUMPDEST PUSH1 0x0 PUSH1 0x1 PUSH1 0x2 PUSH1 0x40 MLOAD DUP1 PUSH1 0x40 ADD PUSH1 0x40 MSTORE DUP1 DUP7 DUP2 MSTORE PUSH1 0x20 ADD DUP6 DUP2 MSTORE POP SWAP1 DUP1 PUSH1 0x1 DUP2 SLOAD ADD DUP1 DUP3 SSTORE DUP1 SWAP2 POP POP SWAP1 PUSH1 0x1 DUP3 SUB SWAP1 PUSH1 0x0 MSTORE PUSH1 0x20 PUSH1 0x0 KECCAK256 SWAP1 PUSH1 0x2 MUL ADD PUSH1 0x0 SWAP1 SWAP2 SWAP3 SWAP1 SWAP2 SWAP1 SWAP2 POP PUSH1 0x0 DUP3 ADD MLOAD DUP2 PUSH1 0x0 ADD SWAP1 DUP1 MLOAD SWAP1 PUSH1 0x20 ADD SWAP1 PUSH2 0x6BE SWAP3 SWAP2 SWAP1 PUSH2 0x8AE JUMP JUMPDEST POP PUSH1 0x20 DUP3 ADD MLOAD DUP2 PUSH1 0x1 ADD SSTORE POP POP SUB SWAP1 POP CALLER PUSH1 0x3 PUSH1 0x0 DUP4 DUP2 MSTORE PUSH1 0x20 ADD SWAP1 DUP2 MSTORE PUSH1 0x20 ADD PUSH1 0x0 KECCAK256 PUSH1 0x0 PUSH2 0x100 EXP DUP2 SLOAD DUP2 PUSH20 0xFFFFFFFFFFFFFFFFFFFFFFFFFFFFFFFFFFFFFFFF MUL NOT AND SWAP1 DUP4 PUSH20 0xFFFFFFFFFFFFFFFFFFFFFFFFFFFFFFFFFFFFFFFF AND MUL OR SWAP1 SSTORE POP PUSH1 0x4 PUSH1 0x0 CALLER PUSH20 0xFFFFFFFFFFFFFFFFFFFFFFFFFFFFFFFFFFFFFFFF AND PUSH20 0xFFFFFFFFFFFFFFFFFFFFFFFFFFFFFFFFFFFFFFFF AND DUP2 MSTORE PUSH1 0x20 ADD SWAP1 DUP2 MSTORE PUSH1 0x20 ADD PUSH1 0x0 KECCAK256 PUSH1 0x0 DUP2 SLOAD DUP1 SWAP3 SWAP2 SWAP1 PUSH1 0x1 ADD SWAP2 SWAP1 POP SSTORE POP PUSH32 0x88F026AACBBECC90C18411DF4B1185FD8D9BE2470F1962F192BF84A27D0704B7 DUP2 DUP5 DUP5 PUSH1 0x40 MLOAD DUP1 DUP5 DUP2 MSTORE PUSH1 0x20 ADD DUP1 PUSH1 0x20 ADD DUP4 DUP2 MSTORE PUSH1 0x20 ADD DUP3 DUP2 SUB DUP3 MSTORE DUP5 DUP2 DUP2 MLOAD DUP2 MSTORE PUSH1 0x20 ADD SWAP2 POP DUP1 MLOAD SWAP1 PUSH1 0x20 ADD SWAP1 DUP1 DUP4 DUP4 PUSH1 0x0 JUMPDEST DUP4 DUP2 LT ISZERO PUSH2 0x7DF JUMPI DUP1 DUP3 ADD MLOAD DUP2 DUP5 ADD MSTORE PUSH1 0x20 DUP2 ADD SWAP1 POP PUSH2 0x7C4 JUMP JUMPDEST POP POP POP POP SWAP1 POP SWAP1 DUP2 ADD SWAP1 PUSH1 0x1F AND DUP1 ISZERO PUSH2 0x80C JUMPI DUP1 DUP3 SUB DUP1 MLOAD PUSH1 0x1 DUP4 PUSH1 0x20 SUB PUSH2 0x100 EXP SUB NOT AND DUP2 MSTORE PUSH1 0x20 ADD SWAP2 POP JUMPDEST POP SWAP5 POP POP POP POP POP PUSH1 0x40 MLOAD DUP1 SWAP2 SUB SWAP1 LOG1 POP POP POP JUMP JUMPDEST PUSH1 0x0 DUP1 DUP3 PUSH1 0x40 MLOAD PUSH1 0x20 ADD DUP1 DUP3 DUP1 MLOAD SWAP1 PUSH1 0x20 ADD SWAP1 DUP1 DUP4 DUP4 JUMPDEST PUSH1 0x20 DUP4 LT PUSH2 0x85A JUMPI DUP1 MLOAD DUP3 MSTORE PUSH1 0x20 DUP3 ADD SWAP2 POP PUSH1 0x20 DUP2 ADD SWAP1 POP PUSH1 0x20 DUP4 SUB SWAP3 POP PUSH2 0x837 JUMP JUMPDEST PUSH1 0x1 DUP4 PUSH1 0x20 SUB PUSH2 0x100 EXP SUB DUP1 NOT DUP3 MLOAD AND DUP2 DUP5 MLOAD AND DUP1 DUP3 OR DUP6 MSTORE POP POP POP POP POP POP SWAP1 POP ADD SWAP2 POP POP PUSH1 0x40 MLOAD PUSH1 0x20 DUP2 DUP4 SUB SUB DUP2 MSTORE SWAP1 PUSH1 0x40 MSTORE DUP1 MLOAD SWAP1 PUSH1 0x20 ADD KECCAK256 PUSH1 0x0 SHR SWAP1 POP PUSH1 0x1 SLOAD DUP2 DUP2 PUSH2 0x8A5 JUMPI INVALID JUMPDEST MOD SWAP2 POP POP SWAP2 SWAP1 POP JUMP JUMPDEST DUP3 DUP1 SLOAD PUSH1 0x1 DUP2 PUSH1 0x1 AND ISZERO PUSH2 0x100 MUL SUB AND PUSH1 0x2 SWAP1 DIV SWAP1 PUSH1 0x0 MSTORE PUSH1 0x20 PUSH1 0x0 KECCAK256 SWAP1 PUSH1 0x1F ADD PUSH1 0x20 SWAP1 DIV DUP2 ADD SWAP3 DUP3 PUSH1 0x1F LT PUSH2 0x8EF JUMPI DUP1 MLOAD PUSH1 0xFF NOT AND DUP4 DUP1 ADD OR DUP6 SSTORE PUSH2 0x91D JUMP JUMPDEST DUP3 DUP1 ADD PUSH1 0x1 ADD DUP6 SSTORE DUP3 ISZERO PUSH2 0x91D JUMPI SWAP2 DUP3 ADD JUMPDEST DUP3 DUP2 GT ISZERO PUSH2 0x91C JUMPI DUP3 MLOAD DUP3 SSTORE SWAP2 PUSH1 0x20 ADD SWAP2 SWAP1 PUSH1 0x1 ADD SWAP1 PUSH2 0x901 JUMP JUMPDEST JUMPDEST POP SWAP1 POP PUSH2 0x92A SWAP2 SWAP1 PUSH2 0x92E JUMP JUMPDEST POP SWAP1 JUMP JUMPDEST PUSH2 0x950 SWAP2 SWAP1 JUMPDEST DUP1 DUP3 GT ISZERO PUSH2 0x94C JUMPI PUSH1 0x0 DUP2 PUSH1 0x0 SWAP1 SSTORE POP PUSH1 0x1 ADD PUSH2 0x934 JUMP JUMPDEST POP SWAP1 JUMP JUMPDEST SWAP1 JUMP INVALID LOG2 PUSH6 0x627A7A723158 KECCAK256 DUP15 0xD5 STATICCALL 0x5C 0x2C SHR 0xB7 EQ LOG2 EXTCODESIZE 0xD2 PUSH19 0x1CF807CEAF952E4A4887E6A849BDFFDB96E3AE PUSH13 0x64736F6C634300051100320000 "
				},
				"gasEstimates": {
					"creation": {
						"codeDepositCost": "488000",
						"executionCost": "83969",
						"totalCost": "571969"
					},
					"external": {
						"createRandomZombie(string)": "infinite",
						"feedAndMultiply(uint256,uint256)": "infinite",
						"feedOnKitty(uint256,uint256)": "infinite",
						"zombieToOwner(uint256)": "1244",
						"zombies(uint256)": "infinite"
					}
				},
				"methodIdentifiers": {
					"createRandomZombie(string)": "7bff0a01",
					"feedAndMultiply(uint256,uint256)": "0dedffb8",
					"feedOnKitty(uint256,uint256)": "17a7f4cc",
					"zombieToOwner(uint256)": "528b7b8f",
					"zombies(uint256)": "2052465e"
				}
			},
			"storageLayout": {
				"storage": [
					{
						"astId": 12,
						"contract": "Solidity/Zombies Attack Their Victims/zombiefeeding.sol:ZombieFeeding",
						"label": "dnaDigits",
						"offset": 0,
						"slot": "0",
						"type": "t_uint256"
					},
					{
						"astId": 17,
						"contract": "Solidity/Zombies Attack Their Victims/zombiefeeding.sol:ZombieFeeding",
						"label": "dnaModulus",
						"offset": 0,
						"slot": "1",
						"type": "t_uint256"
					},
					{
						"astId": 25,
						"contract": "Solidity/Zombies Attack Their Victims/zombiefeeding.sol:ZombieFeeding",
						"label": "zombies",
						"offset": 0,
						"slot": "2",
						"type": "t_array(t_struct(Zombie)22_storage)dyn_storage"
					},
					{
						"astId": 29,
						"contract": "Solidity/Zombies Attack Their Victims/zombiefeeding.sol:ZombieFeeding",
						"label": "zombieToOwner",
						"offset": 0,
						"slot": "3",
						"type": "t_mapping(t_uint256,t_address)"
					},
					{
						"astId": 33,
						"contract": "Solidity/Zombies Attack Their Victims/zombiefeeding.sol:ZombieFeeding",
						"label": "ownerZombieCount",
						"offset": 0,
						"slot": "4",
						"type": "t_mapping(t_address,t_uint256)"
					},
					{
						"astId": 164,
						"contract": "Solidity/Zombies Attack Their Victims/zombiefeeding.sol:ZombieFeeding",
						"label": "ckAddress",
						"offset": 0,
						"slot": "5",
						"type": "t_address"
					},
					{
						"astId": 169,
						"contract": "Solidity/Zombies Attack Their Victims/zombiefeeding.sol:ZombieFeeding",
						"label": "kittyContract",
						"offset": 0,
						"slot": "6",
						"type": "t_contract(KittyInterface)159"
					}
				],
				"types": {
					"t_address": {
						"encoding": "inplace",
						"label": "address",
						"numberOfBytes": "20"
					},
					"t_array(t_struct(Zombie)22_storage)dyn_storage": {
						"base": "t_struct(Zombie)22_storage",
						"encoding": "dynamic_array",
						"label": "struct ZombieFactory.Zombie[]",
						"numberOfBytes": "32"
					},
					"t_contract(KittyInterface)159": {
						"encoding": "inplace",
						"label": "contract KittyInterface",
						"numberOfBytes": "20"
					},
					"t_mapping(t_address,t_uint256)": {
						"encoding": "mapping",
						"key": "t_address",
						"label": "mapping(address => uint256)",
						"numberOfBytes": "32",
						"value": "t_uint256"
					},
					"t_mapping(t_uint256,t_address)": {
						"encoding": "mapping",
						"key": "t_uint256",
						"label": "mapping(uint256 => address)",
						"numberOfBytes": "32",
						"value": "t_address"
					},
					"t_string_storage": {
						"encoding": "bytes",
						"label": "string",
						"numberOfBytes": "32"
					},
					"t_struct(Zombie)22_storage": {
						"encoding": "inplace",
						"label": "struct ZombieFactory.Zombie",
						"members": [
							{
								"astId": 19,
								"contract": "Solidity/Zombies Attack Their Victims/zombiefeeding.sol:ZombieFeeding",
								"label": "name",
								"offset": 0,
								"slot": "0",
								"type": "t_string_storage"
							},
							{
								"astId": 21,
								"contract": "Solidity/Zombies Attack Their Victims/zombiefeeding.sol:ZombieFeeding",
								"label": "dna",
								"offset": 0,
								"slot": "1",
								"type": "t_uint256"
							}
						],
						"numberOfBytes": "64"
					},
					"t_uint256": {
						"encoding": "inplace",
						"label": "uint256",
						"numberOfBytes": "32"
					}
				}
			},
			"userdoc": {
				"methods": {}
			}
		}
	}
}