{
	"Solidity/Advanced Solidity Concepts/zombiefeeding.sol": {
		"ZombieFeeding": {
			"abi": [
				{
					"anonymous": false,
					"inputs": [
						{
							"indexed": false,
							"internalType": "uint256",
							"name": "zombieId",
							"type": "uint256"
						},
						{
							"indexed": false,
							"internalType": "string",
							"name": "name",
							"type": "string"
						},
						{
							"indexed": false,
							"internalType": "uint256",
							"name": "dna",
							"type": "uint256"
						}
					],
					"name": "NewZombie",
					"type": "event"
				},
				{
					"anonymous": false,
					"inputs": [
						{
							"indexed": true,
							"internalType": "address",
							"name": "previousOwner",
							"type": "address"
						},
						{
							"indexed": true,
							"internalType": "address",
							"name": "newOwner",
							"type": "address"
						}
					],
					"name": "OwnershipTransferred",
					"type": "event"
				},
				{
					"constant": false,
					"inputs": [
						{
							"internalType": "string",
							"name": "_name",
							"type": "string"
						}
					],
					"name": "createRandomZombie",
					"outputs": [],
					"payable": false,
					"stateMutability": "nonpayable",
					"type": "function"
				},
				{
					"constant": false,
					"inputs": [
						{
							"internalType": "uint256",
							"name": "_zombieId",
							"type": "uint256"
						},
						{
							"internalType": "uint256",
							"name": "_targetDna",
							"type": "uint256"
						},
						{
							"internalType": "string",
							"name": "_species",
							"type": "string"
						}
					],
					"name": "feedAndMultiply",
					"outputs": [],
					"payable": false,
					"stateMutability": "nonpayable",
					"type": "function"
				},
				{
					"constant": false,
					"inputs": [
						{
							"internalType": "uint256",
							"name": "_zombieId",
							"type": "uint256"
						},
						{
							"internalType": "uint256",
							"name": "_kittyId",
							"type": "uint256"
						}
					],
					"name": "feedOnKitty",
					"outputs": [],
					"payable": false,
					"stateMutability": "nonpayable",
					"type": "function"
				},
				{
					"constant": true,
					"inputs": [],
					"name": "isOwner",
					"outputs": [
						{
							"internalType": "bool",
							"name": "",
							"type": "bool"
						}
					],
					"payable": false,
					"stateMutability": "view",
					"type": "function"
				},
				{
					"constant": true,
					"inputs": [],
					"name": "owner",
					"outputs": [
						{
							"internalType": "address",
							"name": "",
							"type": "address"
						}
					],
					"payable": false,
					"stateMutability": "view",
					"type": "function"
				},
				{
					"constant": false,
					"inputs": [],
					"name": "renounceOwnership",
					"outputs": [],
					"payable": false,
					"stateMutability": "nonpayable",
					"type": "function"
				},
				{
					"constant": false,
					"inputs": [
						{
							"internalType": "address",
							"name": "_address",
							"type": "address"
						}
					],
					"name": "setKittyContractAddress",
					"outputs": [],
					"payable": false,
					"stateMutability": "nonpayable",
					"type": "function"
				},
				{
					"constant": false,
					"inputs": [
						{
							"internalType": "address",
							"name": "newOwner",
							"type": "address"
						}
					],
					"name": "transferOwnership",
					"outputs": [],
					"payable": false,
					"stateMutability": "nonpayable",
					"type": "function"
				},
				{
					"constant": true,
					"inputs": [
						{
							"internalType": "uint256",
							"name": "",
							"type": "uint256"
						}
					],
					"name": "zombieToOwner",
					"outputs": [
						{
							"internalType": "address",
							"name": "",
							"type": "address"
						}
					],
					"payable": false,
					"stateMutability": "view",
					"type": "function"
				},
				{
					"constant": true,
					"inputs": [
						{
							"internalType": "uint256",
							"name": "",
							"type": "uint256"
						}
					],
					"name": "zombies",
					"outputs": [
						{
							"internalType": "string",
							"name": "name",
							"type": "string"
						},
						{
							"internalType": "uint256",
							"name": "dna",
							"type": "uint256"
						},
						{
							"internalType": "uint32",
							"name": "level",
							"type": "uint32"
						},
						{
							"internalType": "uint32",
							"name": "readyTime",
							"type": "uint32"
						}
					],
					"payable": false,
					"stateMutability": "view",
					"type": "function"
				}
			],
			"devdoc": {
				"methods": {
					"isOwner()": {
						"return": "true if `msg.sender` is the owner of the contract."
					},
					"owner()": {
						"return": "the address of the owner."
					},
					"renounceOwnership()": {
						"details": "Allows the current owner to relinquish control of the contract."
					},
					"transferOwnership(address)": {
						"details": "Allows the current owner to transfer control of the contract to a newOwner.",
						"params": {
							"newOwner": "The address to transfer ownership to."
						}
					}
				}
			},
			"evm": {
				"assembly": "    /* \"Solidity/Advanced Solidity Concepts/zombiefeeding.sol\":381:1402  contract ZombieFeeding is ZombieFactory {... */\n  mstore(0x40, 0x80)\n    /* \"Solidity/Advanced Solidity Concepts/zombiefactory.sol\":176:178  16 */\n  0x10\n    /* \"Solidity/Advanced Solidity Concepts/zombiefactory.sol\":159:178  uint dnaDigits = 16 */\n  0x01\n  sstore\n    /* \"Solidity/Advanced Solidity Concepts/zombiefactory.sol\":208:217  dnaDigits */\n  sload(0x01)\n    /* \"Solidity/Advanced Solidity Concepts/zombiefactory.sol\":202:204  10 */\n  0x0a\n    /* \"Solidity/Advanced Solidity Concepts/zombiefactory.sol\":202:217  10 ** dnaDigits */\n  exp\n    /* \"Solidity/Advanced Solidity Concepts/zombiefactory.sol\":184:217  uint dnaModulus = 10 ** dnaDigits */\n  0x02\n  sstore\n    /* \"Solidity/Advanced Solidity Concepts/zombiefactory.sol\":243:249  1 days */\n  0x015180\n    /* \"Solidity/Advanced Solidity Concepts/zombiefactory.sol\":223:249  uint cooldownTime = 1 days */\n  0x03\n  sstore\n    /* \"Solidity/Advanced Solidity Concepts/ownable.sol\":518:528  msg.sender */\n  caller\n    /* \"Solidity/Advanced Solidity Concepts/ownable.sol\":509:515  _owner */\n  0x00\n  dup1\n    /* \"Solidity/Advanced Solidity Concepts/ownable.sol\":509:528  _owner = msg.sender */\n  0x0100\n  exp\n  dup2\n  sload\n  dup2\n  0xffffffffffffffffffffffffffffffffffffffff\n  mul\n  not\n  and\n  swap1\n  dup4\n  0xffffffffffffffffffffffffffffffffffffffff\n  and\n  mul\n  or\n  swap1\n  sstore\n  pop\n    /* \"Solidity/Advanced Solidity Concepts/ownable.sol\":572:578  _owner */\n  0x00\n  dup1\n  swap1\n  sload\n  swap1\n  0x0100\n  exp\n  swap1\n  div\n  0xffffffffffffffffffffffffffffffffffffffff\n  and\n    /* \"Solidity/Advanced Solidity Concepts/ownable.sol\":539:579  OwnershipTransferred(address(0), _owner) */\n  0xffffffffffffffffffffffffffffffffffffffff\n  and\n    /* \"Solidity/Advanced Solidity Concepts/ownable.sol\":568:569  0 */\n  0x00\n    /* \"Solidity/Advanced Solidity Concepts/ownable.sol\":539:579  OwnershipTransferred(address(0), _owner) */\n  0xffffffffffffffffffffffffffffffffffffffff\n  and\n  0x8be0079c531659141344cd1fd0a4f28419497f9722a3daafe3b4186f6b6457e0\n  mload(0x40)\n  mload(0x40)\n  dup1\n  swap2\n  sub\n  swap1\n  log3\n    /* \"Solidity/Advanced Solidity Concepts/zombiefeeding.sol\":381:1402  contract ZombieFeeding is ZombieFactory {... */\n  dataSize(sub_0)\n  dup1\n  dataOffset(sub_0)\n  0x00\n  codecopy\n  0x00\n  return\nstop\n\nsub_0: assembly {\n        /* \"Solidity/Advanced Solidity Concepts/zombiefeeding.sol\":381:1402  contract ZombieFeeding is ZombieFactory {... */\n      mstore(0x40, 0x80)\n      callvalue\n        /* \"--CODEGEN--\":8:17   */\n      dup1\n        /* \"--CODEGEN--\":5:7   */\n      iszero\n      tag_1\n      jumpi\n        /* \"--CODEGEN--\":30:31   */\n      0x00\n        /* \"--CODEGEN--\":27:28   */\n      dup1\n        /* \"--CODEGEN--\":20:32   */\n      revert\n        /* \"--CODEGEN--\":5:7   */\n    tag_1:\n        /* \"Solidity/Advanced Solidity Concepts/zombiefeeding.sol\":381:1402  contract ZombieFeeding is ZombieFactory {... */\n      pop\n      jumpi(tag_2, lt(calldatasize, 0x04))\n      shr(0xe0, calldataload(0x00))\n      dup1\n      0x715018a6\n      gt\n      tag_13\n      jumpi\n      dup1\n      0x715018a6\n      eq\n      tag_8\n      jumpi\n      dup1\n      0x7bff0a01\n      eq\n      tag_9\n      jumpi\n      dup1\n      0x8da5cb5b\n      eq\n      tag_10\n      jumpi\n      dup1\n      0x8f32d59b\n      eq\n      tag_11\n      jumpi\n      dup1\n      0xf2fde38b\n      eq\n      tag_12\n      jumpi\n      jump(tag_2)\n    tag_13:\n      dup1\n      0x17a7f4cc\n      eq\n      tag_3\n      jumpi\n      dup1\n      0x2052465e\n      eq\n      tag_4\n      jumpi\n      dup1\n      0x528b7b8f\n      eq\n      tag_5\n      jumpi\n      dup1\n      0x5f4623f1\n      eq\n      tag_6\n      jumpi\n      dup1\n      0x6b0bfc80\n      eq\n      tag_7\n      jumpi\n    tag_2:\n      0x00\n      dup1\n      revert\n        /* \"Solidity/Advanced Solidity Concepts/zombiefeeding.sol\":1205:1399  function feedOnKitty(uint _zombieId, uint _kittyId) public {... */\n    tag_3:\n      tag_14\n      0x04\n      dup1\n      calldatasize\n      sub\n        /* \"--CODEGEN--\":13:15   */\n      0x40\n        /* \"--CODEGEN--\":8:11   */\n      dup2\n        /* \"--CODEGEN--\":5:16   */\n      lt\n        /* \"--CODEGEN--\":2:4   */\n      iszero\n      tag_15\n      jumpi\n        /* \"--CODEGEN--\":29:30   */\n      0x00\n        /* \"--CODEGEN--\":26:27   */\n      dup1\n        /* \"--CODEGEN--\":19:31   */\n      revert\n        /* \"--CODEGEN--\":2:4   */\n    tag_15:\n        /* \"Solidity/Advanced Solidity Concepts/zombiefeeding.sol\":1205:1399  function feedOnKitty(uint _zombieId, uint _kittyId) public {... */\n      dup2\n      add\n      swap1\n      dup1\n      dup1\n      calldataload\n      swap1\n      0x20\n      add\n      swap1\n      swap3\n      swap2\n      swap1\n      dup1\n      calldataload\n      swap1\n      0x20\n      add\n      swap1\n      swap3\n      swap2\n      swap1\n      pop\n      pop\n      pop\n      tag_16\n      jump\t// in\n    tag_14:\n      stop\n        /* \"Solidity/Advanced Solidity Concepts/zombiefactory.sol\":362:385  Zombie[] public zombies */\n    tag_4:\n      tag_17\n      0x04\n      dup1\n      calldatasize\n      sub\n        /* \"--CODEGEN--\":13:15   */\n      0x20\n        /* \"--CODEGEN--\":8:11   */\n      dup2\n        /* \"--CODEGEN--\":5:16   */\n      lt\n        /* \"--CODEGEN--\":2:4   */\n      iszero\n      tag_18\n      jumpi\n        /* \"--CODEGEN--\":29:30   */\n      0x00\n        /* \"--CODEGEN--\":26:27   */\n      dup1\n        /* \"--CODEGEN--\":19:31   */\n      revert\n        /* \"--CODEGEN--\":2:4   */\n    tag_18:\n        /* \"Solidity/Advanced Solidity Concepts/zombiefactory.sol\":362:385  Zombie[] public zombies */\n      dup2\n      add\n      swap1\n      dup1\n      dup1\n      calldataload\n      swap1\n      0x20\n      add\n      swap1\n      swap3\n      swap2\n      swap1\n      pop\n      pop\n      pop\n      tag_19\n      jump\t// in\n    tag_17:\n      mload(0x40)\n      dup1\n      dup1\n      0x20\n      add\n      dup6\n      dup2\n      mstore\n      0x20\n      add\n      dup5\n      0xffffffff\n      and\n      0xffffffff\n      and\n      dup2\n      mstore\n      0x20\n      add\n      dup4\n      0xffffffff\n      and\n      0xffffffff\n      and\n      dup2\n      mstore\n      0x20\n      add\n      dup3\n      dup2\n      sub\n      dup3\n      mstore\n      dup7\n      dup2\n      dup2\n      mload\n      dup2\n      mstore\n      0x20\n      add\n      swap2\n      pop\n      dup1\n      mload\n      swap1\n      0x20\n      add\n      swap1\n      dup1\n      dup4\n      dup4\n        /* \"--CODEGEN--\":23:24   */\n      0x00\n        /* \"--CODEGEN--\":8:108   */\n    tag_20:\n        /* \"--CODEGEN--\":33:36   */\n      dup4\n        /* \"--CODEGEN--\":30:31   */\n      dup2\n        /* \"--CODEGEN--\":27:37   */\n      lt\n        /* \"--CODEGEN--\":8:108   */\n      iszero\n      tag_22\n      jumpi\n        /* \"--CODEGEN--\":99:100   */\n      dup1\n        /* \"--CODEGEN--\":94:97   */\n      dup3\n        /* \"--CODEGEN--\":90:101   */\n      add\n        /* \"--CODEGEN--\":84:102   */\n      mload\n        /* \"--CODEGEN--\":80:81   */\n      dup2\n        /* \"--CODEGEN--\":75:78   */\n      dup5\n        /* \"--CODEGEN--\":71:82   */\n      add\n        /* \"--CODEGEN--\":64:103   */\n      mstore\n        /* \"--CODEGEN--\":52:54   */\n      0x20\n        /* \"--CODEGEN--\":49:50   */\n      dup2\n        /* \"--CODEGEN--\":45:55   */\n      add\n        /* \"--CODEGEN--\":40:55   */\n      swap1\n      pop\n        /* \"--CODEGEN--\":8:108   */\n      jump(tag_20)\n    tag_22:\n        /* \"--CODEGEN--\":12:26   */\n      pop\n        /* \"Solidity/Advanced Solidity Concepts/zombiefactory.sol\":362:385  Zombie[] public zombies */\n      pop\n      pop\n      pop\n      swap1\n      pop\n      swap1\n      dup2\n      add\n      swap1\n      0x1f\n      and\n      dup1\n      iszero\n      tag_23\n      jumpi\n      dup1\n      dup3\n      sub\n      dup1\n      mload\n      0x01\n      dup4\n      0x20\n      sub\n      0x0100\n      exp\n      sub\n      not\n      and\n      dup2\n      mstore\n      0x20\n      add\n      swap2\n      pop\n    tag_23:\n      pop\n      swap6\n      pop\n      pop\n      pop\n      pop\n      pop\n      pop\n      mload(0x40)\n      dup1\n      swap2\n      sub\n      swap1\n      return\n        /* \"Solidity/Advanced Solidity Concepts/zombiefactory.sol\":392:438  mapping (uint => address) public zombieToOwner */\n    tag_5:\n      tag_24\n      0x04\n      dup1\n      calldatasize\n      sub\n        /* \"--CODEGEN--\":13:15   */\n      0x20\n        /* \"--CODEGEN--\":8:11   */\n      dup2\n        /* \"--CODEGEN--\":5:16   */\n      lt\n        /* \"--CODEGEN--\":2:4   */\n      iszero\n      tag_25\n      jumpi\n        /* \"--CODEGEN--\":29:30   */\n      0x00\n        /* \"--CODEGEN--\":26:27   */\n      dup1\n        /* \"--CODEGEN--\":19:31   */\n      revert\n        /* \"--CODEGEN--\":2:4   */\n    tag_25:\n        /* \"Solidity/Advanced Solidity Concepts/zombiefactory.sol\":392:438  mapping (uint => address) public zombieToOwner */\n      dup2\n      add\n      swap1\n      dup1\n      dup1\n      calldataload\n      swap1\n      0x20\n      add\n      swap1\n      swap3\n      swap2\n      swap1\n      pop\n      pop\n      pop\n      tag_26\n      jump\t// in\n    tag_24:\n      mload(0x40)\n      dup1\n      dup3\n      0xffffffffffffffffffffffffffffffffffffffff\n      and\n      0xffffffffffffffffffffffffffffffffffffffff\n      and\n      dup2\n      mstore\n      0x20\n      add\n      swap2\n      pop\n      pop\n      mload(0x40)\n      dup1\n      swap2\n      sub\n      swap1\n      return\n        /* \"Solidity/Advanced Solidity Concepts/zombiefeeding.sol\":459:580  function setKittyContractAddress(address _address) external onlyOwner {... */\n    tag_6:\n      tag_27\n      0x04\n      dup1\n      calldatasize\n      sub\n        /* \"--CODEGEN--\":13:15   */\n      0x20\n        /* \"--CODEGEN--\":8:11   */\n      dup2\n        /* \"--CODEGEN--\":5:16   */\n      lt\n        /* \"--CODEGEN--\":2:4   */\n      iszero\n      tag_28\n      jumpi\n        /* \"--CODEGEN--\":29:30   */\n      0x00\n        /* \"--CODEGEN--\":26:27   */\n      dup1\n        /* \"--CODEGEN--\":19:31   */\n      revert\n        /* \"--CODEGEN--\":2:4   */\n    tag_28:\n        /* \"Solidity/Advanced Solidity Concepts/zombiefeeding.sol\":459:580  function setKittyContractAddress(address _address) external onlyOwner {... */\n      dup2\n      add\n      swap1\n      dup1\n      dup1\n      calldataload\n      0xffffffffffffffffffffffffffffffffffffffff\n      and\n      swap1\n      0x20\n      add\n      swap1\n      swap3\n      swap2\n      swap1\n      pop\n      pop\n      pop\n      tag_29\n      jump\t// in\n    tag_27:\n      stop\n        /* \"Solidity/Advanced Solidity Concepts/zombiefeeding.sol\":704:1201  function feedAndMultiply(uint _zombieId, uint _targetDna, string memory _species) public {... */\n    tag_7:\n      tag_30\n      0x04\n      dup1\n      calldatasize\n      sub\n        /* \"--CODEGEN--\":13:15   */\n      0x60\n        /* \"--CODEGEN--\":8:11   */\n      dup2\n        /* \"--CODEGEN--\":5:16   */\n      lt\n        /* \"--CODEGEN--\":2:4   */\n      iszero\n      tag_31\n      jumpi\n        /* \"--CODEGEN--\":29:30   */\n      0x00\n        /* \"--CODEGEN--\":26:27   */\n      dup1\n        /* \"--CODEGEN--\":19:31   */\n      revert\n        /* \"--CODEGEN--\":2:4   */\n    tag_31:\n        /* \"Solidity/Advanced Solidity Concepts/zombiefeeding.sol\":704:1201  function feedAndMultiply(uint _zombieId, uint _targetDna, string memory _species) public {... */\n      dup2\n      add\n      swap1\n      dup1\n      dup1\n      calldataload\n      swap1\n      0x20\n      add\n      swap1\n      swap3\n      swap2\n      swap1\n      dup1\n      calldataload\n      swap1\n      0x20\n      add\n      swap1\n      swap3\n      swap2\n      swap1\n      dup1\n      calldataload\n      swap1\n      0x20\n      add\n      swap1\n        /* \"--CODEGEN--\":21:32   */\n      0x0100000000\n        /* \"--CODEGEN--\":8:19   */\n      dup2\n        /* \"--CODEGEN--\":5:33   */\n      gt\n        /* \"--CODEGEN--\":2:4   */\n      iszero\n      tag_32\n      jumpi\n        /* \"--CODEGEN--\":46:47   */\n      0x00\n        /* \"--CODEGEN--\":43:44   */\n      dup1\n        /* \"--CODEGEN--\":36:48   */\n      revert\n        /* \"--CODEGEN--\":2:4   */\n    tag_32:\n        /* \"Solidity/Advanced Solidity Concepts/zombiefeeding.sol\":704:1201  function feedAndMultiply(uint _zombieId, uint _targetDna, string memory _species) public {... */\n      dup3\n      add\n        /* \"--CODEGEN--\":35:44   */\n      dup4\n        /* \"--CODEGEN--\":28:32   */\n      0x20\n        /* \"--CODEGEN--\":12:26   */\n      dup3\n        /* \"--CODEGEN--\":8:33   */\n      add\n        /* \"--CODEGEN--\":5:45   */\n      gt\n        /* \"--CODEGEN--\":2:4   */\n      iszero\n      tag_33\n      jumpi\n        /* \"--CODEGEN--\":58:59   */\n      0x00\n        /* \"--CODEGEN--\":55:56   */\n      dup1\n        /* \"--CODEGEN--\":48:60   */\n      revert\n        /* \"--CODEGEN--\":2:4   */\n    tag_33:\n        /* \"Solidity/Advanced Solidity Concepts/zombiefeeding.sol\":704:1201  function feedAndMultiply(uint _zombieId, uint _targetDna, string memory _species) public {... */\n      dup1\n      calldataload\n      swap1\n      0x20\n      add\n      swap2\n        /* \"--CODEGEN--\":100:109   */\n      dup5\n        /* \"--CODEGEN--\":95:96   */\n      0x01\n        /* \"--CODEGEN--\":81:93   */\n      dup4\n        /* \"--CODEGEN--\":77:97   */\n      mul\n        /* \"--CODEGEN--\":67:75   */\n      dup5\n        /* \"--CODEGEN--\":63:98   */\n      add\n        /* \"--CODEGEN--\":60:110   */\n      gt\n        /* \"--CODEGEN--\":39:50   */\n      0x0100000000\n        /* \"--CODEGEN--\":25:37   */\n      dup4\n        /* \"--CODEGEN--\":22:51   */\n      gt\n        /* \"--CODEGEN--\":11:118   */\n      or\n        /* \"--CODEGEN--\":8:10   */\n      iszero\n      tag_34\n      jumpi\n        /* \"--CODEGEN--\":131:132   */\n      0x00\n        /* \"--CODEGEN--\":128:129   */\n      dup1\n        /* \"--CODEGEN--\":121:133   */\n      revert\n        /* \"--CODEGEN--\":8:10   */\n    tag_34:\n        /* \"Solidity/Advanced Solidity Concepts/zombiefeeding.sol\":704:1201  function feedAndMultiply(uint _zombieId, uint _targetDna, string memory _species) public {... */\n      swap2\n      swap1\n      dup1\n      dup1\n      0x1f\n      add\n      0x20\n      dup1\n      swap2\n      div\n      mul\n      0x20\n      add\n      mload(0x40)\n      swap1\n      dup2\n      add\n      0x40\n      mstore\n      dup1\n      swap4\n      swap3\n      swap2\n      swap1\n      dup2\n      dup2\n      mstore\n      0x20\n      add\n      dup4\n      dup4\n        /* \"--CODEGEN--\":30:33   */\n      dup1\n        /* \"--CODEGEN--\":22:28   */\n      dup3\n        /* \"--CODEGEN--\":14:20   */\n      dup5\n        /* \"--CODEGEN--\":1:34   */\n      calldatacopy\n        /* \"--CODEGEN--\":99:100   */\n      0x00\n        /* \"--CODEGEN--\":93:96   */\n      dup2\n        /* \"--CODEGEN--\":85:91   */\n      dup5\n        /* \"--CODEGEN--\":81:97   */\n      add\n        /* \"--CODEGEN--\":74:101   */\n      mstore\n        /* \"--CODEGEN--\":137:141   */\n      0x1f\n        /* \"--CODEGEN--\":133:142   */\n      not\n        /* \"--CODEGEN--\":126:130   */\n      0x1f\n        /* \"--CODEGEN--\":121:124   */\n      dup3\n        /* \"--CODEGEN--\":117:131   */\n      add\n        /* \"--CODEGEN--\":113:143   */\n      and\n        /* \"--CODEGEN--\":106:143   */\n      swap1\n      pop\n        /* \"--CODEGEN--\":169:172   */\n      dup1\n        /* \"--CODEGEN--\":161:167   */\n      dup4\n        /* \"--CODEGEN--\":157:173   */\n      add\n        /* \"--CODEGEN--\":147:173   */\n      swap3\n      pop\n        /* \"Solidity/Advanced Solidity Concepts/zombiefeeding.sol\":704:1201  function feedAndMultiply(uint _zombieId, uint _targetDna, string memory _species) public {... */\n      pop\n      pop\n      pop\n      pop\n      pop\n      pop\n      swap2\n      swap3\n      swap2\n      swap3\n      swap1\n      pop\n      pop\n      pop\n      tag_35\n      jump\t// in\n    tag_30:\n      stop\n        /* \"Solidity/Advanced Solidity Concepts/ownable.sol\":1262:1389  function renounceOwnership() public onlyOwner {... */\n    tag_8:\n      tag_36\n      tag_37\n      jump\t// in\n    tag_36:\n      stop\n        /* \"Solidity/Advanced Solidity Concepts/zombiefactory.sol\":963:1210  function createRandomZombie(string memory _name) public {... */\n    tag_9:\n      tag_38\n      0x04\n      dup1\n      calldatasize\n      sub\n        /* \"--CODEGEN--\":13:15   */\n      0x20\n        /* \"--CODEGEN--\":8:11   */\n      dup2\n        /* \"--CODEGEN--\":5:16   */\n      lt\n        /* \"--CODEGEN--\":2:4   */\n      iszero\n      tag_39\n      jumpi\n        /* \"--CODEGEN--\":29:30   */\n      0x00\n        /* \"--CODEGEN--\":26:27   */\n      dup1\n        /* \"--CODEGEN--\":19:31   */\n      revert\n        /* \"--CODEGEN--\":2:4   */\n    tag_39:\n        /* \"Solidity/Advanced Solidity Concepts/zombiefactory.sol\":963:1210  function createRandomZombie(string memory _name) public {... */\n      dup2\n      add\n      swap1\n      dup1\n      dup1\n      calldataload\n      swap1\n      0x20\n      add\n      swap1\n        /* \"--CODEGEN--\":21:32   */\n      0x0100000000\n        /* \"--CODEGEN--\":8:19   */\n      dup2\n        /* \"--CODEGEN--\":5:33   */\n      gt\n        /* \"--CODEGEN--\":2:4   */\n      iszero\n      tag_40\n      jumpi\n        /* \"--CODEGEN--\":46:47   */\n      0x00\n        /* \"--CODEGEN--\":43:44   */\n      dup1\n        /* \"--CODEGEN--\":36:48   */\n      revert\n        /* \"--CODEGEN--\":2:4   */\n    tag_40:\n        /* \"Solidity/Advanced Solidity Concepts/zombiefactory.sol\":963:1210  function createRandomZombie(string memory _name) public {... */\n      dup3\n      add\n        /* \"--CODEGEN--\":35:44   */\n      dup4\n        /* \"--CODEGEN--\":28:32   */\n      0x20\n        /* \"--CODEGEN--\":12:26   */\n      dup3\n        /* \"--CODEGEN--\":8:33   */\n      add\n        /* \"--CODEGEN--\":5:45   */\n      gt\n        /* \"--CODEGEN--\":2:4   */\n      iszero\n      tag_41\n      jumpi\n        /* \"--CODEGEN--\":58:59   */\n      0x00\n        /* \"--CODEGEN--\":55:56   */\n      dup1\n        /* \"--CODEGEN--\":48:60   */\n      revert\n        /* \"--CODEGEN--\":2:4   */\n    tag_41:\n        /* \"Solidity/Advanced Solidity Concepts/zombiefactory.sol\":963:1210  function createRandomZombie(string memory _name) public {... */\n      dup1\n      calldataload\n      swap1\n      0x20\n      add\n      swap2\n        /* \"--CODEGEN--\":100:109   */\n      dup5\n        /* \"--CODEGEN--\":95:96   */\n      0x01\n        /* \"--CODEGEN--\":81:93   */\n      dup4\n        /* \"--CODEGEN--\":77:97   */\n      mul\n        /* \"--CODEGEN--\":67:75   */\n      dup5\n        /* \"--CODEGEN--\":63:98   */\n      add\n        /* \"--CODEGEN--\":60:110   */\n      gt\n        /* \"--CODEGEN--\":39:50   */\n      0x0100000000\n        /* \"--CODEGEN--\":25:37   */\n      dup4\n        /* \"--CODEGEN--\":22:51   */\n      gt\n        /* \"--CODEGEN--\":11:118   */\n      or\n        /* \"--CODEGEN--\":8:10   */\n      iszero\n      tag_42\n      jumpi\n        /* \"--CODEGEN--\":131:132   */\n      0x00\n        /* \"--CODEGEN--\":128:129   */\n      dup1\n        /* \"--CODEGEN--\":121:133   */\n      revert\n        /* \"--CODEGEN--\":8:10   */\n    tag_42:\n        /* \"Solidity/Advanced Solidity Concepts/zombiefactory.sol\":963:1210  function createRandomZombie(string memory _name) public {... */\n      swap2\n      swap1\n      dup1\n      dup1\n      0x1f\n      add\n      0x20\n      dup1\n      swap2\n      div\n      mul\n      0x20\n      add\n      mload(0x40)\n      swap1\n      dup2\n      add\n      0x40\n      mstore\n      dup1\n      swap4\n      swap3\n      swap2\n      swap1\n      dup2\n      dup2\n      mstore\n      0x20\n      add\n      dup4\n      dup4\n        /* \"--CODEGEN--\":30:33   */\n      dup1\n        /* \"--CODEGEN--\":22:28   */\n      dup3\n        /* \"--CODEGEN--\":14:20   */\n      dup5\n        /* \"--CODEGEN--\":1:34   */\n      calldatacopy\n        /* \"--CODEGEN--\":99:100   */\n      0x00\n        /* \"--CODEGEN--\":93:96   */\n      dup2\n        /* \"--CODEGEN--\":85:91   */\n      dup5\n        /* \"--CODEGEN--\":81:97   */\n      add\n        /* \"--CODEGEN--\":74:101   */\n      mstore\n        /* \"--CODEGEN--\":137:141   */\n      0x1f\n        /* \"--CODEGEN--\":133:142   */\n      not\n        /* \"--CODEGEN--\":126:130   */\n      0x1f\n        /* \"--CODEGEN--\":121:124   */\n      dup3\n        /* \"--CODEGEN--\":117:131   */\n      add\n        /* \"--CODEGEN--\":113:143   */\n      and\n        /* \"--CODEGEN--\":106:143   */\n      swap1\n      pop\n        /* \"--CODEGEN--\":169:172   */\n      dup1\n        /* \"--CODEGEN--\":161:167   */\n      dup4\n        /* \"--CODEGEN--\":157:173   */\n      add\n        /* \"--CODEGEN--\":147:173   */\n      swap3\n      pop\n        /* \"Solidity/Advanced Solidity Concepts/zombiefactory.sol\":963:1210  function createRandomZombie(string memory _name) public {... */\n      pop\n      pop\n      pop\n      pop\n      pop\n      pop\n      swap2\n      swap3\n      swap2\n      swap3\n      swap1\n      pop\n      pop\n      pop\n      tag_43\n      jump\t// in\n    tag_38:\n      stop\n        /* \"Solidity/Advanced Solidity Concepts/ownable.sol\":637:707  function owner() public view returns(address) {... */\n    tag_10:\n      tag_44\n      tag_45\n      jump\t// in\n    tag_44:\n      mload(0x40)\n      dup1\n      dup3\n      0xffffffffffffffffffffffffffffffffffffffff\n      and\n      0xffffffffffffffffffffffffffffffffffffffff\n      and\n      dup2\n      mstore\n      0x20\n      add\n      swap2\n      pop\n      pop\n      mload(0x40)\n      dup1\n      swap2\n      sub\n      swap1\n      return\n        /* \"Solidity/Advanced Solidity Concepts/ownable.sol\":920:1003  function isOwner() public view returns(bool) {... */\n    tag_11:\n      tag_46\n      tag_47\n      jump\t// in\n    tag_46:\n      mload(0x40)\n      dup1\n      dup3\n      iszero\n      iszero\n      iszero\n      iszero\n      dup2\n      mstore\n      0x20\n      add\n      swap2\n      pop\n      pop\n      mload(0x40)\n      dup1\n      swap2\n      sub\n      swap1\n      return\n        /* \"Solidity/Advanced Solidity Concepts/ownable.sol\":1547:1648  function transferOwnership(address newOwner) public onlyOwner {... */\n    tag_12:\n      tag_48\n      0x04\n      dup1\n      calldatasize\n      sub\n        /* \"--CODEGEN--\":13:15   */\n      0x20\n        /* \"--CODEGEN--\":8:11   */\n      dup2\n        /* \"--CODEGEN--\":5:16   */\n      lt\n        /* \"--CODEGEN--\":2:4   */\n      iszero\n      tag_49\n      jumpi\n        /* \"--CODEGEN--\":29:30   */\n      0x00\n        /* \"--CODEGEN--\":26:27   */\n      dup1\n        /* \"--CODEGEN--\":19:31   */\n      revert\n        /* \"--CODEGEN--\":2:4   */\n    tag_49:\n        /* \"Solidity/Advanced Solidity Concepts/ownable.sol\":1547:1648  function transferOwnership(address newOwner) public onlyOwner {... */\n      dup2\n      add\n      swap1\n      dup1\n      dup1\n      calldataload\n      0xffffffffffffffffffffffffffffffffffffffff\n      and\n      swap1\n      0x20\n      add\n      swap1\n      swap3\n      swap2\n      swap1\n      pop\n      pop\n      pop\n      tag_50\n      jump\t// in\n    tag_48:\n      stop\n        /* \"Solidity/Advanced Solidity Concepts/zombiefeeding.sol\":1205:1399  function feedOnKitty(uint _zombieId, uint _kittyId) public {... */\n    tag_16:\n        /* \"Solidity/Advanced Solidity Concepts/zombiefeeding.sol\":1270:1283  uint kittyDna */\n      0x00\n        /* \"Solidity/Advanced Solidity Concepts/zombiefeeding.sol\":1311:1324  kittyContract */\n      0x07\n      0x00\n      swap1\n      sload\n      swap1\n      0x0100\n      exp\n      swap1\n      div\n      0xffffffffffffffffffffffffffffffffffffffff\n      and\n        /* \"Solidity/Advanced Solidity Concepts/zombiefeeding.sol\":1311:1333  kittyContract.getKitty */\n      0xffffffffffffffffffffffffffffffffffffffff\n      and\n      0xe98b7f4d\n        /* \"Solidity/Advanced Solidity Concepts/zombiefeeding.sol\":1334:1342  _kittyId */\n      dup4\n        /* \"Solidity/Advanced Solidity Concepts/zombiefeeding.sol\":1311:1343  kittyContract.getKitty(_kittyId) */\n      mload(0x40)\n      dup3\n      0xffffffff\n      and\n      0xe0\n      shl\n      dup2\n      mstore\n      0x04\n      add\n      dup1\n      dup3\n      dup2\n      mstore\n      0x20\n      add\n      swap2\n      pop\n      pop\n      0x0140\n      mload(0x40)\n      dup1\n      dup4\n      sub\n      dup2\n      dup7\n      dup1\n      extcodesize\n      iszero\n        /* \"--CODEGEN--\":8:17   */\n      dup1\n        /* \"--CODEGEN--\":5:7   */\n      iszero\n      tag_52\n      jumpi\n        /* \"--CODEGEN--\":30:31   */\n      0x00\n        /* \"--CODEGEN--\":27:28   */\n      dup1\n        /* \"--CODEGEN--\":20:32   */\n      revert\n        /* \"--CODEGEN--\":5:7   */\n    tag_52:\n        /* \"Solidity/Advanced Solidity Concepts/zombiefeeding.sol\":1311:1343  kittyContract.getKitty(_kittyId) */\n      pop\n      gas\n      staticcall\n      iszero\n        /* \"--CODEGEN--\":8:17   */\n      dup1\n        /* \"--CODEGEN--\":5:7   */\n      iszero\n      tag_53\n      jumpi\n        /* \"--CODEGEN--\":45:61   */\n      returndatasize\n        /* \"--CODEGEN--\":42:43   */\n      0x00\n        /* \"--CODEGEN--\":39:40   */\n      dup1\n        /* \"--CODEGEN--\":24:62   */\n      returndatacopy\n        /* \"--CODEGEN--\":77:93   */\n      returndatasize\n        /* \"--CODEGEN--\":74:75   */\n      0x00\n        /* \"--CODEGEN--\":67:94   */\n      revert\n        /* \"--CODEGEN--\":5:7   */\n    tag_53:\n        /* \"Solidity/Advanced Solidity Concepts/zombiefeeding.sol\":1311:1343  kittyContract.getKitty(_kittyId) */\n      pop\n      pop\n      pop\n      pop\n      mload(0x40)\n      returndatasize\n        /* \"--CODEGEN--\":13:16   */\n      0x0140\n        /* \"--CODEGEN--\":8:11   */\n      dup2\n        /* \"--CODEGEN--\":5:17   */\n      lt\n        /* \"--CODEGEN--\":2:4   */\n      iszero\n      tag_54\n      jumpi\n        /* \"--CODEGEN--\":30:31   */\n      0x00\n        /* \"--CODEGEN--\":27:28   */\n      dup1\n        /* \"--CODEGEN--\":20:32   */\n      revert\n        /* \"--CODEGEN--\":2:4   */\n    tag_54:\n        /* \"Solidity/Advanced Solidity Concepts/zombiefeeding.sol\":1311:1343  kittyContract.getKitty(_kittyId) */\n      dup2\n      add\n      swap1\n      dup1\n      dup1\n      mload\n      swap1\n      0x20\n      add\n      swap1\n      swap3\n      swap2\n      swap1\n      dup1\n      mload\n      swap1\n      0x20\n      add\n      swap1\n      swap3\n      swap2\n      swap1\n      dup1\n      mload\n      swap1\n      0x20\n      add\n      swap1\n      swap3\n      swap2\n      swap1\n      dup1\n      mload\n      swap1\n      0x20\n      add\n      swap1\n      swap3\n      swap2\n      swap1\n      dup1\n      mload\n      swap1\n      0x20\n      add\n      swap1\n      swap3\n      swap2\n      swap1\n      dup1\n      mload\n      swap1\n      0x20\n      add\n      swap1\n      swap3\n      swap2\n      swap1\n      dup1\n      mload\n      swap1\n      0x20\n      add\n      swap1\n      swap3\n      swap2\n      swap1\n      dup1\n      mload\n      swap1\n      0x20\n      add\n      swap1\n      swap3\n      swap2\n      swap1\n      dup1\n      mload\n      swap1\n      0x20\n      add\n      swap1\n      swap3\n      swap2\n      swap1\n      dup1\n      mload\n      swap1\n      0x20\n      add\n      swap1\n      swap3\n      swap2\n      swap1\n      pop\n      pop\n      pop\n        /* \"Solidity/Advanced Solidity Concepts/zombiefeeding.sol\":1289:1343  (,,,,,,,,,kittyDna) = kittyContract.getKitty(_kittyId) */\n      swap1\n      swap2\n      swap3\n      swap4\n      swap5\n      swap6\n      swap7\n      swap8\n      swap9\n      pop\n      swap1\n      swap2\n      swap3\n      swap4\n      swap5\n      swap6\n      swap7\n      swap8\n      pop\n      swap1\n      swap2\n      swap3\n      swap4\n      swap5\n      swap6\n      swap7\n      pop\n      swap1\n      swap2\n      swap3\n      swap4\n      swap5\n      swap6\n      pop\n      swap1\n      swap2\n      swap3\n      swap4\n      swap5\n      pop\n      swap1\n      swap2\n      swap3\n      swap4\n      pop\n      swap1\n      swap2\n      swap3\n      pop\n      swap1\n      swap2\n      pop\n      swap1\n      pop\n      dup1\n      swap2\n      pop\n      pop\n        /* \"Solidity/Advanced Solidity Concepts/zombiefeeding.sol\":1349:1394  feedAndMultiply(_zombieId, kittyDna, \"kitty\") */\n      tag_55\n        /* \"Solidity/Advanced Solidity Concepts/zombiefeeding.sol\":1365:1374  _zombieId */\n      dup4\n        /* \"Solidity/Advanced Solidity Concepts/zombiefeeding.sol\":1376:1384  kittyDna */\n      dup3\n        /* \"Solidity/Advanced Solidity Concepts/zombiefeeding.sol\":1349:1394  feedAndMultiply(_zombieId, kittyDna, \"kitty\") */\n      mload(0x40)\n      dup1\n      0x40\n      add\n      0x40\n      mstore\n      dup1\n      0x05\n      dup2\n      mstore\n      0x20\n      add\n      0x6b69747479000000000000000000000000000000000000000000000000000000\n      dup2\n      mstore\n      pop\n        /* \"Solidity/Advanced Solidity Concepts/zombiefeeding.sol\":1349:1364  feedAndMultiply */\n      tag_35\n        /* \"Solidity/Advanced Solidity Concepts/zombiefeeding.sol\":1349:1394  feedAndMultiply(_zombieId, kittyDna, \"kitty\") */\n      jump\t// in\n    tag_55:\n        /* \"Solidity/Advanced Solidity Concepts/zombiefeeding.sol\":1205:1399  function feedOnKitty(uint _zombieId, uint _kittyId) public {... */\n      pop\n      pop\n      pop\n      jump\t// out\n        /* \"Solidity/Advanced Solidity Concepts/zombiefactory.sol\":362:385  Zombie[] public zombies */\n    tag_19:\n      0x04\n      dup2\n      dup2\n      sload\n      dup2\n      lt\n      tag_56\n      jumpi\n      invalid\n    tag_56:\n      swap1\n      0x00\n      mstore\n      keccak256(0x00, 0x20)\n      swap1\n      0x03\n      mul\n      add\n      0x00\n      swap2\n      pop\n      swap1\n      pop\n      dup1\n      0x00\n      add\n      dup1\n      sload\n      0x01\n      dup2\n      0x01\n      and\n      iszero\n      0x0100\n      mul\n      sub\n      and\n      0x02\n      swap1\n      div\n      dup1\n      0x1f\n      add\n      0x20\n      dup1\n      swap2\n      div\n      mul\n      0x20\n      add\n      mload(0x40)\n      swap1\n      dup2\n      add\n      0x40\n      mstore\n      dup1\n      swap3\n      swap2\n      swap1\n      dup2\n      dup2\n      mstore\n      0x20\n      add\n      dup3\n      dup1\n      sload\n      0x01\n      dup2\n      0x01\n      and\n      iszero\n      0x0100\n      mul\n      sub\n      and\n      0x02\n      swap1\n      div\n      dup1\n      iszero\n      tag_58\n      jumpi\n      dup1\n      0x1f\n      lt\n      tag_59\n      jumpi\n      0x0100\n      dup1\n      dup4\n      sload\n      div\n      mul\n      dup4\n      mstore\n      swap2\n      0x20\n      add\n      swap2\n      jump(tag_58)\n    tag_59:\n      dup3\n      add\n      swap2\n      swap1\n      0x00\n      mstore\n      keccak256(0x00, 0x20)\n      swap1\n    tag_60:\n      dup2\n      sload\n      dup2\n      mstore\n      swap1\n      0x01\n      add\n      swap1\n      0x20\n      add\n      dup1\n      dup4\n      gt\n      tag_60\n      jumpi\n      dup3\n      swap1\n      sub\n      0x1f\n      and\n      dup3\n      add\n      swap2\n    tag_58:\n      pop\n      pop\n      pop\n      pop\n      pop\n      swap1\n      dup1\n      0x01\n      add\n      sload\n      swap1\n      dup1\n      0x02\n      add\n      0x00\n      swap1\n      sload\n      swap1\n      0x0100\n      exp\n      swap1\n      div\n      0xffffffff\n      and\n      swap1\n      dup1\n      0x02\n      add\n      0x04\n      swap1\n      sload\n      swap1\n      0x0100\n      exp\n      swap1\n      div\n      0xffffffff\n      and\n      swap1\n      pop\n      dup5\n      jump\t// out\n        /* \"Solidity/Advanced Solidity Concepts/zombiefactory.sol\":392:438  mapping (uint => address) public zombieToOwner */\n    tag_26:\n      mstore(0x20, 0x05)\n      dup1\n      0x00\n      mstore\n      keccak256(0x00, 0x40)\n      0x00\n      swap2\n      pop\n      sload\n      swap1\n      0x0100\n      exp\n      swap1\n      div\n      0xffffffffffffffffffffffffffffffffffffffff\n      and\n      dup2\n      jump\t// out\n        /* \"Solidity/Advanced Solidity Concepts/zombiefeeding.sol\":459:580  function setKittyContractAddress(address _address) external onlyOwner {... */\n    tag_29:\n        /* \"Solidity/Advanced Solidity Concepts/ownable.sol\":820:829  isOwner() */\n      tag_62\n        /* \"Solidity/Advanced Solidity Concepts/ownable.sol\":820:827  isOwner */\n      tag_47\n        /* \"Solidity/Advanced Solidity Concepts/ownable.sol\":820:829  isOwner() */\n      jump\t// in\n    tag_62:\n        /* \"Solidity/Advanced Solidity Concepts/ownable.sol\":812:830  require(isOwner()) */\n      tag_63\n      jumpi\n      0x00\n      dup1\n      revert\n    tag_63:\n        /* \"Solidity/Advanced Solidity Concepts/zombiefeeding.sol\":566:574  _address */\n      dup1\n        /* \"Solidity/Advanced Solidity Concepts/zombiefeeding.sol\":535:548  kittyContract */\n      0x07\n      0x00\n        /* \"Solidity/Advanced Solidity Concepts/zombiefeeding.sol\":535:575  kittyContract = KittyInterface(_address) */\n      0x0100\n      exp\n      dup2\n      sload\n      dup2\n      0xffffffffffffffffffffffffffffffffffffffff\n      mul\n      not\n      and\n      swap1\n      dup4\n      0xffffffffffffffffffffffffffffffffffffffff\n      and\n      mul\n      or\n      swap1\n      sstore\n      pop\n        /* \"Solidity/Advanced Solidity Concepts/zombiefeeding.sol\":459:580  function setKittyContractAddress(address _address) external onlyOwner {... */\n      pop\n      jump\t// out\n        /* \"Solidity/Advanced Solidity Concepts/zombiefeeding.sol\":704:1201  function feedAndMultiply(uint _zombieId, uint _targetDna, string memory _species) public {... */\n    tag_35:\n        /* \"Solidity/Advanced Solidity Concepts/zombiefeeding.sol\":821:834  zombieToOwner */\n      0x05\n        /* \"Solidity/Advanced Solidity Concepts/zombiefeeding.sol\":821:845  zombieToOwner[_zombieId] */\n      0x00\n        /* \"Solidity/Advanced Solidity Concepts/zombiefeeding.sol\":835:844  _zombieId */\n      dup5\n        /* \"Solidity/Advanced Solidity Concepts/zombiefeeding.sol\":821:845  zombieToOwner[_zombieId] */\n      dup2\n      mstore\n      0x20\n      add\n      swap1\n      dup2\n      mstore\n      0x20\n      add\n      0x00\n      keccak256\n      0x00\n      swap1\n      sload\n      swap1\n      0x0100\n      exp\n      swap1\n      div\n      0xffffffffffffffffffffffffffffffffffffffff\n      and\n        /* \"Solidity/Advanced Solidity Concepts/zombiefeeding.sol\":807:845  msg.sender == zombieToOwner[_zombieId] */\n      0xffffffffffffffffffffffffffffffffffffffff\n      and\n        /* \"Solidity/Advanced Solidity Concepts/zombiefeeding.sol\":807:817  msg.sender */\n      caller\n        /* \"Solidity/Advanced Solidity Concepts/zombiefeeding.sol\":807:845  msg.sender == zombieToOwner[_zombieId] */\n      0xffffffffffffffffffffffffffffffffffffffff\n      and\n      eq\n        /* \"Solidity/Advanced Solidity Concepts/zombiefeeding.sol\":799:846  require(msg.sender == zombieToOwner[_zombieId]) */\n      tag_66\n      jumpi\n      0x00\n      dup1\n      revert\n    tag_66:\n        /* \"Solidity/Advanced Solidity Concepts/zombiefeeding.sol\":852:875  Zombie storage myZombie */\n      0x00\n        /* \"Solidity/Advanced Solidity Concepts/zombiefeeding.sol\":878:885  zombies */\n      0x04\n        /* \"Solidity/Advanced Solidity Concepts/zombiefeeding.sol\":886:895  _zombieId */\n      dup5\n        /* \"Solidity/Advanced Solidity Concepts/zombiefeeding.sol\":878:896  zombies[_zombieId] */\n      dup2\n      sload\n      dup2\n      lt\n      tag_67\n      jumpi\n      invalid\n    tag_67:\n      swap1\n      0x00\n      mstore\n      keccak256(0x00, 0x20)\n      swap1\n      0x03\n      mul\n      add\n        /* \"Solidity/Advanced Solidity Concepts/zombiefeeding.sol\":852:896  Zombie storage myZombie = zombies[_zombieId] */\n      swap1\n      pop\n        /* \"Solidity/Advanced Solidity Concepts/zombiefeeding.sol\":928:938  dnaModulus */\n      sload(0x02)\n        /* \"Solidity/Advanced Solidity Concepts/zombiefeeding.sol\":915:925  _targetDna */\n      dup4\n        /* \"Solidity/Advanced Solidity Concepts/zombiefeeding.sol\":915:938  _targetDna % dnaModulus */\n      dup2\n      tag_69\n      jumpi\n      invalid\n    tag_69:\n      mod\n        /* \"Solidity/Advanced Solidity Concepts/zombiefeeding.sol\":902:938  _targetDna = _targetDna % dnaModulus */\n      swap3\n      pop\n        /* \"Solidity/Advanced Solidity Concepts/zombiefeeding.sol\":944:955  uint newDna */\n      0x00\n        /* \"Solidity/Advanced Solidity Concepts/zombiefeeding.sol\":988:989  2 */\n      0x02\n        /* \"Solidity/Advanced Solidity Concepts/zombiefeeding.sol\":974:984  _targetDna */\n      dup5\n        /* \"Solidity/Advanced Solidity Concepts/zombiefeeding.sol\":959:967  myZombie */\n      dup4\n        /* \"Solidity/Advanced Solidity Concepts/zombiefeeding.sol\":959:971  myZombie.dna */\n      0x01\n      add\n      sload\n        /* \"Solidity/Advanced Solidity Concepts/zombiefeeding.sol\":959:984  myZombie.dna + _targetDna */\n      add\n        /* \"Solidity/Advanced Solidity Concepts/zombiefeeding.sol\":958:989  (myZombie.dna + _targetDna) / 2 */\n      dup2\n      tag_70\n      jumpi\n      invalid\n    tag_70:\n      div\n        /* \"Solidity/Advanced Solidity Concepts/zombiefeeding.sol\":944:989  uint newDna = (myZombie.dna + _targetDna) / 2 */\n      swap1\n      pop\n        /* \"Solidity/Advanced Solidity Concepts/zombiefeeding.sol\":1050:1075  abi.encodePacked(\"kitty\") */\n      add(0x20, mload(0x40))\n      dup1\n      dup1\n      0x6b69747479000000000000000000000000000000000000000000000000000000\n      dup2\n      mstore\n      pop\n      0x05\n      add\n      swap1\n      pop\n      mload(0x40)\n        /* \"--CODEGEN--\":49:53   */\n      0x20\n        /* \"--CODEGEN--\":39:46   */\n      dup2\n        /* \"--CODEGEN--\":30:37   */\n      dup4\n        /* \"--CODEGEN--\":26:47   */\n      sub\n        /* \"--CODEGEN--\":22:54   */\n      sub\n        /* \"--CODEGEN--\":13:20   */\n      dup2\n        /* \"--CODEGEN--\":6:55   */\n      mstore\n        /* \"Solidity/Advanced Solidity Concepts/zombiefeeding.sol\":1050:1075  abi.encodePacked(\"kitty\") */\n      swap1\n      0x40\n      mstore\n        /* \"Solidity/Advanced Solidity Concepts/zombiefeeding.sol\":1040:1076  keccak256(abi.encodePacked(\"kitty\")) */\n      dup1\n      mload\n      swap1\n      0x20\n      add\n      keccak256\n        /* \"Solidity/Advanced Solidity Concepts/zombiefeeding.sol\":1026:1034  _species */\n      dup4\n        /* \"Solidity/Advanced Solidity Concepts/zombiefeeding.sol\":1009:1035  abi.encodePacked(_species) */\n      add(0x20, mload(0x40))\n      dup1\n      dup3\n      dup1\n      mload\n      swap1\n      0x20\n      add\n      swap1\n      dup1\n      dup4\n      dup4\n        /* \"--CODEGEN--\":36:189   */\n    tag_71:\n        /* \"--CODEGEN--\":66:68   */\n      0x20\n        /* \"--CODEGEN--\":61:64   */\n      dup4\n        /* \"--CODEGEN--\":58:69   */\n      lt\n        /* \"--CODEGEN--\":36:189   */\n      tag_73\n      jumpi\n        /* \"--CODEGEN--\":182:185   */\n      dup1\n        /* \"--CODEGEN--\":176:186   */\n      mload\n        /* \"--CODEGEN--\":171:174   */\n      dup3\n        /* \"--CODEGEN--\":164:187   */\n      mstore\n        /* \"--CODEGEN--\":98:100   */\n      0x20\n        /* \"--CODEGEN--\":93:96   */\n      dup3\n        /* \"--CODEGEN--\":89:101   */\n      add\n        /* \"--CODEGEN--\":82:101   */\n      swap2\n      pop\n        /* \"--CODEGEN--\":123:125   */\n      0x20\n        /* \"--CODEGEN--\":118:121   */\n      dup2\n        /* \"--CODEGEN--\":114:126   */\n      add\n        /* \"--CODEGEN--\":107:126   */\n      swap1\n      pop\n        /* \"--CODEGEN--\":148:150   */\n      0x20\n        /* \"--CODEGEN--\":143:146   */\n      dup4\n        /* \"--CODEGEN--\":139:151   */\n      sub\n        /* \"--CODEGEN--\":132:151   */\n      swap3\n      pop\n        /* \"--CODEGEN--\":36:189   */\n      jump(tag_71)\n    tag_73:\n        /* \"--CODEGEN--\":274:275   */\n      0x01\n        /* \"--CODEGEN--\":267:270   */\n      dup4\n        /* \"--CODEGEN--\":263:265   */\n      0x20\n        /* \"--CODEGEN--\":259:271   */\n      sub\n        /* \"--CODEGEN--\":254:257   */\n      0x0100\n        /* \"--CODEGEN--\":250:272   */\n      exp\n        /* \"--CODEGEN--\":246:276   */\n      sub\n        /* \"--CODEGEN--\":315:319   */\n      dup1\n        /* \"--CODEGEN--\":311:320   */\n      not\n        /* \"--CODEGEN--\":305:308   */\n      dup3\n        /* \"--CODEGEN--\":299:309   */\n      mload\n        /* \"--CODEGEN--\":295:321   */\n      and\n        /* \"--CODEGEN--\":356:360   */\n      dup2\n        /* \"--CODEGEN--\":350:353   */\n      dup5\n        /* \"--CODEGEN--\":344:354   */\n      mload\n        /* \"--CODEGEN--\":340:361   */\n      and\n        /* \"--CODEGEN--\":389:396   */\n      dup1\n        /* \"--CODEGEN--\":380:387   */\n      dup3\n        /* \"--CODEGEN--\":377:397   */\n      or\n        /* \"--CODEGEN--\":372:375   */\n      dup6\n        /* \"--CODEGEN--\":365:398   */\n      mstore\n        /* \"--CODEGEN--\":3:402   */\n      pop\n      pop\n      pop\n        /* \"Solidity/Advanced Solidity Concepts/zombiefeeding.sol\":1009:1035  abi.encodePacked(_species) */\n      pop\n      pop\n      pop\n      swap1\n      pop\n      add\n      swap2\n      pop\n      pop\n      mload(0x40)\n        /* \"--CODEGEN--\":49:53   */\n      0x20\n        /* \"--CODEGEN--\":39:46   */\n      dup2\n        /* \"--CODEGEN--\":30:37   */\n      dup4\n        /* \"--CODEGEN--\":26:47   */\n      sub\n        /* \"--CODEGEN--\":22:54   */\n      sub\n        /* \"--CODEGEN--\":13:20   */\n      dup2\n        /* \"--CODEGEN--\":6:55   */\n      mstore\n        /* \"Solidity/Advanced Solidity Concepts/zombiefeeding.sol\":1009:1035  abi.encodePacked(_species) */\n      swap1\n      0x40\n      mstore\n        /* \"Solidity/Advanced Solidity Concepts/zombiefeeding.sol\":999:1036  keccak256(abi.encodePacked(_species)) */\n      dup1\n      mload\n      swap1\n      0x20\n      add\n      keccak256\n        /* \"Solidity/Advanced Solidity Concepts/zombiefeeding.sol\":999:1076  keccak256(abi.encodePacked(_species)) == keccak256(abi.encodePacked(\"kitty\")) */\n      eq\n        /* \"Solidity/Advanced Solidity Concepts/zombiefeeding.sol\":995:1128  if (keccak256(abi.encodePacked(_species)) == keccak256(abi.encodePacked(\"kitty\"))) {... */\n      iszero\n      tag_74\n      jumpi\n        /* \"Solidity/Advanced Solidity Concepts/zombiefeeding.sol\":1119:1121  99 */\n      0x63\n        /* \"Solidity/Advanced Solidity Concepts/zombiefeeding.sol\":1113:1116  100 */\n      0x64\n        /* \"Solidity/Advanced Solidity Concepts/zombiefeeding.sol\":1104:1110  newDna */\n      dup3\n        /* \"Solidity/Advanced Solidity Concepts/zombiefeeding.sol\":1104:1116  newDna % 100 */\n      dup2\n      tag_75\n      jumpi\n      invalid\n    tag_75:\n      mod\n        /* \"Solidity/Advanced Solidity Concepts/zombiefeeding.sol\":1095:1101  newDna */\n      dup3\n        /* \"Solidity/Advanced Solidity Concepts/zombiefeeding.sol\":1095:1116  newDna - newDna % 100 */\n      sub\n        /* \"Solidity/Advanced Solidity Concepts/zombiefeeding.sol\":1095:1121  newDna - newDna % 100 + 99 */\n      add\n        /* \"Solidity/Advanced Solidity Concepts/zombiefeeding.sol\":1086:1121  newDna = newDna - newDna % 100 + 99 */\n      swap1\n      pop\n        /* \"Solidity/Advanced Solidity Concepts/zombiefeeding.sol\":995:1128  if (keccak256(abi.encodePacked(_species)) == keccak256(abi.encodePacked(\"kitty\"))) {... */\n    tag_74:\n        /* \"Solidity/Advanced Solidity Concepts/zombiefeeding.sol\":1133:1164  _createZombie(\"NoName\", newDna) */\n      tag_76\n      mload(0x40)\n      dup1\n      0x40\n      add\n      0x40\n      mstore\n      dup1\n      0x06\n      dup2\n      mstore\n      0x20\n      add\n      0x4e6f4e616d650000000000000000000000000000000000000000000000000000\n      dup2\n      mstore\n      pop\n        /* \"Solidity/Advanced Solidity Concepts/zombiefeeding.sol\":1157:1163  newDna */\n      dup3\n        /* \"Solidity/Advanced Solidity Concepts/zombiefeeding.sol\":1133:1146  _createZombie */\n      tag_77\n        /* \"Solidity/Advanced Solidity Concepts/zombiefeeding.sol\":1133:1164  _createZombie(\"NoName\", newDna) */\n      jump\t// in\n    tag_76:\n        /* \"Solidity/Advanced Solidity Concepts/zombiefeeding.sol\":1170:1196  _triggerCooldown(myZombie) */\n      tag_78\n        /* \"Solidity/Advanced Solidity Concepts/zombiefeeding.sol\":1187:1195  myZombie */\n      dup3\n        /* \"Solidity/Advanced Solidity Concepts/zombiefeeding.sol\":1170:1186  _triggerCooldown */\n      tag_79\n        /* \"Solidity/Advanced Solidity Concepts/zombiefeeding.sol\":1170:1196  _triggerCooldown(myZombie) */\n      jump\t// in\n    tag_78:\n        /* \"Solidity/Advanced Solidity Concepts/zombiefeeding.sol\":704:1201  function feedAndMultiply(uint _zombieId, uint _targetDna, string memory _species) public {... */\n      pop\n      pop\n      pop\n      pop\n      pop\n      jump\t// out\n        /* \"Solidity/Advanced Solidity Concepts/ownable.sol\":1262:1389  function renounceOwnership() public onlyOwner {... */\n    tag_37:\n        /* \"Solidity/Advanced Solidity Concepts/ownable.sol\":820:829  isOwner() */\n      tag_81\n        /* \"Solidity/Advanced Solidity Concepts/ownable.sol\":820:827  isOwner */\n      tag_47\n        /* \"Solidity/Advanced Solidity Concepts/ownable.sol\":820:829  isOwner() */\n      jump\t// in\n    tag_81:\n        /* \"Solidity/Advanced Solidity Concepts/ownable.sol\":812:830  require(isOwner()) */\n      tag_82\n      jumpi\n      0x00\n      dup1\n      revert\n    tag_82:\n        /* \"Solidity/Advanced Solidity Concepts/ownable.sol\":1356:1357  0 */\n      0x00\n        /* \"Solidity/Advanced Solidity Concepts/ownable.sol\":1319:1359  OwnershipTransferred(_owner, address(0)) */\n      0xffffffffffffffffffffffffffffffffffffffff\n      and\n        /* \"Solidity/Advanced Solidity Concepts/ownable.sol\":1340:1346  _owner */\n      0x00\n      dup1\n      swap1\n      sload\n      swap1\n      0x0100\n      exp\n      swap1\n      div\n      0xffffffffffffffffffffffffffffffffffffffff\n      and\n        /* \"Solidity/Advanced Solidity Concepts/ownable.sol\":1319:1359  OwnershipTransferred(_owner, address(0)) */\n      0xffffffffffffffffffffffffffffffffffffffff\n      and\n      0x8be0079c531659141344cd1fd0a4f28419497f9722a3daafe3b4186f6b6457e0\n      mload(0x40)\n      mload(0x40)\n      dup1\n      swap2\n      sub\n      swap1\n      log3\n        /* \"Solidity/Advanced Solidity Concepts/ownable.sol\":1382:1383  0 */\n      0x00\n        /* \"Solidity/Advanced Solidity Concepts/ownable.sol\":1365:1371  _owner */\n      dup1\n      0x00\n        /* \"Solidity/Advanced Solidity Concepts/ownable.sol\":1365:1384  _owner = address(0) */\n      0x0100\n      exp\n      dup2\n      sload\n      dup2\n      0xffffffffffffffffffffffffffffffffffffffff\n      mul\n      not\n      and\n      swap1\n      dup4\n      0xffffffffffffffffffffffffffffffffffffffff\n      and\n      mul\n      or\n      swap1\n      sstore\n      pop\n        /* \"Solidity/Advanced Solidity Concepts/ownable.sol\":1262:1389  function renounceOwnership() public onlyOwner {... */\n      jump\t// out\n        /* \"Solidity/Advanced Solidity Concepts/zombiefactory.sol\":963:1210  function createRandomZombie(string memory _name) public {... */\n    tag_43:\n        /* \"Solidity/Advanced Solidity Concepts/zombiefactory.sol\":1069:1070  0 */\n      0x00\n        /* \"Solidity/Advanced Solidity Concepts/zombiefactory.sol\":1037:1053  ownerZombieCount */\n      0x06\n        /* \"Solidity/Advanced Solidity Concepts/zombiefactory.sol\":1037:1065  ownerZombieCount[msg.sender] */\n      0x00\n        /* \"Solidity/Advanced Solidity Concepts/zombiefactory.sol\":1054:1064  msg.sender */\n      caller\n        /* \"Solidity/Advanced Solidity Concepts/zombiefactory.sol\":1037:1065  ownerZombieCount[msg.sender] */\n      0xffffffffffffffffffffffffffffffffffffffff\n      and\n      0xffffffffffffffffffffffffffffffffffffffff\n      and\n      dup2\n      mstore\n      0x20\n      add\n      swap1\n      dup2\n      mstore\n      0x20\n      add\n      0x00\n      keccak256\n      sload\n        /* \"Solidity/Advanced Solidity Concepts/zombiefactory.sol\":1037:1070  ownerZombieCount[msg.sender] == 0 */\n      eq\n        /* \"Solidity/Advanced Solidity Concepts/zombiefactory.sol\":1029:1071  require(ownerZombieCount[msg.sender] == 0) */\n      tag_85\n      jumpi\n      0x00\n      dup1\n      revert\n    tag_85:\n        /* \"Solidity/Advanced Solidity Concepts/zombiefactory.sol\":1081:1093  uint randDna */\n      0x00\n        /* \"Solidity/Advanced Solidity Concepts/zombiefactory.sol\":1096:1121  _generateRandomDna(_name) */\n      tag_86\n        /* \"Solidity/Advanced Solidity Concepts/zombiefactory.sol\":1115:1120  _name */\n      dup3\n        /* \"Solidity/Advanced Solidity Concepts/zombiefactory.sol\":1096:1114  _generateRandomDna */\n      tag_87\n        /* \"Solidity/Advanced Solidity Concepts/zombiefactory.sol\":1096:1121  _generateRandomDna(_name) */\n      jump\t// in\n    tag_86:\n        /* \"Solidity/Advanced Solidity Concepts/zombiefactory.sol\":1081:1121  uint randDna = _generateRandomDna(_name) */\n      swap1\n      pop\n        /* \"Solidity/Advanced Solidity Concepts/zombiefactory.sol\":1161:1164  100 */\n      0x64\n        /* \"Solidity/Advanced Solidity Concepts/zombiefactory.sol\":1151:1158  randDna */\n      dup2\n        /* \"Solidity/Advanced Solidity Concepts/zombiefactory.sol\":1151:1164  randDna % 100 */\n      dup2\n      tag_88\n      jumpi\n      invalid\n    tag_88:\n      mod\n        /* \"Solidity/Advanced Solidity Concepts/zombiefactory.sol\":1141:1148  randDna */\n      dup2\n        /* \"Solidity/Advanced Solidity Concepts/zombiefactory.sol\":1141:1164  randDna - randDna % 100 */\n      sub\n        /* \"Solidity/Advanced Solidity Concepts/zombiefactory.sol\":1131:1164  randDna = randDna - randDna % 100 */\n      swap1\n      pop\n        /* \"Solidity/Advanced Solidity Concepts/zombiefactory.sol\":1174:1203  _createZombie(_name, randDna) */\n      tag_89\n        /* \"Solidity/Advanced Solidity Concepts/zombiefactory.sol\":1188:1193  _name */\n      dup3\n        /* \"Solidity/Advanced Solidity Concepts/zombiefactory.sol\":1195:1202  randDna */\n      dup3\n        /* \"Solidity/Advanced Solidity Concepts/zombiefactory.sol\":1174:1187  _createZombie */\n      tag_77\n        /* \"Solidity/Advanced Solidity Concepts/zombiefactory.sol\":1174:1203  _createZombie(_name, randDna) */\n      jump\t// in\n    tag_89:\n        /* \"Solidity/Advanced Solidity Concepts/zombiefactory.sol\":963:1210  function createRandomZombie(string memory _name) public {... */\n      pop\n      pop\n      jump\t// out\n        /* \"Solidity/Advanced Solidity Concepts/ownable.sol\":637:707  function owner() public view returns(address) {... */\n    tag_45:\n        /* \"Solidity/Advanced Solidity Concepts/ownable.sol\":674:681  address */\n      0x00\n        /* \"Solidity/Advanced Solidity Concepts/ownable.sol\":696:702  _owner */\n      dup1\n      0x00\n      swap1\n      sload\n      swap1\n      0x0100\n      exp\n      swap1\n      div\n      0xffffffffffffffffffffffffffffffffffffffff\n      and\n        /* \"Solidity/Advanced Solidity Concepts/ownable.sol\":689:702  return _owner */\n      swap1\n      pop\n        /* \"Solidity/Advanced Solidity Concepts/ownable.sol\":637:707  function owner() public view returns(address) {... */\n      swap1\n      jump\t// out\n        /* \"Solidity/Advanced Solidity Concepts/ownable.sol\":920:1003  function isOwner() public view returns(bool) {... */\n    tag_47:\n        /* \"Solidity/Advanced Solidity Concepts/ownable.sol\":959:963  bool */\n      0x00\n        /* \"Solidity/Advanced Solidity Concepts/ownable.sol\":992:998  _owner */\n      dup1\n      0x00\n      swap1\n      sload\n      swap1\n      0x0100\n      exp\n      swap1\n      div\n      0xffffffffffffffffffffffffffffffffffffffff\n      and\n        /* \"Solidity/Advanced Solidity Concepts/ownable.sol\":978:998  msg.sender == _owner */\n      0xffffffffffffffffffffffffffffffffffffffff\n      and\n        /* \"Solidity/Advanced Solidity Concepts/ownable.sol\":978:988  msg.sender */\n      caller\n        /* \"Solidity/Advanced Solidity Concepts/ownable.sol\":978:998  msg.sender == _owner */\n      0xffffffffffffffffffffffffffffffffffffffff\n      and\n      eq\n        /* \"Solidity/Advanced Solidity Concepts/ownable.sol\":971:998  return msg.sender == _owner */\n      swap1\n      pop\n        /* \"Solidity/Advanced Solidity Concepts/ownable.sol\":920:1003  function isOwner() public view returns(bool) {... */\n      swap1\n      jump\t// out\n        /* \"Solidity/Advanced Solidity Concepts/ownable.sol\":1547:1648  function transferOwnership(address newOwner) public onlyOwner {... */\n    tag_50:\n        /* \"Solidity/Advanced Solidity Concepts/ownable.sol\":820:829  isOwner() */\n      tag_93\n        /* \"Solidity/Advanced Solidity Concepts/ownable.sol\":820:827  isOwner */\n      tag_47\n        /* \"Solidity/Advanced Solidity Concepts/ownable.sol\":820:829  isOwner() */\n      jump\t// in\n    tag_93:\n        /* \"Solidity/Advanced Solidity Concepts/ownable.sol\":812:830  require(isOwner()) */\n      tag_94\n      jumpi\n      0x00\n      dup1\n      revert\n    tag_94:\n        /* \"Solidity/Advanced Solidity Concepts/ownable.sol\":1615:1643  _transferOwnership(newOwner) */\n      tag_96\n        /* \"Solidity/Advanced Solidity Concepts/ownable.sol\":1634:1642  newOwner */\n      dup2\n        /* \"Solidity/Advanced Solidity Concepts/ownable.sol\":1615:1633  _transferOwnership */\n      tag_97\n        /* \"Solidity/Advanced Solidity Concepts/ownable.sol\":1615:1643  _transferOwnership(newOwner) */\n      jump\t// in\n    tag_96:\n        /* \"Solidity/Advanced Solidity Concepts/ownable.sol\":1547:1648  function transferOwnership(address newOwner) public onlyOwner {... */\n      pop\n      jump\t// out\n        /* \"Solidity/Advanced Solidity Concepts/zombiefactory.sol\":493:773  function _createZombie(string memory _name, uint _dna) internal {... */\n    tag_77:\n        /* \"Solidity/Advanced Solidity Concepts/zombiefactory.sol\":567:574  uint id */\n      0x00\n        /* \"Solidity/Advanced Solidity Concepts/zombiefactory.sol\":644:645  1 */\n      0x01\n        /* \"Solidity/Advanced Solidity Concepts/zombiefactory.sol\":577:584  zombies */\n      0x04\n        /* \"Solidity/Advanced Solidity Concepts/zombiefactory.sol\":590:640  Zombie(_name, _dna, 1, uint32(now + cooldownTime)) */\n      mload(0x40)\n      dup1\n      0x80\n      add\n      0x40\n      mstore\n      dup1\n        /* \"Solidity/Advanced Solidity Concepts/zombiefactory.sol\":597:602  _name */\n      dup7\n        /* \"Solidity/Advanced Solidity Concepts/zombiefactory.sol\":590:640  Zombie(_name, _dna, 1, uint32(now + cooldownTime)) */\n      dup2\n      mstore\n      0x20\n      add\n        /* \"Solidity/Advanced Solidity Concepts/zombiefactory.sol\":604:608  _dna */\n      dup6\n        /* \"Solidity/Advanced Solidity Concepts/zombiefactory.sol\":590:640  Zombie(_name, _dna, 1, uint32(now + cooldownTime)) */\n      dup2\n      mstore\n      0x20\n      add\n        /* \"Solidity/Advanced Solidity Concepts/zombiefactory.sol\":610:611  1 */\n      0x01\n        /* \"Solidity/Advanced Solidity Concepts/zombiefactory.sol\":590:640  Zombie(_name, _dna, 1, uint32(now + cooldownTime)) */\n      0xffffffff\n      and\n      dup2\n      mstore\n      0x20\n      add\n        /* \"Solidity/Advanced Solidity Concepts/zombiefactory.sol\":626:638  cooldownTime */\n      sload(0x03)\n        /* \"Solidity/Advanced Solidity Concepts/zombiefactory.sol\":620:623  now */\n      timestamp\n        /* \"Solidity/Advanced Solidity Concepts/zombiefactory.sol\":620:638  now + cooldownTime */\n      add\n        /* \"Solidity/Advanced Solidity Concepts/zombiefactory.sol\":590:640  Zombie(_name, _dna, 1, uint32(now + cooldownTime)) */\n      0xffffffff\n      and\n      dup2\n      mstore\n      pop\n        /* \"Solidity/Advanced Solidity Concepts/zombiefactory.sol\":577:641  zombies.push(Zombie(_name, _dna, 1, uint32(now + cooldownTime))) */\n      swap1\n      dup1\n        /* \"--CODEGEN--\":39:40   */\n      0x01\n        /* \"--CODEGEN--\":33:36   */\n      dup2\n        /* \"--CODEGEN--\":27:37   */\n      sload\n        /* \"--CODEGEN--\":23:41   */\n      add\n        /* \"--CODEGEN--\":57:67   */\n      dup1\n        /* \"--CODEGEN--\":52:55   */\n      dup3\n        /* \"--CODEGEN--\":45:68   */\n      sstore\n        /* \"--CODEGEN--\":79:89   */\n      dup1\n        /* \"--CODEGEN--\":72:89   */\n      swap2\n      pop\n        /* \"--CODEGEN--\":0:93   */\n      pop\n        /* \"Solidity/Advanced Solidity Concepts/zombiefactory.sol\":577:641  zombies.push(Zombie(_name, _dna, 1, uint32(now + cooldownTime))) */\n      swap1\n      0x01\n      dup3\n      sub\n      swap1\n      0x00\n      mstore\n      keccak256(0x00, 0x20)\n      swap1\n      0x03\n      mul\n      add\n      0x00\n      swap1\n      swap2\n      swap3\n      swap1\n      swap2\n      swap1\n      swap2\n      pop\n      0x00\n      dup3\n      add\n      mload\n      dup2\n      0x00\n      add\n      swap1\n      dup1\n      mload\n      swap1\n      0x20\n      add\n      swap1\n      tag_100\n      swap3\n      swap2\n      swap1\n      tag_101\n      jump\t// in\n    tag_100:\n      pop\n      0x20\n      dup3\n      add\n      mload\n      dup2\n      0x01\n      add\n      sstore\n      0x40\n      dup3\n      add\n      mload\n      dup2\n      0x02\n      add\n      exp(0x0100, 0x00)\n      dup2\n      sload\n      dup2\n      0xffffffff\n      mul\n      not\n      and\n      swap1\n      dup4\n      0xffffffff\n      and\n      mul\n      or\n      swap1\n      sstore\n      pop\n      0x60\n      dup3\n      add\n      mload\n      dup2\n      0x02\n      add\n      exp(0x0100, 0x04)\n      dup2\n      sload\n      dup2\n      0xffffffff\n      mul\n      not\n      and\n      swap1\n      dup4\n      0xffffffff\n      and\n      mul\n      or\n      swap1\n      sstore\n      pop\n      pop\n      pop\n        /* \"Solidity/Advanced Solidity Concepts/zombiefactory.sol\":577:645  zombies.push(Zombie(_name, _dna, 1, uint32(now + cooldownTime))) - 1 */\n      sub\n        /* \"Solidity/Advanced Solidity Concepts/zombiefactory.sol\":567:645  uint id = zombies.push(Zombie(_name, _dna, 1, uint32(now + cooldownTime))) - 1 */\n      swap1\n      pop\n        /* \"Solidity/Advanced Solidity Concepts/zombiefactory.sol\":675:685  msg.sender */\n      caller\n        /* \"Solidity/Advanced Solidity Concepts/zombiefactory.sol\":655:668  zombieToOwner */\n      0x05\n        /* \"Solidity/Advanced Solidity Concepts/zombiefactory.sol\":655:672  zombieToOwner[id] */\n      0x00\n        /* \"Solidity/Advanced Solidity Concepts/zombiefactory.sol\":669:671  id */\n      dup4\n        /* \"Solidity/Advanced Solidity Concepts/zombiefactory.sol\":655:672  zombieToOwner[id] */\n      dup2\n      mstore\n      0x20\n      add\n      swap1\n      dup2\n      mstore\n      0x20\n      add\n      0x00\n      keccak256\n      0x00\n        /* \"Solidity/Advanced Solidity Concepts/zombiefactory.sol\":655:685  zombieToOwner[id] = msg.sender */\n      0x0100\n      exp\n      dup2\n      sload\n      dup2\n      0xffffffffffffffffffffffffffffffffffffffff\n      mul\n      not\n      and\n      swap1\n      dup4\n      0xffffffffffffffffffffffffffffffffffffffff\n      and\n      mul\n      or\n      swap1\n      sstore\n      pop\n        /* \"Solidity/Advanced Solidity Concepts/zombiefactory.sol\":695:711  ownerZombieCount */\n      0x06\n        /* \"Solidity/Advanced Solidity Concepts/zombiefactory.sol\":695:723  ownerZombieCount[msg.sender] */\n      0x00\n        /* \"Solidity/Advanced Solidity Concepts/zombiefactory.sol\":712:722  msg.sender */\n      caller\n        /* \"Solidity/Advanced Solidity Concepts/zombiefactory.sol\":695:723  ownerZombieCount[msg.sender] */\n      0xffffffffffffffffffffffffffffffffffffffff\n      and\n      0xffffffffffffffffffffffffffffffffffffffff\n      and\n      dup2\n      mstore\n      0x20\n      add\n      swap1\n      dup2\n      mstore\n      0x20\n      add\n      0x00\n      keccak256\n      0x00\n        /* \"Solidity/Advanced Solidity Concepts/zombiefactory.sol\":695:725  ownerZombieCount[msg.sender]++ */\n      dup2\n      sload\n      dup1\n      swap3\n      swap2\n      swap1\n      0x01\n      add\n      swap2\n      swap1\n      pop\n      sstore\n      pop\n        /* \"Solidity/Advanced Solidity Concepts/zombiefactory.sol\":740:766  NewZombie(id, _name, _dna) */\n      0x88f026aacbbecc90c18411df4b1185fd8d9be2470f1962f192bf84a27d0704b7\n        /* \"Solidity/Advanced Solidity Concepts/zombiefactory.sol\":750:752  id */\n      dup2\n        /* \"Solidity/Advanced Solidity Concepts/zombiefactory.sol\":754:759  _name */\n      dup5\n        /* \"Solidity/Advanced Solidity Concepts/zombiefactory.sol\":761:765  _dna */\n      dup5\n        /* \"Solidity/Advanced Solidity Concepts/zombiefactory.sol\":740:766  NewZombie(id, _name, _dna) */\n      mload(0x40)\n      dup1\n      dup5\n      dup2\n      mstore\n      0x20\n      add\n      dup1\n      0x20\n      add\n      dup4\n      dup2\n      mstore\n      0x20\n      add\n      dup3\n      dup2\n      sub\n      dup3\n      mstore\n      dup5\n      dup2\n      dup2\n      mload\n      dup2\n      mstore\n      0x20\n      add\n      swap2\n      pop\n      dup1\n      mload\n      swap1\n      0x20\n      add\n      swap1\n      dup1\n      dup4\n      dup4\n        /* \"--CODEGEN--\":23:24   */\n      0x00\n        /* \"--CODEGEN--\":8:108   */\n    tag_102:\n        /* \"--CODEGEN--\":33:36   */\n      dup4\n        /* \"--CODEGEN--\":30:31   */\n      dup2\n        /* \"--CODEGEN--\":27:37   */\n      lt\n        /* \"--CODEGEN--\":8:108   */\n      iszero\n      tag_104\n      jumpi\n        /* \"--CODEGEN--\":99:100   */\n      dup1\n        /* \"--CODEGEN--\":94:97   */\n      dup3\n        /* \"--CODEGEN--\":90:101   */\n      add\n        /* \"--CODEGEN--\":84:102   */\n      mload\n        /* \"--CODEGEN--\":80:81   */\n      dup2\n        /* \"--CODEGEN--\":75:78   */\n      dup5\n        /* \"--CODEGEN--\":71:82   */\n      add\n        /* \"--CODEGEN--\":64:103   */\n      mstore\n        /* \"--CODEGEN--\":52:54   */\n      0x20\n        /* \"--CODEGEN--\":49:50   */\n      dup2\n        /* \"--CODEGEN--\":45:55   */\n      add\n        /* \"--CODEGEN--\":40:55   */\n      swap1\n      pop\n        /* \"--CODEGEN--\":8:108   */\n      jump(tag_102)\n    tag_104:\n        /* \"--CODEGEN--\":12:26   */\n      pop\n        /* \"Solidity/Advanced Solidity Concepts/zombiefactory.sol\":740:766  NewZombie(id, _name, _dna) */\n      pop\n      pop\n      pop\n      swap1\n      pop\n      swap1\n      dup2\n      add\n      swap1\n      0x1f\n      and\n      dup1\n      iszero\n      tag_105\n      jumpi\n      dup1\n      dup3\n      sub\n      dup1\n      mload\n      0x01\n      dup4\n      0x20\n      sub\n      0x0100\n      exp\n      sub\n      not\n      and\n      dup2\n      mstore\n      0x20\n      add\n      swap2\n      pop\n    tag_105:\n      pop\n      swap5\n      pop\n      pop\n      pop\n      pop\n      pop\n      mload(0x40)\n      dup1\n      swap2\n      sub\n      swap1\n      log1\n        /* \"Solidity/Advanced Solidity Concepts/zombiefactory.sol\":493:773  function _createZombie(string memory _name, uint _dna) internal {... */\n      pop\n      pop\n      pop\n      jump\t// out\n        /* \"Solidity/Advanced Solidity Concepts/zombiefeeding.sol\":584:700  function _triggerCooldown(Zombie storage _zombie) internal {... */\n    tag_79:\n        /* \"Solidity/Advanced Solidity Concepts/zombiefeeding.sol\":682:694  cooldownTime */\n      sload(0x03)\n        /* \"Solidity/Advanced Solidity Concepts/zombiefeeding.sol\":676:679  now */\n      timestamp\n        /* \"Solidity/Advanced Solidity Concepts/zombiefeeding.sol\":676:694  now + cooldownTime */\n      add\n        /* \"Solidity/Advanced Solidity Concepts/zombiefeeding.sol\":649:656  _zombie */\n      dup2\n        /* \"Solidity/Advanced Solidity Concepts/zombiefeeding.sol\":649:666  _zombie.readyTime */\n      0x02\n      add\n      0x04\n        /* \"Solidity/Advanced Solidity Concepts/zombiefeeding.sol\":649:695  _zombie.readyTime = uint32(now + cooldownTime) */\n      0x0100\n      exp\n      dup2\n      sload\n      dup2\n      0xffffffff\n      mul\n      not\n      and\n      swap1\n      dup4\n      0xffffffff\n      and\n      mul\n      or\n      swap1\n      sstore\n      pop\n        /* \"Solidity/Advanced Solidity Concepts/zombiefeeding.sol\":584:700  function _triggerCooldown(Zombie storage _zombie) internal {... */\n      pop\n      jump\t// out\n        /* \"Solidity/Advanced Solidity Concepts/zombiefactory.sol\":779:957  function _generateRandomDna(string memory _str) private view returns (uint) {... */\n    tag_87:\n        /* \"Solidity/Advanced Solidity Concepts/zombiefactory.sol\":849:853  uint */\n      0x00\n        /* \"Solidity/Advanced Solidity Concepts/zombiefactory.sol\":865:874  uint rand */\n      dup1\n        /* \"Solidity/Advanced Solidity Concepts/zombiefactory.sol\":909:913  _str */\n      dup3\n        /* \"Solidity/Advanced Solidity Concepts/zombiefactory.sol\":892:914  abi.encodePacked(_str) */\n      add(0x20, mload(0x40))\n      dup1\n      dup3\n      dup1\n      mload\n      swap1\n      0x20\n      add\n      swap1\n      dup1\n      dup4\n      dup4\n        /* \"--CODEGEN--\":36:189   */\n    tag_108:\n        /* \"--CODEGEN--\":66:68   */\n      0x20\n        /* \"--CODEGEN--\":61:64   */\n      dup4\n        /* \"--CODEGEN--\":58:69   */\n      lt\n        /* \"--CODEGEN--\":36:189   */\n      tag_110\n      jumpi\n        /* \"--CODEGEN--\":182:185   */\n      dup1\n        /* \"--CODEGEN--\":176:186   */\n      mload\n        /* \"--CODEGEN--\":171:174   */\n      dup3\n        /* \"--CODEGEN--\":164:187   */\n      mstore\n        /* \"--CODEGEN--\":98:100   */\n      0x20\n        /* \"--CODEGEN--\":93:96   */\n      dup3\n        /* \"--CODEGEN--\":89:101   */\n      add\n        /* \"--CODEGEN--\":82:101   */\n      swap2\n      pop\n        /* \"--CODEGEN--\":123:125   */\n      0x20\n        /* \"--CODEGEN--\":118:121   */\n      dup2\n        /* \"--CODEGEN--\":114:126   */\n      add\n        /* \"--CODEGEN--\":107:126   */\n      swap1\n      pop\n        /* \"--CODEGEN--\":148:150   */\n      0x20\n        /* \"--CODEGEN--\":143:146   */\n      dup4\n        /* \"--CODEGEN--\":139:151   */\n      sub\n        /* \"--CODEGEN--\":132:151   */\n      swap3\n      pop\n        /* \"--CODEGEN--\":36:189   */\n      jump(tag_108)\n    tag_110:\n        /* \"--CODEGEN--\":274:275   */\n      0x01\n        /* \"--CODEGEN--\":267:270   */\n      dup4\n        /* \"--CODEGEN--\":263:265   */\n      0x20\n        /* \"--CODEGEN--\":259:271   */\n      sub\n        /* \"--CODEGEN--\":254:257   */\n      0x0100\n        /* \"--CODEGEN--\":250:272   */\n      exp\n        /* \"--CODEGEN--\":246:276   */\n      sub\n        /* \"--CODEGEN--\":315:319   */\n      dup1\n        /* \"--CODEGEN--\":311:320   */\n      not\n        /* \"--CODEGEN--\":305:308   */\n      dup3\n        /* \"--CODEGEN--\":299:309   */\n      mload\n        /* \"--CODEGEN--\":295:321   */\n      and\n        /* \"--CODEGEN--\":356:360   */\n      dup2\n        /* \"--CODEGEN--\":350:353   */\n      dup5\n        /* \"--CODEGEN--\":344:354   */\n      mload\n        /* \"--CODEGEN--\":340:361   */\n      and\n        /* \"--CODEGEN--\":389:396   */\n      dup1\n        /* \"--CODEGEN--\":380:387   */\n      dup3\n        /* \"--CODEGEN--\":377:397   */\n      or\n        /* \"--CODEGEN--\":372:375   */\n      dup6\n        /* \"--CODEGEN--\":365:398   */\n      mstore\n        /* \"--CODEGEN--\":3:402   */\n      pop\n      pop\n      pop\n        /* \"Solidity/Advanced Solidity Concepts/zombiefactory.sol\":892:914  abi.encodePacked(_str) */\n      pop\n      pop\n      pop\n      swap1\n      pop\n      add\n      swap2\n      pop\n      pop\n      mload(0x40)\n        /* \"--CODEGEN--\":49:53   */\n      0x20\n        /* \"--CODEGEN--\":39:46   */\n      dup2\n        /* \"--CODEGEN--\":30:37   */\n      dup4\n        /* \"--CODEGEN--\":26:47   */\n      sub\n        /* \"--CODEGEN--\":22:54   */\n      sub\n        /* \"--CODEGEN--\":13:20   */\n      dup2\n        /* \"--CODEGEN--\":6:55   */\n      mstore\n        /* \"Solidity/Advanced Solidity Concepts/zombiefactory.sol\":892:914  abi.encodePacked(_str) */\n      swap1\n      0x40\n      mstore\n        /* \"Solidity/Advanced Solidity Concepts/zombiefactory.sol\":882:915  keccak256(abi.encodePacked(_str)) */\n      dup1\n      mload\n      swap1\n      0x20\n      add\n      keccak256\n        /* \"Solidity/Advanced Solidity Concepts/zombiefactory.sol\":877:916  uint(keccak256(abi.encodePacked(_str))) */\n      0x00\n      shr\n        /* \"Solidity/Advanced Solidity Concepts/zombiefactory.sol\":865:916  uint rand = uint(keccak256(abi.encodePacked(_str))) */\n      swap1\n      pop\n        /* \"Solidity/Advanced Solidity Concepts/zombiefactory.sol\":940:950  dnaModulus */\n      sload(0x02)\n        /* \"Solidity/Advanced Solidity Concepts/zombiefactory.sol\":933:937  rand */\n      dup2\n        /* \"Solidity/Advanced Solidity Concepts/zombiefactory.sol\":933:950  rand % dnaModulus */\n      dup2\n      tag_111\n      jumpi\n      invalid\n    tag_111:\n      mod\n        /* \"Solidity/Advanced Solidity Concepts/zombiefactory.sol\":926:950  return rand % dnaModulus */\n      swap2\n      pop\n      pop\n        /* \"Solidity/Advanced Solidity Concepts/zombiefactory.sol\":779:957  function _generateRandomDna(string memory _str) private view returns (uint) {... */\n      swap2\n      swap1\n      pop\n      jump\t// out\n        /* \"Solidity/Advanced Solidity Concepts/ownable.sol\":1779:1948  function _transferOwnership(address newOwner) internal {... */\n    tag_97:\n        /* \"Solidity/Advanced Solidity Concepts/ownable.sol\":1868:1869  0 */\n      0x00\n        /* \"Solidity/Advanced Solidity Concepts/ownable.sol\":1848:1870  newOwner != address(0) */\n      0xffffffffffffffffffffffffffffffffffffffff\n      and\n        /* \"Solidity/Advanced Solidity Concepts/ownable.sol\":1848:1856  newOwner */\n      dup2\n        /* \"Solidity/Advanced Solidity Concepts/ownable.sol\":1848:1870  newOwner != address(0) */\n      0xffffffffffffffffffffffffffffffffffffffff\n      and\n      eq\n      iszero\n        /* \"Solidity/Advanced Solidity Concepts/ownable.sol\":1840:1871  require(newOwner != address(0)) */\n      tag_113\n      jumpi\n      0x00\n      dup1\n      revert\n    tag_113:\n        /* \"Solidity/Advanced Solidity Concepts/ownable.sol\":1911:1919  newOwner */\n      dup1\n        /* \"Solidity/Advanced Solidity Concepts/ownable.sol\":1882:1920  OwnershipTransferred(_owner, newOwner) */\n      0xffffffffffffffffffffffffffffffffffffffff\n      and\n        /* \"Solidity/Advanced Solidity Concepts/ownable.sol\":1903:1909  _owner */\n      0x00\n      dup1\n      swap1\n      sload\n      swap1\n      0x0100\n      exp\n      swap1\n      div\n      0xffffffffffffffffffffffffffffffffffffffff\n      and\n        /* \"Solidity/Advanced Solidity Concepts/ownable.sol\":1882:1920  OwnershipTransferred(_owner, newOwner) */\n      0xffffffffffffffffffffffffffffffffffffffff\n      and\n      0x8be0079c531659141344cd1fd0a4f28419497f9722a3daafe3b4186f6b6457e0\n      mload(0x40)\n      mload(0x40)\n      dup1\n      swap2\n      sub\n      swap1\n      log3\n        /* \"Solidity/Advanced Solidity Concepts/ownable.sol\":1935:1943  newOwner */\n      dup1\n        /* \"Solidity/Advanced Solidity Concepts/ownable.sol\":1926:1932  _owner */\n      0x00\n      dup1\n        /* \"Solidity/Advanced Solidity Concepts/ownable.sol\":1926:1943  _owner = newOwner */\n      0x0100\n      exp\n      dup2\n      sload\n      dup2\n      0xffffffffffffffffffffffffffffffffffffffff\n      mul\n      not\n      and\n      swap1\n      dup4\n      0xffffffffffffffffffffffffffffffffffffffff\n      and\n      mul\n      or\n      swap1\n      sstore\n      pop\n        /* \"Solidity/Advanced Solidity Concepts/ownable.sol\":1779:1948  function _transferOwnership(address newOwner) internal {... */\n      pop\n      jump\t// out\n        /* \"Solidity/Advanced Solidity Concepts/zombiefeeding.sol\":381:1402  contract ZombieFeeding is ZombieFactory {... */\n    tag_101:\n      dup3\n      dup1\n      sload\n      0x01\n      dup2\n      0x01\n      and\n      iszero\n      0x0100\n      mul\n      sub\n      and\n      0x02\n      swap1\n      div\n      swap1\n      0x00\n      mstore\n      keccak256(0x00, 0x20)\n      swap1\n      0x1f\n      add\n      0x20\n      swap1\n      div\n      dup2\n      add\n      swap3\n      dup3\n      0x1f\n      lt\n      tag_115\n      jumpi\n      dup1\n      mload\n      not(0xff)\n      and\n      dup4\n      dup1\n      add\n      or\n      dup6\n      sstore\n      jump(tag_114)\n    tag_115:\n      dup3\n      dup1\n      add\n      0x01\n      add\n      dup6\n      sstore\n      dup3\n      iszero\n      tag_114\n      jumpi\n      swap2\n      dup3\n      add\n    tag_116:\n      dup3\n      dup2\n      gt\n      iszero\n      tag_117\n      jumpi\n      dup3\n      mload\n      dup3\n      sstore\n      swap2\n      0x20\n      add\n      swap2\n      swap1\n      0x01\n      add\n      swap1\n      jump(tag_116)\n    tag_117:\n    tag_114:\n      pop\n      swap1\n      pop\n      tag_118\n      swap2\n      swap1\n      tag_119\n      jump\t// in\n    tag_118:\n      pop\n      swap1\n      jump\t// out\n    tag_119:\n      tag_120\n      swap2\n      swap1\n    tag_121:\n      dup1\n      dup3\n      gt\n      iszero\n      tag_122\n      jumpi\n      0x00\n      dup2\n      0x00\n      swap1\n      sstore\n      pop\n      0x01\n      add\n      jump(tag_121)\n    tag_122:\n      pop\n      swap1\n      jump\n    tag_120:\n      swap1\n      jump\t// out\n\n    auxdata: 0xa265627a7a7231582074e3da634c3a3dafdb1e30b942fba5c72c7b737dcc1641e22a1e01178845069f64736f6c63430005110032\n}\n",
				"bytecode": {
					"linkReferences": {},
					"object": "60806040526010600155600154600a0a60025562015180600355336000806101000a81548173ffffffffffffffffffffffffffffffffffffffff021916908373ffffffffffffffffffffffffffffffffffffffff1602179055506000809054906101000a900473ffffffffffffffffffffffffffffffffffffffff1673ffffffffffffffffffffffffffffffffffffffff16600073ffffffffffffffffffffffffffffffffffffffff167f8be0079c531659141344cd1fd0a4f28419497f9722a3daafe3b4186f6b6457e060405160405180910390a3611017806100e46000396000f3fe608060405234801561001057600080fd5b506004361061009e5760003560e01c8063715018a611610066578063715018a6146103305780637bff0a011461033a5780638da5cb5b146103f55780638f32d59b1461043f578063f2fde38b146104615761009e565b806317a7f4cc146100a35780632052465e146100db578063528b7b8f146101af5780635f4623f11461021d5780636b0bfc8014610261575b600080fd5b6100d9600480360360408110156100b957600080fd5b8101908080359060200190929190803590602001909291905050506104a5565b005b610107600480360360208110156100f157600080fd5b8101908080359060200190929190505050610630565b60405180806020018581526020018463ffffffff1663ffffffff1681526020018363ffffffff1663ffffffff168152602001828103825286818151815260200191508051906020019080838360005b83811015610171578082015181840152602081019050610156565b50505050905090810190601f16801561019e5780820380516001836020036101000a031916815260200191505b509550505050505060405180910390f35b6101db600480360360208110156101c557600080fd5b8101908080359060200190929190505050610725565b604051808273ffffffffffffffffffffffffffffffffffffffff1673ffffffffffffffffffffffffffffffffffffffff16815260200191505060405180910390f35b61025f6004803603602081101561023357600080fd5b81019080803573ffffffffffffffffffffffffffffffffffffffff169060200190929190505050610758565b005b61032e6004803603606081101561027757600080fd5b810190808035906020019092919080359060200190929190803590602001906401000000008111156102a857600080fd5b8201836020820111156102ba57600080fd5b803590602001918460018302840111640100000000831117156102dc57600080fd5b91908080601f016020809104026020016040519081016040528093929190818152602001838380828437600081840152601f19601f8201169050808301925050505050505091929192905050506107ad565b005b61033861097b565b005b6103f36004803603602081101561035057600080fd5b810190808035906020019064010000000081111561036d57600080fd5b82018360208201111561037f57600080fd5b803590602001918460018302840111640100000000831117156103a157600080fd5b91908080601f016020809104026020016040519081016040528093929190818152602001838380828437600081840152601f19601f820116905080830192505050505050509192919290505050610a4b565b005b6103fd610ac1565b604051808273ffffffffffffffffffffffffffffffffffffffff1673ffffffffffffffffffffffffffffffffffffffff16815260200191505060405180910390f35b610447610aea565b604051808215151515815260200191505060405180910390f35b6104a36004803603602081101561047757600080fd5b81019080803573ffffffffffffffffffffffffffffffffffffffff169060200190929190505050610b41565b005b6000600760009054906101000a900473ffffffffffffffffffffffffffffffffffffffff1673ffffffffffffffffffffffffffffffffffffffff1663e98b7f4d836040518263ffffffff1660e01b8152600401808281526020019150506101406040518083038186803b15801561051b57600080fd5b505afa15801561052f573d6000803e3d6000fd5b505050506040513d61014081101561054657600080fd5b81019080805190602001909291908051906020019092919080519060200190929190805190602001909291908051906020019092919080519060200190929190805190602001909291908051906020019092919080519060200190929190805190602001909291905050509091929394959697985090919293949596975090919293949596509091929394955090919293945090919293509091925090915090508091505061062b83826040518060400160405280600581526020017f6b697474790000000000000000000000000000000000000000000000000000008152506107ad565b505050565b6004818154811061063d57fe5b9060005260206000209060030201600091509050806000018054600181600116156101000203166002900480601f0160208091040260200160405190810160405280929190818152602001828054600181600116156101000203166002900480156106e95780601f106106be576101008083540402835291602001916106e9565b820191906000526020600020905b8154815290600101906020018083116106cc57829003601f168201915b5050505050908060010154908060020160009054906101000a900463ffffffff16908060020160049054906101000a900463ffffffff16905084565b60056020528060005260406000206000915054906101000a900473ffffffffffffffffffffffffffffffffffffffff1681565b610760610aea565b61076957600080fd5b80600760006101000a81548173ffffffffffffffffffffffffffffffffffffffff021916908373ffffffffffffffffffffffffffffffffffffffff16021790555050565b6005600084815260200190815260200160002060009054906101000a900473ffffffffffffffffffffffffffffffffffffffff1673ffffffffffffffffffffffffffffffffffffffff163373ffffffffffffffffffffffffffffffffffffffff161461081857600080fd5b60006004848154811061082757fe5b90600052602060002090600302019050600254838161084257fe5b06925060006002848360010154018161085757fe5b04905060405160200180807f6b69747479000000000000000000000000000000000000000000000000000000815250600501905060405160208183030381529060405280519060200120836040516020018082805190602001908083835b602083106108d857805182526020820191506020810190506020830392506108b5565b6001836020036101000a03801982511681845116808217855250505050505090500191505060405160208183030381529060405280519060200120141561092c5760636064828161092557fe5b0682030190505b61096b6040518060400160405280600681526020017f4e6f4e616d65000000000000000000000000000000000000000000000000000081525082610b5e565b61097482610d8d565b5050505050565b610983610aea565b61098c57600080fd5b600073ffffffffffffffffffffffffffffffffffffffff166000809054906101000a900473ffffffffffffffffffffffffffffffffffffffff1673ffffffffffffffffffffffffffffffffffffffff167f8be0079c531659141344cd1fd0a4f28419497f9722a3daafe3b4186f6b6457e060405160405180910390a360008060006101000a81548173ffffffffffffffffffffffffffffffffffffffff021916908373ffffffffffffffffffffffffffffffffffffffff160217905550565b6000600660003373ffffffffffffffffffffffffffffffffffffffff1673ffffffffffffffffffffffffffffffffffffffff1681526020019081526020016000205414610a9757600080fd5b6000610aa282610db7565b905060648181610aae57fe5b0681039050610abd8282610b5e565b5050565b60008060009054906101000a900473ffffffffffffffffffffffffffffffffffffffff16905090565b60008060009054906101000a900473ffffffffffffffffffffffffffffffffffffffff1673ffffffffffffffffffffffffffffffffffffffff163373ffffffffffffffffffffffffffffffffffffffff1614905090565b610b49610aea565b610b5257600080fd5b610b5b81610e45565b50565b6000600160046040518060800160405280868152602001858152602001600163ffffffff168152602001600354420163ffffffff16815250908060018154018082558091505090600182039060005260206000209060030201600090919290919091506000820151816000019080519060200190610bdd929190610f3d565b506020820151816001015560408201518160020160006101000a81548163ffffffff021916908363ffffffff16021790555060608201518160020160046101000a81548163ffffffff021916908363ffffffff1602179055505050039050336005600083815260200190815260200160002060006101000a81548173ffffffffffffffffffffffffffffffffffffffff021916908373ffffffffffffffffffffffffffffffffffffffff160217905550600660003373ffffffffffffffffffffffffffffffffffffffff1673ffffffffffffffffffffffffffffffffffffffff168152602001908152602001600020600081548092919060010191905055507f88f026aacbbecc90c18411df4b1185fd8d9be2470f1962f192bf84a27d0704b78184846040518084815260200180602001838152602001828103825284818151815260200191508051906020019080838360005b83811015610d4c578082015181840152602081019050610d31565b50505050905090810190601f168015610d795780820380516001836020036101000a031916815260200191505b5094505050505060405180910390a1505050565b60035442018160020160046101000a81548163ffffffff021916908363ffffffff16021790555050565b600080826040516020018082805190602001908083835b60208310610df15780518252602082019150602081019050602083039250610dce565b6001836020036101000a0380198251168184511680821785525050505050509050019150506040516020818303038152906040528051906020012060001c90506002548181610e3c57fe5b06915050919050565b600073ffffffffffffffffffffffffffffffffffffffff168173ffffffffffffffffffffffffffffffffffffffff161415610e7f57600080fd5b8073ffffffffffffffffffffffffffffffffffffffff166000809054906101000a900473ffffffffffffffffffffffffffffffffffffffff1673ffffffffffffffffffffffffffffffffffffffff167f8be0079c531659141344cd1fd0a4f28419497f9722a3daafe3b4186f6b6457e060405160405180910390a3806000806101000a81548173ffffffffffffffffffffffffffffffffffffffff021916908373ffffffffffffffffffffffffffffffffffffffff16021790555050565b828054600181600116156101000203166002900490600052602060002090601f016020900481019282601f10610f7e57805160ff1916838001178555610fac565b82800160010185558215610fac579182015b82811115610fab578251825591602001919060010190610f90565b5b509050610fb99190610fbd565b5090565b610fdf91905b80821115610fdb576000816000905550600101610fc3565b5090565b9056fea265627a7a7231582074e3da634c3a3dafdb1e30b942fba5c72c7b737dcc1641e22a1e01178845069f64736f6c63430005110032",
					"opcodes": "PUSH1 0x80 PUSH1 0x40 MSTORE PUSH1 0x10 PUSH1 0x1 SSTORE PUSH1 0x1 SLOAD PUSH1 0xA EXP PUSH1 0x2 SSTORE PUSH3 0x15180 PUSH1 0x3 SSTORE CALLER PUSH1 0x0 DUP1 PUSH2 0x100 EXP DUP2 SLOAD DUP2 PUSH20 0xFFFFFFFFFFFFFFFFFFFFFFFFFFFFFFFFFFFFFFFF MUL NOT AND SWAP1 DUP4 PUSH20 0xFFFFFFFFFFFFFFFFFFFFFFFFFFFFFFFFFFFFFFFF AND MUL OR SWAP1 SSTORE POP PUSH1 0x0 DUP1 SWAP1 SLOAD SWAP1 PUSH2 0x100 EXP SWAP1 DIV PUSH20 0xFFFFFFFFFFFFFFFFFFFFFFFFFFFFFFFFFFFFFFFF AND PUSH20 0xFFFFFFFFFFFFFFFFFFFFFFFFFFFFFFFFFFFFFFFF AND PUSH1 0x0 PUSH20 0xFFFFFFFFFFFFFFFFFFFFFFFFFFFFFFFFFFFFFFFF AND PUSH32 0x8BE0079C531659141344CD1FD0A4F28419497F9722A3DAAFE3B4186F6B6457E0 PUSH1 0x40 MLOAD PUSH1 0x40 MLOAD DUP1 SWAP2 SUB SWAP1 LOG3 PUSH2 0x1017 DUP1 PUSH2 0xE4 PUSH1 0x0 CODECOPY PUSH1 0x0 RETURN INVALID PUSH1 0x80 PUSH1 0x40 MSTORE CALLVALUE DUP1 ISZERO PUSH2 0x10 JUMPI PUSH1 0x0 DUP1 REVERT JUMPDEST POP PUSH1 0x4 CALLDATASIZE LT PUSH2 0x9E JUMPI PUSH1 0x0 CALLDATALOAD PUSH1 0xE0 SHR DUP1 PUSH4 0x715018A6 GT PUSH2 0x66 JUMPI DUP1 PUSH4 0x715018A6 EQ PUSH2 0x330 JUMPI DUP1 PUSH4 0x7BFF0A01 EQ PUSH2 0x33A JUMPI DUP1 PUSH4 0x8DA5CB5B EQ PUSH2 0x3F5 JUMPI DUP1 PUSH4 0x8F32D59B EQ PUSH2 0x43F JUMPI DUP1 PUSH4 0xF2FDE38B EQ PUSH2 0x461 JUMPI PUSH2 0x9E JUMP JUMPDEST DUP1 PUSH4 0x17A7F4CC EQ PUSH2 0xA3 JUMPI DUP1 PUSH4 0x2052465E EQ PUSH2 0xDB JUMPI DUP1 PUSH4 0x528B7B8F EQ PUSH2 0x1AF JUMPI DUP1 PUSH4 0x5F4623F1 EQ PUSH2 0x21D JUMPI DUP1 PUSH4 0x6B0BFC80 EQ PUSH2 0x261 JUMPI JUMPDEST PUSH1 0x0 DUP1 REVERT JUMPDEST PUSH2 0xD9 PUSH1 0x4 DUP1 CALLDATASIZE SUB PUSH1 0x40 DUP2 LT ISZERO PUSH2 0xB9 JUMPI PUSH1 0x0 DUP1 REVERT JUMPDEST DUP2 ADD SWAP1 DUP1 DUP1 CALLDATALOAD SWAP1 PUSH1 0x20 ADD SWAP1 SWAP3 SWAP2 SWAP1 DUP1 CALLDATALOAD SWAP1 PUSH1 0x20 ADD SWAP1 SWAP3 SWAP2 SWAP1 POP POP POP PUSH2 0x4A5 JUMP JUMPDEST STOP JUMPDEST PUSH2 0x107 PUSH1 0x4 DUP1 CALLDATASIZE SUB PUSH1 0x20 DUP2 LT ISZERO PUSH2 0xF1 JUMPI PUSH1 0x0 DUP1 REVERT JUMPDEST DUP2 ADD SWAP1 DUP1 DUP1 CALLDATALOAD SWAP1 PUSH1 0x20 ADD SWAP1 SWAP3 SWAP2 SWAP1 POP POP POP PUSH2 0x630 JUMP JUMPDEST PUSH1 0x40 MLOAD DUP1 DUP1 PUSH1 0x20 ADD DUP6 DUP2 MSTORE PUSH1 0x20 ADD DUP5 PUSH4 0xFFFFFFFF AND PUSH4 0xFFFFFFFF AND DUP2 MSTORE PUSH1 0x20 ADD DUP4 PUSH4 0xFFFFFFFF AND PUSH4 0xFFFFFFFF AND DUP2 MSTORE PUSH1 0x20 ADD DUP3 DUP2 SUB DUP3 MSTORE DUP7 DUP2 DUP2 MLOAD DUP2 MSTORE PUSH1 0x20 ADD SWAP2 POP DUP1 MLOAD SWAP1 PUSH1 0x20 ADD SWAP1 DUP1 DUP4 DUP4 PUSH1 0x0 JUMPDEST DUP4 DUP2 LT ISZERO PUSH2 0x171 JUMPI DUP1 DUP3 ADD MLOAD DUP2 DUP5 ADD MSTORE PUSH1 0x20 DUP2 ADD SWAP1 POP PUSH2 0x156 JUMP JUMPDEST POP POP POP POP SWAP1 POP SWAP1 DUP2 ADD SWAP1 PUSH1 0x1F AND DUP1 ISZERO PUSH2 0x19E JUMPI DUP1 DUP3 SUB DUP1 MLOAD PUSH1 0x1 DUP4 PUSH1 0x20 SUB PUSH2 0x100 EXP SUB NOT AND DUP2 MSTORE PUSH1 0x20 ADD SWAP2 POP JUMPDEST POP SWAP6 POP POP POP POP POP POP PUSH1 0x40 MLOAD DUP1 SWAP2 SUB SWAP1 RETURN JUMPDEST PUSH2 0x1DB PUSH1 0x4 DUP1 CALLDATASIZE SUB PUSH1 0x20 DUP2 LT ISZERO PUSH2 0x1C5 JUMPI PUSH1 0x0 DUP1 REVERT JUMPDEST DUP2 ADD SWAP1 DUP1 DUP1 CALLDATALOAD SWAP1 PUSH1 0x20 ADD SWAP1 SWAP3 SWAP2 SWAP1 POP POP POP PUSH2 0x725 JUMP JUMPDEST PUSH1 0x40 MLOAD DUP1 DUP3 PUSH20 0xFFFFFFFFFFFFFFFFFFFFFFFFFFFFFFFFFFFFFFFF AND PUSH20 0xFFFFFFFFFFFFFFFFFFFFFFFFFFFFFFFFFFFFFFFF AND DUP2 MSTORE PUSH1 0x20 ADD SWAP2 POP POP PUSH1 0x40 MLOAD DUP1 SWAP2 SUB SWAP1 RETURN JUMPDEST PUSH2 0x25F PUSH1 0x4 DUP1 CALLDATASIZE SUB PUSH1 0x20 DUP2 LT ISZERO PUSH2 0x233 JUMPI PUSH1 0x0 DUP1 REVERT JUMPDEST DUP2 ADD SWAP1 DUP1 DUP1 CALLDATALOAD PUSH20 0xFFFFFFFFFFFFFFFFFFFFFFFFFFFFFFFFFFFFFFFF AND SWAP1 PUSH1 0x20 ADD SWAP1 SWAP3 SWAP2 SWAP1 POP POP POP PUSH2 0x758 JUMP JUMPDEST STOP JUMPDEST PUSH2 0x32E PUSH1 0x4 DUP1 CALLDATASIZE SUB PUSH1 0x60 DUP2 LT ISZERO PUSH2 0x277 JUMPI PUSH1 0x0 DUP1 REVERT JUMPDEST DUP2 ADD SWAP1 DUP1 DUP1 CALLDATALOAD SWAP1 PUSH1 0x20 ADD SWAP1 SWAP3 SWAP2 SWAP1 DUP1 CALLDATALOAD SWAP1 PUSH1 0x20 ADD SWAP1 SWAP3 SWAP2 SWAP1 DUP1 CALLDATALOAD SWAP1 PUSH1 0x20 ADD SWAP1 PUSH5 0x100000000 DUP2 GT ISZERO PUSH2 0x2A8 JUMPI PUSH1 0x0 DUP1 REVERT JUMPDEST DUP3 ADD DUP4 PUSH1 0x20 DUP3 ADD GT ISZERO PUSH2 0x2BA JUMPI PUSH1 0x0 DUP1 REVERT JUMPDEST DUP1 CALLDATALOAD SWAP1 PUSH1 0x20 ADD SWAP2 DUP5 PUSH1 0x1 DUP4 MUL DUP5 ADD GT PUSH5 0x100000000 DUP4 GT OR ISZERO PUSH2 0x2DC JUMPI PUSH1 0x0 DUP1 REVERT JUMPDEST SWAP2 SWAP1 DUP1 DUP1 PUSH1 0x1F ADD PUSH1 0x20 DUP1 SWAP2 DIV MUL PUSH1 0x20 ADD PUSH1 0x40 MLOAD SWAP1 DUP2 ADD PUSH1 0x40 MSTORE DUP1 SWAP4 SWAP3 SWAP2 SWAP1 DUP2 DUP2 MSTORE PUSH1 0x20 ADD DUP4 DUP4 DUP1 DUP3 DUP5 CALLDATACOPY PUSH1 0x0 DUP2 DUP5 ADD MSTORE PUSH1 0x1F NOT PUSH1 0x1F DUP3 ADD AND SWAP1 POP DUP1 DUP4 ADD SWAP3 POP POP POP POP POP POP POP SWAP2 SWAP3 SWAP2 SWAP3 SWAP1 POP POP POP PUSH2 0x7AD JUMP JUMPDEST STOP JUMPDEST PUSH2 0x338 PUSH2 0x97B JUMP JUMPDEST STOP JUMPDEST PUSH2 0x3F3 PUSH1 0x4 DUP1 CALLDATASIZE SUB PUSH1 0x20 DUP2 LT ISZERO PUSH2 0x350 JUMPI PUSH1 0x0 DUP1 REVERT JUMPDEST DUP2 ADD SWAP1 DUP1 DUP1 CALLDATALOAD SWAP1 PUSH1 0x20 ADD SWAP1 PUSH5 0x100000000 DUP2 GT ISZERO PUSH2 0x36D JUMPI PUSH1 0x0 DUP1 REVERT JUMPDEST DUP3 ADD DUP4 PUSH1 0x20 DUP3 ADD GT ISZERO PUSH2 0x37F JUMPI PUSH1 0x0 DUP1 REVERT JUMPDEST DUP1 CALLDATALOAD SWAP1 PUSH1 0x20 ADD SWAP2 DUP5 PUSH1 0x1 DUP4 MUL DUP5 ADD GT PUSH5 0x100000000 DUP4 GT OR ISZERO PUSH2 0x3A1 JUMPI PUSH1 0x0 DUP1 REVERT JUMPDEST SWAP2 SWAP1 DUP1 DUP1 PUSH1 0x1F ADD PUSH1 0x20 DUP1 SWAP2 DIV MUL PUSH1 0x20 ADD PUSH1 0x40 MLOAD SWAP1 DUP2 ADD PUSH1 0x40 MSTORE DUP1 SWAP4 SWAP3 SWAP2 SWAP1 DUP2 DUP2 MSTORE PUSH1 0x20 ADD DUP4 DUP4 DUP1 DUP3 DUP5 CALLDATACOPY PUSH1 0x0 DUP2 DUP5 ADD MSTORE PUSH1 0x1F NOT PUSH1 0x1F DUP3 ADD AND SWAP1 POP DUP1 DUP4 ADD SWAP3 POP POP POP POP POP POP POP SWAP2 SWAP3 SWAP2 SWAP3 SWAP1 POP POP POP PUSH2 0xA4B JUMP JUMPDEST STOP JUMPDEST PUSH2 0x3FD PUSH2 0xAC1 JUMP JUMPDEST PUSH1 0x40 MLOAD DUP1 DUP3 PUSH20 0xFFFFFFFFFFFFFFFFFFFFFFFFFFFFFFFFFFFFFFFF AND PUSH20 0xFFFFFFFFFFFFFFFFFFFFFFFFFFFFFFFFFFFFFFFF AND DUP2 MSTORE PUSH1 0x20 ADD SWAP2 POP POP PUSH1 0x40 MLOAD DUP1 SWAP2 SUB SWAP1 RETURN JUMPDEST PUSH2 0x447 PUSH2 0xAEA JUMP JUMPDEST PUSH1 0x40 MLOAD DUP1 DUP3 ISZERO ISZERO ISZERO ISZERO DUP2 MSTORE PUSH1 0x20 ADD SWAP2 POP POP PUSH1 0x40 MLOAD DUP1 SWAP2 SUB SWAP1 RETURN JUMPDEST PUSH2 0x4A3 PUSH1 0x4 DUP1 CALLDATASIZE SUB PUSH1 0x20 DUP2 LT ISZERO PUSH2 0x477 JUMPI PUSH1 0x0 DUP1 REVERT JUMPDEST DUP2 ADD SWAP1 DUP1 DUP1 CALLDATALOAD PUSH20 0xFFFFFFFFFFFFFFFFFFFFFFFFFFFFFFFFFFFFFFFF AND SWAP1 PUSH1 0x20 ADD SWAP1 SWAP3 SWAP2 SWAP1 POP POP POP PUSH2 0xB41 JUMP JUMPDEST STOP JUMPDEST PUSH1 0x0 PUSH1 0x7 PUSH1 0x0 SWAP1 SLOAD SWAP1 PUSH2 0x100 EXP SWAP1 DIV PUSH20 0xFFFFFFFFFFFFFFFFFFFFFFFFFFFFFFFFFFFFFFFF AND PUSH20 0xFFFFFFFFFFFFFFFFFFFFFFFFFFFFFFFFFFFFFFFF AND PUSH4 0xE98B7F4D DUP4 PUSH1 0x40 MLOAD DUP3 PUSH4 0xFFFFFFFF AND PUSH1 0xE0 SHL DUP2 MSTORE PUSH1 0x4 ADD DUP1 DUP3 DUP2 MSTORE PUSH1 0x20 ADD SWAP2 POP POP PUSH2 0x140 PUSH1 0x40 MLOAD DUP1 DUP4 SUB DUP2 DUP7 DUP1 EXTCODESIZE ISZERO DUP1 ISZERO PUSH2 0x51B JUMPI PUSH1 0x0 DUP1 REVERT JUMPDEST POP GAS STATICCALL ISZERO DUP1 ISZERO PUSH2 0x52F JUMPI RETURNDATASIZE PUSH1 0x0 DUP1 RETURNDATACOPY RETURNDATASIZE PUSH1 0x0 REVERT JUMPDEST POP POP POP POP PUSH1 0x40 MLOAD RETURNDATASIZE PUSH2 0x140 DUP2 LT ISZERO PUSH2 0x546 JUMPI PUSH1 0x0 DUP1 REVERT JUMPDEST DUP2 ADD SWAP1 DUP1 DUP1 MLOAD SWAP1 PUSH1 0x20 ADD SWAP1 SWAP3 SWAP2 SWAP1 DUP1 MLOAD SWAP1 PUSH1 0x20 ADD SWAP1 SWAP3 SWAP2 SWAP1 DUP1 MLOAD SWAP1 PUSH1 0x20 ADD SWAP1 SWAP3 SWAP2 SWAP1 DUP1 MLOAD SWAP1 PUSH1 0x20 ADD SWAP1 SWAP3 SWAP2 SWAP1 DUP1 MLOAD SWAP1 PUSH1 0x20 ADD SWAP1 SWAP3 SWAP2 SWAP1 DUP1 MLOAD SWAP1 PUSH1 0x20 ADD SWAP1 SWAP3 SWAP2 SWAP1 DUP1 MLOAD SWAP1 PUSH1 0x20 ADD SWAP1 SWAP3 SWAP2 SWAP1 DUP1 MLOAD SWAP1 PUSH1 0x20 ADD SWAP1 SWAP3 SWAP2 SWAP1 DUP1 MLOAD SWAP1 PUSH1 0x20 ADD SWAP1 SWAP3 SWAP2 SWAP1 DUP1 MLOAD SWAP1 PUSH1 0x20 ADD SWAP1 SWAP3 SWAP2 SWAP1 POP POP POP SWAP1 SWAP2 SWAP3 SWAP4 SWAP5 SWAP6 SWAP7 SWAP8 SWAP9 POP SWAP1 SWAP2 SWAP3 SWAP4 SWAP5 SWAP6 SWAP7 SWAP8 POP SWAP1 SWAP2 SWAP3 SWAP4 SWAP5 SWAP6 SWAP7 POP SWAP1 SWAP2 SWAP3 SWAP4 SWAP5 SWAP6 POP SWAP1 SWAP2 SWAP3 SWAP4 SWAP5 POP SWAP1 SWAP2 SWAP3 SWAP4 POP SWAP1 SWAP2 SWAP3 POP SWAP1 SWAP2 POP SWAP1 POP DUP1 SWAP2 POP POP PUSH2 0x62B DUP4 DUP3 PUSH1 0x40 MLOAD DUP1 PUSH1 0x40 ADD PUSH1 0x40 MSTORE DUP1 PUSH1 0x5 DUP2 MSTORE PUSH1 0x20 ADD PUSH32 0x6B69747479000000000000000000000000000000000000000000000000000000 DUP2 MSTORE POP PUSH2 0x7AD JUMP JUMPDEST POP POP POP JUMP JUMPDEST PUSH1 0x4 DUP2 DUP2 SLOAD DUP2 LT PUSH2 0x63D JUMPI INVALID JUMPDEST SWAP1 PUSH1 0x0 MSTORE PUSH1 0x20 PUSH1 0x0 KECCAK256 SWAP1 PUSH1 0x3 MUL ADD PUSH1 0x0 SWAP2 POP SWAP1 POP DUP1 PUSH1 0x0 ADD DUP1 SLOAD PUSH1 0x1 DUP2 PUSH1 0x1 AND ISZERO PUSH2 0x100 MUL SUB AND PUSH1 0x2 SWAP1 DIV DUP1 PUSH1 0x1F ADD PUSH1 0x20 DUP1 SWAP2 DIV MUL PUSH1 0x20 ADD PUSH1 0x40 MLOAD SWAP1 DUP2 ADD PUSH1 0x40 MSTORE DUP1 SWAP3 SWAP2 SWAP1 DUP2 DUP2 MSTORE PUSH1 0x20 ADD DUP3 DUP1 SLOAD PUSH1 0x1 DUP2 PUSH1 0x1 AND ISZERO PUSH2 0x100 MUL SUB AND PUSH1 0x2 SWAP1 DIV DUP1 ISZERO PUSH2 0x6E9 JUMPI DUP1 PUSH1 0x1F LT PUSH2 0x6BE JUMPI PUSH2 0x100 DUP1 DUP4 SLOAD DIV MUL DUP4 MSTORE SWAP2 PUSH1 0x20 ADD SWAP2 PUSH2 0x6E9 JUMP JUMPDEST DUP3 ADD SWAP2 SWAP1 PUSH1 0x0 MSTORE PUSH1 0x20 PUSH1 0x0 KECCAK256 SWAP1 JUMPDEST DUP2 SLOAD DUP2 MSTORE SWAP1 PUSH1 0x1 ADD SWAP1 PUSH1 0x20 ADD DUP1 DUP4 GT PUSH2 0x6CC JUMPI DUP3 SWAP1 SUB PUSH1 0x1F AND DUP3 ADD SWAP2 JUMPDEST POP POP POP POP POP SWAP1 DUP1 PUSH1 0x1 ADD SLOAD SWAP1 DUP1 PUSH1 0x2 ADD PUSH1 0x0 SWAP1 SLOAD SWAP1 PUSH2 0x100 EXP SWAP1 DIV PUSH4 0xFFFFFFFF AND SWAP1 DUP1 PUSH1 0x2 ADD PUSH1 0x4 SWAP1 SLOAD SWAP1 PUSH2 0x100 EXP SWAP1 DIV PUSH4 0xFFFFFFFF AND SWAP1 POP DUP5 JUMP JUMPDEST PUSH1 0x5 PUSH1 0x20 MSTORE DUP1 PUSH1 0x0 MSTORE PUSH1 0x40 PUSH1 0x0 KECCAK256 PUSH1 0x0 SWAP2 POP SLOAD SWAP1 PUSH2 0x100 EXP SWAP1 DIV PUSH20 0xFFFFFFFFFFFFFFFFFFFFFFFFFFFFFFFFFFFFFFFF AND DUP2 JUMP JUMPDEST PUSH2 0x760 PUSH2 0xAEA JUMP JUMPDEST PUSH2 0x769 JUMPI PUSH1 0x0 DUP1 REVERT JUMPDEST DUP1 PUSH1 0x7 PUSH1 0x0 PUSH2 0x100 EXP DUP2 SLOAD DUP2 PUSH20 0xFFFFFFFFFFFFFFFFFFFFFFFFFFFFFFFFFFFFFFFF MUL NOT AND SWAP1 DUP4 PUSH20 0xFFFFFFFFFFFFFFFFFFFFFFFFFFFFFFFFFFFFFFFF AND MUL OR SWAP1 SSTORE POP POP JUMP JUMPDEST PUSH1 0x5 PUSH1 0x0 DUP5 DUP2 MSTORE PUSH1 0x20 ADD SWAP1 DUP2 MSTORE PUSH1 0x20 ADD PUSH1 0x0 KECCAK256 PUSH1 0x0 SWAP1 SLOAD SWAP1 PUSH2 0x100 EXP SWAP1 DIV PUSH20 0xFFFFFFFFFFFFFFFFFFFFFFFFFFFFFFFFFFFFFFFF AND PUSH20 0xFFFFFFFFFFFFFFFFFFFFFFFFFFFFFFFFFFFFFFFF AND CALLER PUSH20 0xFFFFFFFFFFFFFFFFFFFFFFFFFFFFFFFFFFFFFFFF AND EQ PUSH2 0x818 JUMPI PUSH1 0x0 DUP1 REVERT JUMPDEST PUSH1 0x0 PUSH1 0x4 DUP5 DUP2 SLOAD DUP2 LT PUSH2 0x827 JUMPI INVALID JUMPDEST SWAP1 PUSH1 0x0 MSTORE PUSH1 0x20 PUSH1 0x0 KECCAK256 SWAP1 PUSH1 0x3 MUL ADD SWAP1 POP PUSH1 0x2 SLOAD DUP4 DUP2 PUSH2 0x842 JUMPI INVALID JUMPDEST MOD SWAP3 POP PUSH1 0x0 PUSH1 0x2 DUP5 DUP4 PUSH1 0x1 ADD SLOAD ADD DUP2 PUSH2 0x857 JUMPI INVALID JUMPDEST DIV SWAP1 POP PUSH1 0x40 MLOAD PUSH1 0x20 ADD DUP1 DUP1 PUSH32 0x6B69747479000000000000000000000000000000000000000000000000000000 DUP2 MSTORE POP PUSH1 0x5 ADD SWAP1 POP PUSH1 0x40 MLOAD PUSH1 0x20 DUP2 DUP4 SUB SUB DUP2 MSTORE SWAP1 PUSH1 0x40 MSTORE DUP1 MLOAD SWAP1 PUSH1 0x20 ADD KECCAK256 DUP4 PUSH1 0x40 MLOAD PUSH1 0x20 ADD DUP1 DUP3 DUP1 MLOAD SWAP1 PUSH1 0x20 ADD SWAP1 DUP1 DUP4 DUP4 JUMPDEST PUSH1 0x20 DUP4 LT PUSH2 0x8D8 JUMPI DUP1 MLOAD DUP3 MSTORE PUSH1 0x20 DUP3 ADD SWAP2 POP PUSH1 0x20 DUP2 ADD SWAP1 POP PUSH1 0x20 DUP4 SUB SWAP3 POP PUSH2 0x8B5 JUMP JUMPDEST PUSH1 0x1 DUP4 PUSH1 0x20 SUB PUSH2 0x100 EXP SUB DUP1 NOT DUP3 MLOAD AND DUP2 DUP5 MLOAD AND DUP1 DUP3 OR DUP6 MSTORE POP POP POP POP POP POP SWAP1 POP ADD SWAP2 POP POP PUSH1 0x40 MLOAD PUSH1 0x20 DUP2 DUP4 SUB SUB DUP2 MSTORE SWAP1 PUSH1 0x40 MSTORE DUP1 MLOAD SWAP1 PUSH1 0x20 ADD KECCAK256 EQ ISZERO PUSH2 0x92C JUMPI PUSH1 0x63 PUSH1 0x64 DUP3 DUP2 PUSH2 0x925 JUMPI INVALID JUMPDEST MOD DUP3 SUB ADD SWAP1 POP JUMPDEST PUSH2 0x96B PUSH1 0x40 MLOAD DUP1 PUSH1 0x40 ADD PUSH1 0x40 MSTORE DUP1 PUSH1 0x6 DUP2 MSTORE PUSH1 0x20 ADD PUSH32 0x4E6F4E616D650000000000000000000000000000000000000000000000000000 DUP2 MSTORE POP DUP3 PUSH2 0xB5E JUMP JUMPDEST PUSH2 0x974 DUP3 PUSH2 0xD8D JUMP JUMPDEST POP POP POP POP POP JUMP JUMPDEST PUSH2 0x983 PUSH2 0xAEA JUMP JUMPDEST PUSH2 0x98C JUMPI PUSH1 0x0 DUP1 REVERT JUMPDEST PUSH1 0x0 PUSH20 0xFFFFFFFFFFFFFFFFFFFFFFFFFFFFFFFFFFFFFFFF AND PUSH1 0x0 DUP1 SWAP1 SLOAD SWAP1 PUSH2 0x100 EXP SWAP1 DIV PUSH20 0xFFFFFFFFFFFFFFFFFFFFFFFFFFFFFFFFFFFFFFFF AND PUSH20 0xFFFFFFFFFFFFFFFFFFFFFFFFFFFFFFFFFFFFFFFF AND PUSH32 0x8BE0079C531659141344CD1FD0A4F28419497F9722A3DAAFE3B4186F6B6457E0 PUSH1 0x40 MLOAD PUSH1 0x40 MLOAD DUP1 SWAP2 SUB SWAP1 LOG3 PUSH1 0x0 DUP1 PUSH1 0x0 PUSH2 0x100 EXP DUP2 SLOAD DUP2 PUSH20 0xFFFFFFFFFFFFFFFFFFFFFFFFFFFFFFFFFFFFFFFF MUL NOT AND SWAP1 DUP4 PUSH20 0xFFFFFFFFFFFFFFFFFFFFFFFFFFFFFFFFFFFFFFFF AND MUL OR SWAP1 SSTORE POP JUMP JUMPDEST PUSH1 0x0 PUSH1 0x6 PUSH1 0x0 CALLER PUSH20 0xFFFFFFFFFFFFFFFFFFFFFFFFFFFFFFFFFFFFFFFF AND PUSH20 0xFFFFFFFFFFFFFFFFFFFFFFFFFFFFFFFFFFFFFFFF AND DUP2 MSTORE PUSH1 0x20 ADD SWAP1 DUP2 MSTORE PUSH1 0x20 ADD PUSH1 0x0 KECCAK256 SLOAD EQ PUSH2 0xA97 JUMPI PUSH1 0x0 DUP1 REVERT JUMPDEST PUSH1 0x0 PUSH2 0xAA2 DUP3 PUSH2 0xDB7 JUMP JUMPDEST SWAP1 POP PUSH1 0x64 DUP2 DUP2 PUSH2 0xAAE JUMPI INVALID JUMPDEST MOD DUP2 SUB SWAP1 POP PUSH2 0xABD DUP3 DUP3 PUSH2 0xB5E JUMP JUMPDEST POP POP JUMP JUMPDEST PUSH1 0x0 DUP1 PUSH1 0x0 SWAP1 SLOAD SWAP1 PUSH2 0x100 EXP SWAP1 DIV PUSH20 0xFFFFFFFFFFFFFFFFFFFFFFFFFFFFFFFFFFFFFFFF AND SWAP1 POP SWAP1 JUMP JUMPDEST PUSH1 0x0 DUP1 PUSH1 0x0 SWAP1 SLOAD SWAP1 PUSH2 0x100 EXP SWAP1 DIV PUSH20 0xFFFFFFFFFFFFFFFFFFFFFFFFFFFFFFFFFFFFFFFF AND PUSH20 0xFFFFFFFFFFFFFFFFFFFFFFFFFFFFFFFFFFFFFFFF AND CALLER PUSH20 0xFFFFFFFFFFFFFFFFFFFFFFFFFFFFFFFFFFFFFFFF AND EQ SWAP1 POP SWAP1 JUMP JUMPDEST PUSH2 0xB49 PUSH2 0xAEA JUMP JUMPDEST PUSH2 0xB52 JUMPI PUSH1 0x0 DUP1 REVERT JUMPDEST PUSH2 0xB5B DUP2 PUSH2 0xE45 JUMP JUMPDEST POP JUMP JUMPDEST PUSH1 0x0 PUSH1 0x1 PUSH1 0x4 PUSH1 0x40 MLOAD DUP1 PUSH1 0x80 ADD PUSH1 0x40 MSTORE DUP1 DUP7 DUP2 MSTORE PUSH1 0x20 ADD DUP6 DUP2 MSTORE PUSH1 0x20 ADD PUSH1 0x1 PUSH4 0xFFFFFFFF AND DUP2 MSTORE PUSH1 0x20 ADD PUSH1 0x3 SLOAD TIMESTAMP ADD PUSH4 0xFFFFFFFF AND DUP2 MSTORE POP SWAP1 DUP1 PUSH1 0x1 DUP2 SLOAD ADD DUP1 DUP3 SSTORE DUP1 SWAP2 POP POP SWAP1 PUSH1 0x1 DUP3 SUB SWAP1 PUSH1 0x0 MSTORE PUSH1 0x20 PUSH1 0x0 KECCAK256 SWAP1 PUSH1 0x3 MUL ADD PUSH1 0x0 SWAP1 SWAP2 SWAP3 SWAP1 SWAP2 SWAP1 SWAP2 POP PUSH1 0x0 DUP3 ADD MLOAD DUP2 PUSH1 0x0 ADD SWAP1 DUP1 MLOAD SWAP1 PUSH1 0x20 ADD SWAP1 PUSH2 0xBDD SWAP3 SWAP2 SWAP1 PUSH2 0xF3D JUMP JUMPDEST POP PUSH1 0x20 DUP3 ADD MLOAD DUP2 PUSH1 0x1 ADD SSTORE PUSH1 0x40 DUP3 ADD MLOAD DUP2 PUSH1 0x2 ADD PUSH1 0x0 PUSH2 0x100 EXP DUP2 SLOAD DUP2 PUSH4 0xFFFFFFFF MUL NOT AND SWAP1 DUP4 PUSH4 0xFFFFFFFF AND MUL OR SWAP1 SSTORE POP PUSH1 0x60 DUP3 ADD MLOAD DUP2 PUSH1 0x2 ADD PUSH1 0x4 PUSH2 0x100 EXP DUP2 SLOAD DUP2 PUSH4 0xFFFFFFFF MUL NOT AND SWAP1 DUP4 PUSH4 0xFFFFFFFF AND MUL OR SWAP1 SSTORE POP POP POP SUB SWAP1 POP CALLER PUSH1 0x5 PUSH1 0x0 DUP4 DUP2 MSTORE PUSH1 0x20 ADD SWAP1 DUP2 MSTORE PUSH1 0x20 ADD PUSH1 0x0 KECCAK256 PUSH1 0x0 PUSH2 0x100 EXP DUP2 SLOAD DUP2 PUSH20 0xFFFFFFFFFFFFFFFFFFFFFFFFFFFFFFFFFFFFFFFF MUL NOT AND SWAP1 DUP4 PUSH20 0xFFFFFFFFFFFFFFFFFFFFFFFFFFFFFFFFFFFFFFFF AND MUL OR SWAP1 SSTORE POP PUSH1 0x6 PUSH1 0x0 CALLER PUSH20 0xFFFFFFFFFFFFFFFFFFFFFFFFFFFFFFFFFFFFFFFF AND PUSH20 0xFFFFFFFFFFFFFFFFFFFFFFFFFFFFFFFFFFFFFFFF AND DUP2 MSTORE PUSH1 0x20 ADD SWAP1 DUP2 MSTORE PUSH1 0x20 ADD PUSH1 0x0 KECCAK256 PUSH1 0x0 DUP2 SLOAD DUP1 SWAP3 SWAP2 SWAP1 PUSH1 0x1 ADD SWAP2 SWAP1 POP SSTORE POP PUSH32 0x88F026AACBBECC90C18411DF4B1185FD8D9BE2470F1962F192BF84A27D0704B7 DUP2 DUP5 DUP5 PUSH1 0x40 MLOAD DUP1 DUP5 DUP2 MSTORE PUSH1 0x20 ADD DUP1 PUSH1 0x20 ADD DUP4 DUP2 MSTORE PUSH1 0x20 ADD DUP3 DUP2 SUB DUP3 MSTORE DUP5 DUP2 DUP2 MLOAD DUP2 MSTORE PUSH1 0x20 ADD SWAP2 POP DUP1 MLOAD SWAP1 PUSH1 0x20 ADD SWAP1 DUP1 DUP4 DUP4 PUSH1 0x0 JUMPDEST DUP4 DUP2 LT ISZERO PUSH2 0xD4C JUMPI DUP1 DUP3 ADD MLOAD DUP2 DUP5 ADD MSTORE PUSH1 0x20 DUP2 ADD SWAP1 POP PUSH2 0xD31 JUMP JUMPDEST POP POP POP POP SWAP1 POP SWAP1 DUP2 ADD SWAP1 PUSH1 0x1F AND DUP1 ISZERO PUSH2 0xD79 JUMPI DUP1 DUP3 SUB DUP1 MLOAD PUSH1 0x1 DUP4 PUSH1 0x20 SUB PUSH2 0x100 EXP SUB NOT AND DUP2 MSTORE PUSH1 0x20 ADD SWAP2 POP JUMPDEST POP SWAP5 POP POP POP POP POP PUSH1 0x40 MLOAD DUP1 SWAP2 SUB SWAP1 LOG1 POP POP POP JUMP JUMPDEST PUSH1 0x3 SLOAD TIMESTAMP ADD DUP2 PUSH1 0x2 ADD PUSH1 0x4 PUSH2 0x100 EXP DUP2 SLOAD DUP2 PUSH4 0xFFFFFFFF MUL NOT AND SWAP1 DUP4 PUSH4 0xFFFFFFFF AND MUL OR SWAP1 SSTORE POP POP JUMP JUMPDEST PUSH1 0x0 DUP1 DUP3 PUSH1 0x40 MLOAD PUSH1 0x20 ADD DUP1 DUP3 DUP1 MLOAD SWAP1 PUSH1 0x20 ADD SWAP1 DUP1 DUP4 DUP4 JUMPDEST PUSH1 0x20 DUP4 LT PUSH2 0xDF1 JUMPI DUP1 MLOAD DUP3 MSTORE PUSH1 0x20 DUP3 ADD SWAP2 POP PUSH1 0x20 DUP2 ADD SWAP1 POP PUSH1 0x20 DUP4 SUB SWAP3 POP PUSH2 0xDCE JUMP JUMPDEST PUSH1 0x1 DUP4 PUSH1 0x20 SUB PUSH2 0x100 EXP SUB DUP1 NOT DUP3 MLOAD AND DUP2 DUP5 MLOAD AND DUP1 DUP3 OR DUP6 MSTORE POP POP POP POP POP POP SWAP1 POP ADD SWAP2 POP POP PUSH1 0x40 MLOAD PUSH1 0x20 DUP2 DUP4 SUB SUB DUP2 MSTORE SWAP1 PUSH1 0x40 MSTORE DUP1 MLOAD SWAP1 PUSH1 0x20 ADD KECCAK256 PUSH1 0x0 SHR SWAP1 POP PUSH1 0x2 SLOAD DUP2 DUP2 PUSH2 0xE3C JUMPI INVALID JUMPDEST MOD SWAP2 POP POP SWAP2 SWAP1 POP JUMP JUMPDEST PUSH1 0x0 PUSH20 0xFFFFFFFFFFFFFFFFFFFFFFFFFFFFFFFFFFFFFFFF AND DUP2 PUSH20 0xFFFFFFFFFFFFFFFFFFFFFFFFFFFFFFFFFFFFFFFF AND EQ ISZERO PUSH2 0xE7F JUMPI PUSH1 0x0 DUP1 REVERT JUMPDEST DUP1 PUSH20 0xFFFFFFFFFFFFFFFFFFFFFFFFFFFFFFFFFFFFFFFF AND PUSH1 0x0 DUP1 SWAP1 SLOAD SWAP1 PUSH2 0x100 EXP SWAP1 DIV PUSH20 0xFFFFFFFFFFFFFFFFFFFFFFFFFFFFFFFFFFFFFFFF AND PUSH20 0xFFFFFFFFFFFFFFFFFFFFFFFFFFFFFFFFFFFFFFFF AND PUSH32 0x8BE0079C531659141344CD1FD0A4F28419497F9722A3DAAFE3B4186F6B6457E0 PUSH1 0x40 MLOAD PUSH1 0x40 MLOAD DUP1 SWAP2 SUB SWAP1 LOG3 DUP1 PUSH1 0x0 DUP1 PUSH2 0x100 EXP DUP2 SLOAD DUP2 PUSH20 0xFFFFFFFFFFFFFFFFFFFFFFFFFFFFFFFFFFFFFFFF MUL NOT AND SWAP1 DUP4 PUSH20 0xFFFFFFFFFFFFFFFFFFFFFFFFFFFFFFFFFFFFFFFF AND MUL OR SWAP1 SSTORE POP POP JUMP JUMPDEST DUP3 DUP1 SLOAD PUSH1 0x1 DUP2 PUSH1 0x1 AND ISZERO PUSH2 0x100 MUL SUB AND PUSH1 0x2 SWAP1 DIV SWAP1 PUSH1 0x0 MSTORE PUSH1 0x20 PUSH1 0x0 KECCAK256 SWAP1 PUSH1 0x1F ADD PUSH1 0x20 SWAP1 DIV DUP2 ADD SWAP3 DUP3 PUSH1 0x1F LT PUSH2 0xF7E JUMPI DUP1 MLOAD PUSH1 0xFF NOT AND DUP4 DUP1 ADD OR DUP6 SSTORE PUSH2 0xFAC JUMP JUMPDEST DUP3 DUP1 ADD PUSH1 0x1 ADD DUP6 SSTORE DUP3 ISZERO PUSH2 0xFAC JUMPI SWAP2 DUP3 ADD JUMPDEST DUP3 DUP2 GT ISZERO PUSH2 0xFAB JUMPI DUP3 MLOAD DUP3 SSTORE SWAP2 PUSH1 0x20 ADD SWAP2 SWAP1 PUSH1 0x1 ADD SWAP1 PUSH2 0xF90 JUMP JUMPDEST JUMPDEST POP SWAP1 POP PUSH2 0xFB9 SWAP2 SWAP1 PUSH2 0xFBD JUMP JUMPDEST POP SWAP1 JUMP JUMPDEST PUSH2 0xFDF SWAP2 SWAP1 JUMPDEST DUP1 DUP3 GT ISZERO PUSH2 0xFDB JUMPI PUSH1 0x0 DUP2 PUSH1 0x0 SWAP1 SSTORE POP PUSH1 0x1 ADD PUSH2 0xFC3 JUMP JUMPDEST POP SWAP1 JUMP JUMPDEST SWAP1 JUMP INVALID LOG2 PUSH6 0x627A7A723158 KECCAK256 PUSH21 0xE3DA634C3A3DAFDB1E30B942FBA5C72C7B737DCC16 COINBASE 0xE2 0x2A 0x1E ADD OR DUP9 GASLIMIT MOD SWAP16 PUSH5 0x736F6C6343 STOP SDIV GT STOP ORIGIN "
				},
				"gasEstimates": {
					"creation": {
						"codeDepositCost": "823800",
						"executionCost": "84961",
						"totalCost": "908761"
					},
					"external": {
						"createRandomZombie(string)": "infinite",
						"feedAndMultiply(uint256,uint256,string)": "infinite",
						"feedOnKitty(uint256,uint256)": "infinite",
						"isOwner()": "1144",
						"owner()": "1105",
						"renounceOwnership()": "24297",
						"setKittyContractAddress(address)": "22073",
						"transferOwnership(address)": "24542",
						"zombieToOwner(uint256)": "1245",
						"zombies(uint256)": "infinite"
					},
					"internal": {
						"_triggerCooldown(struct ZombieFactory.Zombie storage pointer)": "21739"
					}
				},
				"methodIdentifiers": {
					"createRandomZombie(string)": "7bff0a01",
					"feedAndMultiply(uint256,uint256,string)": "6b0bfc80",
					"feedOnKitty(uint256,uint256)": "17a7f4cc",
					"isOwner()": "8f32d59b",
					"owner()": "8da5cb5b",
					"renounceOwnership()": "715018a6",
					"setKittyContractAddress(address)": "5f4623f1",
					"transferOwnership(address)": "f2fde38b",
					"zombieToOwner(uint256)": "528b7b8f",
					"zombies(uint256)": "2052465e"
				}
			},
			"storageLayout": {
				"storage": [
					{
						"astId": 3,
						"contract": "Solidity/Advanced Solidity Concepts/zombiefeeding.sol:ZombieFeeding",
						"label": "_owner",
						"offset": 0,
						"slot": "0",
						"type": "t_address"
					},
					{
						"astId": 124,
						"contract": "Solidity/Advanced Solidity Concepts/zombiefeeding.sol:ZombieFeeding",
						"label": "dnaDigits",
						"offset": 0,
						"slot": "1",
						"type": "t_uint256"
					},
					{
						"astId": 129,
						"contract": "Solidity/Advanced Solidity Concepts/zombiefeeding.sol:ZombieFeeding",
						"label": "dnaModulus",
						"offset": 0,
						"slot": "2",
						"type": "t_uint256"
					},
					{
						"astId": 132,
						"contract": "Solidity/Advanced Solidity Concepts/zombiefeeding.sol:ZombieFeeding",
						"label": "cooldownTime",
						"offset": 0,
						"slot": "3",
						"type": "t_uint256"
					},
					{
						"astId": 144,
						"contract": "Solidity/Advanced Solidity Concepts/zombiefeeding.sol:ZombieFeeding",
						"label": "zombies",
						"offset": 0,
						"slot": "4",
						"type": "t_array(t_struct(Zombie)141_storage)dyn_storage"
					},
					{
						"astId": 148,
						"contract": "Solidity/Advanced Solidity Concepts/zombiefeeding.sol:ZombieFeeding",
						"label": "zombieToOwner",
						"offset": 0,
						"slot": "5",
						"type": "t_mapping(t_uint256,t_address)"
					},
					{
						"astId": 152,
						"contract": "Solidity/Advanced Solidity Concepts/zombiefeeding.sol:ZombieFeeding",
						"label": "ownerZombieCount",
						"offset": 0,
						"slot": "6",
						"type": "t_mapping(t_address,t_uint256)"
					},
					{
						"astId": 288,
						"contract": "Solidity/Advanced Solidity Concepts/zombiefeeding.sol:ZombieFeeding",
						"label": "kittyContract",
						"offset": 0,
						"slot": "7",
						"type": "t_contract(KittyInterface)284"
					}
				],
				"types": {
					"t_address": {
						"encoding": "inplace",
						"label": "address",
						"numberOfBytes": "20"
					},
					"t_array(t_struct(Zombie)141_storage)dyn_storage": {
						"base": "t_struct(Zombie)141_storage",
						"encoding": "dynamic_array",
						"label": "struct ZombieFactory.Zombie[]",
						"numberOfBytes": "32"
					},
					"t_contract(KittyInterface)284": {
						"encoding": "inplace",
						"label": "contract KittyInterface",
						"numberOfBytes": "20"
					},
					"t_mapping(t_address,t_uint256)": {
						"encoding": "mapping",
						"key": "t_address",
						"label": "mapping(address => uint256)",
						"numberOfBytes": "32",
						"value": "t_uint256"
					},
					"t_mapping(t_uint256,t_address)": {
						"encoding": "mapping",
						"key": "t_uint256",
						"label": "mapping(uint256 => address)",
						"numberOfBytes": "32",
						"value": "t_address"
					},
					"t_string_storage": {
						"encoding": "bytes",
						"label": "string",
						"numberOfBytes": "32"
					},
					"t_struct(Zombie)141_storage": {
						"encoding": "inplace",
						"label": "struct ZombieFactory.Zombie",
						"members": [
							{
								"astId": 134,
								"contract": "Solidity/Advanced Solidity Concepts/zombiefeeding.sol:ZombieFeeding",
								"label": "name",
								"offset": 0,
								"slot": "0",
								"type": "t_string_storage"
							},
							{
								"astId": 136,
								"contract": "Solidity/Advanced Solidity Concepts/zombiefeeding.sol:ZombieFeeding",
								"label": "dna",
								"offset": 0,
								"slot": "1",
								"type": "t_uint256"
							},
							{
								"astId": 138,
								"contract": "Solidity/Advanced Solidity Concepts/zombiefeeding.sol:ZombieFeeding",
								"label": "level",
								"offset": 0,
								"slot": "2",
								"type": "t_uint32"
							},
							{
								"astId": 140,
								"contract": "Solidity/Advanced Solidity Concepts/zombiefeeding.sol:ZombieFeeding",
								"label": "readyTime",
								"offset": 4,
								"slot": "2",
								"type": "t_uint32"
							}
						],
						"numberOfBytes": "96"
					},
					"t_uint256": {
						"encoding": "inplace",
						"label": "uint256",
						"numberOfBytes": "32"
					},
					"t_uint32": {
						"encoding": "inplace",
						"label": "uint32",
						"numberOfBytes": "4"
					}
				}
			},
			"userdoc": {
				"methods": {
					"renounceOwnership()": {
						"notice": "Renouncing to ownership will leave the contract without an owner. It will not be possible to call the functions with the `onlyOwner` modifier anymore."
					}
				}
			}
		}
	}
}