{
  "contractName": "EthPriceOracle",
  "abi": [
    {
      "anonymous": false,
      "inputs": [
        {
          "indexed": false,
          "name": "callerAddress",
          "type": "address"
        },
        {
          "indexed": false,
          "name": "id",
          "type": "uint256"
        }
      ],
      "name": "GetLatestEthPriceEvent",
      "type": "event"
    },
    {
      "anonymous": false,
      "inputs": [
        {
          "indexed": false,
          "name": "ethPrice",
          "type": "uint256"
        },
        {
          "indexed": false,
          "name": "callerAddress",
          "type": "address"
        }
      ],
      "name": "SetLatestEthPriceEvent",
      "type": "event"
    },
    {
      "constant": false,
      "inputs": [],
      "name": "getLatestEthPrice",
      "outputs": [
        {
          "name": "",
          "type": "uint256"
        }
      ],
      "payable": false,
      "stateMutability": "nonpayable",
      "type": "function"
    },
    {
      "constant": false,
      "inputs": [
        {
          "name": "_ethPrice",
          "type": "uint256"
        },
        {
          "name": "_callerAddress",
          "type": "address"
        },
        {
          "name": "_id",
          "type": "uint256"
        }
      ],
      "name": "setLatestEthPrice",
      "outputs": [],
      "payable": false,
      "stateMutability": "nonpayable",
      "type": "function"
    }
  ],
  "bytecode": "0x608060405260006002556103e860035534801561001b57600080fd5b5061042b8061002b6000396000f3fe60806040526004361061004c576000357c0100000000000000000000000000000000000000000000000000000000900463ffffffff16806330c0b9ec14610051578063cf642f1f1461007c575b600080fd5b34801561005d57600080fd5b506100666100e1565b6040518082815260200191505060405180910390f35b34801561008857600080fd5b506100df6004803603606081101561009f57600080fd5b8101908080359060200190929190803573ffffffffffffffffffffffffffffffffffffffff1690602001909291908035906020019092919050505061021c565b005b600060026000815480929190600101919050555060006003544233600254604051602001808481526020018373ffffffffffffffffffffffffffffffffffffffff1673ffffffffffffffffffffffffffffffffffffffff166c010000000000000000000000000281526014018281526020019350505050604051602081830303815290604052805190602001206001900481151561017b57fe5b06905060016004600083815260200190815260200160002060006101000a81548160ff0219169083151502179055507f3d50a0c24e97813f35595d2f1f37dbf421d5e97f37abd4e222853e9b9c82c8d53382604051808373ffffffffffffffffffffffffffffffffffffffff1673ffffffffffffffffffffffffffffffffffffffff1681526020018281526020019250505060405180910390a18091505090565b6004600082815260200190815260200160002060009054906101000a900460ff1615156102d7576040517f08c379a00000000000000000000000000000000000000000000000000000000081526004018080602001828103825260278152602001807f546869732072657175657374206973206e6f7420696e206d792070656e64696e81526020017f67206c6973742e0000000000000000000000000000000000000000000000000081525060400191505060405180910390fd5b6004600082815260200190815260200160002060006101000a81549060ff021916905560008290508073ffffffffffffffffffffffffffffffffffffffff1663b5d73ba485846040518363ffffffff167c01000000000000000000000000000000000000000000000000000000000281526004018083815260200182815260200192505050600060405180830381600087803b15801561037657600080fd5b505af115801561038a573d6000803e3d6000fd5b505050507f91b860381268a473101de3379abbb70abf7ea6c9d1735cf58b9816479ff3b7278484604051808381526020018273ffffffffffffffffffffffffffffffffffffffff1673ffffffffffffffffffffffffffffffffffffffff1681526020019250505060405180910390a15050505056fea165627a7a72305820f04716e5e8353133f5b432105a0a72eae890746d353d7d86f1616e49efbb849d0029",
  "source": "// SPDX-License-Identifier: UNLICENSED\npragma solidity >=0.4.25 <0.9.0;\n\nimport \"@openzeppelin/contracts/ownership/Ownable.sol\";\nimport \"@openzeppelin/contracts/access/Roles.sol\";\nimport \"./CallerContractInterface.sol\";\n\ncontract EthPriceOracle {\n    using Roles for Roles.Role;\n    Roles.Role private owners;\n    Roles.Role private oracles;\n\n    uint256 private randNonce = 0;\n    uint256 private modulus = 1000;\n    mapping(uint256 => bool) pendingRequests;\n    event GetLatestEthPriceEvent(address callerAddress, uint256 id);\n    event SetLatestEthPriceEvent(uint256 ethPrice, address callerAddress);\n\n    function getLatestEthPrice() public returns (uint256) {\n        randNonce++;\n        uint256 id = uint256(\n            keccak256(abi.encodePacked(now, msg.sender, randNonce))\n        ) % modulus;\n        pendingRequests[id] = true;\n        emit GetLatestEthPriceEvent(msg.sender, id);\n        return id;\n    }\n\n    function setLatestEthPrice(\n        uint256 _ethPrice,\n        address _callerAddress,\n        uint256 _id\n    ) public {\n        require(\n            pendingRequests[_id],\n            \"This request is not in my pending list.\"\n        );\n        delete pendingRequests[_id];\n        CallerContractInterface callerContractInstance;\n        callerContractInstance = CallerContractInterface(_callerAddress);\n        callerContractInstance.callback(_ethPrice, _id);\n        emit SetLatestEthPriceEvent(_ethPrice, _callerAddress);\n    }\n}\n",
  "sourcePath": "/Users/asim.khan/Desktop/opensource/Useful-Smart-Contracts/Crypto-Zombies/Advanced Solidity/Oracle Building Part 3/oracle/contracts/EthPriceOracle.sol",
  "compiler": {
    "name": "solc",
    "version": "0.5.0+commit.1d4f565a.Emscripten.clang"
  },
  "schemaVersion": "3.4.10",
  "updatedAt": "2022-10-06T14:38:21.604Z",
  "devdoc": {
    "methods": {}
  },
  "userdoc": {
    "methods": {}
  }
}