{
    "contractName": "EthPriceOracle",
    "abi": [
        {
            "constant": false,
            "inputs": [],
            "name": "getLatestEthPrice",
            "outputs": [
                {
                    "name": "",
                    "type": "uint256"
                }
            ],
            "payable": false,
            "stateMutability": "nonpayable",
            "type": "function"
        },
        {
            "constant": false,
            "inputs": [
                {
                    "name": "_ethPrice",
                    "type": "uint256"
                },
                {
                    "name": "_callerAddress",
                    "type": "address"
                },
                {
                    "name": "_id",
                    "type": "uint256"
                }
            ],
            "name": "setLatestEthPrice",
            "outputs": [],
            "payable": false,
            "stateMutability": "nonpayable",
            "type": "function"
        },
        {
            "anonymous": false,
            "inputs": [
                {
                    "indexed": false,
                    "name": "callerAddress",
                    "type": "address"
                },
                {
                    "indexed": false,
                    "name": "id",
                    "type": "uint256"
                }
            ],
            "name": "GetLatestEthPriceEvent",
            "type": "event"
        },
        {
            "anonymous": false,
            "inputs": [
                {
                    "indexed": false,
                    "name": "ethPrice",
                    "type": "uint256"
                },
                {
                    "indexed": false,
                    "name": "callerAddress",
                    "type": "address"
                }
            ],
            "name": "SetLatestEthPriceEvent",
            "type": "event"
        }
    ],
    "bytecode": "608060405260006002556103e860035534801561001b57600080fd5b5061034b8061002b6000396000f3fe60806040526004361061004b5763ffffffff7c010000000000000000000000000000000000000000000000000000000060003504166330c0b9ec8114610050578063cf642f1f14610077575b600080fd5b34801561005c57600080fd5b506100656100c5565b60408051918252519081900360200190f35b34801561008357600080fd5b506100c36004803603606081101561009a57600080fd5b5080359073ffffffffffffffffffffffffffffffffffffffff6020820135169060400135610184565b005b600280546001019081905560035460408051426020808301919091526c010000000000000000000000003302828401526054808301959095528251808303909501855260749091019091528251920191909120600091829181151561012657fe5b06600081815260046020908152604091829020805460ff19166001179055815133815290810183905281519293507f3d50a0c24e97813f35595d2f1f37dbf421d5e97f37abd4e222853e9b9c82c8d5929081900390910190a1905090565b60008181526004602052604090205460ff16151561022957604080517f08c379a000000000000000000000000000000000000000000000000000000000815260206004820152602760248201527f546869732072657175657374206973206e6f7420696e206d792070656e64696e60448201527f67206c6973742e00000000000000000000000000000000000000000000000000606482015290519081900360840190fd5b6000818152600460208190526040808320805460ff1916905580517fb5d73ba40000000000000000000000000000000000000000000000000000000081529182018690526024820184905251849273ffffffffffffffffffffffffffffffffffffffff84169263b5d73ba4926044808301939282900301818387803b1580156102b157600080fd5b505af11580156102c5573d6000803e3d6000fd5b50506040805187815273ffffffffffffffffffffffffffffffffffffffff8716602082015281517f91b860381268a473101de3379abbb70abf7ea6c9d1735cf58b9816479ff3b7279450908190039091019150a15050505056fea165627a7a72305820f3b668df641f761beb94d88cfc00e98d925f8c60c7e448b37b2f1322c09bb1830029",
    "sourcePath": "/Users/asim.khan/Desktop/opensource/Useful-Smart-Contracts/Crypto-Zombies/Advanced Solidity/Oracle Building Part 3/oracle/contracts/EthPriceOracle.sol",
    "compiler": {
        "name": "solc",
        "version": "0.5.0+commit.1d4f565a"
    },
    "functionHashes": {
        "getLatestEthPrice()": "30c0b9ec",
        "setLatestEthPrice(uint256,address,uint256)": "cf642f1f"
    },
    "gasEstimates": {
        "creation": {
            "codeDepositCost": "168600",
            "executionCost": "25226",
            "totalCost": "193826"
        },
        "external": {
            "getLatestEthPrice()": "42506",
            "setLatestEthPrice(uint256,address,uint256)": "infinite"
        }
    }
}