{
  "contractName": "EthPriceOracle",
  "abi": [
    {
      "anonymous": false,
      "inputs": [
        {
          "indexed": false,
          "internalType": "address",
          "name": "callerAddress",
          "type": "address"
        },
        {
          "indexed": false,
          "internalType": "uint256",
          "name": "id",
          "type": "uint256"
        }
      ],
      "name": "GetLatestEthPriceEvent",
      "type": "event"
    },
    {
      "anonymous": false,
      "inputs": [
        {
          "indexed": true,
          "internalType": "address",
          "name": "previousOwner",
          "type": "address"
        },
        {
          "indexed": true,
          "internalType": "address",
          "name": "newOwner",
          "type": "address"
        }
      ],
      "name": "OwnershipTransferred",
      "type": "event"
    },
    {
      "anonymous": false,
      "inputs": [
        {
          "indexed": false,
          "internalType": "uint256",
          "name": "ethPrice",
          "type": "uint256"
        },
        {
          "indexed": false,
          "internalType": "address",
          "name": "callerAddress",
          "type": "address"
        }
      ],
      "name": "SetLatestEthPriceEvent",
      "type": "event"
    },
    {
      "inputs": [],
      "name": "owner",
      "outputs": [
        {
          "internalType": "address",
          "name": "",
          "type": "address"
        }
      ],
      "stateMutability": "view",
      "type": "function"
    },
    {
      "inputs": [],
      "name": "renounceOwnership",
      "outputs": [],
      "stateMutability": "nonpayable",
      "type": "function"
    },
    {
      "inputs": [
        {
          "internalType": "address",
          "name": "newOwner",
          "type": "address"
        }
      ],
      "name": "transferOwnership",
      "outputs": [],
      "stateMutability": "nonpayable",
      "type": "function"
    },
    {
      "inputs": [],
      "name": "getLatestEthPrice",
      "outputs": [
        {
          "internalType": "uint256",
          "name": "",
          "type": "uint256"
        }
      ],
      "stateMutability": "nonpayable",
      "type": "function"
    },
    {
      "inputs": [
        {
          "internalType": "uint256",
          "name": "_ethPrice",
          "type": "uint256"
        },
        {
          "internalType": "address",
          "name": "_callerAddress",
          "type": "address"
        },
        {
          "internalType": "uint256",
          "name": "_id",
          "type": "uint256"
        }
      ],
      "name": "setLatestEthPrice",
      "outputs": [],
      "stateMutability": "nonpayable",
      "type": "function"
    }
  ],
  "bytecode": "0x608060405260006001556103e860025534801561001b57600080fd5b5061003861002d61003d60201b60201c565b61004560201b60201c565b610109565b600033905090565b60008060009054906101000a900473ffffffffffffffffffffffffffffffffffffffff169050816000806101000a81548173ffffffffffffffffffffffffffffffffffffffff021916908373ffffffffffffffffffffffffffffffffffffffff1602179055508173ffffffffffffffffffffffffffffffffffffffff168173ffffffffffffffffffffffffffffffffffffffff167f8be0079c531659141344cd1fd0a4f28419497f9722a3daafe3b4186f6b6457e060405160405180910390a35050565b610a18806101186000396000f3fe608060405234801561001057600080fd5b50600436106100575760003560e01c806330c0b9ec1461005c578063715018a61461007a5780638da5cb5b14610084578063cf642f1f146100a2578063f2fde38b146100be575b600080fd5b6100646100da565b6040516100719190610720565b60405180910390f35b6100826101a1565b005b61008c6101b5565b604051610099919061067c565b60405180910390f35b6100bc60048036038101906100b7919061053b565b6101de565b005b6100d860048036038101906100d39190610512565b61031a565b005b6000600160008154809291906100ef906107da565b9190505550600060025442336001546040516020016101109392919061063f565b6040516020818303038152906040528051906020012060001c6101339190610851565b905060016003600083815260200190815260200160002060006101000a81548160ff0219169083151502179055507f3d50a0c24e97813f35595d2f1f37dbf421d5e97f37abd4e222853e9b9c82c8d53382604051610192929190610697565b60405180910390a18091505090565b6101a961039e565b6101b3600061041c565b565b60008060009054906101000a900473ffffffffffffffffffffffffffffffffffffffff16905090565b6101e661039e565b6003600082815260200190815260200160002060009054906101000a900460ff16610246576040517f08c379a000000000000000000000000000000000000000000000000000000000815260040161023d90610700565b60405180910390fd5b6003600082815260200190815260200160002060006101000a81549060ff021916905560008290508073ffffffffffffffffffffffffffffffffffffffff1663b5d73ba485846040518363ffffffff1660e01b81526004016102a9929190610764565b600060405180830381600087803b1580156102c357600080fd5b505af11580156102d7573d6000803e3d6000fd5b505050507f91b860381268a473101de3379abbb70abf7ea6c9d1735cf58b9816479ff3b727848460405161030c92919061073b565b60405180910390a150505050565b61032261039e565b600073ffffffffffffffffffffffffffffffffffffffff168173ffffffffffffffffffffffffffffffffffffffff161415610392576040517f08c379a0000000000000000000000000000000000000000000000000000000008152600401610389906106c0565b60405180910390fd5b61039b8161041c565b50565b6103a66104e0565b73ffffffffffffffffffffffffffffffffffffffff166103c46101b5565b73ffffffffffffffffffffffffffffffffffffffff161461041a576040517f08c379a0000000000000000000000000000000000000000000000000000000008152600401610411906106e0565b60405180910390fd5b565b60008060009054906101000a900473ffffffffffffffffffffffffffffffffffffffff169050816000806101000a81548173ffffffffffffffffffffffffffffffffffffffff021916908373ffffffffffffffffffffffffffffffffffffffff1602179055508173ffffffffffffffffffffffffffffffffffffffff168173ffffffffffffffffffffffffffffffffffffffff167f8be0079c531659141344cd1fd0a4f28419497f9722a3daafe3b4186f6b6457e060405160405180910390a35050565b600033905090565b6000813590506104f7816109b4565b92915050565b60008135905061050c816109cb565b92915050565b60006020828403121561052457600080fd5b6000610532848285016104e8565b91505092915050565b60008060006060848603121561055057600080fd5b600061055e868287016104fd565b935050602061056f868287016104e8565b9250506040610580868287016104fd565b9150509250925092565b6105938161079e565b82525050565b6105aa6105a58261079e565b610823565b82525050565b60006105bd60268361078d565b91506105c8826108ed565b604082019050919050565b60006105e060208361078d565b91506105eb8261093c565b602082019050919050565b600061060360278361078d565b915061060e82610965565b604082019050919050565b610622816107d0565b82525050565b610639610634826107d0565b610847565b82525050565b600061064b8286610628565b60208201915061065b8285610599565b60148201915061066b8284610628565b602082019150819050949350505050565b6000602082019050610691600083018461058a565b92915050565b60006040820190506106ac600083018561058a565b6106b96020830184610619565b9392505050565b600060208201905081810360008301526106d9816105b0565b9050919050565b600060208201905081810360008301526106f9816105d3565b9050919050565b60006020820190508181036000830152610719816105f6565b9050919050565b60006020820190506107356000830184610619565b92915050565b60006040820190506107506000830185610619565b61075d602083018461058a565b9392505050565b60006040820190506107796000830185610619565b6107866020830184610619565b9392505050565b600082825260208201905092915050565b60006107a9826107b0565b9050919050565b600073ffffffffffffffffffffffffffffffffffffffff82169050919050565b6000819050919050565b60006107e5826107d0565b91507fffffffffffffffffffffffffffffffffffffffffffffffffffffffffffffffff82141561081857610817610882565b5b600182019050919050565b600061082e82610835565b9050919050565b6000610840826108e0565b9050919050565b6000819050919050565b600061085c826107d0565b9150610867836107d0565b925082610877576108766108b1565b5b828206905092915050565b7f4e487b7100000000000000000000000000000000000000000000000000000000600052601160045260246000fd5b7f4e487b7100000000000000000000000000000000000000000000000000000000600052601260045260246000fd5b60008160601b9050919050565b7f4f776e61626c653a206e6577206f776e657220697320746865207a65726f206160008201527f6464726573730000000000000000000000000000000000000000000000000000602082015250565b7f4f776e61626c653a2063616c6c6572206973206e6f7420746865206f776e6572600082015250565b7f546869732072657175657374206973206e6f7420696e206d792070656e64696e60008201527f67206c6973742e00000000000000000000000000000000000000000000000000602082015250565b6109bd8161079e565b81146109c857600080fd5b50565b6109d4816107d0565b81146109df57600080fd5b5056fea2646970667358221220e06460d7314ac00afe469cbe81d41a454ea8b4f6b92527771192a141f8c0116664736f6c63430008040033",
  "immutableReferences": {},
  "source": "// SPDX-License-Identifier: UNLICENSED\npragma solidity >=0.4.25 <0.9.0;\n\n// import \"openzeppelin-solidity/contracts/ownership/Ownable.sol\";\nimport \"@openzeppelin/contracts/access/Ownable.sol\";\nimport \"./CallerContractInterface.sol\";\n\ncontract EthPriceOracle is Ownable {\n    uint256 private randNonce = 0;\n    uint256 private modulus = 1000;\n    mapping(uint256 => bool) pendingRequests;\n    event GetLatestEthPriceEvent(address callerAddress, uint256 id);\n    event SetLatestEthPriceEvent(uint256 ethPrice, address callerAddress);\n\n    function getLatestEthPrice() public returns (uint256) {\n        randNonce++;\n        uint256 id = uint256(\n            keccak256(abi.encodePacked(block.timestamp, msg.sender, randNonce))\n        ) % modulus;\n        pendingRequests[id] = true;\n        emit GetLatestEthPriceEvent(msg.sender, id);\n        return id;\n    }\n\n    function setLatestEthPrice(\n        uint256 _ethPrice,\n        address _callerAddress,\n        uint256 _id\n    ) public onlyOwner {\n        require(\n            pendingRequests[_id],\n            \"This request is not in my pending list.\"\n        );\n        delete pendingRequests[_id];\n        CallerContractInterface callerContractInstance;\n        callerContractInstance = CallerContractInterface(_callerAddress);\n        callerContractInstance.callback(_ethPrice, _id);\n        emit SetLatestEthPriceEvent(_ethPrice, _callerAddress);\n    }\n}\n",
  "sourcePath": "/Users/asim.khan/Desktop/opensource/Useful-Smart-Contracts/Crypto-Zombies/Advanced Solidity/Oracle Building P2/oracle/contracts/EthPriceOracle.sol",
  "compiler": {
    "name": "solc",
    "version": "0.8.4+commit.c7e474f2.Emscripten.clang"
  },
  "schemaVersion": "3.4.9",
  "updatedAt": "2022-10-03T06:39:58.714Z",
  "devdoc": {
    "kind": "dev",
    "methods": {
      "owner()": {
        "details": "Returns the address of the current owner."
      },
      "renounceOwnership()": {
        "details": "Leaves the contract without owner. It will not be possible to call `onlyOwner` functions anymore. Can only be called by the current owner. NOTE: Renouncing ownership will leave the contract without an owner, thereby removing any functionality that is only available to the owner."
      },
      "transferOwnership(address)": {
        "details": "Transfers ownership of the contract to a new account (`newOwner`). Can only be called by the current owner."
      }
    },
    "version": 1
  },
  "userdoc": {
    "kind": "user",
    "methods": {},
    "version": 1
  }
}