{
  "contractName": "CallerContract",
  "abi": [
    {
      "anonymous": false,
      "inputs": [
        {
          "indexed": true,
          "internalType": "address",
          "name": "previousOwner",
          "type": "address"
        },
        {
          "indexed": true,
          "internalType": "address",
          "name": "newOwner",
          "type": "address"
        }
      ],
      "name": "OwnershipTransferred",
      "type": "event"
    },
    {
      "anonymous": false,
      "inputs": [
        {
          "indexed": false,
          "internalType": "uint256",
          "name": "ethPrice",
          "type": "uint256"
        },
        {
          "indexed": false,
          "internalType": "uint256",
          "name": "id",
          "type": "uint256"
        }
      ],
      "name": "PriceUpdatedEvent",
      "type": "event"
    },
    {
      "anonymous": false,
      "inputs": [
        {
          "indexed": false,
          "internalType": "uint256",
          "name": "id",
          "type": "uint256"
        }
      ],
      "name": "ReceivedNewRequestIdEvent",
      "type": "event"
    },
    {
      "anonymous": false,
      "inputs": [
        {
          "indexed": false,
          "internalType": "address",
          "name": "oracleAddress",
          "type": "address"
        }
      ],
      "name": "newOracleAddressEvent",
      "type": "event"
    },
    {
      "inputs": [],
      "name": "owner",
      "outputs": [
        {
          "internalType": "address",
          "name": "",
          "type": "address"
        }
      ],
      "stateMutability": "view",
      "type": "function"
    },
    {
      "inputs": [],
      "name": "renounceOwnership",
      "outputs": [],
      "stateMutability": "nonpayable",
      "type": "function"
    },
    {
      "inputs": [
        {
          "internalType": "address",
          "name": "newOwner",
          "type": "address"
        }
      ],
      "name": "transferOwnership",
      "outputs": [],
      "stateMutability": "nonpayable",
      "type": "function"
    },
    {
      "inputs": [
        {
          "internalType": "address",
          "name": "_oracleInstanceAddress",
          "type": "address"
        }
      ],
      "name": "setOracleInstanceAddress",
      "outputs": [],
      "stateMutability": "nonpayable",
      "type": "function"
    },
    {
      "inputs": [],
      "name": "updateEthPrice",
      "outputs": [],
      "stateMutability": "nonpayable",
      "type": "function"
    },
    {
      "inputs": [
        {
          "internalType": "uint256",
          "name": "_ethPrice",
          "type": "uint256"
        },
        {
          "internalType": "uint256",
          "name": "_id",
          "type": "uint256"
        }
      ],
      "name": "callback",
      "outputs": [],
      "stateMutability": "nonpayable",
      "type": "function"
    }
  ],
  "bytecode": "0x608060405234801561001057600080fd5b5061002d61002261003260201b60201c565b61003a60201b60201c565b6100fe565b600033905090565b60008060009054906101000a900473ffffffffffffffffffffffffffffffffffffffff169050816000806101000a81548173ffffffffffffffffffffffffffffffffffffffff021916908373ffffffffffffffffffffffffffffffffffffffff1602179055508173ffffffffffffffffffffffffffffffffffffffff168173ffffffffffffffffffffffffffffffffffffffff167f8be0079c531659141344cd1fd0a4f28419497f9722a3daafe3b4186f6b6457e060405160405180910390a35050565b610a808061010d6000396000f3fe608060405234801561001057600080fd5b50600436106100625760003560e01c806323c7e4a214610067578063715018a6146100715780638da5cb5b1461007b578063b5d73ba414610099578063e9e17a9e146100b5578063f2fde38b146100d1575b600080fd5b61006f6100ed565b005b6100796101f9565b005b61008361020d565b60405161009091906107da565b60405180910390f35b6100b360048036038101906100ae91906106f4565b610236565b005b6100cf60048036038101906100ca91906106a2565b61038d565b005b6100eb60048036038101906100e691906106a2565b610495565b005b6000600260009054906101000a900473ffffffffffffffffffffffffffffffffffffffff1673ffffffffffffffffffffffffffffffffffffffff166330c0b9ec6040518163ffffffff1660e01b8152600401602060405180830381600087803b15801561015957600080fd5b505af115801561016d573d6000803e3d6000fd5b505050506040513d601f19601f8201168201806040525081019061019191906106cb565b905060016004600083815260200190815260200160002060006101000a81548160ff0219169083151502179055507f3ed150819af981e387450beb90ec379b8b322150dbb299d492b108c59a623e4b816040516101ee9190610875565b60405180910390a150565b610201610519565b61020b6000610597565b565b60008060009054906101000a900473ffffffffffffffffffffffffffffffffffffffff16905090565b600360009054906101000a900473ffffffffffffffffffffffffffffffffffffffff1673ffffffffffffffffffffffffffffffffffffffff163373ffffffffffffffffffffffffffffffffffffffff16146102c6576040517f08c379a00000000000000000000000000000000000000000000000000000000081526004016102bd90610835565b60405180910390fd5b6004600082815260200190815260200160002060009054906101000a900460ff16610326576040517f08c379a000000000000000000000000000000000000000000000000000000000815260040161031d90610855565b60405180910390fd5b816001819055506004600082815260200190815260200160002060006101000a81549060ff02191690557f6b69e4f2aedf7e65a79ecaf16e8869b2b99c87e341f2c51286bfd4a7fc3b99698282604051610381929190610890565b60405180910390a15050565b610395610519565b80600360006101000a81548173ffffffffffffffffffffffffffffffffffffffff021916908373ffffffffffffffffffffffffffffffffffffffff160217905550600360009054906101000a900473ffffffffffffffffffffffffffffffffffffffff16600260006101000a81548173ffffffffffffffffffffffffffffffffffffffff021916908373ffffffffffffffffffffffffffffffffffffffff1602179055507f441e3b056b114797955165bd03bb8393fc1658a713f09225de4745a8d068bf7d600360009054906101000a900473ffffffffffffffffffffffffffffffffffffffff1660405161048a91906107da565b60405180910390a150565b61049d610519565b600073ffffffffffffffffffffffffffffffffffffffff168173ffffffffffffffffffffffffffffffffffffffff16141561050d576040517f08c379a0000000000000000000000000000000000000000000000000000000008152600401610504906107f5565b60405180910390fd5b61051681610597565b50565b61052161065b565b73ffffffffffffffffffffffffffffffffffffffff1661053f61020d565b73ffffffffffffffffffffffffffffffffffffffff1614610595576040517f08c379a000000000000000000000000000000000000000000000000000000000815260040161058c90610815565b60405180910390fd5b565b60008060009054906101000a900473ffffffffffffffffffffffffffffffffffffffff169050816000806101000a81548173ffffffffffffffffffffffffffffffffffffffff021916908373ffffffffffffffffffffffffffffffffffffffff1602179055508173ffffffffffffffffffffffffffffffffffffffff168173ffffffffffffffffffffffffffffffffffffffff167f8be0079c531659141344cd1fd0a4f28419497f9722a3daafe3b4186f6b6457e060405160405180910390a35050565b600033905090565b60008135905061067281610a1c565b92915050565b60008135905061068781610a33565b92915050565b60008151905061069c81610a33565b92915050565b6000602082840312156106b457600080fd5b60006106c284828501610663565b91505092915050565b6000602082840312156106dd57600080fd5b60006106eb8482850161068d565b91505092915050565b6000806040838503121561070757600080fd5b600061071585828601610678565b925050602061072685828601610678565b9150509250929050565b610739816108ca565b82525050565b600061074c6026836108b9565b915061075782610906565b604082019050919050565b600061076f6020836108b9565b915061077a82610955565b602082019050919050565b6000610792602d836108b9565b915061079d8261097e565b604082019050919050565b60006107b56027836108b9565b91506107c0826109cd565b604082019050919050565b6107d4816108fc565b82525050565b60006020820190506107ef6000830184610730565b92915050565b6000602082019050818103600083015261080e8161073f565b9050919050565b6000602082019050818103600083015261082e81610762565b9050919050565b6000602082019050818103600083015261084e81610785565b9050919050565b6000602082019050818103600083015261086e816107a8565b9050919050565b600060208201905061088a60008301846107cb565b92915050565b60006040820190506108a560008301856107cb565b6108b260208301846107cb565b9392505050565b600082825260208201905092915050565b60006108d5826108dc565b9050919050565b600073ffffffffffffffffffffffffffffffffffffffff82169050919050565b6000819050919050565b7f4f776e61626c653a206e6577206f776e657220697320746865207a65726f206160008201527f6464726573730000000000000000000000000000000000000000000000000000602082015250565b7f4f776e61626c653a2063616c6c6572206973206e6f7420746865206f776e6572600082015250565b7f596f7520617265206e6f7420617574686f72697a656420746f2063616c6c207460008201527f6869732066756e6374696f6e2e00000000000000000000000000000000000000602082015250565b7f546869732072657175657374206973206e6f7420696e206d792070656e64696e60008201527f67206c6973742e00000000000000000000000000000000000000000000000000602082015250565b610a25816108ca565b8114610a3057600080fd5b50565b610a3c816108fc565b8114610a4757600080fd5b5056fea26469706673582212201c56af27004683f21c176c684e49fe3eefeb53752768e765f5ecf3df97e5910d64736f6c63430008040033",
  "immutableReferences": {},
  "source": "// SPDX-License-Identifier: UNLICENSED\npragma solidity >=0.4.25 <0.9.0;\n\n// pragma solidity ^0.8.0;\n\n// import \"@openzeppelin/contracts/token/ERC721/ERC721.sol\";\nimport \"@openzeppelin/contracts/access/Ownable.sol\";\nimport \"./EthPriceOracleInterface.sol\";\n\ncontract CallerContract is Ownable {\n    uint256 private ethPrice;\n    EthPriceOracleInterface private oracleInstance;\n    address private oracleAddress;\n    mapping(uint256 => bool) myRequests;\n    event newOracleAddressEvent(address oracleAddress);\n    event ReceivedNewRequestIdEvent(uint256 id);\n    event PriceUpdatedEvent(uint256 ethPrice, uint256 id);\n\n    function setOracleInstanceAddress(address _oracleInstanceAddress)\n        public\n        onlyOwner\n    {\n        oracleAddress = _oracleInstanceAddress;\n        oracleInstance = EthPriceOracleInterface(oracleAddress);\n        emit newOracleAddressEvent(oracleAddress);\n    }\n\n    function updateEthPrice() public {\n        uint256 id = oracleInstance.getLatestEthPrice();\n        myRequests[id] = true;\n        emit ReceivedNewRequestIdEvent(id);\n    }\n\n    function callback(uint256 _ethPrice, uint256 _id) public onlyOracle {\n        require(myRequests[_id], \"This request is not in my pending list.\");\n        ethPrice = _ethPrice;\n        delete myRequests[_id];\n        emit PriceUpdatedEvent(_ethPrice, _id);\n    }\n\n    modifier onlyOracle() {\n        require(\n            msg.sender == oracleAddress,\n            \"You are not authorized to call this function.\"\n        );\n        _;\n    }\n}\n",
  "sourcePath": "/Users/asim.khan/Desktop/opensource/Useful-Smart-Contracts/Crypto-Zombies/Advanced Solidity/Oracle Building/caller/contracts/CallerContract.sol",
  "compiler": {
    "name": "solc",
    "version": "0.8.4+commit.c7e474f2.Emscripten.clang"
  },
  "schemaVersion": "3.4.10",
  "updatedAt": "2022-10-03T06:34:05.882Z",
  "devdoc": {
    "kind": "dev",
    "methods": {
      "owner()": {
        "details": "Returns the address of the current owner."
      },
      "renounceOwnership()": {
        "details": "Leaves the contract without owner. It will not be possible to call `onlyOwner` functions anymore. Can only be called by the current owner. NOTE: Renouncing ownership will leave the contract without an owner, thereby removing any functionality that is only available to the owner."
      },
      "transferOwnership(address)": {
        "details": "Transfers ownership of the contract to a new account (`newOwner`). Can only be called by the current owner."
      }
    },
    "version": 1
  },
  "userdoc": {
    "kind": "user",
    "methods": {},
    "version": 1
  }
}