{
	"Testing Smart Contracts with Truffle/contracts/zombiefactory.sol": {
		"ZombieFactory": {
			"abi": [
				{
					"anonymous": false,
					"inputs": [
						{
							"indexed": false,
							"internalType": "uint256",
							"name": "zombieId",
							"type": "uint256"
						},
						{
							"indexed": false,
							"internalType": "string",
							"name": "name",
							"type": "string"
						},
						{
							"indexed": false,
							"internalType": "uint256",
							"name": "dna",
							"type": "uint256"
						}
					],
					"name": "NewZombie",
					"type": "event"
				},
				{
					"anonymous": false,
					"inputs": [
						{
							"indexed": true,
							"internalType": "address",
							"name": "previousOwner",
							"type": "address"
						},
						{
							"indexed": true,
							"internalType": "address",
							"name": "newOwner",
							"type": "address"
						}
					],
					"name": "OwnershipTransferred",
					"type": "event"
				},
				{
					"inputs": [
						{
							"internalType": "string",
							"name": "_name",
							"type": "string"
						}
					],
					"name": "createRandomZombie",
					"outputs": [],
					"stateMutability": "nonpayable",
					"type": "function"
				},
				{
					"inputs": [],
					"name": "isOwner",
					"outputs": [
						{
							"internalType": "bool",
							"name": "",
							"type": "bool"
						}
					],
					"stateMutability": "view",
					"type": "function"
				},
				{
					"inputs": [],
					"name": "owner",
					"outputs": [
						{
							"internalType": "address",
							"name": "",
							"type": "address"
						}
					],
					"stateMutability": "view",
					"type": "function"
				},
				{
					"inputs": [],
					"name": "renounceOwnership",
					"outputs": [],
					"stateMutability": "nonpayable",
					"type": "function"
				},
				{
					"inputs": [
						{
							"internalType": "address",
							"name": "newOwner",
							"type": "address"
						}
					],
					"name": "transferOwnership",
					"outputs": [],
					"stateMutability": "nonpayable",
					"type": "function"
				},
				{
					"inputs": [
						{
							"internalType": "uint256",
							"name": "",
							"type": "uint256"
						}
					],
					"name": "zombieToOwner",
					"outputs": [
						{
							"internalType": "address",
							"name": "",
							"type": "address"
						}
					],
					"stateMutability": "view",
					"type": "function"
				},
				{
					"inputs": [
						{
							"internalType": "uint256",
							"name": "",
							"type": "uint256"
						}
					],
					"name": "zombies",
					"outputs": [
						{
							"internalType": "string",
							"name": "name",
							"type": "string"
						},
						{
							"internalType": "uint256",
							"name": "dna",
							"type": "uint256"
						},
						{
							"internalType": "uint32",
							"name": "level",
							"type": "uint32"
						},
						{
							"internalType": "uint32",
							"name": "readyTime",
							"type": "uint32"
						},
						{
							"internalType": "uint16",
							"name": "winCount",
							"type": "uint16"
						},
						{
							"internalType": "uint16",
							"name": "lossCount",
							"type": "uint16"
						}
					],
					"stateMutability": "view",
					"type": "function"
				}
			],
			"devdoc": {
				"kind": "dev",
				"methods": {
					"isOwner()": {
						"returns": {
							"_0": "true if `msg.sender` is the owner of the contract."
						}
					},
					"owner()": {
						"returns": {
							"_0": "the address of the owner."
						}
					},
					"renounceOwnership()": {
						"details": "Allows the current owner to relinquish control of the contract."
					},
					"transferOwnership(address)": {
						"details": "Allows the current owner to transfer control of the contract to a newOwner.",
						"params": {
							"newOwner": "The address to transfer ownership to."
						}
					}
				},
				"version": 1
			},
			"evm": {
				"assembly": "    /* \"Testing Smart Contracts with Truffle/contracts/zombiefactory.sol\":123:1598  contract ZombieFactory is Ownable {... */\n  mstore(0x40, 0x80)\n    /* \"Testing Smart Contracts with Truffle/contracts/zombiefactory.sol\":348:350  16 */\n  0x10\n    /* \"Testing Smart Contracts with Truffle/contracts/zombiefactory.sol\":328:350  uint256 dnaDigits = 16 */\n  0x01\n  sstore\n    /* \"Testing Smart Contracts with Truffle/contracts/zombiefactory.sol\":381:390  dnaDigits */\n  sload(0x01)\n    /* \"Testing Smart Contracts with Truffle/contracts/zombiefactory.sol\":377:379  10 */\n  0x0a\n    /* \"Testing Smart Contracts with Truffle/contracts/zombiefactory.sol\":377:390  10**dnaDigits */\n  tag_1\n  swap2\n  swap1\n  tag_2\n  jump\t// in\ntag_1:\n    /* \"Testing Smart Contracts with Truffle/contracts/zombiefactory.sol\":356:390  uint256 dnaModulus = 10**dnaDigits */\n  0x02\n  sstore\n    /* \"Testing Smart Contracts with Truffle/contracts/zombiefactory.sol\":419:425  1 days */\n  0x015180\n    /* \"Testing Smart Contracts with Truffle/contracts/zombiefactory.sol\":396:425  uint256 cooldownTime = 1 days */\n  0x03\n  sstore\n    /* \"Testing Smart Contracts with Truffle/contracts/zombiefactory.sol\":123:1598  contract ZombieFactory is Ownable {... */\n  callvalue\n  dup1\n  iszero\n  tag_3\n  jumpi\n  0x00\n  dup1\n  revert\ntag_3:\n  pop\n    /* \"Testing Smart Contracts with Truffle/contracts/ownable.sol\":585:595  msg.sender */\n  caller\n    /* \"Testing Smart Contracts with Truffle/contracts/ownable.sol\":576:582  _owner */\n  0x00\n  dup1\n    /* \"Testing Smart Contracts with Truffle/contracts/ownable.sol\":576:595  _owner = msg.sender */\n  0x0100\n  exp\n  dup2\n  sload\n  dup2\n  0xffffffffffffffffffffffffffffffffffffffff\n  mul\n  not\n  and\n  swap1\n  dup4\n  0xffffffffffffffffffffffffffffffffffffffff\n  and\n  mul\n  or\n  swap1\n  sstore\n  pop\n    /* \"Testing Smart Contracts with Truffle/contracts/ownable.sol\":643:649  _owner */\n  0x00\n  dup1\n  sload\n  swap1\n  0x0100\n  exp\n  swap1\n  div\n  0xffffffffffffffffffffffffffffffffffffffff\n  and\n    /* \"Testing Smart Contracts with Truffle/contracts/ownable.sol\":610:650  OwnershipTransferred(address(0), _owner) */\n  0xffffffffffffffffffffffffffffffffffffffff\n  and\n    /* \"Testing Smart Contracts with Truffle/contracts/ownable.sol\":639:640  0 */\n  0x00\n    /* \"Testing Smart Contracts with Truffle/contracts/ownable.sol\":610:650  OwnershipTransferred(address(0), _owner) */\n  0xffffffffffffffffffffffffffffffffffffffff\n  and\n  0x8be0079c531659141344cd1fd0a4f28419497f9722a3daafe3b4186f6b6457e0\n  mload(0x40)\n  mload(0x40)\n  dup1\n  swap2\n  sub\n  swap1\n  log3\n    /* \"Testing Smart Contracts with Truffle/contracts/zombiefactory.sol\":123:1598  contract ZombieFactory is Ownable {... */\n  jump(tag_6)\n    /* \"#utility.yul\":7:855   */\ntag_8:\n    /* \"#utility.yul\":68:73   */\n  0x00\n    /* \"#utility.yul\":75:79   */\n  dup1\n    /* \"#utility.yul\":99:105   */\n  dup3\n    /* \"#utility.yul\":90:105   */\n  swap2\n  pop\n    /* \"#utility.yul\":123:128   */\n  dup4\n    /* \"#utility.yul\":114:128   */\n  swap1\n  pop\n    /* \"#utility.yul\":137:849   */\ntag_10:\n    /* \"#utility.yul\":158:159   */\n  0x01\n    /* \"#utility.yul\":148:156   */\n  dup6\n    /* \"#utility.yul\":145:160   */\n  gt\n    /* \"#utility.yul\":137:849   */\n  iszero\n  tag_12\n  jumpi\n    /* \"#utility.yul\":253:257   */\n  dup1\n    /* \"#utility.yul\":248:251   */\n  dup7\n    /* \"#utility.yul\":244:258   */\n  div\n    /* \"#utility.yul\":238:242   */\n  dup2\n    /* \"#utility.yul\":235:259   */\n  gt\n    /* \"#utility.yul\":232:282   */\n  iszero\n  tag_13\n  jumpi\n    /* \"#utility.yul\":262:280   */\n  tag_14\n  tag_15\n  jump\t// in\ntag_14:\n    /* \"#utility.yul\":232:282   */\ntag_13:\n    /* \"#utility.yul\":312:313   */\n  0x01\n    /* \"#utility.yul\":302:310   */\n  dup6\n    /* \"#utility.yul\":298:314   */\n  and\n    /* \"#utility.yul\":295:746   */\n  iszero\n  tag_16\n  jumpi\n    /* \"#utility.yul\":727:731   */\n  dup1\n    /* \"#utility.yul\":720:725   */\n  dup3\n    /* \"#utility.yul\":716:732   */\n  mul\n    /* \"#utility.yul\":707:732   */\n  swap2\n  pop\n    /* \"#utility.yul\":295:746   */\ntag_16:\n    /* \"#utility.yul\":777:781   */\n  dup1\n    /* \"#utility.yul\":771:775   */\n  dup2\n    /* \"#utility.yul\":767:782   */\n  mul\n    /* \"#utility.yul\":759:782   */\n  swap1\n  pop\n    /* \"#utility.yul\":807:839   */\n  tag_17\n    /* \"#utility.yul\":830:838   */\n  dup6\n    /* \"#utility.yul\":807:839   */\n  tag_18\n  jump\t// in\ntag_17:\n    /* \"#utility.yul\":795:839   */\n  swap5\n  pop\n    /* \"#utility.yul\":137:849   */\n  jump(tag_10)\ntag_12:\n    /* \"#utility.yul\":7:855   */\n  swap5\n  pop\n  swap5\n  swap3\n  pop\n  pop\n  pop\n  jump\t// out\n    /* \"#utility.yul\":861:1146   */\ntag_2:\n    /* \"#utility.yul\":921:926   */\n  0x00\n    /* \"#utility.yul\":945:968   */\n  tag_20\n    /* \"#utility.yul\":963:967   */\n  dup3\n    /* \"#utility.yul\":945:968   */\n  tag_21\n  jump\t// in\ntag_20:\n    /* \"#utility.yul\":937:968   */\n  swap2\n  pop\n    /* \"#utility.yul\":989:1016   */\n  tag_22\n    /* \"#utility.yul\":1007:1015   */\n  dup4\n    /* \"#utility.yul\":989:1016   */\n  tag_21\n  jump\t// in\ntag_22:\n    /* \"#utility.yul\":977:1016   */\n  swap3\n  pop\n    /* \"#utility.yul\":1035:1139   */\n  tag_23\n    /* \"#utility.yul\":1072:1138   */\n  0xffffffffffffffffffffffffffffffffffffffffffffffffffffffffffffffff\n    /* \"#utility.yul\":1062:1070   */\n  dup5\n    /* \"#utility.yul\":1056:1060   */\n  dup5\n    /* \"#utility.yul\":1035:1139   */\n  tag_24\n  jump\t// in\ntag_23:\n    /* \"#utility.yul\":1026:1139   */\n  swap1\n  pop\n    /* \"#utility.yul\":861:1146   */\n  swap3\n  swap2\n  pop\n  pop\n  jump\t// out\n    /* \"#utility.yul\":1152:2225   */\ntag_24:\n    /* \"#utility.yul\":1206:1211   */\n  0x00\n    /* \"#utility.yul\":1397:1405   */\n  dup3\n    /* \"#utility.yul\":1387:1427   */\n  tag_26\n  jumpi\n    /* \"#utility.yul\":1418:1419   */\n  0x01\n    /* \"#utility.yul\":1409:1419   */\n  swap1\n  pop\n    /* \"#utility.yul\":1420:1425   */\n  jump(tag_25)\n    /* \"#utility.yul\":1387:1427   */\ntag_26:\n    /* \"#utility.yul\":1446:1450   */\n  dup2\n    /* \"#utility.yul\":1436:1472   */\n  tag_27\n  jumpi\n    /* \"#utility.yul\":1463:1464   */\n  0x00\n    /* \"#utility.yul\":1454:1464   */\n  swap1\n  pop\n    /* \"#utility.yul\":1465:1470   */\n  jump(tag_25)\n    /* \"#utility.yul\":1436:1472   */\ntag_27:\n    /* \"#utility.yul\":1532:1536   */\n  dup2\n    /* \"#utility.yul\":1580:1581   */\n  0x01\n    /* \"#utility.yul\":1575:1602   */\n  dup2\n  eq\n  tag_29\n  jumpi\n    /* \"#utility.yul\":1616:1617   */\n  0x02\n    /* \"#utility.yul\":1611:1802   */\n  dup2\n  eq\n  tag_30\n  jumpi\n    /* \"#utility.yul\":1525:1802   */\n  jump(tag_28)\n    /* \"#utility.yul\":1575:1602   */\ntag_29:\n    /* \"#utility.yul\":1593:1594   */\n  0x01\n    /* \"#utility.yul\":1584:1594   */\n  swap2\n  pop\n    /* \"#utility.yul\":1595:1600   */\n  pop\n  jump(tag_25)\n    /* \"#utility.yul\":1611:1802   */\ntag_30:\n    /* \"#utility.yul\":1656:1659   */\n  0xff\n    /* \"#utility.yul\":1646:1654   */\n  dup5\n    /* \"#utility.yul\":1643:1660   */\n  gt\n    /* \"#utility.yul\":1640:1683   */\n  iszero\n  tag_31\n  jumpi\n    /* \"#utility.yul\":1663:1681   */\n  tag_32\n  tag_15\n  jump\t// in\ntag_32:\n    /* \"#utility.yul\":1640:1683   */\ntag_31:\n    /* \"#utility.yul\":1712:1720   */\n  dup4\n    /* \"#utility.yul\":1709:1710   */\n  0x02\n    /* \"#utility.yul\":1705:1721   */\n  exp\n    /* \"#utility.yul\":1696:1721   */\n  swap2\n  pop\n    /* \"#utility.yul\":1747:1750   */\n  dup5\n    /* \"#utility.yul\":1740:1745   */\n  dup3\n    /* \"#utility.yul\":1737:1751   */\n  gt\n    /* \"#utility.yul\":1734:1774   */\n  iszero\n  tag_33\n  jumpi\n    /* \"#utility.yul\":1754:1772   */\n  tag_34\n  tag_15\n  jump\t// in\ntag_34:\n    /* \"#utility.yul\":1734:1774   */\ntag_33:\n    /* \"#utility.yul\":1787:1792   */\n  pop\n  jump(tag_25)\n    /* \"#utility.yul\":1525:1802   */\ntag_28:\n  pop\n    /* \"#utility.yul\":1911:1913   */\n  0x20\n    /* \"#utility.yul\":1901:1909   */\n  dup4\n    /* \"#utility.yul\":1898:1914   */\n  lt\n    /* \"#utility.yul\":1892:1895   */\n  0x0133\n    /* \"#utility.yul\":1886:1890   */\n  dup4\n    /* \"#utility.yul\":1883:1896   */\n  lt\n    /* \"#utility.yul\":1879:1915   */\n  and\n    /* \"#utility.yul\":1861:1863   */\n  0x4e\n    /* \"#utility.yul\":1851:1859   */\n  dup5\n    /* \"#utility.yul\":1848:1864   */\n  lt\n    /* \"#utility.yul\":1843:1845   */\n  0x0b\n    /* \"#utility.yul\":1837:1841   */\n  dup5\n    /* \"#utility.yul\":1834:1846   */\n  lt\n    /* \"#utility.yul\":1830:1865   */\n  and\n    /* \"#utility.yul\":1814:1925   */\n  or\n    /* \"#utility.yul\":1811:2057   */\n  iszero\n  tag_35\n  jumpi\n    /* \"#utility.yul\":1967:1975   */\n  dup3\n    /* \"#utility.yul\":1961:1965   */\n  dup3\n    /* \"#utility.yul\":1957:1976   */\n  exp\n    /* \"#utility.yul\":1948:1976   */\n  swap1\n  pop\n    /* \"#utility.yul\":2002:2005   */\n  dup4\n    /* \"#utility.yul\":1995:2000   */\n  dup2\n    /* \"#utility.yul\":1992:2006   */\n  gt\n    /* \"#utility.yul\":1989:2029   */\n  iszero\n  tag_36\n  jumpi\n    /* \"#utility.yul\":2009:2027   */\n  tag_37\n  tag_15\n  jump\t// in\ntag_37:\n    /* \"#utility.yul\":1989:2029   */\ntag_36:\n    /* \"#utility.yul\":2042:2047   */\n  jump(tag_25)\n    /* \"#utility.yul\":1811:2057   */\ntag_35:\n    /* \"#utility.yul\":2082:2124   */\n  tag_38\n    /* \"#utility.yul\":2120:2123   */\n  dup5\n    /* \"#utility.yul\":2110:2118   */\n  dup5\n    /* \"#utility.yul\":2104:2108   */\n  dup5\n    /* \"#utility.yul\":2101:2102   */\n  0x01\n    /* \"#utility.yul\":2082:2124   */\n  tag_8\n  jump\t// in\ntag_38:\n    /* \"#utility.yul\":2067:2124   */\n  swap3\n  pop\n  swap1\n  pop\n    /* \"#utility.yul\":2156:2160   */\n  dup2\n    /* \"#utility.yul\":2151:2154   */\n  dup5\n    /* \"#utility.yul\":2147:2161   */\n  div\n    /* \"#utility.yul\":2140:2145   */\n  dup2\n    /* \"#utility.yul\":2137:2162   */\n  gt\n    /* \"#utility.yul\":2134:2185   */\n  iszero\n  tag_39\n  jumpi\n    /* \"#utility.yul\":2165:2183   */\n  tag_40\n  tag_15\n  jump\t// in\ntag_40:\n    /* \"#utility.yul\":2134:2185   */\ntag_39:\n    /* \"#utility.yul\":2214:2218   */\n  dup2\n    /* \"#utility.yul\":2207:2212   */\n  dup2\n    /* \"#utility.yul\":2203:2219   */\n  mul\n    /* \"#utility.yul\":2194:2219   */\n  swap1\n  pop\n    /* \"#utility.yul\":1152:2225   */\ntag_25:\n  swap4\n  swap3\n  pop\n  pop\n  pop\n  jump\t// out\n    /* \"#utility.yul\":2231:2308   */\ntag_21:\n    /* \"#utility.yul\":2268:2275   */\n  0x00\n    /* \"#utility.yul\":2297:2302   */\n  dup2\n    /* \"#utility.yul\":2286:2302   */\n  swap1\n  pop\n    /* \"#utility.yul\":2231:2308   */\n  swap2\n  swap1\n  pop\n  jump\t// out\n    /* \"#utility.yul\":2314:2494   */\ntag_15:\n    /* \"#utility.yul\":2362:2439   */\n  0x4e487b7100000000000000000000000000000000000000000000000000000000\n    /* \"#utility.yul\":2359:2360   */\n  0x00\n    /* \"#utility.yul\":2352:2440   */\n  mstore\n    /* \"#utility.yul\":2459:2463   */\n  0x11\n    /* \"#utility.yul\":2456:2457   */\n  0x04\n    /* \"#utility.yul\":2449:2464   */\n  mstore\n    /* \"#utility.yul\":2483:2487   */\n  0x24\n    /* \"#utility.yul\":2480:2481   */\n  0x00\n    /* \"#utility.yul\":2473:2488   */\n  revert\n    /* \"#utility.yul\":2500:2602   */\ntag_18:\n    /* \"#utility.yul\":2542:2550   */\n  0x00\n    /* \"#utility.yul\":2589:2594   */\n  dup2\n    /* \"#utility.yul\":2586:2587   */\n  0x01\n    /* \"#utility.yul\":2582:2595   */\n  shr\n    /* \"#utility.yul\":2561:2595   */\n  swap1\n  pop\n    /* \"#utility.yul\":2500:2602   */\n  swap2\n  swap1\n  pop\n  jump\t// out\n    /* \"Testing Smart Contracts with Truffle/contracts/zombiefactory.sol\":123:1598  contract ZombieFactory is Ownable {... */\ntag_6:\n  dataSize(sub_0)\n  dup1\n  dataOffset(sub_0)\n  0x00\n  codecopy\n  0x00\n  return\nstop\n\nsub_0: assembly {\n        /* \"Testing Smart Contracts with Truffle/contracts/zombiefactory.sol\":123:1598  contract ZombieFactory is Ownable {... */\n      mstore(0x40, 0x80)\n      callvalue\n      dup1\n      iszero\n      tag_1\n      jumpi\n      0x00\n      dup1\n      revert\n    tag_1:\n      pop\n      jumpi(tag_2, lt(calldatasize, 0x04))\n      shr(0xe0, calldataload(0x00))\n      dup1\n      0x7bff0a01\n      gt\n      tag_10\n      jumpi\n      dup1\n      0x7bff0a01\n      eq\n      tag_6\n      jumpi\n      dup1\n      0x8da5cb5b\n      eq\n      tag_7\n      jumpi\n      dup1\n      0x8f32d59b\n      eq\n      tag_8\n      jumpi\n      dup1\n      0xf2fde38b\n      eq\n      tag_9\n      jumpi\n      jump(tag_2)\n    tag_10:\n      dup1\n      0x2052465e\n      eq\n      tag_3\n      jumpi\n      dup1\n      0x528b7b8f\n      eq\n      tag_4\n      jumpi\n      dup1\n      0x715018a6\n      eq\n      tag_5\n      jumpi\n    tag_2:\n      0x00\n      dup1\n      revert\n        /* \"Testing Smart Contracts with Truffle/contracts/zombiefactory.sol\":600:623  Zombie[] public zombies */\n    tag_3:\n      tag_11\n      0x04\n      dup1\n      calldatasize\n      sub\n      dup2\n      add\n      swap1\n      tag_12\n      swap2\n      swap1\n      tag_13\n      jump\t// in\n    tag_12:\n      tag_14\n      jump\t// in\n    tag_11:\n      mload(0x40)\n      tag_15\n      swap7\n      swap6\n      swap5\n      swap4\n      swap3\n      swap2\n      swap1\n      tag_16\n      jump\t// in\n    tag_15:\n      mload(0x40)\n      dup1\n      swap2\n      sub\n      swap1\n      return\n        /* \"Testing Smart Contracts with Truffle/contracts/zombiefactory.sol\":630:678  mapping(uint256 => address) public zombieToOwner */\n    tag_4:\n      tag_17\n      0x04\n      dup1\n      calldatasize\n      sub\n      dup2\n      add\n      swap1\n      tag_18\n      swap2\n      swap1\n      tag_13\n      jump\t// in\n    tag_18:\n      tag_19\n      jump\t// in\n    tag_17:\n      mload(0x40)\n      tag_20\n      swap2\n      swap1\n      tag_21\n      jump\t// in\n    tag_20:\n      mload(0x40)\n      dup1\n      swap2\n      sub\n      swap1\n      return\n        /* \"Testing Smart Contracts with Truffle/contracts/ownable.sol\":1408:1545  function renounceOwnership() public onlyOwner {... */\n    tag_5:\n      tag_22\n      tag_23\n      jump\t// in\n    tag_22:\n      stop\n        /* \"Testing Smart Contracts with Truffle/contracts/zombiefactory.sol\":1344:1596  function createRandomZombie(string memory _name) public {... */\n    tag_6:\n      tag_24\n      0x04\n      dup1\n      calldatasize\n      sub\n      dup2\n      add\n      swap1\n      tag_25\n      swap2\n      swap1\n      tag_26\n      jump\t// in\n    tag_25:\n      tag_27\n      jump\t// in\n    tag_24:\n      stop\n        /* \"Testing Smart Contracts with Truffle/contracts/ownable.sol\":720:797  function owner() public view returns (address) {... */\n    tag_7:\n      tag_28\n      tag_29\n      jump\t// in\n    tag_28:\n      mload(0x40)\n      tag_30\n      swap2\n      swap1\n      tag_21\n      jump\t// in\n    tag_30:\n      mload(0x40)\n      dup1\n      swap2\n      sub\n      swap1\n      return\n        /* \"Testing Smart Contracts with Truffle/contracts/ownable.sol\":1040:1130  function isOwner() public view returns (bool) {... */\n    tag_8:\n      tag_31\n      tag_32\n      jump\t// in\n    tag_31:\n      mload(0x40)\n      tag_33\n      swap2\n      swap1\n      tag_34\n      jump\t// in\n    tag_33:\n      mload(0x40)\n      dup1\n      swap2\n      sub\n      swap1\n      return\n        /* \"Testing Smart Contracts with Truffle/contracts/ownable.sol\":1716:1823  function transferOwnership(address newOwner) public onlyOwner {... */\n    tag_9:\n      tag_35\n      0x04\n      dup1\n      calldatasize\n      sub\n      dup2\n      add\n      swap1\n      tag_36\n      swap2\n      swap1\n      tag_37\n      jump\t// in\n    tag_36:\n      tag_38\n      jump\t// in\n    tag_35:\n      stop\n        /* \"Testing Smart Contracts with Truffle/contracts/zombiefactory.sol\":600:623  Zombie[] public zombies */\n    tag_14:\n      0x04\n      dup2\n      dup2\n      sload\n      dup2\n      lt\n      tag_39\n      jumpi\n      0x00\n      dup1\n      revert\n    tag_39:\n      swap1\n      0x00\n      mstore\n      keccak256(0x00, 0x20)\n      swap1\n      0x03\n      mul\n      add\n      0x00\n      swap2\n      pop\n      swap1\n      pop\n      dup1\n      0x00\n      add\n      dup1\n      sload\n      tag_41\n      swap1\n      tag_42\n      jump\t// in\n    tag_41:\n      dup1\n      0x1f\n      add\n      0x20\n      dup1\n      swap2\n      div\n      mul\n      0x20\n      add\n      mload(0x40)\n      swap1\n      dup2\n      add\n      0x40\n      mstore\n      dup1\n      swap3\n      swap2\n      swap1\n      dup2\n      dup2\n      mstore\n      0x20\n      add\n      dup3\n      dup1\n      sload\n      tag_43\n      swap1\n      tag_42\n      jump\t// in\n    tag_43:\n      dup1\n      iszero\n      tag_44\n      jumpi\n      dup1\n      0x1f\n      lt\n      tag_45\n      jumpi\n      0x0100\n      dup1\n      dup4\n      sload\n      div\n      mul\n      dup4\n      mstore\n      swap2\n      0x20\n      add\n      swap2\n      jump(tag_44)\n    tag_45:\n      dup3\n      add\n      swap2\n      swap1\n      0x00\n      mstore\n      keccak256(0x00, 0x20)\n      swap1\n    tag_46:\n      dup2\n      sload\n      dup2\n      mstore\n      swap1\n      0x01\n      add\n      swap1\n      0x20\n      add\n      dup1\n      dup4\n      gt\n      tag_46\n      jumpi\n      dup3\n      swap1\n      sub\n      0x1f\n      and\n      dup3\n      add\n      swap2\n    tag_44:\n      pop\n      pop\n      pop\n      pop\n      pop\n      swap1\n      dup1\n      0x01\n      add\n      sload\n      swap1\n      dup1\n      0x02\n      add\n      0x00\n      swap1\n      sload\n      swap1\n      0x0100\n      exp\n      swap1\n      div\n      0xffffffff\n      and\n      swap1\n      dup1\n      0x02\n      add\n      0x04\n      swap1\n      sload\n      swap1\n      0x0100\n      exp\n      swap1\n      div\n      0xffffffff\n      and\n      swap1\n      dup1\n      0x02\n      add\n      0x08\n      swap1\n      sload\n      swap1\n      0x0100\n      exp\n      swap1\n      div\n      0xffff\n      and\n      swap1\n      dup1\n      0x02\n      add\n      0x0a\n      swap1\n      sload\n      swap1\n      0x0100\n      exp\n      swap1\n      div\n      0xffff\n      and\n      swap1\n      pop\n      dup7\n      jump\t// out\n        /* \"Testing Smart Contracts with Truffle/contracts/zombiefactory.sol\":630:678  mapping(uint256 => address) public zombieToOwner */\n    tag_19:\n      mstore(0x20, 0x05)\n      dup1\n      0x00\n      mstore\n      keccak256(0x00, 0x40)\n      0x00\n      swap2\n      pop\n      sload\n      swap1\n      0x0100\n      exp\n      swap1\n      div\n      0xffffffffffffffffffffffffffffffffffffffff\n      and\n      dup2\n      jump\t// out\n        /* \"Testing Smart Contracts with Truffle/contracts/ownable.sol\":1408:1545  function renounceOwnership() public onlyOwner {... */\n    tag_23:\n        /* \"Testing Smart Contracts with Truffle/contracts/ownable.sol\":924:933  isOwner() */\n      tag_48\n        /* \"Testing Smart Contracts with Truffle/contracts/ownable.sol\":924:931  isOwner */\n      tag_32\n        /* \"Testing Smart Contracts with Truffle/contracts/ownable.sol\":924:933  isOwner() */\n      jump\t// in\n    tag_48:\n        /* \"Testing Smart Contracts with Truffle/contracts/ownable.sol\":916:934  require(isOwner()) */\n      tag_49\n      jumpi\n      0x00\n      dup1\n      revert\n    tag_49:\n        /* \"Testing Smart Contracts with Truffle/contracts/ownable.sol\":1506:1507  0 */\n      0x00\n        /* \"Testing Smart Contracts with Truffle/contracts/ownable.sol\":1469:1509  OwnershipTransferred(_owner, address(0)) */\n      0xffffffffffffffffffffffffffffffffffffffff\n      and\n        /* \"Testing Smart Contracts with Truffle/contracts/ownable.sol\":1490:1496  _owner */\n      0x00\n      dup1\n      sload\n      swap1\n      0x0100\n      exp\n      swap1\n      div\n      0xffffffffffffffffffffffffffffffffffffffff\n      and\n        /* \"Testing Smart Contracts with Truffle/contracts/ownable.sol\":1469:1509  OwnershipTransferred(_owner, address(0)) */\n      0xffffffffffffffffffffffffffffffffffffffff\n      and\n      0x8be0079c531659141344cd1fd0a4f28419497f9722a3daafe3b4186f6b6457e0\n      mload(0x40)\n      mload(0x40)\n      dup1\n      swap2\n      sub\n      swap1\n      log3\n        /* \"Testing Smart Contracts with Truffle/contracts/ownable.sol\":1536:1537  0 */\n      0x00\n        /* \"Testing Smart Contracts with Truffle/contracts/ownable.sol\":1519:1525  _owner */\n      dup1\n      0x00\n        /* \"Testing Smart Contracts with Truffle/contracts/ownable.sol\":1519:1538  _owner = address(0) */\n      0x0100\n      exp\n      dup2\n      sload\n      dup2\n      0xffffffffffffffffffffffffffffffffffffffff\n      mul\n      not\n      and\n      swap1\n      dup4\n      0xffffffffffffffffffffffffffffffffffffffff\n      and\n      mul\n      or\n      swap1\n      sstore\n      pop\n        /* \"Testing Smart Contracts with Truffle/contracts/ownable.sol\":1408:1545  function renounceOwnership() public onlyOwner {... */\n      jump\t// out\n        /* \"Testing Smart Contracts with Truffle/contracts/zombiefactory.sol\":1344:1596  function createRandomZombie(string memory _name) public {... */\n    tag_27:\n        /* \"Testing Smart Contracts with Truffle/contracts/zombiefactory.sol\":1450:1451  0 */\n      0x00\n        /* \"Testing Smart Contracts with Truffle/contracts/zombiefactory.sol\":1418:1434  ownerZombieCount */\n      0x06\n        /* \"Testing Smart Contracts with Truffle/contracts/zombiefactory.sol\":1418:1446  ownerZombieCount[msg.sender] */\n      0x00\n        /* \"Testing Smart Contracts with Truffle/contracts/zombiefactory.sol\":1435:1445  msg.sender */\n      caller\n        /* \"Testing Smart Contracts with Truffle/contracts/zombiefactory.sol\":1418:1446  ownerZombieCount[msg.sender] */\n      0xffffffffffffffffffffffffffffffffffffffff\n      and\n      0xffffffffffffffffffffffffffffffffffffffff\n      and\n      dup2\n      mstore\n      0x20\n      add\n      swap1\n      dup2\n      mstore\n      0x20\n      add\n      0x00\n      keccak256\n      sload\n        /* \"Testing Smart Contracts with Truffle/contracts/zombiefactory.sol\":1418:1451  ownerZombieCount[msg.sender] == 0 */\n      eq\n        /* \"Testing Smart Contracts with Truffle/contracts/zombiefactory.sol\":1410:1452  require(ownerZombieCount[msg.sender] == 0) */\n      tag_52\n      jumpi\n      0x00\n      dup1\n      revert\n    tag_52:\n        /* \"Testing Smart Contracts with Truffle/contracts/zombiefactory.sol\":1462:1477  uint256 randDna */\n      0x00\n        /* \"Testing Smart Contracts with Truffle/contracts/zombiefactory.sol\":1480:1505  _generateRandomDna(_name) */\n      tag_53\n        /* \"Testing Smart Contracts with Truffle/contracts/zombiefactory.sol\":1499:1504  _name */\n      dup3\n        /* \"Testing Smart Contracts with Truffle/contracts/zombiefactory.sol\":1480:1498  _generateRandomDna */\n      tag_54\n        /* \"Testing Smart Contracts with Truffle/contracts/zombiefactory.sol\":1480:1505  _generateRandomDna(_name) */\n      jump\t// in\n    tag_53:\n        /* \"Testing Smart Contracts with Truffle/contracts/zombiefactory.sol\":1462:1505  uint256 randDna = _generateRandomDna(_name) */\n      swap1\n      pop\n        /* \"Testing Smart Contracts with Truffle/contracts/zombiefactory.sol\":1546:1549  100 */\n      0x64\n        /* \"Testing Smart Contracts with Truffle/contracts/zombiefactory.sol\":1536:1543  randDna */\n      dup2\n        /* \"Testing Smart Contracts with Truffle/contracts/zombiefactory.sol\":1536:1549  randDna % 100 */\n      tag_55\n      swap2\n      swap1\n      tag_56\n      jump\t// in\n    tag_55:\n        /* \"Testing Smart Contracts with Truffle/contracts/zombiefactory.sol\":1525:1532  randDna */\n      dup2\n        /* \"Testing Smart Contracts with Truffle/contracts/zombiefactory.sol\":1525:1550  randDna - (randDna % 100) */\n      tag_57\n      swap2\n      swap1\n      tag_58\n      jump\t// in\n    tag_57:\n        /* \"Testing Smart Contracts with Truffle/contracts/zombiefactory.sol\":1515:1550  randDna = randDna - (randDna % 100) */\n      swap1\n      pop\n        /* \"Testing Smart Contracts with Truffle/contracts/zombiefactory.sol\":1560:1589  _createZombie(_name, randDna) */\n      tag_59\n        /* \"Testing Smart Contracts with Truffle/contracts/zombiefactory.sol\":1574:1579  _name */\n      dup3\n        /* \"Testing Smart Contracts with Truffle/contracts/zombiefactory.sol\":1581:1588  randDna */\n      dup3\n        /* \"Testing Smart Contracts with Truffle/contracts/zombiefactory.sol\":1560:1573  _createZombie */\n      tag_60\n        /* \"Testing Smart Contracts with Truffle/contracts/zombiefactory.sol\":1560:1589  _createZombie(_name, randDna) */\n      jump\t// in\n    tag_59:\n        /* \"Testing Smart Contracts with Truffle/contracts/zombiefactory.sol\":1400:1596  {... */\n      pop\n        /* \"Testing Smart Contracts with Truffle/contracts/zombiefactory.sol\":1344:1596  function createRandomZombie(string memory _name) public {... */\n      pop\n      jump\t// out\n        /* \"Testing Smart Contracts with Truffle/contracts/ownable.sol\":720:797  function owner() public view returns (address) {... */\n    tag_29:\n        /* \"Testing Smart Contracts with Truffle/contracts/ownable.sol\":758:765  address */\n      0x00\n        /* \"Testing Smart Contracts with Truffle/contracts/ownable.sol\":784:790  _owner */\n      dup1\n      0x00\n      swap1\n      sload\n      swap1\n      0x0100\n      exp\n      swap1\n      div\n      0xffffffffffffffffffffffffffffffffffffffff\n      and\n        /* \"Testing Smart Contracts with Truffle/contracts/ownable.sol\":777:790  return _owner */\n      swap1\n      pop\n        /* \"Testing Smart Contracts with Truffle/contracts/ownable.sol\":720:797  function owner() public view returns (address) {... */\n      swap1\n      jump\t// out\n        /* \"Testing Smart Contracts with Truffle/contracts/ownable.sol\":1040:1130  function isOwner() public view returns (bool) {... */\n    tag_32:\n        /* \"Testing Smart Contracts with Truffle/contracts/ownable.sol\":1080:1084  bool */\n      0x00\n        /* \"Testing Smart Contracts with Truffle/contracts/ownable.sol\":1117:1123  _owner */\n      dup1\n      0x00\n      swap1\n      sload\n      swap1\n      0x0100\n      exp\n      swap1\n      div\n      0xffffffffffffffffffffffffffffffffffffffff\n      and\n        /* \"Testing Smart Contracts with Truffle/contracts/ownable.sol\":1103:1123  msg.sender == _owner */\n      0xffffffffffffffffffffffffffffffffffffffff\n      and\n        /* \"Testing Smart Contracts with Truffle/contracts/ownable.sol\":1103:1113  msg.sender */\n      caller\n        /* \"Testing Smart Contracts with Truffle/contracts/ownable.sol\":1103:1123  msg.sender == _owner */\n      0xffffffffffffffffffffffffffffffffffffffff\n      and\n      eq\n        /* \"Testing Smart Contracts with Truffle/contracts/ownable.sol\":1096:1123  return msg.sender == _owner */\n      swap1\n      pop\n        /* \"Testing Smart Contracts with Truffle/contracts/ownable.sol\":1040:1130  function isOwner() public view returns (bool) {... */\n      swap1\n      jump\t// out\n        /* \"Testing Smart Contracts with Truffle/contracts/ownable.sol\":1716:1823  function transferOwnership(address newOwner) public onlyOwner {... */\n    tag_38:\n        /* \"Testing Smart Contracts with Truffle/contracts/ownable.sol\":924:933  isOwner() */\n      tag_64\n        /* \"Testing Smart Contracts with Truffle/contracts/ownable.sol\":924:931  isOwner */\n      tag_32\n        /* \"Testing Smart Contracts with Truffle/contracts/ownable.sol\":924:933  isOwner() */\n      jump\t// in\n    tag_64:\n        /* \"Testing Smart Contracts with Truffle/contracts/ownable.sol\":916:934  require(isOwner()) */\n      tag_65\n      jumpi\n      0x00\n      dup1\n      revert\n    tag_65:\n        /* \"Testing Smart Contracts with Truffle/contracts/ownable.sol\":1788:1816  _transferOwnership(newOwner) */\n      tag_67\n        /* \"Testing Smart Contracts with Truffle/contracts/ownable.sol\":1807:1815  newOwner */\n      dup2\n        /* \"Testing Smart Contracts with Truffle/contracts/ownable.sol\":1788:1806  _transferOwnership */\n      tag_68\n        /* \"Testing Smart Contracts with Truffle/contracts/ownable.sol\":1788:1816  _transferOwnership(newOwner) */\n      jump\t// in\n    tag_67:\n        /* \"Testing Smart Contracts with Truffle/contracts/ownable.sol\":1716:1823  function transferOwnership(address newOwner) public onlyOwner {... */\n      pop\n      jump\t// out\n        /* \"Testing Smart Contracts with Truffle/contracts/zombiefactory.sol\":1123:1338  function _generateRandomDna(string memory _str)... */\n    tag_54:\n        /* \"Testing Smart Contracts with Truffle/contracts/zombiefactory.sol\":1217:1224  uint256 */\n      0x00\n        /* \"Testing Smart Contracts with Truffle/contracts/zombiefactory.sol\":1240:1252  uint256 rand */\n      dup1\n        /* \"Testing Smart Contracts with Truffle/contracts/zombiefactory.sol\":1290:1294  _str */\n      dup3\n        /* \"Testing Smart Contracts with Truffle/contracts/zombiefactory.sol\":1273:1295  abi.encodePacked(_str) */\n      add(0x20, mload(0x40))\n      tag_70\n      swap2\n      swap1\n      tag_71\n      jump\t// in\n    tag_70:\n      mload(0x40)\n      0x20\n      dup2\n      dup4\n      sub\n      sub\n      dup2\n      mstore\n      swap1\n      0x40\n      mstore\n        /* \"Testing Smart Contracts with Truffle/contracts/zombiefactory.sol\":1263:1296  keccak256(abi.encodePacked(_str)) */\n      dup1\n      mload\n      swap1\n      0x20\n      add\n      keccak256\n        /* \"Testing Smart Contracts with Truffle/contracts/zombiefactory.sol\":1255:1297  uint256(keccak256(abi.encodePacked(_str))) */\n      0x00\n      shr\n        /* \"Testing Smart Contracts with Truffle/contracts/zombiefactory.sol\":1240:1297  uint256 rand = uint256(keccak256(abi.encodePacked(_str))) */\n      swap1\n      pop\n        /* \"Testing Smart Contracts with Truffle/contracts/zombiefactory.sol\":1321:1331  dnaModulus */\n      sload(0x02)\n        /* \"Testing Smart Contracts with Truffle/contracts/zombiefactory.sol\":1314:1318  rand */\n      dup2\n        /* \"Testing Smart Contracts with Truffle/contracts/zombiefactory.sol\":1314:1331  rand % dnaModulus */\n      tag_72\n      swap2\n      swap1\n      tag_56\n      jump\t// in\n    tag_72:\n        /* \"Testing Smart Contracts with Truffle/contracts/zombiefactory.sol\":1307:1331  return rand % dnaModulus */\n      swap2\n      pop\n      pop\n        /* \"Testing Smart Contracts with Truffle/contracts/zombiefactory.sol\":1123:1338  function _generateRandomDna(string memory _str)... */\n      swap2\n      swap1\n      pop\n      jump\t// out\n        /* \"Testing Smart Contracts with Truffle/contracts/zombiefactory.sol\":735:1117  function _createZombie(string memory _name, uint256 _dna) internal {... */\n    tag_60:\n        /* \"Testing Smart Contracts with Truffle/contracts/zombiefactory.sol\":812:819  zombies */\n      0x04\n        /* \"Testing Smart Contracts with Truffle/contracts/zombiefactory.sol\":838:906  Zombie(_name, _dna, 1, uint32(block.timestamp + cooldownTime), 0, 0) */\n      mload(0x40)\n      dup1\n      0xc0\n      add\n      0x40\n      mstore\n      dup1\n        /* \"Testing Smart Contracts with Truffle/contracts/zombiefactory.sol\":845:850  _name */\n      dup5\n        /* \"Testing Smart Contracts with Truffle/contracts/zombiefactory.sol\":838:906  Zombie(_name, _dna, 1, uint32(block.timestamp + cooldownTime), 0, 0) */\n      dup2\n      mstore\n      0x20\n      add\n        /* \"Testing Smart Contracts with Truffle/contracts/zombiefactory.sol\":852:856  _dna */\n      dup4\n        /* \"Testing Smart Contracts with Truffle/contracts/zombiefactory.sol\":838:906  Zombie(_name, _dna, 1, uint32(block.timestamp + cooldownTime), 0, 0) */\n      dup2\n      mstore\n      0x20\n      add\n        /* \"Testing Smart Contracts with Truffle/contracts/zombiefactory.sol\":858:859  1 */\n      0x01\n        /* \"Testing Smart Contracts with Truffle/contracts/zombiefactory.sol\":838:906  Zombie(_name, _dna, 1, uint32(block.timestamp + cooldownTime), 0, 0) */\n      0xffffffff\n      and\n      dup2\n      mstore\n      0x20\n      add\n        /* \"Testing Smart Contracts with Truffle/contracts/zombiefactory.sol\":886:898  cooldownTime */\n      sload(0x03)\n        /* \"Testing Smart Contracts with Truffle/contracts/zombiefactory.sol\":868:883  block.timestamp */\n      timestamp\n        /* \"Testing Smart Contracts with Truffle/contracts/zombiefactory.sol\":868:898  block.timestamp + cooldownTime */\n      tag_74\n      swap2\n      swap1\n      tag_75\n      jump\t// in\n    tag_74:\n        /* \"Testing Smart Contracts with Truffle/contracts/zombiefactory.sol\":838:906  Zombie(_name, _dna, 1, uint32(block.timestamp + cooldownTime), 0, 0) */\n      0xffffffff\n      and\n      dup2\n      mstore\n      0x20\n      add\n        /* \"Testing Smart Contracts with Truffle/contracts/zombiefactory.sol\":901:902  0 */\n      0x00\n        /* \"Testing Smart Contracts with Truffle/contracts/zombiefactory.sol\":838:906  Zombie(_name, _dna, 1, uint32(block.timestamp + cooldownTime), 0, 0) */\n      0xffff\n      and\n      dup2\n      mstore\n      0x20\n      add\n        /* \"Testing Smart Contracts with Truffle/contracts/zombiefactory.sol\":904:905  0 */\n      0x00\n        /* \"Testing Smart Contracts with Truffle/contracts/zombiefactory.sol\":838:906  Zombie(_name, _dna, 1, uint32(block.timestamp + cooldownTime), 0, 0) */\n      0xffff\n      and\n      dup2\n      mstore\n      pop\n        /* \"Testing Smart Contracts with Truffle/contracts/zombiefactory.sol\":812:916  zombies.push(... */\n      swap1\n      dup1\n      0x01\n      dup2\n      sload\n      add\n      dup1\n      dup3\n      sstore\n      dup1\n      swap2\n      pop\n      pop\n      0x01\n      swap1\n      sub\n      swap1\n      0x00\n      mstore\n      keccak256(0x00, 0x20)\n      swap1\n      0x03\n      mul\n      add\n      0x00\n      swap1\n      swap2\n      swap1\n      swap2\n      swap1\n      swap2\n      pop\n      0x00\n      dup3\n      add\n      mload\n      dup2\n      0x00\n      add\n      swap1\n      dup1\n      mload\n      swap1\n      0x20\n      add\n      swap1\n      tag_77\n      swap3\n      swap2\n      swap1\n      tag_78\n      jump\t// in\n    tag_77:\n      pop\n      0x20\n      dup3\n      add\n      mload\n      dup2\n      0x01\n      add\n      sstore\n      0x40\n      dup3\n      add\n      mload\n      dup2\n      0x02\n      add\n      exp(0x0100, 0x00)\n      dup2\n      sload\n      dup2\n      0xffffffff\n      mul\n      not\n      and\n      swap1\n      dup4\n      0xffffffff\n      and\n      mul\n      or\n      swap1\n      sstore\n      pop\n      0x60\n      dup3\n      add\n      mload\n      dup2\n      0x02\n      add\n      exp(0x0100, 0x04)\n      dup2\n      sload\n      dup2\n      0xffffffff\n      mul\n      not\n      and\n      swap1\n      dup4\n      0xffffffff\n      and\n      mul\n      or\n      swap1\n      sstore\n      pop\n      0x80\n      dup3\n      add\n      mload\n      dup2\n      0x02\n      add\n      exp(0x0100, 0x08)\n      dup2\n      sload\n      dup2\n      0xffff\n      mul\n      not\n      and\n      swap1\n      dup4\n      0xffff\n      and\n      mul\n      or\n      swap1\n      sstore\n      pop\n      0xa0\n      dup3\n      add\n      mload\n      dup2\n      0x02\n      add\n      exp(0x0100, 0x0a)\n      dup2\n      sload\n      dup2\n      0xffff\n      mul\n      not\n      and\n      swap1\n      dup4\n      0xffff\n      and\n      mul\n      or\n      swap1\n      sstore\n      pop\n      pop\n      pop\n        /* \"Testing Smart Contracts with Truffle/contracts/zombiefactory.sol\":926:933  uint id */\n      0x00\n        /* \"Testing Smart Contracts with Truffle/contracts/zombiefactory.sol\":952:953  1 */\n      0x01\n        /* \"Testing Smart Contracts with Truffle/contracts/zombiefactory.sol\":936:943  zombies */\n      0x04\n        /* \"Testing Smart Contracts with Truffle/contracts/zombiefactory.sol\":936:950  zombies.length */\n      dup1\n      sload\n      swap1\n      pop\n        /* \"Testing Smart Contracts with Truffle/contracts/zombiefactory.sol\":936:953  zombies.length -1 */\n      tag_79\n      swap2\n      swap1\n      tag_58\n      jump\t// in\n    tag_79:\n        /* \"Testing Smart Contracts with Truffle/contracts/zombiefactory.sol\":926:953  uint id = zombies.length -1 */\n      swap1\n      pop\n        /* \"Testing Smart Contracts with Truffle/contracts/zombiefactory.sol\":983:993  msg.sender */\n      caller\n        /* \"Testing Smart Contracts with Truffle/contracts/zombiefactory.sol\":963:976  zombieToOwner */\n      0x05\n        /* \"Testing Smart Contracts with Truffle/contracts/zombiefactory.sol\":963:980  zombieToOwner[id] */\n      0x00\n        /* \"Testing Smart Contracts with Truffle/contracts/zombiefactory.sol\":977:979  id */\n      dup4\n        /* \"Testing Smart Contracts with Truffle/contracts/zombiefactory.sol\":963:980  zombieToOwner[id] */\n      dup2\n      mstore\n      0x20\n      add\n      swap1\n      dup2\n      mstore\n      0x20\n      add\n      0x00\n      keccak256\n      0x00\n        /* \"Testing Smart Contracts with Truffle/contracts/zombiefactory.sol\":963:993  zombieToOwner[id] = msg.sender */\n      0x0100\n      exp\n      dup2\n      sload\n      dup2\n      0xffffffffffffffffffffffffffffffffffffffff\n      mul\n      not\n      and\n      swap1\n      dup4\n      0xffffffffffffffffffffffffffffffffffffffff\n      and\n      mul\n      or\n      swap1\n      sstore\n      pop\n        /* \"Testing Smart Contracts with Truffle/contracts/zombiefactory.sol\":1034:1069  ownerZombieCount[msg.sender].add(1) */\n      tag_80\n        /* \"Testing Smart Contracts with Truffle/contracts/zombiefactory.sol\":1067:1068  1 */\n      0x01\n        /* \"Testing Smart Contracts with Truffle/contracts/zombiefactory.sol\":1034:1050  ownerZombieCount */\n      0x06\n        /* \"Testing Smart Contracts with Truffle/contracts/zombiefactory.sol\":1034:1062  ownerZombieCount[msg.sender] */\n      0x00\n        /* \"Testing Smart Contracts with Truffle/contracts/zombiefactory.sol\":1051:1061  msg.sender */\n      caller\n        /* \"Testing Smart Contracts with Truffle/contracts/zombiefactory.sol\":1034:1062  ownerZombieCount[msg.sender] */\n      0xffffffffffffffffffffffffffffffffffffffff\n      and\n      0xffffffffffffffffffffffffffffffffffffffff\n      and\n      dup2\n      mstore\n      0x20\n      add\n      swap1\n      dup2\n      mstore\n      0x20\n      add\n      0x00\n      keccak256\n      sload\n        /* \"Testing Smart Contracts with Truffle/contracts/zombiefactory.sol\":1034:1066  ownerZombieCount[msg.sender].add */\n      tag_81\n      swap1\n        /* \"Testing Smart Contracts with Truffle/contracts/zombiefactory.sol\":1034:1069  ownerZombieCount[msg.sender].add(1) */\n      swap2\n      swap1\n      0xffffffff\n      and\n      jump\t// in\n    tag_80:\n        /* \"Testing Smart Contracts with Truffle/contracts/zombiefactory.sol\":1003:1019  ownerZombieCount */\n      0x06\n        /* \"Testing Smart Contracts with Truffle/contracts/zombiefactory.sol\":1003:1031  ownerZombieCount[msg.sender] */\n      0x00\n        /* \"Testing Smart Contracts with Truffle/contracts/zombiefactory.sol\":1020:1030  msg.sender */\n      caller\n        /* \"Testing Smart Contracts with Truffle/contracts/zombiefactory.sol\":1003:1031  ownerZombieCount[msg.sender] */\n      0xffffffffffffffffffffffffffffffffffffffff\n      and\n      0xffffffffffffffffffffffffffffffffffffffff\n      and\n      dup2\n      mstore\n      0x20\n      add\n      swap1\n      dup2\n      mstore\n      0x20\n      add\n      0x00\n      keccak256\n        /* \"Testing Smart Contracts with Truffle/contracts/zombiefactory.sol\":1003:1069  ownerZombieCount[msg.sender] = ownerZombieCount[msg.sender].add(1) */\n      dup2\n      swap1\n      sstore\n      pop\n        /* \"Testing Smart Contracts with Truffle/contracts/zombiefactory.sol\":1084:1110  NewZombie(id, _name, _dna) */\n      0x88f026aacbbecc90c18411df4b1185fd8d9be2470f1962f192bf84a27d0704b7\n        /* \"Testing Smart Contracts with Truffle/contracts/zombiefactory.sol\":1094:1096  id */\n      dup2\n        /* \"Testing Smart Contracts with Truffle/contracts/zombiefactory.sol\":1098:1103  _name */\n      dup5\n        /* \"Testing Smart Contracts with Truffle/contracts/zombiefactory.sol\":1105:1109  _dna */\n      dup5\n        /* \"Testing Smart Contracts with Truffle/contracts/zombiefactory.sol\":1084:1110  NewZombie(id, _name, _dna) */\n      mload(0x40)\n      tag_82\n      swap4\n      swap3\n      swap2\n      swap1\n      tag_83\n      jump\t// in\n    tag_82:\n      mload(0x40)\n      dup1\n      swap2\n      sub\n      swap1\n      log1\n        /* \"Testing Smart Contracts with Truffle/contracts/zombiefactory.sol\":802:1117  {... */\n      pop\n        /* \"Testing Smart Contracts with Truffle/contracts/zombiefactory.sol\":735:1117  function _createZombie(string memory _name, uint256 _dna) internal {... */\n      pop\n      pop\n      jump\t// out\n        /* \"Testing Smart Contracts with Truffle/contracts/ownable.sol\":1967:2150  function _transferOwnership(address newOwner) internal {... */\n    tag_68:\n        /* \"Testing Smart Contracts with Truffle/contracts/ownable.sol\":2060:2061  0 */\n      0x00\n        /* \"Testing Smart Contracts with Truffle/contracts/ownable.sol\":2040:2062  newOwner != address(0) */\n      0xffffffffffffffffffffffffffffffffffffffff\n      and\n        /* \"Testing Smart Contracts with Truffle/contracts/ownable.sol\":2040:2048  newOwner */\n      dup2\n        /* \"Testing Smart Contracts with Truffle/contracts/ownable.sol\":2040:2062  newOwner != address(0) */\n      0xffffffffffffffffffffffffffffffffffffffff\n      and\n      eq\n      iszero\n        /* \"Testing Smart Contracts with Truffle/contracts/ownable.sol\":2032:2063  require(newOwner != address(0)) */\n      tag_85\n      jumpi\n      0x00\n      dup1\n      revert\n    tag_85:\n        /* \"Testing Smart Contracts with Truffle/contracts/ownable.sol\":2107:2115  newOwner */\n      dup1\n        /* \"Testing Smart Contracts with Truffle/contracts/ownable.sol\":2078:2116  OwnershipTransferred(_owner, newOwner) */\n      0xffffffffffffffffffffffffffffffffffffffff\n      and\n        /* \"Testing Smart Contracts with Truffle/contracts/ownable.sol\":2099:2105  _owner */\n      0x00\n      dup1\n      sload\n      swap1\n      0x0100\n      exp\n      swap1\n      div\n      0xffffffffffffffffffffffffffffffffffffffff\n      and\n        /* \"Testing Smart Contracts with Truffle/contracts/ownable.sol\":2078:2116  OwnershipTransferred(_owner, newOwner) */\n      0xffffffffffffffffffffffffffffffffffffffff\n      and\n      0x8be0079c531659141344cd1fd0a4f28419497f9722a3daafe3b4186f6b6457e0\n      mload(0x40)\n      mload(0x40)\n      dup1\n      swap2\n      sub\n      swap1\n      log3\n        /* \"Testing Smart Contracts with Truffle/contracts/ownable.sol\":2135:2143  newOwner */\n      dup1\n        /* \"Testing Smart Contracts with Truffle/contracts/ownable.sol\":2126:2132  _owner */\n      0x00\n      dup1\n        /* \"Testing Smart Contracts with Truffle/contracts/ownable.sol\":2126:2143  _owner = newOwner */\n      0x0100\n      exp\n      dup2\n      sload\n      dup2\n      0xffffffffffffffffffffffffffffffffffffffff\n      mul\n      not\n      and\n      swap1\n      dup4\n      0xffffffffffffffffffffffffffffffffffffffff\n      and\n      mul\n      or\n      swap1\n      sstore\n      pop\n        /* \"Testing Smart Contracts with Truffle/contracts/ownable.sol\":1967:2150  function _transferOwnership(address newOwner) internal {... */\n      pop\n      jump\t// out\n        /* \"Testing Smart Contracts with Truffle/contracts/safemath.sol\":1450:1587  function add(uint256 a, uint256 b) internal pure returns (uint256 c) {... */\n    tag_81:\n        /* \"Testing Smart Contracts with Truffle/contracts/safemath.sol\":1508:1517  uint256 c */\n      0x00\n        /* \"Testing Smart Contracts with Truffle/contracts/safemath.sol\":1537:1538  b */\n      dup2\n        /* \"Testing Smart Contracts with Truffle/contracts/safemath.sol\":1533:1534  a */\n      dup4\n        /* \"Testing Smart Contracts with Truffle/contracts/safemath.sol\":1533:1538  a + b */\n      tag_87\n      swap2\n      swap1\n      tag_75\n      jump\t// in\n    tag_87:\n        /* \"Testing Smart Contracts with Truffle/contracts/safemath.sol\":1529:1538  c = a + b */\n      swap1\n      pop\n        /* \"Testing Smart Contracts with Truffle/contracts/safemath.sol\":1560:1561  a */\n      dup3\n        /* \"Testing Smart Contracts with Truffle/contracts/safemath.sol\":1555:1556  c */\n      dup2\n        /* \"Testing Smart Contracts with Truffle/contracts/safemath.sol\":1555:1561  c >= a */\n      lt\n      iszero\n        /* \"Testing Smart Contracts with Truffle/contracts/safemath.sol\":1548:1562  assert(c >= a) */\n      tag_88\n      jumpi\n      tag_89\n      tag_90\n      jump\t// in\n    tag_89:\n    tag_88:\n        /* \"Testing Smart Contracts with Truffle/contracts/safemath.sol\":1450:1587  function add(uint256 a, uint256 b) internal pure returns (uint256 c) {... */\n      swap3\n      swap2\n      pop\n      pop\n      jump\t// out\n    tag_78:\n      dup3\n      dup1\n      sload\n      tag_91\n      swap1\n      tag_42\n      jump\t// in\n    tag_91:\n      swap1\n      0x00\n      mstore\n      keccak256(0x00, 0x20)\n      swap1\n      0x1f\n      add\n      0x20\n      swap1\n      div\n      dup2\n      add\n      swap3\n      dup3\n      tag_93\n      jumpi\n      0x00\n      dup6\n      sstore\n      jump(tag_92)\n    tag_93:\n      dup3\n      0x1f\n      lt\n      tag_94\n      jumpi\n      dup1\n      mload\n      not(0xff)\n      and\n      dup4\n      dup1\n      add\n      or\n      dup6\n      sstore\n      jump(tag_92)\n    tag_94:\n      dup3\n      dup1\n      add\n      0x01\n      add\n      dup6\n      sstore\n      dup3\n      iszero\n      tag_92\n      jumpi\n      swap2\n      dup3\n      add\n    tag_95:\n      dup3\n      dup2\n      gt\n      iszero\n      tag_96\n      jumpi\n      dup3\n      mload\n      dup3\n      sstore\n      swap2\n      0x20\n      add\n      swap2\n      swap1\n      0x01\n      add\n      swap1\n      jump(tag_95)\n    tag_96:\n    tag_92:\n      pop\n      swap1\n      pop\n      tag_97\n      swap2\n      swap1\n      tag_98\n      jump\t// in\n    tag_97:\n      pop\n      swap1\n      jump\t// out\n    tag_98:\n    tag_99:\n      dup1\n      dup3\n      gt\n      iszero\n      tag_100\n      jumpi\n      0x00\n      dup2\n      0x00\n      swap1\n      sstore\n      pop\n      0x01\n      add\n      jump(tag_99)\n    tag_100:\n      pop\n      swap1\n      jump\t// out\n        /* \"#utility.yul\":7:419   */\n    tag_102:\n        /* \"#utility.yul\":85:90   */\n      0x00\n        /* \"#utility.yul\":110:176   */\n      tag_104\n        /* \"#utility.yul\":126:175   */\n      tag_105\n        /* \"#utility.yul\":168:174   */\n      dup5\n        /* \"#utility.yul\":126:175   */\n      tag_106\n      jump\t// in\n    tag_105:\n        /* \"#utility.yul\":110:176   */\n      tag_107\n      jump\t// in\n    tag_104:\n        /* \"#utility.yul\":101:176   */\n      swap1\n      pop\n        /* \"#utility.yul\":199:205   */\n      dup3\n        /* \"#utility.yul\":192:197   */\n      dup2\n        /* \"#utility.yul\":185:206   */\n      mstore\n        /* \"#utility.yul\":237:241   */\n      0x20\n        /* \"#utility.yul\":230:235   */\n      dup2\n        /* \"#utility.yul\":226:242   */\n      add\n        /* \"#utility.yul\":275:278   */\n      dup5\n        /* \"#utility.yul\":266:272   */\n      dup5\n        /* \"#utility.yul\":261:264   */\n      dup5\n        /* \"#utility.yul\":257:273   */\n      add\n        /* \"#utility.yul\":254:279   */\n      gt\n        /* \"#utility.yul\":251:363   */\n      iszero\n      tag_108\n      jumpi\n        /* \"#utility.yul\":282:361   */\n      tag_109\n      tag_110\n      jump\t// in\n    tag_109:\n        /* \"#utility.yul\":251:363   */\n    tag_108:\n        /* \"#utility.yul\":372:413   */\n      tag_111\n        /* \"#utility.yul\":406:412   */\n      dup5\n        /* \"#utility.yul\":401:404   */\n      dup3\n        /* \"#utility.yul\":396:399   */\n      dup6\n        /* \"#utility.yul\":372:413   */\n      tag_112\n      jump\t// in\n    tag_111:\n        /* \"#utility.yul\":91:419   */\n      pop\n        /* \"#utility.yul\":7:419   */\n      swap4\n      swap3\n      pop\n      pop\n      pop\n      jump\t// out\n        /* \"#utility.yul\":425:564   */\n    tag_113:\n        /* \"#utility.yul\":471:476   */\n      0x00\n        /* \"#utility.yul\":509:515   */\n      dup2\n        /* \"#utility.yul\":496:516   */\n      calldataload\n        /* \"#utility.yul\":487:516   */\n      swap1\n      pop\n        /* \"#utility.yul\":525:558   */\n      tag_115\n        /* \"#utility.yul\":552:557   */\n      dup2\n        /* \"#utility.yul\":525:558   */\n      tag_116\n      jump\t// in\n    tag_115:\n        /* \"#utility.yul\":425:564   */\n      swap3\n      swap2\n      pop\n      pop\n      jump\t// out\n        /* \"#utility.yul\":584:924   */\n    tag_117:\n        /* \"#utility.yul\":640:645   */\n      0x00\n        /* \"#utility.yul\":689:692   */\n      dup3\n        /* \"#utility.yul\":682:686   */\n      0x1f\n        /* \"#utility.yul\":674:680   */\n      dup4\n        /* \"#utility.yul\":670:687   */\n      add\n        /* \"#utility.yul\":666:693   */\n      slt\n        /* \"#utility.yul\":656:778   */\n      tag_119\n      jumpi\n        /* \"#utility.yul\":697:776   */\n      tag_120\n      tag_121\n      jump\t// in\n    tag_120:\n        /* \"#utility.yul\":656:778   */\n    tag_119:\n        /* \"#utility.yul\":814:820   */\n      dup2\n        /* \"#utility.yul\":801:821   */\n      calldataload\n        /* \"#utility.yul\":839:918   */\n      tag_122\n        /* \"#utility.yul\":914:917   */\n      dup5\n        /* \"#utility.yul\":906:912   */\n      dup3\n        /* \"#utility.yul\":899:903   */\n      0x20\n        /* \"#utility.yul\":891:897   */\n      dup7\n        /* \"#utility.yul\":887:904   */\n      add\n        /* \"#utility.yul\":839:918   */\n      tag_102\n      jump\t// in\n    tag_122:\n        /* \"#utility.yul\":830:918   */\n      swap2\n      pop\n        /* \"#utility.yul\":646:924   */\n      pop\n        /* \"#utility.yul\":584:924   */\n      swap3\n      swap2\n      pop\n      pop\n      jump\t// out\n        /* \"#utility.yul\":930:1069   */\n    tag_123:\n        /* \"#utility.yul\":976:981   */\n      0x00\n        /* \"#utility.yul\":1014:1020   */\n      dup2\n        /* \"#utility.yul\":1001:1021   */\n      calldataload\n        /* \"#utility.yul\":992:1021   */\n      swap1\n      pop\n        /* \"#utility.yul\":1030:1063   */\n      tag_125\n        /* \"#utility.yul\":1057:1062   */\n      dup2\n        /* \"#utility.yul\":1030:1063   */\n      tag_126\n      jump\t// in\n    tag_125:\n        /* \"#utility.yul\":930:1069   */\n      swap3\n      swap2\n      pop\n      pop\n      jump\t// out\n        /* \"#utility.yul\":1075:1404   */\n    tag_37:\n        /* \"#utility.yul\":1134:1140   */\n      0x00\n        /* \"#utility.yul\":1183:1185   */\n      0x20\n        /* \"#utility.yul\":1171:1180   */\n      dup3\n        /* \"#utility.yul\":1162:1169   */\n      dup5\n        /* \"#utility.yul\":1158:1181   */\n      sub\n        /* \"#utility.yul\":1154:1186   */\n      slt\n        /* \"#utility.yul\":1151:1270   */\n      iszero\n      tag_128\n      jumpi\n        /* \"#utility.yul\":1189:1268   */\n      tag_129\n      tag_130\n      jump\t// in\n    tag_129:\n        /* \"#utility.yul\":1151:1270   */\n    tag_128:\n        /* \"#utility.yul\":1309:1310   */\n      0x00\n        /* \"#utility.yul\":1334:1387   */\n      tag_131\n        /* \"#utility.yul\":1379:1386   */\n      dup5\n        /* \"#utility.yul\":1370:1376   */\n      dup3\n        /* \"#utility.yul\":1359:1368   */\n      dup6\n        /* \"#utility.yul\":1355:1377   */\n      add\n        /* \"#utility.yul\":1334:1387   */\n      tag_113\n      jump\t// in\n    tag_131:\n        /* \"#utility.yul\":1324:1387   */\n      swap2\n      pop\n        /* \"#utility.yul\":1280:1397   */\n      pop\n        /* \"#utility.yul\":1075:1404   */\n      swap3\n      swap2\n      pop\n      pop\n      jump\t// out\n        /* \"#utility.yul\":1410:1919   */\n    tag_26:\n        /* \"#utility.yul\":1479:1485   */\n      0x00\n        /* \"#utility.yul\":1528:1530   */\n      0x20\n        /* \"#utility.yul\":1516:1525   */\n      dup3\n        /* \"#utility.yul\":1507:1514   */\n      dup5\n        /* \"#utility.yul\":1503:1526   */\n      sub\n        /* \"#utility.yul\":1499:1531   */\n      slt\n        /* \"#utility.yul\":1496:1615   */\n      iszero\n      tag_133\n      jumpi\n        /* \"#utility.yul\":1534:1613   */\n      tag_134\n      tag_130\n      jump\t// in\n    tag_134:\n        /* \"#utility.yul\":1496:1615   */\n    tag_133:\n        /* \"#utility.yul\":1682:1683   */\n      0x00\n        /* \"#utility.yul\":1671:1680   */\n      dup3\n        /* \"#utility.yul\":1667:1684   */\n      add\n        /* \"#utility.yul\":1654:1685   */\n      calldataload\n        /* \"#utility.yul\":1712:1730   */\n      0xffffffffffffffff\n        /* \"#utility.yul\":1704:1710   */\n      dup2\n        /* \"#utility.yul\":1701:1731   */\n      gt\n        /* \"#utility.yul\":1698:1815   */\n      iszero\n      tag_135\n      jumpi\n        /* \"#utility.yul\":1734:1813   */\n      tag_136\n      tag_137\n      jump\t// in\n    tag_136:\n        /* \"#utility.yul\":1698:1815   */\n    tag_135:\n        /* \"#utility.yul\":1839:1902   */\n      tag_138\n        /* \"#utility.yul\":1894:1901   */\n      dup5\n        /* \"#utility.yul\":1885:1891   */\n      dup3\n        /* \"#utility.yul\":1874:1883   */\n      dup6\n        /* \"#utility.yul\":1870:1892   */\n      add\n        /* \"#utility.yul\":1839:1902   */\n      tag_117\n      jump\t// in\n    tag_138:\n        /* \"#utility.yul\":1829:1902   */\n      swap2\n      pop\n        /* \"#utility.yul\":1625:1912   */\n      pop\n        /* \"#utility.yul\":1410:1919   */\n      swap3\n      swap2\n      pop\n      pop\n      jump\t// out\n        /* \"#utility.yul\":1925:2254   */\n    tag_13:\n        /* \"#utility.yul\":1984:1990   */\n      0x00\n        /* \"#utility.yul\":2033:2035   */\n      0x20\n        /* \"#utility.yul\":2021:2030   */\n      dup3\n        /* \"#utility.yul\":2012:2019   */\n      dup5\n        /* \"#utility.yul\":2008:2031   */\n      sub\n        /* \"#utility.yul\":2004:2036   */\n      slt\n        /* \"#utility.yul\":2001:2120   */\n      iszero\n      tag_140\n      jumpi\n        /* \"#utility.yul\":2039:2118   */\n      tag_141\n      tag_130\n      jump\t// in\n    tag_141:\n        /* \"#utility.yul\":2001:2120   */\n    tag_140:\n        /* \"#utility.yul\":2159:2160   */\n      0x00\n        /* \"#utility.yul\":2184:2237   */\n      tag_142\n        /* \"#utility.yul\":2229:2236   */\n      dup5\n        /* \"#utility.yul\":2220:2226   */\n      dup3\n        /* \"#utility.yul\":2209:2218   */\n      dup6\n        /* \"#utility.yul\":2205:2227   */\n      add\n        /* \"#utility.yul\":2184:2237   */\n      tag_123\n      jump\t// in\n    tag_142:\n        /* \"#utility.yul\":2174:2237   */\n      swap2\n      pop\n        /* \"#utility.yul\":2130:2247   */\n      pop\n        /* \"#utility.yul\":1925:2254   */\n      swap3\n      swap2\n      pop\n      pop\n      jump\t// out\n        /* \"#utility.yul\":2260:2378   */\n    tag_143:\n        /* \"#utility.yul\":2347:2371   */\n      tag_145\n        /* \"#utility.yul\":2365:2370   */\n      dup2\n        /* \"#utility.yul\":2347:2371   */\n      tag_146\n      jump\t// in\n    tag_145:\n        /* \"#utility.yul\":2342:2345   */\n      dup3\n        /* \"#utility.yul\":2335:2372   */\n      mstore\n        /* \"#utility.yul\":2260:2378   */\n      pop\n      pop\n      jump\t// out\n        /* \"#utility.yul\":2384:2493   */\n    tag_147:\n        /* \"#utility.yul\":2465:2486   */\n      tag_149\n        /* \"#utility.yul\":2480:2485   */\n      dup2\n        /* \"#utility.yul\":2465:2486   */\n      tag_150\n      jump\t// in\n    tag_149:\n        /* \"#utility.yul\":2460:2463   */\n      dup3\n        /* \"#utility.yul\":2453:2487   */\n      mstore\n        /* \"#utility.yul\":2384:2493   */\n      pop\n      pop\n      jump\t// out\n        /* \"#utility.yul\":2499:2863   */\n    tag_151:\n        /* \"#utility.yul\":2587:2590   */\n      0x00\n        /* \"#utility.yul\":2615:2654   */\n      tag_153\n        /* \"#utility.yul\":2648:2653   */\n      dup3\n        /* \"#utility.yul\":2615:2654   */\n      tag_154\n      jump\t// in\n    tag_153:\n        /* \"#utility.yul\":2670:2741   */\n      tag_155\n        /* \"#utility.yul\":2734:2740   */\n      dup2\n        /* \"#utility.yul\":2729:2732   */\n      dup6\n        /* \"#utility.yul\":2670:2741   */\n      tag_156\n      jump\t// in\n    tag_155:\n        /* \"#utility.yul\":2663:2741   */\n      swap4\n      pop\n        /* \"#utility.yul\":2750:2802   */\n      tag_157\n        /* \"#utility.yul\":2795:2801   */\n      dup2\n        /* \"#utility.yul\":2790:2793   */\n      dup6\n        /* \"#utility.yul\":2783:2787   */\n      0x20\n        /* \"#utility.yul\":2776:2781   */\n      dup7\n        /* \"#utility.yul\":2772:2788   */\n      add\n        /* \"#utility.yul\":2750:2802   */\n      tag_158\n      jump\t// in\n    tag_157:\n        /* \"#utility.yul\":2827:2856   */\n      tag_159\n        /* \"#utility.yul\":2849:2855   */\n      dup2\n        /* \"#utility.yul\":2827:2856   */\n      tag_160\n      jump\t// in\n    tag_159:\n        /* \"#utility.yul\":2822:2825   */\n      dup5\n        /* \"#utility.yul\":2818:2857   */\n      add\n        /* \"#utility.yul\":2811:2857   */\n      swap2\n      pop\n        /* \"#utility.yul\":2591:2863   */\n      pop\n        /* \"#utility.yul\":2499:2863   */\n      swap3\n      swap2\n      pop\n      pop\n      jump\t// out\n        /* \"#utility.yul\":2869:3246   */\n    tag_161:\n        /* \"#utility.yul\":2975:2978   */\n      0x00\n        /* \"#utility.yul\":3003:3042   */\n      tag_163\n        /* \"#utility.yul\":3036:3041   */\n      dup3\n        /* \"#utility.yul\":3003:3042   */\n      tag_154\n      jump\t// in\n    tag_163:\n        /* \"#utility.yul\":3058:3147   */\n      tag_164\n        /* \"#utility.yul\":3140:3146   */\n      dup2\n        /* \"#utility.yul\":3135:3138   */\n      dup6\n        /* \"#utility.yul\":3058:3147   */\n      tag_165\n      jump\t// in\n    tag_164:\n        /* \"#utility.yul\":3051:3147   */\n      swap4\n      pop\n        /* \"#utility.yul\":3156:3208   */\n      tag_166\n        /* \"#utility.yul\":3201:3207   */\n      dup2\n        /* \"#utility.yul\":3196:3199   */\n      dup6\n        /* \"#utility.yul\":3189:3193   */\n      0x20\n        /* \"#utility.yul\":3182:3187   */\n      dup7\n        /* \"#utility.yul\":3178:3194   */\n      add\n        /* \"#utility.yul\":3156:3208   */\n      tag_158\n      jump\t// in\n    tag_166:\n        /* \"#utility.yul\":3233:3239   */\n      dup1\n        /* \"#utility.yul\":3228:3231   */\n      dup5\n        /* \"#utility.yul\":3224:3240   */\n      add\n        /* \"#utility.yul\":3217:3240   */\n      swap2\n      pop\n        /* \"#utility.yul\":2979:3246   */\n      pop\n        /* \"#utility.yul\":2869:3246   */\n      swap3\n      swap2\n      pop\n      pop\n      jump\t// out\n        /* \"#utility.yul\":3252:3367   */\n    tag_167:\n        /* \"#utility.yul\":3337:3360   */\n      tag_169\n        /* \"#utility.yul\":3354:3359   */\n      dup2\n        /* \"#utility.yul\":3337:3360   */\n      tag_170\n      jump\t// in\n    tag_169:\n        /* \"#utility.yul\":3332:3335   */\n      dup3\n        /* \"#utility.yul\":3325:3361   */\n      mstore\n        /* \"#utility.yul\":3252:3367   */\n      pop\n      pop\n      jump\t// out\n        /* \"#utility.yul\":3373:3491   */\n    tag_171:\n        /* \"#utility.yul\":3460:3484   */\n      tag_173\n        /* \"#utility.yul\":3478:3483   */\n      dup2\n        /* \"#utility.yul\":3460:3484   */\n      tag_174\n      jump\t// in\n    tag_173:\n        /* \"#utility.yul\":3455:3458   */\n      dup3\n        /* \"#utility.yul\":3448:3485   */\n      mstore\n        /* \"#utility.yul\":3373:3491   */\n      pop\n      pop\n      jump\t// out\n        /* \"#utility.yul\":3497:3612   */\n    tag_175:\n        /* \"#utility.yul\":3582:3605   */\n      tag_177\n        /* \"#utility.yul\":3599:3604   */\n      dup2\n        /* \"#utility.yul\":3582:3605   */\n      tag_178\n      jump\t// in\n    tag_177:\n        /* \"#utility.yul\":3577:3580   */\n      dup3\n        /* \"#utility.yul\":3570:3606   */\n      mstore\n        /* \"#utility.yul\":3497:3612   */\n      pop\n      pop\n      jump\t// out\n        /* \"#utility.yul\":3618:3893   */\n    tag_71:\n        /* \"#utility.yul\":3750:3753   */\n      0x00\n        /* \"#utility.yul\":3772:3867   */\n      tag_180\n        /* \"#utility.yul\":3863:3866   */\n      dup3\n        /* \"#utility.yul\":3854:3860   */\n      dup5\n        /* \"#utility.yul\":3772:3867   */\n      tag_161\n      jump\t// in\n    tag_180:\n        /* \"#utility.yul\":3765:3867   */\n      swap2\n      pop\n        /* \"#utility.yul\":3884:3887   */\n      dup2\n        /* \"#utility.yul\":3877:3887   */\n      swap1\n      pop\n        /* \"#utility.yul\":3618:3893   */\n      swap3\n      swap2\n      pop\n      pop\n      jump\t// out\n        /* \"#utility.yul\":3899:4121   */\n    tag_21:\n        /* \"#utility.yul\":3992:3996   */\n      0x00\n        /* \"#utility.yul\":4030:4032   */\n      0x20\n        /* \"#utility.yul\":4019:4028   */\n      dup3\n        /* \"#utility.yul\":4015:4033   */\n      add\n        /* \"#utility.yul\":4007:4033   */\n      swap1\n      pop\n        /* \"#utility.yul\":4043:4114   */\n      tag_182\n        /* \"#utility.yul\":4111:4112   */\n      0x00\n        /* \"#utility.yul\":4100:4109   */\n      dup4\n        /* \"#utility.yul\":4096:4113   */\n      add\n        /* \"#utility.yul\":4087:4093   */\n      dup5\n        /* \"#utility.yul\":4043:4114   */\n      tag_143\n      jump\t// in\n    tag_182:\n        /* \"#utility.yul\":3899:4121   */\n      swap3\n      swap2\n      pop\n      pop\n      jump\t// out\n        /* \"#utility.yul\":4127:4337   */\n    tag_34:\n        /* \"#utility.yul\":4214:4218   */\n      0x00\n        /* \"#utility.yul\":4252:4254   */\n      0x20\n        /* \"#utility.yul\":4241:4250   */\n      dup3\n        /* \"#utility.yul\":4237:4255   */\n      add\n        /* \"#utility.yul\":4229:4255   */\n      swap1\n      pop\n        /* \"#utility.yul\":4265:4330   */\n      tag_184\n        /* \"#utility.yul\":4327:4328   */\n      0x00\n        /* \"#utility.yul\":4316:4325   */\n      dup4\n        /* \"#utility.yul\":4312:4329   */\n      add\n        /* \"#utility.yul\":4303:4309   */\n      dup5\n        /* \"#utility.yul\":4265:4330   */\n      tag_147\n      jump\t// in\n    tag_184:\n        /* \"#utility.yul\":4127:4337   */\n      swap3\n      swap2\n      pop\n      pop\n      jump\t// out\n        /* \"#utility.yul\":4343:5193   */\n    tag_16:\n        /* \"#utility.yul\":4588:4592   */\n      0x00\n        /* \"#utility.yul\":4626:4629   */\n      0xc0\n        /* \"#utility.yul\":4615:4624   */\n      dup3\n        /* \"#utility.yul\":4611:4630   */\n      add\n        /* \"#utility.yul\":4603:4630   */\n      swap1\n      pop\n        /* \"#utility.yul\":4676:4685   */\n      dup2\n        /* \"#utility.yul\":4670:4674   */\n      dup2\n        /* \"#utility.yul\":4666:4686   */\n      sub\n        /* \"#utility.yul\":4662:4663   */\n      0x00\n        /* \"#utility.yul\":4651:4660   */\n      dup4\n        /* \"#utility.yul\":4647:4664   */\n      add\n        /* \"#utility.yul\":4640:4687   */\n      mstore\n        /* \"#utility.yul\":4704:4782   */\n      tag_186\n        /* \"#utility.yul\":4777:4781   */\n      dup2\n        /* \"#utility.yul\":4768:4774   */\n      dup10\n        /* \"#utility.yul\":4704:4782   */\n      tag_151\n      jump\t// in\n    tag_186:\n        /* \"#utility.yul\":4696:4782   */\n      swap1\n      pop\n        /* \"#utility.yul\":4792:4864   */\n      tag_187\n        /* \"#utility.yul\":4860:4862   */\n      0x20\n        /* \"#utility.yul\":4849:4858   */\n      dup4\n        /* \"#utility.yul\":4845:4863   */\n      add\n        /* \"#utility.yul\":4836:4842   */\n      dup9\n        /* \"#utility.yul\":4792:4864   */\n      tag_171\n      jump\t// in\n    tag_187:\n        /* \"#utility.yul\":4874:4944   */\n      tag_188\n        /* \"#utility.yul\":4940:4942   */\n      0x40\n        /* \"#utility.yul\":4929:4938   */\n      dup4\n        /* \"#utility.yul\":4925:4943   */\n      add\n        /* \"#utility.yul\":4916:4922   */\n      dup8\n        /* \"#utility.yul\":4874:4944   */\n      tag_175\n      jump\t// in\n    tag_188:\n        /* \"#utility.yul\":4954:5024   */\n      tag_189\n        /* \"#utility.yul\":5020:5022   */\n      0x60\n        /* \"#utility.yul\":5009:5018   */\n      dup4\n        /* \"#utility.yul\":5005:5023   */\n      add\n        /* \"#utility.yul\":4996:5002   */\n      dup7\n        /* \"#utility.yul\":4954:5024   */\n      tag_175\n      jump\t// in\n    tag_189:\n        /* \"#utility.yul\":5034:5105   */\n      tag_190\n        /* \"#utility.yul\":5100:5103   */\n      0x80\n        /* \"#utility.yul\":5089:5098   */\n      dup4\n        /* \"#utility.yul\":5085:5104   */\n      add\n        /* \"#utility.yul\":5076:5082   */\n      dup6\n        /* \"#utility.yul\":5034:5105   */\n      tag_167\n      jump\t// in\n    tag_190:\n        /* \"#utility.yul\":5115:5186   */\n      tag_191\n        /* \"#utility.yul\":5181:5184   */\n      0xa0\n        /* \"#utility.yul\":5170:5179   */\n      dup4\n        /* \"#utility.yul\":5166:5185   */\n      add\n        /* \"#utility.yul\":5157:5163   */\n      dup5\n        /* \"#utility.yul\":5115:5186   */\n      tag_167\n      jump\t// in\n    tag_191:\n        /* \"#utility.yul\":4343:5193   */\n      swap8\n      swap7\n      pop\n      pop\n      pop\n      pop\n      pop\n      pop\n      pop\n      jump\t// out\n        /* \"#utility.yul\":5199:5732   */\n    tag_83:\n        /* \"#utility.yul\":5368:5372   */\n      0x00\n        /* \"#utility.yul\":5406:5408   */\n      0x60\n        /* \"#utility.yul\":5395:5404   */\n      dup3\n        /* \"#utility.yul\":5391:5409   */\n      add\n        /* \"#utility.yul\":5383:5409   */\n      swap1\n      pop\n        /* \"#utility.yul\":5419:5490   */\n      tag_193\n        /* \"#utility.yul\":5487:5488   */\n      0x00\n        /* \"#utility.yul\":5476:5485   */\n      dup4\n        /* \"#utility.yul\":5472:5489   */\n      add\n        /* \"#utility.yul\":5463:5469   */\n      dup7\n        /* \"#utility.yul\":5419:5490   */\n      tag_171\n      jump\t// in\n    tag_193:\n        /* \"#utility.yul\":5537:5546   */\n      dup2\n        /* \"#utility.yul\":5531:5535   */\n      dup2\n        /* \"#utility.yul\":5527:5547   */\n      sub\n        /* \"#utility.yul\":5522:5524   */\n      0x20\n        /* \"#utility.yul\":5511:5520   */\n      dup4\n        /* \"#utility.yul\":5507:5525   */\n      add\n        /* \"#utility.yul\":5500:5548   */\n      mstore\n        /* \"#utility.yul\":5565:5643   */\n      tag_194\n        /* \"#utility.yul\":5638:5642   */\n      dup2\n        /* \"#utility.yul\":5629:5635   */\n      dup6\n        /* \"#utility.yul\":5565:5643   */\n      tag_151\n      jump\t// in\n    tag_194:\n        /* \"#utility.yul\":5557:5643   */\n      swap1\n      pop\n        /* \"#utility.yul\":5653:5725   */\n      tag_195\n        /* \"#utility.yul\":5721:5723   */\n      0x40\n        /* \"#utility.yul\":5710:5719   */\n      dup4\n        /* \"#utility.yul\":5706:5724   */\n      add\n        /* \"#utility.yul\":5697:5703   */\n      dup5\n        /* \"#utility.yul\":5653:5725   */\n      tag_171\n      jump\t// in\n    tag_195:\n        /* \"#utility.yul\":5199:5732   */\n      swap5\n      swap4\n      pop\n      pop\n      pop\n      pop\n      jump\t// out\n        /* \"#utility.yul\":5738:5867   */\n    tag_107:\n        /* \"#utility.yul\":5772:5778   */\n      0x00\n        /* \"#utility.yul\":5799:5819   */\n      tag_197\n      tag_198\n      jump\t// in\n    tag_197:\n        /* \"#utility.yul\":5789:5819   */\n      swap1\n      pop\n        /* \"#utility.yul\":5828:5861   */\n      tag_199\n        /* \"#utility.yul\":5856:5860   */\n      dup3\n        /* \"#utility.yul\":5848:5854   */\n      dup3\n        /* \"#utility.yul\":5828:5861   */\n      tag_200\n      jump\t// in\n    tag_199:\n        /* \"#utility.yul\":5738:5867   */\n      swap2\n      swap1\n      pop\n      jump\t// out\n        /* \"#utility.yul\":5873:5948   */\n    tag_198:\n        /* \"#utility.yul\":5906:5912   */\n      0x00\n        /* \"#utility.yul\":5939:5941   */\n      0x40\n        /* \"#utility.yul\":5933:5942   */\n      mload\n        /* \"#utility.yul\":5923:5942   */\n      swap1\n      pop\n        /* \"#utility.yul\":5873:5948   */\n      swap1\n      jump\t// out\n        /* \"#utility.yul\":5954:6262   */\n    tag_106:\n        /* \"#utility.yul\":6016:6020   */\n      0x00\n        /* \"#utility.yul\":6106:6124   */\n      0xffffffffffffffff\n        /* \"#utility.yul\":6098:6104   */\n      dup3\n        /* \"#utility.yul\":6095:6125   */\n      gt\n        /* \"#utility.yul\":6092:6148   */\n      iszero\n      tag_203\n      jumpi\n        /* \"#utility.yul\":6128:6146   */\n      tag_204\n      tag_205\n      jump\t// in\n    tag_204:\n        /* \"#utility.yul\":6092:6148   */\n    tag_203:\n        /* \"#utility.yul\":6166:6195   */\n      tag_206\n        /* \"#utility.yul\":6188:6194   */\n      dup3\n        /* \"#utility.yul\":6166:6195   */\n      tag_160\n      jump\t// in\n    tag_206:\n        /* \"#utility.yul\":6158:6195   */\n      swap1\n      pop\n        /* \"#utility.yul\":6250:6254   */\n      0x20\n        /* \"#utility.yul\":6244:6248   */\n      dup2\n        /* \"#utility.yul\":6240:6255   */\n      add\n        /* \"#utility.yul\":6232:6255   */\n      swap1\n      pop\n        /* \"#utility.yul\":5954:6262   */\n      swap2\n      swap1\n      pop\n      jump\t// out\n        /* \"#utility.yul\":6268:6367   */\n    tag_154:\n        /* \"#utility.yul\":6320:6326   */\n      0x00\n        /* \"#utility.yul\":6354:6359   */\n      dup2\n        /* \"#utility.yul\":6348:6360   */\n      mload\n        /* \"#utility.yul\":6338:6360   */\n      swap1\n      pop\n        /* \"#utility.yul\":6268:6367   */\n      swap2\n      swap1\n      pop\n      jump\t// out\n        /* \"#utility.yul\":6373:6542   */\n    tag_156:\n        /* \"#utility.yul\":6457:6468   */\n      0x00\n        /* \"#utility.yul\":6491:6497   */\n      dup3\n        /* \"#utility.yul\":6486:6489   */\n      dup3\n        /* \"#utility.yul\":6479:6498   */\n      mstore\n        /* \"#utility.yul\":6531:6535   */\n      0x20\n        /* \"#utility.yul\":6526:6529   */\n      dup3\n        /* \"#utility.yul\":6522:6536   */\n      add\n        /* \"#utility.yul\":6507:6536   */\n      swap1\n      pop\n        /* \"#utility.yul\":6373:6542   */\n      swap3\n      swap2\n      pop\n      pop\n      jump\t// out\n        /* \"#utility.yul\":6548:6696   */\n    tag_165:\n        /* \"#utility.yul\":6650:6661   */\n      0x00\n        /* \"#utility.yul\":6687:6690   */\n      dup2\n        /* \"#utility.yul\":6672:6690   */\n      swap1\n      pop\n        /* \"#utility.yul\":6548:6696   */\n      swap3\n      swap2\n      pop\n      pop\n      jump\t// out\n        /* \"#utility.yul\":6702:7007   */\n    tag_75:\n        /* \"#utility.yul\":6742:6745   */\n      0x00\n        /* \"#utility.yul\":6761:6781   */\n      tag_211\n        /* \"#utility.yul\":6779:6780   */\n      dup3\n        /* \"#utility.yul\":6761:6781   */\n      tag_174\n      jump\t// in\n    tag_211:\n        /* \"#utility.yul\":6756:6781   */\n      swap2\n      pop\n        /* \"#utility.yul\":6795:6815   */\n      tag_212\n        /* \"#utility.yul\":6813:6814   */\n      dup4\n        /* \"#utility.yul\":6795:6815   */\n      tag_174\n      jump\t// in\n    tag_212:\n        /* \"#utility.yul\":6790:6815   */\n      swap3\n      pop\n        /* \"#utility.yul\":6949:6950   */\n      dup3\n        /* \"#utility.yul\":6881:6947   */\n      0xffffffffffffffffffffffffffffffffffffffffffffffffffffffffffffffff\n        /* \"#utility.yul\":6877:6951   */\n      sub\n        /* \"#utility.yul\":6874:6875   */\n      dup3\n        /* \"#utility.yul\":6871:6952   */\n      gt\n        /* \"#utility.yul\":6868:6975   */\n      iszero\n      tag_213\n      jumpi\n        /* \"#utility.yul\":6955:6973   */\n      tag_214\n      tag_215\n      jump\t// in\n    tag_214:\n        /* \"#utility.yul\":6868:6975   */\n    tag_213:\n        /* \"#utility.yul\":6999:7000   */\n      dup3\n        /* \"#utility.yul\":6996:6997   */\n      dup3\n        /* \"#utility.yul\":6992:7001   */\n      add\n        /* \"#utility.yul\":6985:7001   */\n      swap1\n      pop\n        /* \"#utility.yul\":6702:7007   */\n      swap3\n      swap2\n      pop\n      pop\n      jump\t// out\n        /* \"#utility.yul\":7013:7204   */\n    tag_58:\n        /* \"#utility.yul\":7053:7057   */\n      0x00\n        /* \"#utility.yul\":7073:7093   */\n      tag_217\n        /* \"#utility.yul\":7091:7092   */\n      dup3\n        /* \"#utility.yul\":7073:7093   */\n      tag_174\n      jump\t// in\n    tag_217:\n        /* \"#utility.yul\":7068:7093   */\n      swap2\n      pop\n        /* \"#utility.yul\":7107:7127   */\n      tag_218\n        /* \"#utility.yul\":7125:7126   */\n      dup4\n        /* \"#utility.yul\":7107:7127   */\n      tag_174\n      jump\t// in\n    tag_218:\n        /* \"#utility.yul\":7102:7127   */\n      swap3\n      pop\n        /* \"#utility.yul\":7146:7147   */\n      dup3\n        /* \"#utility.yul\":7143:7144   */\n      dup3\n        /* \"#utility.yul\":7140:7148   */\n      lt\n        /* \"#utility.yul\":7137:7171   */\n      iszero\n      tag_219\n      jumpi\n        /* \"#utility.yul\":7151:7169   */\n      tag_220\n      tag_215\n      jump\t// in\n    tag_220:\n        /* \"#utility.yul\":7137:7171   */\n    tag_219:\n        /* \"#utility.yul\":7196:7197   */\n      dup3\n        /* \"#utility.yul\":7193:7194   */\n      dup3\n        /* \"#utility.yul\":7189:7198   */\n      sub\n        /* \"#utility.yul\":7181:7198   */\n      swap1\n      pop\n        /* \"#utility.yul\":7013:7204   */\n      swap3\n      swap2\n      pop\n      pop\n      jump\t// out\n        /* \"#utility.yul\":7210:7306   */\n    tag_146:\n        /* \"#utility.yul\":7247:7254   */\n      0x00\n        /* \"#utility.yul\":7276:7300   */\n      tag_222\n        /* \"#utility.yul\":7294:7299   */\n      dup3\n        /* \"#utility.yul\":7276:7300   */\n      tag_223\n      jump\t// in\n    tag_222:\n        /* \"#utility.yul\":7265:7300   */\n      swap1\n      pop\n        /* \"#utility.yul\":7210:7306   */\n      swap2\n      swap1\n      pop\n      jump\t// out\n        /* \"#utility.yul\":7312:7402   */\n    tag_150:\n        /* \"#utility.yul\":7346:7353   */\n      0x00\n        /* \"#utility.yul\":7389:7394   */\n      dup2\n        /* \"#utility.yul\":7382:7395   */\n      iszero\n        /* \"#utility.yul\":7375:7396   */\n      iszero\n        /* \"#utility.yul\":7364:7396   */\n      swap1\n      pop\n        /* \"#utility.yul\":7312:7402   */\n      swap2\n      swap1\n      pop\n      jump\t// out\n        /* \"#utility.yul\":7408:7497   */\n    tag_170:\n        /* \"#utility.yul\":7444:7451   */\n      0x00\n        /* \"#utility.yul\":7484:7490   */\n      0xffff\n        /* \"#utility.yul\":7477:7482   */\n      dup3\n        /* \"#utility.yul\":7473:7491   */\n      and\n        /* \"#utility.yul\":7462:7491   */\n      swap1\n      pop\n        /* \"#utility.yul\":7408:7497   */\n      swap2\n      swap1\n      pop\n      jump\t// out\n        /* \"#utility.yul\":7503:7629   */\n    tag_223:\n        /* \"#utility.yul\":7540:7547   */\n      0x00\n        /* \"#utility.yul\":7580:7622   */\n      0xffffffffffffffffffffffffffffffffffffffff\n        /* \"#utility.yul\":7573:7578   */\n      dup3\n        /* \"#utility.yul\":7569:7623   */\n      and\n        /* \"#utility.yul\":7558:7623   */\n      swap1\n      pop\n        /* \"#utility.yul\":7503:7629   */\n      swap2\n      swap1\n      pop\n      jump\t// out\n        /* \"#utility.yul\":7635:7712   */\n    tag_174:\n        /* \"#utility.yul\":7672:7679   */\n      0x00\n        /* \"#utility.yul\":7701:7706   */\n      dup2\n        /* \"#utility.yul\":7690:7706   */\n      swap1\n      pop\n        /* \"#utility.yul\":7635:7712   */\n      swap2\n      swap1\n      pop\n      jump\t// out\n        /* \"#utility.yul\":7718:7811   */\n    tag_178:\n        /* \"#utility.yul\":7754:7761   */\n      0x00\n        /* \"#utility.yul\":7794:7804   */\n      0xffffffff\n        /* \"#utility.yul\":7787:7792   */\n      dup3\n        /* \"#utility.yul\":7783:7805   */\n      and\n        /* \"#utility.yul\":7772:7805   */\n      swap1\n      pop\n        /* \"#utility.yul\":7718:7811   */\n      swap2\n      swap1\n      pop\n      jump\t// out\n        /* \"#utility.yul\":7817:7971   */\n    tag_112:\n        /* \"#utility.yul\":7901:7907   */\n      dup3\n        /* \"#utility.yul\":7896:7899   */\n      dup2\n        /* \"#utility.yul\":7891:7894   */\n      dup4\n        /* \"#utility.yul\":7878:7908   */\n      calldatacopy\n        /* \"#utility.yul\":7963:7964   */\n      0x00\n        /* \"#utility.yul\":7954:7960   */\n      dup4\n        /* \"#utility.yul\":7949:7952   */\n      dup4\n        /* \"#utility.yul\":7945:7961   */\n      add\n        /* \"#utility.yul\":7938:7965   */\n      mstore\n        /* \"#utility.yul\":7817:7971   */\n      pop\n      pop\n      pop\n      jump\t// out\n        /* \"#utility.yul\":7977:8284   */\n    tag_158:\n        /* \"#utility.yul\":8045:8046   */\n      0x00\n        /* \"#utility.yul\":8055:8168   */\n    tag_231:\n        /* \"#utility.yul\":8069:8075   */\n      dup4\n        /* \"#utility.yul\":8066:8067   */\n      dup2\n        /* \"#utility.yul\":8063:8076   */\n      lt\n        /* \"#utility.yul\":8055:8168   */\n      iszero\n      tag_233\n      jumpi\n        /* \"#utility.yul\":8154:8155   */\n      dup1\n        /* \"#utility.yul\":8149:8152   */\n      dup3\n        /* \"#utility.yul\":8145:8156   */\n      add\n        /* \"#utility.yul\":8139:8157   */\n      mload\n        /* \"#utility.yul\":8135:8136   */\n      dup2\n        /* \"#utility.yul\":8130:8133   */\n      dup5\n        /* \"#utility.yul\":8126:8137   */\n      add\n        /* \"#utility.yul\":8119:8158   */\n      mstore\n        /* \"#utility.yul\":8091:8093   */\n      0x20\n        /* \"#utility.yul\":8088:8089   */\n      dup2\n        /* \"#utility.yul\":8084:8094   */\n      add\n        /* \"#utility.yul\":8079:8094   */\n      swap1\n      pop\n        /* \"#utility.yul\":8055:8168   */\n      jump(tag_231)\n    tag_233:\n        /* \"#utility.yul\":8186:8192   */\n      dup4\n        /* \"#utility.yul\":8183:8184   */\n      dup2\n        /* \"#utility.yul\":8180:8193   */\n      gt\n        /* \"#utility.yul\":8177:8278   */\n      iszero\n      tag_234\n      jumpi\n        /* \"#utility.yul\":8266:8267   */\n      0x00\n        /* \"#utility.yul\":8257:8263   */\n      dup5\n        /* \"#utility.yul\":8252:8255   */\n      dup5\n        /* \"#utility.yul\":8248:8264   */\n      add\n        /* \"#utility.yul\":8241:8268   */\n      mstore\n        /* \"#utility.yul\":8177:8278   */\n    tag_234:\n        /* \"#utility.yul\":8026:8284   */\n      pop\n        /* \"#utility.yul\":7977:8284   */\n      pop\n      pop\n      pop\n      jump\t// out\n        /* \"#utility.yul\":8290:8610   */\n    tag_42:\n        /* \"#utility.yul\":8334:8340   */\n      0x00\n        /* \"#utility.yul\":8371:8372   */\n      0x02\n        /* \"#utility.yul\":8365:8369   */\n      dup3\n        /* \"#utility.yul\":8361:8373   */\n      div\n        /* \"#utility.yul\":8351:8373   */\n      swap1\n      pop\n        /* \"#utility.yul\":8418:8419   */\n      0x01\n        /* \"#utility.yul\":8412:8416   */\n      dup3\n        /* \"#utility.yul\":8408:8420   */\n      and\n        /* \"#utility.yul\":8439:8457   */\n      dup1\n        /* \"#utility.yul\":8429:8510   */\n      tag_236\n      jumpi\n        /* \"#utility.yul\":8495:8499   */\n      0x7f\n        /* \"#utility.yul\":8487:8493   */\n      dup3\n        /* \"#utility.yul\":8483:8500   */\n      and\n        /* \"#utility.yul\":8473:8500   */\n      swap2\n      pop\n        /* \"#utility.yul\":8429:8510   */\n    tag_236:\n        /* \"#utility.yul\":8557:8559   */\n      0x20\n        /* \"#utility.yul\":8549:8555   */\n      dup3\n        /* \"#utility.yul\":8546:8560   */\n      lt\n        /* \"#utility.yul\":8526:8544   */\n      dup2\n        /* \"#utility.yul\":8523:8561   */\n      eq\n        /* \"#utility.yul\":8520:8604   */\n      iszero\n      tag_237\n      jumpi\n        /* \"#utility.yul\":8576:8594   */\n      tag_238\n      tag_239\n      jump\t// in\n    tag_238:\n        /* \"#utility.yul\":8520:8604   */\n    tag_237:\n        /* \"#utility.yul\":8341:8610   */\n      pop\n        /* \"#utility.yul\":8290:8610   */\n      swap2\n      swap1\n      pop\n      jump\t// out\n        /* \"#utility.yul\":8616:8897   */\n    tag_200:\n        /* \"#utility.yul\":8699:8726   */\n      tag_241\n        /* \"#utility.yul\":8721:8725   */\n      dup3\n        /* \"#utility.yul\":8699:8726   */\n      tag_160\n      jump\t// in\n    tag_241:\n        /* \"#utility.yul\":8691:8697   */\n      dup2\n        /* \"#utility.yul\":8687:8727   */\n      add\n        /* \"#utility.yul\":8829:8835   */\n      dup2\n        /* \"#utility.yul\":8817:8827   */\n      dup2\n        /* \"#utility.yul\":8814:8836   */\n      lt\n        /* \"#utility.yul\":8793:8811   */\n      0xffffffffffffffff\n        /* \"#utility.yul\":8781:8791   */\n      dup3\n        /* \"#utility.yul\":8778:8812   */\n      gt\n        /* \"#utility.yul\":8775:8837   */\n      or\n        /* \"#utility.yul\":8772:8860   */\n      iszero\n      tag_242\n      jumpi\n        /* \"#utility.yul\":8840:8858   */\n      tag_243\n      tag_205\n      jump\t// in\n    tag_243:\n        /* \"#utility.yul\":8772:8860   */\n    tag_242:\n        /* \"#utility.yul\":8880:8890   */\n      dup1\n        /* \"#utility.yul\":8876:8878   */\n      0x40\n        /* \"#utility.yul\":8869:8891   */\n      mstore\n        /* \"#utility.yul\":8659:8897   */\n      pop\n        /* \"#utility.yul\":8616:8897   */\n      pop\n      pop\n      jump\t// out\n        /* \"#utility.yul\":8903:9079   */\n    tag_56:\n        /* \"#utility.yul\":8935:8936   */\n      0x00\n        /* \"#utility.yul\":8952:8972   */\n      tag_245\n        /* \"#utility.yul\":8970:8971   */\n      dup3\n        /* \"#utility.yul\":8952:8972   */\n      tag_174\n      jump\t// in\n    tag_245:\n        /* \"#utility.yul\":8947:8972   */\n      swap2\n      pop\n        /* \"#utility.yul\":8986:9006   */\n      tag_246\n        /* \"#utility.yul\":9004:9005   */\n      dup4\n        /* \"#utility.yul\":8986:9006   */\n      tag_174\n      jump\t// in\n    tag_246:\n        /* \"#utility.yul\":8981:9006   */\n      swap3\n      pop\n        /* \"#utility.yul\":9025:9026   */\n      dup3\n        /* \"#utility.yul\":9015:9050   */\n      tag_247\n      jumpi\n        /* \"#utility.yul\":9030:9048   */\n      tag_248\n      tag_249\n      jump\t// in\n    tag_248:\n        /* \"#utility.yul\":9015:9050   */\n    tag_247:\n        /* \"#utility.yul\":9071:9072   */\n      dup3\n        /* \"#utility.yul\":9068:9069   */\n      dup3\n        /* \"#utility.yul\":9064:9073   */\n      mod\n        /* \"#utility.yul\":9059:9073   */\n      swap1\n      pop\n        /* \"#utility.yul\":8903:9079   */\n      swap3\n      swap2\n      pop\n      pop\n      jump\t// out\n        /* \"#utility.yul\":9085:9265   */\n    tag_90:\n        /* \"#utility.yul\":9133:9210   */\n      0x4e487b7100000000000000000000000000000000000000000000000000000000\n        /* \"#utility.yul\":9130:9131   */\n      0x00\n        /* \"#utility.yul\":9123:9211   */\n      mstore\n        /* \"#utility.yul\":9230:9234   */\n      0x01\n        /* \"#utility.yul\":9227:9228   */\n      0x04\n        /* \"#utility.yul\":9220:9235   */\n      mstore\n        /* \"#utility.yul\":9254:9258   */\n      0x24\n        /* \"#utility.yul\":9251:9252   */\n      0x00\n        /* \"#utility.yul\":9244:9259   */\n      revert\n        /* \"#utility.yul\":9271:9451   */\n    tag_215:\n        /* \"#utility.yul\":9319:9396   */\n      0x4e487b7100000000000000000000000000000000000000000000000000000000\n        /* \"#utility.yul\":9316:9317   */\n      0x00\n        /* \"#utility.yul\":9309:9397   */\n      mstore\n        /* \"#utility.yul\":9416:9420   */\n      0x11\n        /* \"#utility.yul\":9413:9414   */\n      0x04\n        /* \"#utility.yul\":9406:9421   */\n      mstore\n        /* \"#utility.yul\":9440:9444   */\n      0x24\n        /* \"#utility.yul\":9437:9438   */\n      0x00\n        /* \"#utility.yul\":9430:9445   */\n      revert\n        /* \"#utility.yul\":9457:9637   */\n    tag_249:\n        /* \"#utility.yul\":9505:9582   */\n      0x4e487b7100000000000000000000000000000000000000000000000000000000\n        /* \"#utility.yul\":9502:9503   */\n      0x00\n        /* \"#utility.yul\":9495:9583   */\n      mstore\n        /* \"#utility.yul\":9602:9606   */\n      0x12\n        /* \"#utility.yul\":9599:9600   */\n      0x04\n        /* \"#utility.yul\":9592:9607   */\n      mstore\n        /* \"#utility.yul\":9626:9630   */\n      0x24\n        /* \"#utility.yul\":9623:9624   */\n      0x00\n        /* \"#utility.yul\":9616:9631   */\n      revert\n        /* \"#utility.yul\":9643:9823   */\n    tag_239:\n        /* \"#utility.yul\":9691:9768   */\n      0x4e487b7100000000000000000000000000000000000000000000000000000000\n        /* \"#utility.yul\":9688:9689   */\n      0x00\n        /* \"#utility.yul\":9681:9769   */\n      mstore\n        /* \"#utility.yul\":9788:9792   */\n      0x22\n        /* \"#utility.yul\":9785:9786   */\n      0x04\n        /* \"#utility.yul\":9778:9793   */\n      mstore\n        /* \"#utility.yul\":9812:9816   */\n      0x24\n        /* \"#utility.yul\":9809:9810   */\n      0x00\n        /* \"#utility.yul\":9802:9817   */\n      revert\n        /* \"#utility.yul\":9829:10009   */\n    tag_205:\n        /* \"#utility.yul\":9877:9954   */\n      0x4e487b7100000000000000000000000000000000000000000000000000000000\n        /* \"#utility.yul\":9874:9875   */\n      0x00\n        /* \"#utility.yul\":9867:9955   */\n      mstore\n        /* \"#utility.yul\":9974:9978   */\n      0x41\n        /* \"#utility.yul\":9971:9972   */\n      0x04\n        /* \"#utility.yul\":9964:9979   */\n      mstore\n        /* \"#utility.yul\":9998:10002   */\n      0x24\n        /* \"#utility.yul\":9995:9996   */\n      0x00\n        /* \"#utility.yul\":9988:10003   */\n      revert\n        /* \"#utility.yul\":10015:10132   */\n    tag_121:\n        /* \"#utility.yul\":10124:10125   */\n      0x00\n        /* \"#utility.yul\":10121:10122   */\n      dup1\n        /* \"#utility.yul\":10114:10126   */\n      revert\n        /* \"#utility.yul\":10138:10255   */\n    tag_110:\n        /* \"#utility.yul\":10247:10248   */\n      0x00\n        /* \"#utility.yul\":10244:10245   */\n      dup1\n        /* \"#utility.yul\":10237:10249   */\n      revert\n        /* \"#utility.yul\":10261:10378   */\n    tag_137:\n        /* \"#utility.yul\":10370:10371   */\n      0x00\n        /* \"#utility.yul\":10367:10368   */\n      dup1\n        /* \"#utility.yul\":10360:10372   */\n      revert\n        /* \"#utility.yul\":10384:10501   */\n    tag_130:\n        /* \"#utility.yul\":10493:10494   */\n      0x00\n        /* \"#utility.yul\":10490:10491   */\n      dup1\n        /* \"#utility.yul\":10483:10495   */\n      revert\n        /* \"#utility.yul\":10507:10609   */\n    tag_160:\n        /* \"#utility.yul\":10548:10554   */\n      0x00\n        /* \"#utility.yul\":10599:10601   */\n      0x1f\n        /* \"#utility.yul\":10595:10602   */\n      not\n        /* \"#utility.yul\":10590:10592   */\n      0x1f\n        /* \"#utility.yul\":10583:10588   */\n      dup4\n        /* \"#utility.yul\":10579:10593   */\n      add\n        /* \"#utility.yul\":10575:10603   */\n      and\n        /* \"#utility.yul\":10565:10603   */\n      swap1\n      pop\n        /* \"#utility.yul\":10507:10609   */\n      swap2\n      swap1\n      pop\n      jump\t// out\n        /* \"#utility.yul\":10615:10737   */\n    tag_116:\n        /* \"#utility.yul\":10688:10712   */\n      tag_261\n        /* \"#utility.yul\":10706:10711   */\n      dup2\n        /* \"#utility.yul\":10688:10712   */\n      tag_146\n      jump\t// in\n    tag_261:\n        /* \"#utility.yul\":10681:10686   */\n      dup2\n        /* \"#utility.yul\":10678:10713   */\n      eq\n        /* \"#utility.yul\":10668:10731   */\n      tag_262\n      jumpi\n        /* \"#utility.yul\":10727:10728   */\n      0x00\n        /* \"#utility.yul\":10724:10725   */\n      dup1\n        /* \"#utility.yul\":10717:10729   */\n      revert\n        /* \"#utility.yul\":10668:10731   */\n    tag_262:\n        /* \"#utility.yul\":10615:10737   */\n      pop\n      jump\t// out\n        /* \"#utility.yul\":10743:10865   */\n    tag_126:\n        /* \"#utility.yul\":10816:10840   */\n      tag_264\n        /* \"#utility.yul\":10834:10839   */\n      dup2\n        /* \"#utility.yul\":10816:10840   */\n      tag_174\n      jump\t// in\n    tag_264:\n        /* \"#utility.yul\":10809:10814   */\n      dup2\n        /* \"#utility.yul\":10806:10841   */\n      eq\n        /* \"#utility.yul\":10796:10859   */\n      tag_265\n      jumpi\n        /* \"#utility.yul\":10855:10856   */\n      0x00\n        /* \"#utility.yul\":10852:10853   */\n      dup1\n        /* \"#utility.yul\":10845:10857   */\n      revert\n        /* \"#utility.yul\":10796:10859   */\n    tag_265:\n        /* \"#utility.yul\":10743:10865   */\n      pop\n      jump\t// out\n\n    auxdata: 0xa2646970667358221220aa48485f63b9e8570b8e8f3208c7ca74d3a68096665871e3dbacdac72c65006164736f6c63430008070033\n}\n",
				"bytecode": {
					"linkReferences": {},
					"object": "60806040526010600155600154600a6200001a91906200014e565b600255620151806003553480156200003157600080fd5b50336000806101000a81548173ffffffffffffffffffffffffffffffffffffffff021916908373ffffffffffffffffffffffffffffffffffffffff16021790555060008054906101000a900473ffffffffffffffffffffffffffffffffffffffff1673ffffffffffffffffffffffffffffffffffffffff16600073ffffffffffffffffffffffffffffffffffffffff167f8be0079c531659141344cd1fd0a4f28419497f9722a3daafe3b4186f6b6457e060405160405180910390a3620002d1565b6000808291508390505b600185111562000145578086048111156200011d576200011c62000295565b5b60018516156200012d5780820291505b80810290506200013d85620002c4565b9450620000fd565b94509492505050565b60006200015b826200028b565b915062000168836200028b565b9250620001977fffffffffffffffffffffffffffffffffffffffffffffffffffffffffffffffff84846200019f565b905092915050565b600082620001b1576001905062000284565b81620001c1576000905062000284565b8160018114620001da5760028114620001e5576200021b565b600191505062000284565b60ff841115620001fa57620001f962000295565b5b8360020a91508482111562000214576200021362000295565b5b5062000284565b5060208310610133831016604e8410600b8410161715620002555782820a9050838111156200024f576200024e62000295565b5b62000284565b620002648484846001620000f3565b925090508184048111156200027e576200027d62000295565b5b81810290505b9392505050565b6000819050919050565b7f4e487b7100000000000000000000000000000000000000000000000000000000600052601160045260246000fd5b60008160011c9050919050565b610fae80620002e16000396000f3fe608060405234801561001057600080fd5b506004361061007d5760003560e01c80637bff0a011161005b5780637bff0a01146100f15780638da5cb5b1461010d5780638f32d59b1461012b578063f2fde38b146101495761007d565b80632052465e14610082578063528b7b8f146100b7578063715018a6146100e7575b600080fd5b61009c60048036038101906100979190610a22565b610165565b6040516100ae96959493929190610b51565b60405180910390f35b6100d160048036038101906100cc9190610a22565b610275565b6040516100de9190610b1b565b60405180910390f35b6100ef6102a8565b005b61010b600480360381019061010691906109d9565b610377565b005b6101156103f8565b6040516101229190610b1b565b60405180910390f35b610133610421565b6040516101409190610b36565b60405180910390f35b610163600480360381019061015e91906109ac565b610478565b005b6004818154811061017557600080fd5b906000526020600020906003020160009150905080600001805461019890610da6565b80601f01602080910402602001604051908101604052809291908181526020018280546101c490610da6565b80156102115780601f106101e657610100808354040283529160200191610211565b820191906000526020600020905b8154815290600101906020018083116101f457829003601f168201915b5050505050908060010154908060020160009054906101000a900463ffffffff16908060020160049054906101000a900463ffffffff16908060020160089054906101000a900461ffff169080600201600a9054906101000a900461ffff16905086565b60056020528060005260406000206000915054906101000a900473ffffffffffffffffffffffffffffffffffffffff1681565b6102b0610421565b6102b957600080fd5b600073ffffffffffffffffffffffffffffffffffffffff1660008054906101000a900473ffffffffffffffffffffffffffffffffffffffff1673ffffffffffffffffffffffffffffffffffffffff167f8be0079c531659141344cd1fd0a4f28419497f9722a3daafe3b4186f6b6457e060405160405180910390a360008060006101000a81548173ffffffffffffffffffffffffffffffffffffffff021916908373ffffffffffffffffffffffffffffffffffffffff160217905550565b6000600660003373ffffffffffffffffffffffffffffffffffffffff1673ffffffffffffffffffffffffffffffffffffffff16815260200190815260200160002054146103c357600080fd5b60006103ce82610495565b90506064816103dd9190610e09565b816103e89190610cca565b90506103f482826104da565b5050565b60008060009054906101000a900473ffffffffffffffffffffffffffffffffffffffff16905090565b60008060009054906101000a900473ffffffffffffffffffffffffffffffffffffffff1673ffffffffffffffffffffffffffffffffffffffff163373ffffffffffffffffffffffffffffffffffffffff1614905090565b610480610421565b61048957600080fd5b61049281610751565b50565b600080826040516020016104a99190610b04565b6040516020818303038152906040528051906020012060001c9050600254816104d29190610e09565b915050919050565b60046040518060c00160405280848152602001838152602001600163ffffffff1681526020016003544261050e9190610c74565b63ffffffff168152602001600061ffff168152602001600061ffff168152509080600181540180825580915050600190039060005260206000209060030201600090919091909150600082015181600001908051906020019061057292919061086f565b506020820151816001015560408201518160020160006101000a81548163ffffffff021916908363ffffffff16021790555060608201518160020160046101000a81548163ffffffff021916908363ffffffff16021790555060808201518160020160086101000a81548161ffff021916908361ffff16021790555060a082015181600201600a6101000a81548161ffff021916908361ffff1602179055505050600060016004805490506106279190610cca565b9050336005600083815260200190815260200160002060006101000a81548173ffffffffffffffffffffffffffffffffffffffff021916908373ffffffffffffffffffffffffffffffffffffffff1602179055506106ce6001600660003373ffffffffffffffffffffffffffffffffffffffff1673ffffffffffffffffffffffffffffffffffffffff1681526020019081526020016000205461084890919063ffffffff16565b600660003373ffffffffffffffffffffffffffffffffffffffff1673ffffffffffffffffffffffffffffffffffffffff168152602001908152602001600020819055507f88f026aacbbecc90c18411df4b1185fd8d9be2470f1962f192bf84a27d0704b781848460405161074493929190610bb9565b60405180910390a1505050565b600073ffffffffffffffffffffffffffffffffffffffff168173ffffffffffffffffffffffffffffffffffffffff16141561078b57600080fd5b8073ffffffffffffffffffffffffffffffffffffffff1660008054906101000a900473ffffffffffffffffffffffffffffffffffffffff1673ffffffffffffffffffffffffffffffffffffffff167f8be0079c531659141344cd1fd0a4f28419497f9722a3daafe3b4186f6b6457e060405160405180910390a3806000806101000a81548173ffffffffffffffffffffffffffffffffffffffff021916908373ffffffffffffffffffffffffffffffffffffffff16021790555050565b600081836108569190610c74565b90508281101561086957610868610e3a565b5b92915050565b82805461087b90610da6565b90600052602060002090601f01602090048101928261089d57600085556108e4565b82601f106108b657805160ff19168380011785556108e4565b828001600101855582156108e4579182015b828111156108e35782518255916020019190600101906108c8565b5b5090506108f191906108f5565b5090565b5b8082111561090e5760008160009055506001016108f6565b5090565b600061092561092084610c1c565b610bf7565b90508281526020810184848401111561094157610940610f2a565b5b61094c848285610d64565b509392505050565b60008135905061096381610f4a565b92915050565b600082601f83011261097e5761097d610f25565b5b813561098e848260208601610912565b91505092915050565b6000813590506109a681610f61565b92915050565b6000602082840312156109c2576109c1610f34565b5b60006109d084828501610954565b91505092915050565b6000602082840312156109ef576109ee610f34565b5b600082013567ffffffffffffffff811115610a0d57610a0c610f2f565b5b610a1984828501610969565b91505092915050565b600060208284031215610a3857610a37610f34565b5b6000610a4684828501610997565b91505092915050565b610a5881610cfe565b82525050565b610a6781610d10565b82525050565b6000610a7882610c4d565b610a828185610c58565b9350610a92818560208601610d73565b610a9b81610f39565b840191505092915050565b6000610ab182610c4d565b610abb8185610c69565b9350610acb818560208601610d73565b80840191505092915050565b610ae081610d1c565b82525050565b610aef81610d4a565b82525050565b610afe81610d54565b82525050565b6000610b108284610aa6565b915081905092915050565b6000602082019050610b306000830184610a4f565b92915050565b6000602082019050610b4b6000830184610a5e565b92915050565b600060c0820190508181036000830152610b6b8189610a6d565b9050610b7a6020830188610ae6565b610b876040830187610af5565b610b946060830186610af5565b610ba16080830185610ad7565b610bae60a0830184610ad7565b979650505050505050565b6000606082019050610bce6000830186610ae6565b8181036020830152610be08185610a6d565b9050610bef6040830184610ae6565b949350505050565b6000610c01610c12565b9050610c0d8282610dd8565b919050565b6000604051905090565b600067ffffffffffffffff821115610c3757610c36610ef6565b5b610c4082610f39565b9050602081019050919050565b600081519050919050565b600082825260208201905092915050565b600081905092915050565b6000610c7f82610d4a565b9150610c8a83610d4a565b9250827fffffffffffffffffffffffffffffffffffffffffffffffffffffffffffffffff03821115610cbf57610cbe610e69565b5b828201905092915050565b6000610cd582610d4a565b9150610ce083610d4a565b925082821015610cf357610cf2610e69565b5b828203905092915050565b6000610d0982610d2a565b9050919050565b60008115159050919050565b600061ffff82169050919050565b600073ffffffffffffffffffffffffffffffffffffffff82169050919050565b6000819050919050565b600063ffffffff82169050919050565b82818337600083830152505050565b60005b83811015610d91578082015181840152602081019050610d76565b83811115610da0576000848401525b50505050565b60006002820490506001821680610dbe57607f821691505b60208210811415610dd257610dd1610ec7565b5b50919050565b610de182610f39565b810181811067ffffffffffffffff82111715610e0057610dff610ef6565b5b80604052505050565b6000610e1482610d4a565b9150610e1f83610d4a565b925082610e2f57610e2e610e98565b5b828206905092915050565b7f4e487b7100000000000000000000000000000000000000000000000000000000600052600160045260246000fd5b7f4e487b7100000000000000000000000000000000000000000000000000000000600052601160045260246000fd5b7f4e487b7100000000000000000000000000000000000000000000000000000000600052601260045260246000fd5b7f4e487b7100000000000000000000000000000000000000000000000000000000600052602260045260246000fd5b7f4e487b7100000000000000000000000000000000000000000000000000000000600052604160045260246000fd5b600080fd5b600080fd5b600080fd5b600080fd5b6000601f19601f8301169050919050565b610f5381610cfe565b8114610f5e57600080fd5b50565b610f6a81610d4a565b8114610f7557600080fd5b5056fea2646970667358221220aa48485f63b9e8570b8e8f3208c7ca74d3a68096665871e3dbacdac72c65006164736f6c63430008070033",
					"opcodes": "PUSH1 0x80 PUSH1 0x40 MSTORE PUSH1 0x10 PUSH1 0x1 SSTORE PUSH1 0x1 SLOAD PUSH1 0xA PUSH3 0x1A SWAP2 SWAP1 PUSH3 0x14E JUMP JUMPDEST PUSH1 0x2 SSTORE PUSH3 0x15180 PUSH1 0x3 SSTORE CALLVALUE DUP1 ISZERO PUSH3 0x31 JUMPI PUSH1 0x0 DUP1 REVERT JUMPDEST POP CALLER PUSH1 0x0 DUP1 PUSH2 0x100 EXP DUP2 SLOAD DUP2 PUSH20 0xFFFFFFFFFFFFFFFFFFFFFFFFFFFFFFFFFFFFFFFF MUL NOT AND SWAP1 DUP4 PUSH20 0xFFFFFFFFFFFFFFFFFFFFFFFFFFFFFFFFFFFFFFFF AND MUL OR SWAP1 SSTORE POP PUSH1 0x0 DUP1 SLOAD SWAP1 PUSH2 0x100 EXP SWAP1 DIV PUSH20 0xFFFFFFFFFFFFFFFFFFFFFFFFFFFFFFFFFFFFFFFF AND PUSH20 0xFFFFFFFFFFFFFFFFFFFFFFFFFFFFFFFFFFFFFFFF AND PUSH1 0x0 PUSH20 0xFFFFFFFFFFFFFFFFFFFFFFFFFFFFFFFFFFFFFFFF AND PUSH32 0x8BE0079C531659141344CD1FD0A4F28419497F9722A3DAAFE3B4186F6B6457E0 PUSH1 0x40 MLOAD PUSH1 0x40 MLOAD DUP1 SWAP2 SUB SWAP1 LOG3 PUSH3 0x2D1 JUMP JUMPDEST PUSH1 0x0 DUP1 DUP3 SWAP2 POP DUP4 SWAP1 POP JUMPDEST PUSH1 0x1 DUP6 GT ISZERO PUSH3 0x145 JUMPI DUP1 DUP7 DIV DUP2 GT ISZERO PUSH3 0x11D JUMPI PUSH3 0x11C PUSH3 0x295 JUMP JUMPDEST JUMPDEST PUSH1 0x1 DUP6 AND ISZERO PUSH3 0x12D JUMPI DUP1 DUP3 MUL SWAP2 POP JUMPDEST DUP1 DUP2 MUL SWAP1 POP PUSH3 0x13D DUP6 PUSH3 0x2C4 JUMP JUMPDEST SWAP5 POP PUSH3 0xFD JUMP JUMPDEST SWAP5 POP SWAP5 SWAP3 POP POP POP JUMP JUMPDEST PUSH1 0x0 PUSH3 0x15B DUP3 PUSH3 0x28B JUMP JUMPDEST SWAP2 POP PUSH3 0x168 DUP4 PUSH3 0x28B JUMP JUMPDEST SWAP3 POP PUSH3 0x197 PUSH32 0xFFFFFFFFFFFFFFFFFFFFFFFFFFFFFFFFFFFFFFFFFFFFFFFFFFFFFFFFFFFFFFFF DUP5 DUP5 PUSH3 0x19F JUMP JUMPDEST SWAP1 POP SWAP3 SWAP2 POP POP JUMP JUMPDEST PUSH1 0x0 DUP3 PUSH3 0x1B1 JUMPI PUSH1 0x1 SWAP1 POP PUSH3 0x284 JUMP JUMPDEST DUP2 PUSH3 0x1C1 JUMPI PUSH1 0x0 SWAP1 POP PUSH3 0x284 JUMP JUMPDEST DUP2 PUSH1 0x1 DUP2 EQ PUSH3 0x1DA JUMPI PUSH1 0x2 DUP2 EQ PUSH3 0x1E5 JUMPI PUSH3 0x21B JUMP JUMPDEST PUSH1 0x1 SWAP2 POP POP PUSH3 0x284 JUMP JUMPDEST PUSH1 0xFF DUP5 GT ISZERO PUSH3 0x1FA JUMPI PUSH3 0x1F9 PUSH3 0x295 JUMP JUMPDEST JUMPDEST DUP4 PUSH1 0x2 EXP SWAP2 POP DUP5 DUP3 GT ISZERO PUSH3 0x214 JUMPI PUSH3 0x213 PUSH3 0x295 JUMP JUMPDEST JUMPDEST POP PUSH3 0x284 JUMP JUMPDEST POP PUSH1 0x20 DUP4 LT PUSH2 0x133 DUP4 LT AND PUSH1 0x4E DUP5 LT PUSH1 0xB DUP5 LT AND OR ISZERO PUSH3 0x255 JUMPI DUP3 DUP3 EXP SWAP1 POP DUP4 DUP2 GT ISZERO PUSH3 0x24F JUMPI PUSH3 0x24E PUSH3 0x295 JUMP JUMPDEST JUMPDEST PUSH3 0x284 JUMP JUMPDEST PUSH3 0x264 DUP5 DUP5 DUP5 PUSH1 0x1 PUSH3 0xF3 JUMP JUMPDEST SWAP3 POP SWAP1 POP DUP2 DUP5 DIV DUP2 GT ISZERO PUSH3 0x27E JUMPI PUSH3 0x27D PUSH3 0x295 JUMP JUMPDEST JUMPDEST DUP2 DUP2 MUL SWAP1 POP JUMPDEST SWAP4 SWAP3 POP POP POP JUMP JUMPDEST PUSH1 0x0 DUP2 SWAP1 POP SWAP2 SWAP1 POP JUMP JUMPDEST PUSH32 0x4E487B7100000000000000000000000000000000000000000000000000000000 PUSH1 0x0 MSTORE PUSH1 0x11 PUSH1 0x4 MSTORE PUSH1 0x24 PUSH1 0x0 REVERT JUMPDEST PUSH1 0x0 DUP2 PUSH1 0x1 SHR SWAP1 POP SWAP2 SWAP1 POP JUMP JUMPDEST PUSH2 0xFAE DUP1 PUSH3 0x2E1 PUSH1 0x0 CODECOPY PUSH1 0x0 RETURN INVALID PUSH1 0x80 PUSH1 0x40 MSTORE CALLVALUE DUP1 ISZERO PUSH2 0x10 JUMPI PUSH1 0x0 DUP1 REVERT JUMPDEST POP PUSH1 0x4 CALLDATASIZE LT PUSH2 0x7D JUMPI PUSH1 0x0 CALLDATALOAD PUSH1 0xE0 SHR DUP1 PUSH4 0x7BFF0A01 GT PUSH2 0x5B JUMPI DUP1 PUSH4 0x7BFF0A01 EQ PUSH2 0xF1 JUMPI DUP1 PUSH4 0x8DA5CB5B EQ PUSH2 0x10D JUMPI DUP1 PUSH4 0x8F32D59B EQ PUSH2 0x12B JUMPI DUP1 PUSH4 0xF2FDE38B EQ PUSH2 0x149 JUMPI PUSH2 0x7D JUMP JUMPDEST DUP1 PUSH4 0x2052465E EQ PUSH2 0x82 JUMPI DUP1 PUSH4 0x528B7B8F EQ PUSH2 0xB7 JUMPI DUP1 PUSH4 0x715018A6 EQ PUSH2 0xE7 JUMPI JUMPDEST PUSH1 0x0 DUP1 REVERT JUMPDEST PUSH2 0x9C PUSH1 0x4 DUP1 CALLDATASIZE SUB DUP2 ADD SWAP1 PUSH2 0x97 SWAP2 SWAP1 PUSH2 0xA22 JUMP JUMPDEST PUSH2 0x165 JUMP JUMPDEST PUSH1 0x40 MLOAD PUSH2 0xAE SWAP7 SWAP6 SWAP5 SWAP4 SWAP3 SWAP2 SWAP1 PUSH2 0xB51 JUMP JUMPDEST PUSH1 0x40 MLOAD DUP1 SWAP2 SUB SWAP1 RETURN JUMPDEST PUSH2 0xD1 PUSH1 0x4 DUP1 CALLDATASIZE SUB DUP2 ADD SWAP1 PUSH2 0xCC SWAP2 SWAP1 PUSH2 0xA22 JUMP JUMPDEST PUSH2 0x275 JUMP JUMPDEST PUSH1 0x40 MLOAD PUSH2 0xDE SWAP2 SWAP1 PUSH2 0xB1B JUMP JUMPDEST PUSH1 0x40 MLOAD DUP1 SWAP2 SUB SWAP1 RETURN JUMPDEST PUSH2 0xEF PUSH2 0x2A8 JUMP JUMPDEST STOP JUMPDEST PUSH2 0x10B PUSH1 0x4 DUP1 CALLDATASIZE SUB DUP2 ADD SWAP1 PUSH2 0x106 SWAP2 SWAP1 PUSH2 0x9D9 JUMP JUMPDEST PUSH2 0x377 JUMP JUMPDEST STOP JUMPDEST PUSH2 0x115 PUSH2 0x3F8 JUMP JUMPDEST PUSH1 0x40 MLOAD PUSH2 0x122 SWAP2 SWAP1 PUSH2 0xB1B JUMP JUMPDEST PUSH1 0x40 MLOAD DUP1 SWAP2 SUB SWAP1 RETURN JUMPDEST PUSH2 0x133 PUSH2 0x421 JUMP JUMPDEST PUSH1 0x40 MLOAD PUSH2 0x140 SWAP2 SWAP1 PUSH2 0xB36 JUMP JUMPDEST PUSH1 0x40 MLOAD DUP1 SWAP2 SUB SWAP1 RETURN JUMPDEST PUSH2 0x163 PUSH1 0x4 DUP1 CALLDATASIZE SUB DUP2 ADD SWAP1 PUSH2 0x15E SWAP2 SWAP1 PUSH2 0x9AC JUMP JUMPDEST PUSH2 0x478 JUMP JUMPDEST STOP JUMPDEST PUSH1 0x4 DUP2 DUP2 SLOAD DUP2 LT PUSH2 0x175 JUMPI PUSH1 0x0 DUP1 REVERT JUMPDEST SWAP1 PUSH1 0x0 MSTORE PUSH1 0x20 PUSH1 0x0 KECCAK256 SWAP1 PUSH1 0x3 MUL ADD PUSH1 0x0 SWAP2 POP SWAP1 POP DUP1 PUSH1 0x0 ADD DUP1 SLOAD PUSH2 0x198 SWAP1 PUSH2 0xDA6 JUMP JUMPDEST DUP1 PUSH1 0x1F ADD PUSH1 0x20 DUP1 SWAP2 DIV MUL PUSH1 0x20 ADD PUSH1 0x40 MLOAD SWAP1 DUP2 ADD PUSH1 0x40 MSTORE DUP1 SWAP3 SWAP2 SWAP1 DUP2 DUP2 MSTORE PUSH1 0x20 ADD DUP3 DUP1 SLOAD PUSH2 0x1C4 SWAP1 PUSH2 0xDA6 JUMP JUMPDEST DUP1 ISZERO PUSH2 0x211 JUMPI DUP1 PUSH1 0x1F LT PUSH2 0x1E6 JUMPI PUSH2 0x100 DUP1 DUP4 SLOAD DIV MUL DUP4 MSTORE SWAP2 PUSH1 0x20 ADD SWAP2 PUSH2 0x211 JUMP JUMPDEST DUP3 ADD SWAP2 SWAP1 PUSH1 0x0 MSTORE PUSH1 0x20 PUSH1 0x0 KECCAK256 SWAP1 JUMPDEST DUP2 SLOAD DUP2 MSTORE SWAP1 PUSH1 0x1 ADD SWAP1 PUSH1 0x20 ADD DUP1 DUP4 GT PUSH2 0x1F4 JUMPI DUP3 SWAP1 SUB PUSH1 0x1F AND DUP3 ADD SWAP2 JUMPDEST POP POP POP POP POP SWAP1 DUP1 PUSH1 0x1 ADD SLOAD SWAP1 DUP1 PUSH1 0x2 ADD PUSH1 0x0 SWAP1 SLOAD SWAP1 PUSH2 0x100 EXP SWAP1 DIV PUSH4 0xFFFFFFFF AND SWAP1 DUP1 PUSH1 0x2 ADD PUSH1 0x4 SWAP1 SLOAD SWAP1 PUSH2 0x100 EXP SWAP1 DIV PUSH4 0xFFFFFFFF AND SWAP1 DUP1 PUSH1 0x2 ADD PUSH1 0x8 SWAP1 SLOAD SWAP1 PUSH2 0x100 EXP SWAP1 DIV PUSH2 0xFFFF AND SWAP1 DUP1 PUSH1 0x2 ADD PUSH1 0xA SWAP1 SLOAD SWAP1 PUSH2 0x100 EXP SWAP1 DIV PUSH2 0xFFFF AND SWAP1 POP DUP7 JUMP JUMPDEST PUSH1 0x5 PUSH1 0x20 MSTORE DUP1 PUSH1 0x0 MSTORE PUSH1 0x40 PUSH1 0x0 KECCAK256 PUSH1 0x0 SWAP2 POP SLOAD SWAP1 PUSH2 0x100 EXP SWAP1 DIV PUSH20 0xFFFFFFFFFFFFFFFFFFFFFFFFFFFFFFFFFFFFFFFF AND DUP2 JUMP JUMPDEST PUSH2 0x2B0 PUSH2 0x421 JUMP JUMPDEST PUSH2 0x2B9 JUMPI PUSH1 0x0 DUP1 REVERT JUMPDEST PUSH1 0x0 PUSH20 0xFFFFFFFFFFFFFFFFFFFFFFFFFFFFFFFFFFFFFFFF AND PUSH1 0x0 DUP1 SLOAD SWAP1 PUSH2 0x100 EXP SWAP1 DIV PUSH20 0xFFFFFFFFFFFFFFFFFFFFFFFFFFFFFFFFFFFFFFFF AND PUSH20 0xFFFFFFFFFFFFFFFFFFFFFFFFFFFFFFFFFFFFFFFF AND PUSH32 0x8BE0079C531659141344CD1FD0A4F28419497F9722A3DAAFE3B4186F6B6457E0 PUSH1 0x40 MLOAD PUSH1 0x40 MLOAD DUP1 SWAP2 SUB SWAP1 LOG3 PUSH1 0x0 DUP1 PUSH1 0x0 PUSH2 0x100 EXP DUP2 SLOAD DUP2 PUSH20 0xFFFFFFFFFFFFFFFFFFFFFFFFFFFFFFFFFFFFFFFF MUL NOT AND SWAP1 DUP4 PUSH20 0xFFFFFFFFFFFFFFFFFFFFFFFFFFFFFFFFFFFFFFFF AND MUL OR SWAP1 SSTORE POP JUMP JUMPDEST PUSH1 0x0 PUSH1 0x6 PUSH1 0x0 CALLER PUSH20 0xFFFFFFFFFFFFFFFFFFFFFFFFFFFFFFFFFFFFFFFF AND PUSH20 0xFFFFFFFFFFFFFFFFFFFFFFFFFFFFFFFFFFFFFFFF AND DUP2 MSTORE PUSH1 0x20 ADD SWAP1 DUP2 MSTORE PUSH1 0x20 ADD PUSH1 0x0 KECCAK256 SLOAD EQ PUSH2 0x3C3 JUMPI PUSH1 0x0 DUP1 REVERT JUMPDEST PUSH1 0x0 PUSH2 0x3CE DUP3 PUSH2 0x495 JUMP JUMPDEST SWAP1 POP PUSH1 0x64 DUP2 PUSH2 0x3DD SWAP2 SWAP1 PUSH2 0xE09 JUMP JUMPDEST DUP2 PUSH2 0x3E8 SWAP2 SWAP1 PUSH2 0xCCA JUMP JUMPDEST SWAP1 POP PUSH2 0x3F4 DUP3 DUP3 PUSH2 0x4DA JUMP JUMPDEST POP POP JUMP JUMPDEST PUSH1 0x0 DUP1 PUSH1 0x0 SWAP1 SLOAD SWAP1 PUSH2 0x100 EXP SWAP1 DIV PUSH20 0xFFFFFFFFFFFFFFFFFFFFFFFFFFFFFFFFFFFFFFFF AND SWAP1 POP SWAP1 JUMP JUMPDEST PUSH1 0x0 DUP1 PUSH1 0x0 SWAP1 SLOAD SWAP1 PUSH2 0x100 EXP SWAP1 DIV PUSH20 0xFFFFFFFFFFFFFFFFFFFFFFFFFFFFFFFFFFFFFFFF AND PUSH20 0xFFFFFFFFFFFFFFFFFFFFFFFFFFFFFFFFFFFFFFFF AND CALLER PUSH20 0xFFFFFFFFFFFFFFFFFFFFFFFFFFFFFFFFFFFFFFFF AND EQ SWAP1 POP SWAP1 JUMP JUMPDEST PUSH2 0x480 PUSH2 0x421 JUMP JUMPDEST PUSH2 0x489 JUMPI PUSH1 0x0 DUP1 REVERT JUMPDEST PUSH2 0x492 DUP2 PUSH2 0x751 JUMP JUMPDEST POP JUMP JUMPDEST PUSH1 0x0 DUP1 DUP3 PUSH1 0x40 MLOAD PUSH1 0x20 ADD PUSH2 0x4A9 SWAP2 SWAP1 PUSH2 0xB04 JUMP JUMPDEST PUSH1 0x40 MLOAD PUSH1 0x20 DUP2 DUP4 SUB SUB DUP2 MSTORE SWAP1 PUSH1 0x40 MSTORE DUP1 MLOAD SWAP1 PUSH1 0x20 ADD KECCAK256 PUSH1 0x0 SHR SWAP1 POP PUSH1 0x2 SLOAD DUP2 PUSH2 0x4D2 SWAP2 SWAP1 PUSH2 0xE09 JUMP JUMPDEST SWAP2 POP POP SWAP2 SWAP1 POP JUMP JUMPDEST PUSH1 0x4 PUSH1 0x40 MLOAD DUP1 PUSH1 0xC0 ADD PUSH1 0x40 MSTORE DUP1 DUP5 DUP2 MSTORE PUSH1 0x20 ADD DUP4 DUP2 MSTORE PUSH1 0x20 ADD PUSH1 0x1 PUSH4 0xFFFFFFFF AND DUP2 MSTORE PUSH1 0x20 ADD PUSH1 0x3 SLOAD TIMESTAMP PUSH2 0x50E SWAP2 SWAP1 PUSH2 0xC74 JUMP JUMPDEST PUSH4 0xFFFFFFFF AND DUP2 MSTORE PUSH1 0x20 ADD PUSH1 0x0 PUSH2 0xFFFF AND DUP2 MSTORE PUSH1 0x20 ADD PUSH1 0x0 PUSH2 0xFFFF AND DUP2 MSTORE POP SWAP1 DUP1 PUSH1 0x1 DUP2 SLOAD ADD DUP1 DUP3 SSTORE DUP1 SWAP2 POP POP PUSH1 0x1 SWAP1 SUB SWAP1 PUSH1 0x0 MSTORE PUSH1 0x20 PUSH1 0x0 KECCAK256 SWAP1 PUSH1 0x3 MUL ADD PUSH1 0x0 SWAP1 SWAP2 SWAP1 SWAP2 SWAP1 SWAP2 POP PUSH1 0x0 DUP3 ADD MLOAD DUP2 PUSH1 0x0 ADD SWAP1 DUP1 MLOAD SWAP1 PUSH1 0x20 ADD SWAP1 PUSH2 0x572 SWAP3 SWAP2 SWAP1 PUSH2 0x86F JUMP JUMPDEST POP PUSH1 0x20 DUP3 ADD MLOAD DUP2 PUSH1 0x1 ADD SSTORE PUSH1 0x40 DUP3 ADD MLOAD DUP2 PUSH1 0x2 ADD PUSH1 0x0 PUSH2 0x100 EXP DUP2 SLOAD DUP2 PUSH4 0xFFFFFFFF MUL NOT AND SWAP1 DUP4 PUSH4 0xFFFFFFFF AND MUL OR SWAP1 SSTORE POP PUSH1 0x60 DUP3 ADD MLOAD DUP2 PUSH1 0x2 ADD PUSH1 0x4 PUSH2 0x100 EXP DUP2 SLOAD DUP2 PUSH4 0xFFFFFFFF MUL NOT AND SWAP1 DUP4 PUSH4 0xFFFFFFFF AND MUL OR SWAP1 SSTORE POP PUSH1 0x80 DUP3 ADD MLOAD DUP2 PUSH1 0x2 ADD PUSH1 0x8 PUSH2 0x100 EXP DUP2 SLOAD DUP2 PUSH2 0xFFFF MUL NOT AND SWAP1 DUP4 PUSH2 0xFFFF AND MUL OR SWAP1 SSTORE POP PUSH1 0xA0 DUP3 ADD MLOAD DUP2 PUSH1 0x2 ADD PUSH1 0xA PUSH2 0x100 EXP DUP2 SLOAD DUP2 PUSH2 0xFFFF MUL NOT AND SWAP1 DUP4 PUSH2 0xFFFF AND MUL OR SWAP1 SSTORE POP POP POP PUSH1 0x0 PUSH1 0x1 PUSH1 0x4 DUP1 SLOAD SWAP1 POP PUSH2 0x627 SWAP2 SWAP1 PUSH2 0xCCA JUMP JUMPDEST SWAP1 POP CALLER PUSH1 0x5 PUSH1 0x0 DUP4 DUP2 MSTORE PUSH1 0x20 ADD SWAP1 DUP2 MSTORE PUSH1 0x20 ADD PUSH1 0x0 KECCAK256 PUSH1 0x0 PUSH2 0x100 EXP DUP2 SLOAD DUP2 PUSH20 0xFFFFFFFFFFFFFFFFFFFFFFFFFFFFFFFFFFFFFFFF MUL NOT AND SWAP1 DUP4 PUSH20 0xFFFFFFFFFFFFFFFFFFFFFFFFFFFFFFFFFFFFFFFF AND MUL OR SWAP1 SSTORE POP PUSH2 0x6CE PUSH1 0x1 PUSH1 0x6 PUSH1 0x0 CALLER PUSH20 0xFFFFFFFFFFFFFFFFFFFFFFFFFFFFFFFFFFFFFFFF AND PUSH20 0xFFFFFFFFFFFFFFFFFFFFFFFFFFFFFFFFFFFFFFFF AND DUP2 MSTORE PUSH1 0x20 ADD SWAP1 DUP2 MSTORE PUSH1 0x20 ADD PUSH1 0x0 KECCAK256 SLOAD PUSH2 0x848 SWAP1 SWAP2 SWAP1 PUSH4 0xFFFFFFFF AND JUMP JUMPDEST PUSH1 0x6 PUSH1 0x0 CALLER PUSH20 0xFFFFFFFFFFFFFFFFFFFFFFFFFFFFFFFFFFFFFFFF AND PUSH20 0xFFFFFFFFFFFFFFFFFFFFFFFFFFFFFFFFFFFFFFFF AND DUP2 MSTORE PUSH1 0x20 ADD SWAP1 DUP2 MSTORE PUSH1 0x20 ADD PUSH1 0x0 KECCAK256 DUP2 SWAP1 SSTORE POP PUSH32 0x88F026AACBBECC90C18411DF4B1185FD8D9BE2470F1962F192BF84A27D0704B7 DUP2 DUP5 DUP5 PUSH1 0x40 MLOAD PUSH2 0x744 SWAP4 SWAP3 SWAP2 SWAP1 PUSH2 0xBB9 JUMP JUMPDEST PUSH1 0x40 MLOAD DUP1 SWAP2 SUB SWAP1 LOG1 POP POP POP JUMP JUMPDEST PUSH1 0x0 PUSH20 0xFFFFFFFFFFFFFFFFFFFFFFFFFFFFFFFFFFFFFFFF AND DUP2 PUSH20 0xFFFFFFFFFFFFFFFFFFFFFFFFFFFFFFFFFFFFFFFF AND EQ ISZERO PUSH2 0x78B JUMPI PUSH1 0x0 DUP1 REVERT JUMPDEST DUP1 PUSH20 0xFFFFFFFFFFFFFFFFFFFFFFFFFFFFFFFFFFFFFFFF AND PUSH1 0x0 DUP1 SLOAD SWAP1 PUSH2 0x100 EXP SWAP1 DIV PUSH20 0xFFFFFFFFFFFFFFFFFFFFFFFFFFFFFFFFFFFFFFFF AND PUSH20 0xFFFFFFFFFFFFFFFFFFFFFFFFFFFFFFFFFFFFFFFF AND PUSH32 0x8BE0079C531659141344CD1FD0A4F28419497F9722A3DAAFE3B4186F6B6457E0 PUSH1 0x40 MLOAD PUSH1 0x40 MLOAD DUP1 SWAP2 SUB SWAP1 LOG3 DUP1 PUSH1 0x0 DUP1 PUSH2 0x100 EXP DUP2 SLOAD DUP2 PUSH20 0xFFFFFFFFFFFFFFFFFFFFFFFFFFFFFFFFFFFFFFFF MUL NOT AND SWAP1 DUP4 PUSH20 0xFFFFFFFFFFFFFFFFFFFFFFFFFFFFFFFFFFFFFFFF AND MUL OR SWAP1 SSTORE POP POP JUMP JUMPDEST PUSH1 0x0 DUP2 DUP4 PUSH2 0x856 SWAP2 SWAP1 PUSH2 0xC74 JUMP JUMPDEST SWAP1 POP DUP3 DUP2 LT ISZERO PUSH2 0x869 JUMPI PUSH2 0x868 PUSH2 0xE3A JUMP JUMPDEST JUMPDEST SWAP3 SWAP2 POP POP JUMP JUMPDEST DUP3 DUP1 SLOAD PUSH2 0x87B SWAP1 PUSH2 0xDA6 JUMP JUMPDEST SWAP1 PUSH1 0x0 MSTORE PUSH1 0x20 PUSH1 0x0 KECCAK256 SWAP1 PUSH1 0x1F ADD PUSH1 0x20 SWAP1 DIV DUP2 ADD SWAP3 DUP3 PUSH2 0x89D JUMPI PUSH1 0x0 DUP6 SSTORE PUSH2 0x8E4 JUMP JUMPDEST DUP3 PUSH1 0x1F LT PUSH2 0x8B6 JUMPI DUP1 MLOAD PUSH1 0xFF NOT AND DUP4 DUP1 ADD OR DUP6 SSTORE PUSH2 0x8E4 JUMP JUMPDEST DUP3 DUP1 ADD PUSH1 0x1 ADD DUP6 SSTORE DUP3 ISZERO PUSH2 0x8E4 JUMPI SWAP2 DUP3 ADD JUMPDEST DUP3 DUP2 GT ISZERO PUSH2 0x8E3 JUMPI DUP3 MLOAD DUP3 SSTORE SWAP2 PUSH1 0x20 ADD SWAP2 SWAP1 PUSH1 0x1 ADD SWAP1 PUSH2 0x8C8 JUMP JUMPDEST JUMPDEST POP SWAP1 POP PUSH2 0x8F1 SWAP2 SWAP1 PUSH2 0x8F5 JUMP JUMPDEST POP SWAP1 JUMP JUMPDEST JUMPDEST DUP1 DUP3 GT ISZERO PUSH2 0x90E JUMPI PUSH1 0x0 DUP2 PUSH1 0x0 SWAP1 SSTORE POP PUSH1 0x1 ADD PUSH2 0x8F6 JUMP JUMPDEST POP SWAP1 JUMP JUMPDEST PUSH1 0x0 PUSH2 0x925 PUSH2 0x920 DUP5 PUSH2 0xC1C JUMP JUMPDEST PUSH2 0xBF7 JUMP JUMPDEST SWAP1 POP DUP3 DUP2 MSTORE PUSH1 0x20 DUP2 ADD DUP5 DUP5 DUP5 ADD GT ISZERO PUSH2 0x941 JUMPI PUSH2 0x940 PUSH2 0xF2A JUMP JUMPDEST JUMPDEST PUSH2 0x94C DUP5 DUP3 DUP6 PUSH2 0xD64 JUMP JUMPDEST POP SWAP4 SWAP3 POP POP POP JUMP JUMPDEST PUSH1 0x0 DUP2 CALLDATALOAD SWAP1 POP PUSH2 0x963 DUP2 PUSH2 0xF4A JUMP JUMPDEST SWAP3 SWAP2 POP POP JUMP JUMPDEST PUSH1 0x0 DUP3 PUSH1 0x1F DUP4 ADD SLT PUSH2 0x97E JUMPI PUSH2 0x97D PUSH2 0xF25 JUMP JUMPDEST JUMPDEST DUP2 CALLDATALOAD PUSH2 0x98E DUP5 DUP3 PUSH1 0x20 DUP7 ADD PUSH2 0x912 JUMP JUMPDEST SWAP2 POP POP SWAP3 SWAP2 POP POP JUMP JUMPDEST PUSH1 0x0 DUP2 CALLDATALOAD SWAP1 POP PUSH2 0x9A6 DUP2 PUSH2 0xF61 JUMP JUMPDEST SWAP3 SWAP2 POP POP JUMP JUMPDEST PUSH1 0x0 PUSH1 0x20 DUP3 DUP5 SUB SLT ISZERO PUSH2 0x9C2 JUMPI PUSH2 0x9C1 PUSH2 0xF34 JUMP JUMPDEST JUMPDEST PUSH1 0x0 PUSH2 0x9D0 DUP5 DUP3 DUP6 ADD PUSH2 0x954 JUMP JUMPDEST SWAP2 POP POP SWAP3 SWAP2 POP POP JUMP JUMPDEST PUSH1 0x0 PUSH1 0x20 DUP3 DUP5 SUB SLT ISZERO PUSH2 0x9EF JUMPI PUSH2 0x9EE PUSH2 0xF34 JUMP JUMPDEST JUMPDEST PUSH1 0x0 DUP3 ADD CALLDATALOAD PUSH8 0xFFFFFFFFFFFFFFFF DUP2 GT ISZERO PUSH2 0xA0D JUMPI PUSH2 0xA0C PUSH2 0xF2F JUMP JUMPDEST JUMPDEST PUSH2 0xA19 DUP5 DUP3 DUP6 ADD PUSH2 0x969 JUMP JUMPDEST SWAP2 POP POP SWAP3 SWAP2 POP POP JUMP JUMPDEST PUSH1 0x0 PUSH1 0x20 DUP3 DUP5 SUB SLT ISZERO PUSH2 0xA38 JUMPI PUSH2 0xA37 PUSH2 0xF34 JUMP JUMPDEST JUMPDEST PUSH1 0x0 PUSH2 0xA46 DUP5 DUP3 DUP6 ADD PUSH2 0x997 JUMP JUMPDEST SWAP2 POP POP SWAP3 SWAP2 POP POP JUMP JUMPDEST PUSH2 0xA58 DUP2 PUSH2 0xCFE JUMP JUMPDEST DUP3 MSTORE POP POP JUMP JUMPDEST PUSH2 0xA67 DUP2 PUSH2 0xD10 JUMP JUMPDEST DUP3 MSTORE POP POP JUMP JUMPDEST PUSH1 0x0 PUSH2 0xA78 DUP3 PUSH2 0xC4D JUMP JUMPDEST PUSH2 0xA82 DUP2 DUP6 PUSH2 0xC58 JUMP JUMPDEST SWAP4 POP PUSH2 0xA92 DUP2 DUP6 PUSH1 0x20 DUP7 ADD PUSH2 0xD73 JUMP JUMPDEST PUSH2 0xA9B DUP2 PUSH2 0xF39 JUMP JUMPDEST DUP5 ADD SWAP2 POP POP SWAP3 SWAP2 POP POP JUMP JUMPDEST PUSH1 0x0 PUSH2 0xAB1 DUP3 PUSH2 0xC4D JUMP JUMPDEST PUSH2 0xABB DUP2 DUP6 PUSH2 0xC69 JUMP JUMPDEST SWAP4 POP PUSH2 0xACB DUP2 DUP6 PUSH1 0x20 DUP7 ADD PUSH2 0xD73 JUMP JUMPDEST DUP1 DUP5 ADD SWAP2 POP POP SWAP3 SWAP2 POP POP JUMP JUMPDEST PUSH2 0xAE0 DUP2 PUSH2 0xD1C JUMP JUMPDEST DUP3 MSTORE POP POP JUMP JUMPDEST PUSH2 0xAEF DUP2 PUSH2 0xD4A JUMP JUMPDEST DUP3 MSTORE POP POP JUMP JUMPDEST PUSH2 0xAFE DUP2 PUSH2 0xD54 JUMP JUMPDEST DUP3 MSTORE POP POP JUMP JUMPDEST PUSH1 0x0 PUSH2 0xB10 DUP3 DUP5 PUSH2 0xAA6 JUMP JUMPDEST SWAP2 POP DUP2 SWAP1 POP SWAP3 SWAP2 POP POP JUMP JUMPDEST PUSH1 0x0 PUSH1 0x20 DUP3 ADD SWAP1 POP PUSH2 0xB30 PUSH1 0x0 DUP4 ADD DUP5 PUSH2 0xA4F JUMP JUMPDEST SWAP3 SWAP2 POP POP JUMP JUMPDEST PUSH1 0x0 PUSH1 0x20 DUP3 ADD SWAP1 POP PUSH2 0xB4B PUSH1 0x0 DUP4 ADD DUP5 PUSH2 0xA5E JUMP JUMPDEST SWAP3 SWAP2 POP POP JUMP JUMPDEST PUSH1 0x0 PUSH1 0xC0 DUP3 ADD SWAP1 POP DUP2 DUP2 SUB PUSH1 0x0 DUP4 ADD MSTORE PUSH2 0xB6B DUP2 DUP10 PUSH2 0xA6D JUMP JUMPDEST SWAP1 POP PUSH2 0xB7A PUSH1 0x20 DUP4 ADD DUP9 PUSH2 0xAE6 JUMP JUMPDEST PUSH2 0xB87 PUSH1 0x40 DUP4 ADD DUP8 PUSH2 0xAF5 JUMP JUMPDEST PUSH2 0xB94 PUSH1 0x60 DUP4 ADD DUP7 PUSH2 0xAF5 JUMP JUMPDEST PUSH2 0xBA1 PUSH1 0x80 DUP4 ADD DUP6 PUSH2 0xAD7 JUMP JUMPDEST PUSH2 0xBAE PUSH1 0xA0 DUP4 ADD DUP5 PUSH2 0xAD7 JUMP JUMPDEST SWAP8 SWAP7 POP POP POP POP POP POP POP JUMP JUMPDEST PUSH1 0x0 PUSH1 0x60 DUP3 ADD SWAP1 POP PUSH2 0xBCE PUSH1 0x0 DUP4 ADD DUP7 PUSH2 0xAE6 JUMP JUMPDEST DUP2 DUP2 SUB PUSH1 0x20 DUP4 ADD MSTORE PUSH2 0xBE0 DUP2 DUP6 PUSH2 0xA6D JUMP JUMPDEST SWAP1 POP PUSH2 0xBEF PUSH1 0x40 DUP4 ADD DUP5 PUSH2 0xAE6 JUMP JUMPDEST SWAP5 SWAP4 POP POP POP POP JUMP JUMPDEST PUSH1 0x0 PUSH2 0xC01 PUSH2 0xC12 JUMP JUMPDEST SWAP1 POP PUSH2 0xC0D DUP3 DUP3 PUSH2 0xDD8 JUMP JUMPDEST SWAP2 SWAP1 POP JUMP JUMPDEST PUSH1 0x0 PUSH1 0x40 MLOAD SWAP1 POP SWAP1 JUMP JUMPDEST PUSH1 0x0 PUSH8 0xFFFFFFFFFFFFFFFF DUP3 GT ISZERO PUSH2 0xC37 JUMPI PUSH2 0xC36 PUSH2 0xEF6 JUMP JUMPDEST JUMPDEST PUSH2 0xC40 DUP3 PUSH2 0xF39 JUMP JUMPDEST SWAP1 POP PUSH1 0x20 DUP2 ADD SWAP1 POP SWAP2 SWAP1 POP JUMP JUMPDEST PUSH1 0x0 DUP2 MLOAD SWAP1 POP SWAP2 SWAP1 POP JUMP JUMPDEST PUSH1 0x0 DUP3 DUP3 MSTORE PUSH1 0x20 DUP3 ADD SWAP1 POP SWAP3 SWAP2 POP POP JUMP JUMPDEST PUSH1 0x0 DUP2 SWAP1 POP SWAP3 SWAP2 POP POP JUMP JUMPDEST PUSH1 0x0 PUSH2 0xC7F DUP3 PUSH2 0xD4A JUMP JUMPDEST SWAP2 POP PUSH2 0xC8A DUP4 PUSH2 0xD4A JUMP JUMPDEST SWAP3 POP DUP3 PUSH32 0xFFFFFFFFFFFFFFFFFFFFFFFFFFFFFFFFFFFFFFFFFFFFFFFFFFFFFFFFFFFFFFFF SUB DUP3 GT ISZERO PUSH2 0xCBF JUMPI PUSH2 0xCBE PUSH2 0xE69 JUMP JUMPDEST JUMPDEST DUP3 DUP3 ADD SWAP1 POP SWAP3 SWAP2 POP POP JUMP JUMPDEST PUSH1 0x0 PUSH2 0xCD5 DUP3 PUSH2 0xD4A JUMP JUMPDEST SWAP2 POP PUSH2 0xCE0 DUP4 PUSH2 0xD4A JUMP JUMPDEST SWAP3 POP DUP3 DUP3 LT ISZERO PUSH2 0xCF3 JUMPI PUSH2 0xCF2 PUSH2 0xE69 JUMP JUMPDEST JUMPDEST DUP3 DUP3 SUB SWAP1 POP SWAP3 SWAP2 POP POP JUMP JUMPDEST PUSH1 0x0 PUSH2 0xD09 DUP3 PUSH2 0xD2A JUMP JUMPDEST SWAP1 POP SWAP2 SWAP1 POP JUMP JUMPDEST PUSH1 0x0 DUP2 ISZERO ISZERO SWAP1 POP SWAP2 SWAP1 POP JUMP JUMPDEST PUSH1 0x0 PUSH2 0xFFFF DUP3 AND SWAP1 POP SWAP2 SWAP1 POP JUMP JUMPDEST PUSH1 0x0 PUSH20 0xFFFFFFFFFFFFFFFFFFFFFFFFFFFFFFFFFFFFFFFF DUP3 AND SWAP1 POP SWAP2 SWAP1 POP JUMP JUMPDEST PUSH1 0x0 DUP2 SWAP1 POP SWAP2 SWAP1 POP JUMP JUMPDEST PUSH1 0x0 PUSH4 0xFFFFFFFF DUP3 AND SWAP1 POP SWAP2 SWAP1 POP JUMP JUMPDEST DUP3 DUP2 DUP4 CALLDATACOPY PUSH1 0x0 DUP4 DUP4 ADD MSTORE POP POP POP JUMP JUMPDEST PUSH1 0x0 JUMPDEST DUP4 DUP2 LT ISZERO PUSH2 0xD91 JUMPI DUP1 DUP3 ADD MLOAD DUP2 DUP5 ADD MSTORE PUSH1 0x20 DUP2 ADD SWAP1 POP PUSH2 0xD76 JUMP JUMPDEST DUP4 DUP2 GT ISZERO PUSH2 0xDA0 JUMPI PUSH1 0x0 DUP5 DUP5 ADD MSTORE JUMPDEST POP POP POP POP JUMP JUMPDEST PUSH1 0x0 PUSH1 0x2 DUP3 DIV SWAP1 POP PUSH1 0x1 DUP3 AND DUP1 PUSH2 0xDBE JUMPI PUSH1 0x7F DUP3 AND SWAP2 POP JUMPDEST PUSH1 0x20 DUP3 LT DUP2 EQ ISZERO PUSH2 0xDD2 JUMPI PUSH2 0xDD1 PUSH2 0xEC7 JUMP JUMPDEST JUMPDEST POP SWAP2 SWAP1 POP JUMP JUMPDEST PUSH2 0xDE1 DUP3 PUSH2 0xF39 JUMP JUMPDEST DUP2 ADD DUP2 DUP2 LT PUSH8 0xFFFFFFFFFFFFFFFF DUP3 GT OR ISZERO PUSH2 0xE00 JUMPI PUSH2 0xDFF PUSH2 0xEF6 JUMP JUMPDEST JUMPDEST DUP1 PUSH1 0x40 MSTORE POP POP POP JUMP JUMPDEST PUSH1 0x0 PUSH2 0xE14 DUP3 PUSH2 0xD4A JUMP JUMPDEST SWAP2 POP PUSH2 0xE1F DUP4 PUSH2 0xD4A JUMP JUMPDEST SWAP3 POP DUP3 PUSH2 0xE2F JUMPI PUSH2 0xE2E PUSH2 0xE98 JUMP JUMPDEST JUMPDEST DUP3 DUP3 MOD SWAP1 POP SWAP3 SWAP2 POP POP JUMP JUMPDEST PUSH32 0x4E487B7100000000000000000000000000000000000000000000000000000000 PUSH1 0x0 MSTORE PUSH1 0x1 PUSH1 0x4 MSTORE PUSH1 0x24 PUSH1 0x0 REVERT JUMPDEST PUSH32 0x4E487B7100000000000000000000000000000000000000000000000000000000 PUSH1 0x0 MSTORE PUSH1 0x11 PUSH1 0x4 MSTORE PUSH1 0x24 PUSH1 0x0 REVERT JUMPDEST PUSH32 0x4E487B7100000000000000000000000000000000000000000000000000000000 PUSH1 0x0 MSTORE PUSH1 0x12 PUSH1 0x4 MSTORE PUSH1 0x24 PUSH1 0x0 REVERT JUMPDEST PUSH32 0x4E487B7100000000000000000000000000000000000000000000000000000000 PUSH1 0x0 MSTORE PUSH1 0x22 PUSH1 0x4 MSTORE PUSH1 0x24 PUSH1 0x0 REVERT JUMPDEST PUSH32 0x4E487B7100000000000000000000000000000000000000000000000000000000 PUSH1 0x0 MSTORE PUSH1 0x41 PUSH1 0x4 MSTORE PUSH1 0x24 PUSH1 0x0 REVERT JUMPDEST PUSH1 0x0 DUP1 REVERT JUMPDEST PUSH1 0x0 DUP1 REVERT JUMPDEST PUSH1 0x0 DUP1 REVERT JUMPDEST PUSH1 0x0 DUP1 REVERT JUMPDEST PUSH1 0x0 PUSH1 0x1F NOT PUSH1 0x1F DUP4 ADD AND SWAP1 POP SWAP2 SWAP1 POP JUMP JUMPDEST PUSH2 0xF53 DUP2 PUSH2 0xCFE JUMP JUMPDEST DUP2 EQ PUSH2 0xF5E JUMPI PUSH1 0x0 DUP1 REVERT JUMPDEST POP JUMP JUMPDEST PUSH2 0xF6A DUP2 PUSH2 0xD4A JUMP JUMPDEST DUP2 EQ PUSH2 0xF75 JUMPI PUSH1 0x0 DUP1 REVERT JUMPDEST POP JUMP INVALID LOG2 PUSH5 0x6970667358 0x22 SLT KECCAK256 0xAA BASEFEE BASEFEE 0x5F PUSH4 0xB9E8570B DUP15 DUP16 ORIGIN ADDMOD 0xC7 0xCA PUSH21 0xD3A68096665871E3DBACDAC72C65006164736F6C63 NUMBER STOP ADDMOD SMOD STOP CALLER "
				},
				"gasEstimates": {
					"creation": {
						"codeDepositCost": "802800",
						"executionCost": "infinite",
						"totalCost": "infinite"
					},
					"external": {
						"createRandomZombie(string)": "infinite",
						"isOwner()": "2540",
						"owner()": "2544",
						"renounceOwnership()": "30339",
						"transferOwnership(address)": "30738",
						"zombieToOwner(uint256)": "2862",
						"zombies(uint256)": "infinite"
					},
					"internal": {
						"_createZombie(string memory,uint256)": "infinite",
						"_generateRandomDna(string memory)": "infinite"
					}
				},
				"methodIdentifiers": {
					"createRandomZombie(string)": "7bff0a01",
					"isOwner()": "8f32d59b",
					"owner()": "8da5cb5b",
					"renounceOwnership()": "715018a6",
					"transferOwnership(address)": "f2fde38b",
					"zombieToOwner(uint256)": "528b7b8f",
					"zombies(uint256)": "2052465e"
				}
			},
			"storageLayout": {
				"storage": [
					{
						"astId": 4,
						"contract": "Testing Smart Contracts with Truffle/contracts/zombiefactory.sol:ZombieFactory",
						"label": "_owner",
						"offset": 0,
						"slot": "0",
						"type": "t_address"
					},
					{
						"astId": 536,
						"contract": "Testing Smart Contracts with Truffle/contracts/zombiefactory.sol:ZombieFactory",
						"label": "dnaDigits",
						"offset": 0,
						"slot": "1",
						"type": "t_uint256"
					},
					{
						"astId": 541,
						"contract": "Testing Smart Contracts with Truffle/contracts/zombiefactory.sol:ZombieFactory",
						"label": "dnaModulus",
						"offset": 0,
						"slot": "2",
						"type": "t_uint256"
					},
					{
						"astId": 544,
						"contract": "Testing Smart Contracts with Truffle/contracts/zombiefactory.sol:ZombieFactory",
						"label": "cooldownTime",
						"offset": 0,
						"slot": "3",
						"type": "t_uint256"
					},
					{
						"astId": 561,
						"contract": "Testing Smart Contracts with Truffle/contracts/zombiefactory.sol:ZombieFactory",
						"label": "zombies",
						"offset": 0,
						"slot": "4",
						"type": "t_array(t_struct(Zombie)557_storage)dyn_storage"
					},
					{
						"astId": 565,
						"contract": "Testing Smart Contracts with Truffle/contracts/zombiefactory.sol:ZombieFactory",
						"label": "zombieToOwner",
						"offset": 0,
						"slot": "5",
						"type": "t_mapping(t_uint256,t_address)"
					},
					{
						"astId": 569,
						"contract": "Testing Smart Contracts with Truffle/contracts/zombiefactory.sol:ZombieFactory",
						"label": "ownerZombieCount",
						"offset": 0,
						"slot": "6",
						"type": "t_mapping(t_address,t_uint256)"
					}
				],
				"types": {
					"t_address": {
						"encoding": "inplace",
						"label": "address",
						"numberOfBytes": "20"
					},
					"t_array(t_struct(Zombie)557_storage)dyn_storage": {
						"base": "t_struct(Zombie)557_storage",
						"encoding": "dynamic_array",
						"label": "struct ZombieFactory.Zombie[]",
						"numberOfBytes": "32"
					},
					"t_mapping(t_address,t_uint256)": {
						"encoding": "mapping",
						"key": "t_address",
						"label": "mapping(address => uint256)",
						"numberOfBytes": "32",
						"value": "t_uint256"
					},
					"t_mapping(t_uint256,t_address)": {
						"encoding": "mapping",
						"key": "t_uint256",
						"label": "mapping(uint256 => address)",
						"numberOfBytes": "32",
						"value": "t_address"
					},
					"t_string_storage": {
						"encoding": "bytes",
						"label": "string",
						"numberOfBytes": "32"
					},
					"t_struct(Zombie)557_storage": {
						"encoding": "inplace",
						"label": "struct ZombieFactory.Zombie",
						"members": [
							{
								"astId": 546,
								"contract": "Testing Smart Contracts with Truffle/contracts/zombiefactory.sol:ZombieFactory",
								"label": "name",
								"offset": 0,
								"slot": "0",
								"type": "t_string_storage"
							},
							{
								"astId": 548,
								"contract": "Testing Smart Contracts with Truffle/contracts/zombiefactory.sol:ZombieFactory",
								"label": "dna",
								"offset": 0,
								"slot": "1",
								"type": "t_uint256"
							},
							{
								"astId": 550,
								"contract": "Testing Smart Contracts with Truffle/contracts/zombiefactory.sol:ZombieFactory",
								"label": "level",
								"offset": 0,
								"slot": "2",
								"type": "t_uint32"
							},
							{
								"astId": 552,
								"contract": "Testing Smart Contracts with Truffle/contracts/zombiefactory.sol:ZombieFactory",
								"label": "readyTime",
								"offset": 4,
								"slot": "2",
								"type": "t_uint32"
							},
							{
								"astId": 554,
								"contract": "Testing Smart Contracts with Truffle/contracts/zombiefactory.sol:ZombieFactory",
								"label": "winCount",
								"offset": 8,
								"slot": "2",
								"type": "t_uint16"
							},
							{
								"astId": 556,
								"contract": "Testing Smart Contracts with Truffle/contracts/zombiefactory.sol:ZombieFactory",
								"label": "lossCount",
								"offset": 10,
								"slot": "2",
								"type": "t_uint16"
							}
						],
						"numberOfBytes": "96"
					},
					"t_uint16": {
						"encoding": "inplace",
						"label": "uint16",
						"numberOfBytes": "2"
					},
					"t_uint256": {
						"encoding": "inplace",
						"label": "uint256",
						"numberOfBytes": "32"
					},
					"t_uint32": {
						"encoding": "inplace",
						"label": "uint32",
						"numberOfBytes": "4"
					}
				}
			},
			"userdoc": {
				"kind": "user",
				"methods": {
					"renounceOwnership()": {
						"notice": "Renouncing to ownership will leave the contract without an owner. It will not be possible to call the functions with the `onlyOwner` modifier anymore."
					}
				},
				"version": 1
			}
		}
	}
}