{
	"Testing Smart Contracts with Truffle/contracts/safemath.sol": {
		"SafeMath": {
			"abi": [
				{
					"inputs": [
						{
							"internalType": "uint256",
							"name": "a",
							"type": "uint256"
						},
						{
							"internalType": "uint256",
							"name": "b",
							"type": "uint256"
						}
					],
					"name": "safeAdd",
					"outputs": [
						{
							"internalType": "uint256",
							"name": "c",
							"type": "uint256"
						}
					],
					"stateMutability": "pure",
					"type": "function"
				},
				{
					"inputs": [
						{
							"internalType": "uint256",
							"name": "a",
							"type": "uint256"
						},
						{
							"internalType": "uint256",
							"name": "b",
							"type": "uint256"
						}
					],
					"name": "safeDiv",
					"outputs": [
						{
							"internalType": "uint256",
							"name": "c",
							"type": "uint256"
						}
					],
					"stateMutability": "pure",
					"type": "function"
				},
				{
					"inputs": [
						{
							"internalType": "uint256",
							"name": "a",
							"type": "uint256"
						},
						{
							"internalType": "uint256",
							"name": "b",
							"type": "uint256"
						}
					],
					"name": "safeMul",
					"outputs": [
						{
							"internalType": "uint256",
							"name": "c",
							"type": "uint256"
						}
					],
					"stateMutability": "pure",
					"type": "function"
				},
				{
					"inputs": [
						{
							"internalType": "uint256",
							"name": "a",
							"type": "uint256"
						},
						{
							"internalType": "uint256",
							"name": "b",
							"type": "uint256"
						}
					],
					"name": "safeSub",
					"outputs": [
						{
							"internalType": "uint256",
							"name": "c",
							"type": "uint256"
						}
					],
					"stateMutability": "pure",
					"type": "function"
				}
			],
			"devdoc": {
				"details": "Math operations with safety checks that throw on error",
				"kind": "dev",
				"methods": {},
				"title": "SafeMath",
				"version": 1
			},
			"evm": {
				"assembly": "    /* \"Testing Smart Contracts with Truffle/contracts/safemath.sol\":163:2028  library SafeMath {... */\n  dataSize(sub_0)\n  dataOffset(sub_0)\n  0x0b\n  dup3\n  dup3\n  dup3\n  codecopy\n  dup1\n  mload\n  0x00\n  byte\n  0x73\n  eq\n  tag_1\n  jumpi\n  mstore(0x00, 0x4e487b7100000000000000000000000000000000000000000000000000000000)\n  mstore(0x04, 0x00)\n  revert(0x00, 0x24)\ntag_1:\n  mstore(0x00, address)\n  0x73\n  dup2\n  mstore8\n  dup3\n  dup2\n  return\nstop\n\nsub_0: assembly {\n        /* \"Testing Smart Contracts with Truffle/contracts/safemath.sol\":163:2028  library SafeMath {... */\n      eq(address, deployTimeAddress())\n      mstore(0x40, 0x80)\n      jumpi(tag_1, lt(calldatasize, 0x04))\n      shr(0xe0, calldataload(0x00))\n      dup1\n      0xa293d1e8\n      eq\n      tag_2\n      jumpi\n      dup1\n      0xb5931f7c\n      eq\n      tag_3\n      jumpi\n      dup1\n      0xd05c78da\n      eq\n      tag_4\n      jumpi\n      dup1\n      0xe6cb9013\n      eq\n      tag_5\n      jumpi\n    tag_1:\n      0x00\n      dup1\n      revert\n        /* \"Testing Smart Contracts with Truffle/contracts/safemath.sol\":1711:1812  function safeSub(uint a, uint b) public pure returns (uint c) {... */\n    tag_2:\n      tag_6\n      0x04\n      dup1\n      calldatasize\n      sub\n      dup2\n      add\n      swap1\n      tag_7\n      swap2\n      swap1\n      tag_8\n      jump\t// in\n    tag_7:\n      tag_9\n      jump\t// in\n    tag_6:\n      mload(0x40)\n      tag_10\n      swap2\n      swap1\n      tag_11\n      jump\t// in\n    tag_10:\n      mload(0x40)\n      dup1\n      swap2\n      sub\n      swap1\n      return\n        /* \"Testing Smart Contracts with Truffle/contracts/safemath.sol\":1921:2025  function safeDiv(uint a, uint b) public pure returns (uint c) { require(b > 0);... */\n    tag_3:\n      tag_12\n      0x04\n      dup1\n      calldatasize\n      sub\n      dup2\n      add\n      swap1\n      tag_13\n      swap2\n      swap1\n      tag_8\n      jump\t// in\n    tag_13:\n      tag_14\n      jump\t// in\n    tag_12:\n      mload(0x40)\n      tag_15\n      swap2\n      swap1\n      tag_11\n      jump\t// in\n    tag_15:\n      mload(0x40)\n      dup1\n      swap2\n      sub\n      swap1\n      return\n        /* \"Testing Smart Contracts with Truffle/contracts/safemath.sol\":1813:1920  function safeMul(uint a, uint b) public pure returns (uint c) { c = a * b; require(a == 0 || c / a == b); } */\n    tag_4:\n      tag_16\n      0x04\n      dup1\n      calldatasize\n      sub\n      dup2\n      add\n      swap1\n      tag_17\n      swap2\n      swap1\n      tag_8\n      jump\t// in\n    tag_17:\n      tag_18\n      jump\t// in\n    tag_16:\n      mload(0x40)\n      tag_19\n      swap2\n      swap1\n      tag_11\n      jump\t// in\n    tag_19:\n      mload(0x40)\n      dup1\n      swap2\n      sub\n      swap1\n      return\n        /* \"Testing Smart Contracts with Truffle/contracts/safemath.sol\":1593:1706  function safeAdd(uint a, uint b) public pure returns (uint c) {... */\n    tag_5:\n      tag_20\n      0x04\n      dup1\n      calldatasize\n      sub\n      dup2\n      add\n      swap1\n      tag_21\n      swap2\n      swap1\n      tag_8\n      jump\t// in\n    tag_21:\n      tag_22\n      jump\t// in\n    tag_20:\n      mload(0x40)\n      tag_23\n      swap2\n      swap1\n      tag_11\n      jump\t// in\n    tag_23:\n      mload(0x40)\n      dup1\n      swap2\n      sub\n      swap1\n      return\n        /* \"Testing Smart Contracts with Truffle/contracts/safemath.sol\":1711:1812  function safeSub(uint a, uint b) public pure returns (uint c) {... */\n    tag_9:\n        /* \"Testing Smart Contracts with Truffle/contracts/safemath.sol\":1765:1771  uint c */\n      0x00\n        /* \"Testing Smart Contracts with Truffle/contracts/safemath.sol\":1796:1797  a */\n      dup3\n        /* \"Testing Smart Contracts with Truffle/contracts/safemath.sol\":1791:1792  b */\n      dup3\n        /* \"Testing Smart Contracts with Truffle/contracts/safemath.sol\":1791:1797  b <= a */\n      gt\n      iszero\n        /* \"Testing Smart Contracts with Truffle/contracts/safemath.sol\":1783:1798  require(b <= a) */\n      tag_25\n      jumpi\n      0x00\n      dup1\n      revert\n    tag_25:\n        /* \"Testing Smart Contracts with Truffle/contracts/safemath.sol\":1808:1809  b */\n      dup2\n        /* \"Testing Smart Contracts with Truffle/contracts/safemath.sol\":1804:1805  a */\n      dup4\n        /* \"Testing Smart Contracts with Truffle/contracts/safemath.sol\":1804:1809  a - b */\n      tag_26\n      swap2\n      swap1\n      tag_27\n      jump\t// in\n    tag_26:\n        /* \"Testing Smart Contracts with Truffle/contracts/safemath.sol\":1800:1809  c = a - b */\n      swap1\n      pop\n        /* \"Testing Smart Contracts with Truffle/contracts/safemath.sol\":1711:1812  function safeSub(uint a, uint b) public pure returns (uint c) {... */\n      swap3\n      swap2\n      pop\n      pop\n      jump\t// out\n        /* \"Testing Smart Contracts with Truffle/contracts/safemath.sol\":1921:2025  function safeDiv(uint a, uint b) public pure returns (uint c) { require(b > 0);... */\n    tag_14:\n        /* \"Testing Smart Contracts with Truffle/contracts/safemath.sol\":1975:1981  uint c */\n      0x00\n        /* \"Testing Smart Contracts with Truffle/contracts/safemath.sol\":1997:1998  0 */\n      dup1\n        /* \"Testing Smart Contracts with Truffle/contracts/safemath.sol\":1993:1994  b */\n      dup3\n        /* \"Testing Smart Contracts with Truffle/contracts/safemath.sol\":1993:1998  b > 0 */\n      gt\n        /* \"Testing Smart Contracts with Truffle/contracts/safemath.sol\":1985:1999  require(b > 0) */\n      tag_29\n      jumpi\n      0x00\n      dup1\n      revert\n    tag_29:\n        /* \"Testing Smart Contracts with Truffle/contracts/safemath.sol\":2017:2018  b */\n      dup2\n        /* \"Testing Smart Contracts with Truffle/contracts/safemath.sol\":2013:2014  a */\n      dup4\n        /* \"Testing Smart Contracts with Truffle/contracts/safemath.sol\":2013:2018  a / b */\n      tag_30\n      swap2\n      swap1\n      tag_31\n      jump\t// in\n    tag_30:\n        /* \"Testing Smart Contracts with Truffle/contracts/safemath.sol\":2009:2018  c = a / b */\n      swap1\n      pop\n        /* \"Testing Smart Contracts with Truffle/contracts/safemath.sol\":1921:2025  function safeDiv(uint a, uint b) public pure returns (uint c) { require(b > 0);... */\n      swap3\n      swap2\n      pop\n      pop\n      jump\t// out\n        /* \"Testing Smart Contracts with Truffle/contracts/safemath.sol\":1813:1920  function safeMul(uint a, uint b) public pure returns (uint c) { c = a * b; require(a == 0 || c / a == b); } */\n    tag_18:\n        /* \"Testing Smart Contracts with Truffle/contracts/safemath.sol\":1867:1873  uint c */\n      0x00\n        /* \"Testing Smart Contracts with Truffle/contracts/safemath.sol\":1885:1886  b */\n      dup2\n        /* \"Testing Smart Contracts with Truffle/contracts/safemath.sol\":1881:1882  a */\n      dup4\n        /* \"Testing Smart Contracts with Truffle/contracts/safemath.sol\":1881:1886  a * b */\n      tag_33\n      swap2\n      swap1\n      tag_34\n      jump\t// in\n    tag_33:\n        /* \"Testing Smart Contracts with Truffle/contracts/safemath.sol\":1877:1886  c = a * b */\n      swap1\n      pop\n        /* \"Testing Smart Contracts with Truffle/contracts/safemath.sol\":1901:1902  0 */\n      0x00\n        /* \"Testing Smart Contracts with Truffle/contracts/safemath.sol\":1896:1897  a */\n      dup4\n        /* \"Testing Smart Contracts with Truffle/contracts/safemath.sol\":1896:1902  a == 0 */\n      eq\n        /* \"Testing Smart Contracts with Truffle/contracts/safemath.sol\":1896:1916  a == 0 || c / a == b */\n      dup1\n      tag_35\n      jumpi\n      pop\n        /* \"Testing Smart Contracts with Truffle/contracts/safemath.sol\":1915:1916  b */\n      dup2\n        /* \"Testing Smart Contracts with Truffle/contracts/safemath.sol\":1910:1911  a */\n      dup4\n        /* \"Testing Smart Contracts with Truffle/contracts/safemath.sol\":1906:1907  c */\n      dup3\n        /* \"Testing Smart Contracts with Truffle/contracts/safemath.sol\":1906:1911  c / a */\n      tag_36\n      swap2\n      swap1\n      tag_31\n      jump\t// in\n    tag_36:\n        /* \"Testing Smart Contracts with Truffle/contracts/safemath.sol\":1906:1916  c / a == b */\n      eq\n        /* \"Testing Smart Contracts with Truffle/contracts/safemath.sol\":1896:1916  a == 0 || c / a == b */\n    tag_35:\n        /* \"Testing Smart Contracts with Truffle/contracts/safemath.sol\":1888:1917  require(a == 0 || c / a == b) */\n      tag_37\n      jumpi\n      0x00\n      dup1\n      revert\n    tag_37:\n        /* \"Testing Smart Contracts with Truffle/contracts/safemath.sol\":1813:1920  function safeMul(uint a, uint b) public pure returns (uint c) { c = a * b; require(a == 0 || c / a == b); } */\n      swap3\n      swap2\n      pop\n      pop\n      jump\t// out\n        /* \"Testing Smart Contracts with Truffle/contracts/safemath.sol\":1593:1706  function safeAdd(uint a, uint b) public pure returns (uint c) {... */\n    tag_22:\n        /* \"Testing Smart Contracts with Truffle/contracts/safemath.sol\":1647:1653  uint c */\n      0x00\n        /* \"Testing Smart Contracts with Truffle/contracts/safemath.sol\":1673:1674  b */\n      dup2\n        /* \"Testing Smart Contracts with Truffle/contracts/safemath.sol\":1669:1670  a */\n      dup4\n        /* \"Testing Smart Contracts with Truffle/contracts/safemath.sol\":1669:1674  a + b */\n      tag_39\n      swap2\n      swap1\n      tag_40\n      jump\t// in\n    tag_39:\n        /* \"Testing Smart Contracts with Truffle/contracts/safemath.sol\":1665:1674  c = a + b */\n      swap1\n      pop\n        /* \"Testing Smart Contracts with Truffle/contracts/safemath.sol\":1697:1698  a */\n      dup3\n        /* \"Testing Smart Contracts with Truffle/contracts/safemath.sol\":1692:1693  c */\n      dup2\n        /* \"Testing Smart Contracts with Truffle/contracts/safemath.sol\":1692:1698  c >= a */\n      lt\n      iszero\n        /* \"Testing Smart Contracts with Truffle/contracts/safemath.sol\":1684:1699  require(c >= a) */\n      tag_41\n      jumpi\n      0x00\n      dup1\n      revert\n    tag_41:\n        /* \"Testing Smart Contracts with Truffle/contracts/safemath.sol\":1593:1706  function safeAdd(uint a, uint b) public pure returns (uint c) {... */\n      swap3\n      swap2\n      pop\n      pop\n      jump\t// out\n        /* \"#utility.yul\":7:146   */\n    tag_43:\n        /* \"#utility.yul\":53:58   */\n      0x00\n        /* \"#utility.yul\":91:97   */\n      dup2\n        /* \"#utility.yul\":78:98   */\n      calldataload\n        /* \"#utility.yul\":69:98   */\n      swap1\n      pop\n        /* \"#utility.yul\":107:140   */\n      tag_45\n        /* \"#utility.yul\":134:139   */\n      dup2\n        /* \"#utility.yul\":107:140   */\n      tag_46\n      jump\t// in\n    tag_45:\n        /* \"#utility.yul\":7:146   */\n      swap3\n      swap2\n      pop\n      pop\n      jump\t// out\n        /* \"#utility.yul\":152:626   */\n    tag_8:\n        /* \"#utility.yul\":220:226   */\n      0x00\n        /* \"#utility.yul\":228:234   */\n      dup1\n        /* \"#utility.yul\":277:279   */\n      0x40\n        /* \"#utility.yul\":265:274   */\n      dup4\n        /* \"#utility.yul\":256:263   */\n      dup6\n        /* \"#utility.yul\":252:275   */\n      sub\n        /* \"#utility.yul\":248:280   */\n      slt\n        /* \"#utility.yul\":245:364   */\n      iszero\n      tag_48\n      jumpi\n        /* \"#utility.yul\":283:362   */\n      tag_49\n      tag_50\n      jump\t// in\n    tag_49:\n        /* \"#utility.yul\":245:364   */\n    tag_48:\n        /* \"#utility.yul\":403:404   */\n      0x00\n        /* \"#utility.yul\":428:481   */\n      tag_51\n        /* \"#utility.yul\":473:480   */\n      dup6\n        /* \"#utility.yul\":464:470   */\n      dup3\n        /* \"#utility.yul\":453:462   */\n      dup7\n        /* \"#utility.yul\":449:471   */\n      add\n        /* \"#utility.yul\":428:481   */\n      tag_43\n      jump\t// in\n    tag_51:\n        /* \"#utility.yul\":418:481   */\n      swap3\n      pop\n        /* \"#utility.yul\":374:491   */\n      pop\n        /* \"#utility.yul\":530:532   */\n      0x20\n        /* \"#utility.yul\":556:609   */\n      tag_52\n        /* \"#utility.yul\":601:608   */\n      dup6\n        /* \"#utility.yul\":592:598   */\n      dup3\n        /* \"#utility.yul\":581:590   */\n      dup7\n        /* \"#utility.yul\":577:599   */\n      add\n        /* \"#utility.yul\":556:609   */\n      tag_43\n      jump\t// in\n    tag_52:\n        /* \"#utility.yul\":546:609   */\n      swap2\n      pop\n        /* \"#utility.yul\":501:619   */\n      pop\n        /* \"#utility.yul\":152:626   */\n      swap3\n      pop\n      swap3\n      swap1\n      pop\n      jump\t// out\n        /* \"#utility.yul\":632:758   */\n    tag_53:\n        /* \"#utility.yul\":727:751   */\n      tag_55\n        /* \"#utility.yul\":745:750   */\n      dup2\n        /* \"#utility.yul\":727:751   */\n      tag_56\n      jump\t// in\n    tag_55:\n        /* \"#utility.yul\":722:725   */\n      dup3\n        /* \"#utility.yul\":715:752   */\n      mstore\n        /* \"#utility.yul\":632:758   */\n      pop\n      pop\n      jump\t// out\n        /* \"#utility.yul\":764:1002   */\n    tag_11:\n        /* \"#utility.yul\":865:869   */\n      0x00\n        /* \"#utility.yul\":903:905   */\n      0x20\n        /* \"#utility.yul\":892:901   */\n      dup3\n        /* \"#utility.yul\":888:906   */\n      add\n        /* \"#utility.yul\":880:906   */\n      swap1\n      pop\n        /* \"#utility.yul\":916:995   */\n      tag_58\n        /* \"#utility.yul\":992:993   */\n      0x00\n        /* \"#utility.yul\":981:990   */\n      dup4\n        /* \"#utility.yul\":977:994   */\n      add\n        /* \"#utility.yul\":968:974   */\n      dup5\n        /* \"#utility.yul\":916:995   */\n      tag_53\n      jump\t// in\n    tag_58:\n        /* \"#utility.yul\":764:1002   */\n      swap3\n      swap2\n      pop\n      pop\n      jump\t// out\n        /* \"#utility.yul\":1089:1394   */\n    tag_40:\n        /* \"#utility.yul\":1129:1132   */\n      0x00\n        /* \"#utility.yul\":1148:1168   */\n      tag_62\n        /* \"#utility.yul\":1166:1167   */\n      dup3\n        /* \"#utility.yul\":1148:1168   */\n      tag_56\n      jump\t// in\n    tag_62:\n        /* \"#utility.yul\":1143:1168   */\n      swap2\n      pop\n        /* \"#utility.yul\":1182:1202   */\n      tag_63\n        /* \"#utility.yul\":1200:1201   */\n      dup4\n        /* \"#utility.yul\":1182:1202   */\n      tag_56\n      jump\t// in\n    tag_63:\n        /* \"#utility.yul\":1177:1202   */\n      swap3\n      pop\n        /* \"#utility.yul\":1336:1337   */\n      dup3\n        /* \"#utility.yul\":1268:1334   */\n      0xffffffffffffffffffffffffffffffffffffffffffffffffffffffffffffffff\n        /* \"#utility.yul\":1264:1338   */\n      sub\n        /* \"#utility.yul\":1261:1262   */\n      dup3\n        /* \"#utility.yul\":1258:1339   */\n      gt\n        /* \"#utility.yul\":1255:1362   */\n      iszero\n      tag_64\n      jumpi\n        /* \"#utility.yul\":1342:1360   */\n      tag_65\n      tag_66\n      jump\t// in\n    tag_65:\n        /* \"#utility.yul\":1255:1362   */\n    tag_64:\n        /* \"#utility.yul\":1386:1387   */\n      dup3\n        /* \"#utility.yul\":1383:1384   */\n      dup3\n        /* \"#utility.yul\":1379:1388   */\n      add\n        /* \"#utility.yul\":1372:1388   */\n      swap1\n      pop\n        /* \"#utility.yul\":1089:1394   */\n      swap3\n      swap2\n      pop\n      pop\n      jump\t// out\n        /* \"#utility.yul\":1400:1585   */\n    tag_31:\n        /* \"#utility.yul\":1440:1441   */\n      0x00\n        /* \"#utility.yul\":1457:1477   */\n      tag_68\n        /* \"#utility.yul\":1475:1476   */\n      dup3\n        /* \"#utility.yul\":1457:1477   */\n      tag_56\n      jump\t// in\n    tag_68:\n        /* \"#utility.yul\":1452:1477   */\n      swap2\n      pop\n        /* \"#utility.yul\":1491:1511   */\n      tag_69\n        /* \"#utility.yul\":1509:1510   */\n      dup4\n        /* \"#utility.yul\":1491:1511   */\n      tag_56\n      jump\t// in\n    tag_69:\n        /* \"#utility.yul\":1486:1511   */\n      swap3\n      pop\n        /* \"#utility.yul\":1530:1531   */\n      dup3\n        /* \"#utility.yul\":1520:1555   */\n      tag_70\n      jumpi\n        /* \"#utility.yul\":1535:1553   */\n      tag_71\n      tag_72\n      jump\t// in\n    tag_71:\n        /* \"#utility.yul\":1520:1555   */\n    tag_70:\n        /* \"#utility.yul\":1577:1578   */\n      dup3\n        /* \"#utility.yul\":1574:1575   */\n      dup3\n        /* \"#utility.yul\":1570:1579   */\n      div\n        /* \"#utility.yul\":1565:1579   */\n      swap1\n      pop\n        /* \"#utility.yul\":1400:1585   */\n      swap3\n      swap2\n      pop\n      pop\n      jump\t// out\n        /* \"#utility.yul\":1591:1939   */\n    tag_34:\n        /* \"#utility.yul\":1631:1638   */\n      0x00\n        /* \"#utility.yul\":1654:1674   */\n      tag_74\n        /* \"#utility.yul\":1672:1673   */\n      dup3\n        /* \"#utility.yul\":1654:1674   */\n      tag_56\n      jump\t// in\n    tag_74:\n        /* \"#utility.yul\":1649:1674   */\n      swap2\n      pop\n        /* \"#utility.yul\":1688:1708   */\n      tag_75\n        /* \"#utility.yul\":1706:1707   */\n      dup4\n        /* \"#utility.yul\":1688:1708   */\n      tag_56\n      jump\t// in\n    tag_75:\n        /* \"#utility.yul\":1683:1708   */\n      swap3\n      pop\n        /* \"#utility.yul\":1876:1877   */\n      dup2\n        /* \"#utility.yul\":1808:1874   */\n      0xffffffffffffffffffffffffffffffffffffffffffffffffffffffffffffffff\n        /* \"#utility.yul\":1804:1878   */\n      div\n        /* \"#utility.yul\":1801:1802   */\n      dup4\n        /* \"#utility.yul\":1798:1879   */\n      gt\n        /* \"#utility.yul\":1793:1794   */\n      dup3\n        /* \"#utility.yul\":1786:1795   */\n      iszero\n        /* \"#utility.yul\":1779:1796   */\n      iszero\n        /* \"#utility.yul\":1775:1880   */\n      and\n        /* \"#utility.yul\":1772:1903   */\n      iszero\n      tag_76\n      jumpi\n        /* \"#utility.yul\":1883:1901   */\n      tag_77\n      tag_66\n      jump\t// in\n    tag_77:\n        /* \"#utility.yul\":1772:1903   */\n    tag_76:\n        /* \"#utility.yul\":1931:1932   */\n      dup3\n        /* \"#utility.yul\":1928:1929   */\n      dup3\n        /* \"#utility.yul\":1924:1933   */\n      mul\n        /* \"#utility.yul\":1913:1933   */\n      swap1\n      pop\n        /* \"#utility.yul\":1591:1939   */\n      swap3\n      swap2\n      pop\n      pop\n      jump\t// out\n        /* \"#utility.yul\":1945:2136   */\n    tag_27:\n        /* \"#utility.yul\":1985:1989   */\n      0x00\n        /* \"#utility.yul\":2005:2025   */\n      tag_79\n        /* \"#utility.yul\":2023:2024   */\n      dup3\n        /* \"#utility.yul\":2005:2025   */\n      tag_56\n      jump\t// in\n    tag_79:\n        /* \"#utility.yul\":2000:2025   */\n      swap2\n      pop\n        /* \"#utility.yul\":2039:2059   */\n      tag_80\n        /* \"#utility.yul\":2057:2058   */\n      dup4\n        /* \"#utility.yul\":2039:2059   */\n      tag_56\n      jump\t// in\n    tag_80:\n        /* \"#utility.yul\":2034:2059   */\n      swap3\n      pop\n        /* \"#utility.yul\":2078:2079   */\n      dup3\n        /* \"#utility.yul\":2075:2076   */\n      dup3\n        /* \"#utility.yul\":2072:2080   */\n      lt\n        /* \"#utility.yul\":2069:2103   */\n      iszero\n      tag_81\n      jumpi\n        /* \"#utility.yul\":2083:2101   */\n      tag_82\n      tag_66\n      jump\t// in\n    tag_82:\n        /* \"#utility.yul\":2069:2103   */\n    tag_81:\n        /* \"#utility.yul\":2128:2129   */\n      dup3\n        /* \"#utility.yul\":2125:2126   */\n      dup3\n        /* \"#utility.yul\":2121:2130   */\n      sub\n        /* \"#utility.yul\":2113:2130   */\n      swap1\n      pop\n        /* \"#utility.yul\":1945:2136   */\n      swap3\n      swap2\n      pop\n      pop\n      jump\t// out\n        /* \"#utility.yul\":2142:2219   */\n    tag_56:\n        /* \"#utility.yul\":2179:2186   */\n      0x00\n        /* \"#utility.yul\":2208:2213   */\n      dup2\n        /* \"#utility.yul\":2197:2213   */\n      swap1\n      pop\n        /* \"#utility.yul\":2142:2219   */\n      swap2\n      swap1\n      pop\n      jump\t// out\n        /* \"#utility.yul\":2225:2405   */\n    tag_66:\n        /* \"#utility.yul\":2273:2350   */\n      0x4e487b7100000000000000000000000000000000000000000000000000000000\n        /* \"#utility.yul\":2270:2271   */\n      0x00\n        /* \"#utility.yul\":2263:2351   */\n      mstore\n        /* \"#utility.yul\":2370:2374   */\n      0x11\n        /* \"#utility.yul\":2367:2368   */\n      0x04\n        /* \"#utility.yul\":2360:2375   */\n      mstore\n        /* \"#utility.yul\":2394:2398   */\n      0x24\n        /* \"#utility.yul\":2391:2392   */\n      0x00\n        /* \"#utility.yul\":2384:2399   */\n      revert\n        /* \"#utility.yul\":2411:2591   */\n    tag_72:\n        /* \"#utility.yul\":2459:2536   */\n      0x4e487b7100000000000000000000000000000000000000000000000000000000\n        /* \"#utility.yul\":2456:2457   */\n      0x00\n        /* \"#utility.yul\":2449:2537   */\n      mstore\n        /* \"#utility.yul\":2556:2560   */\n      0x12\n        /* \"#utility.yul\":2553:2554   */\n      0x04\n        /* \"#utility.yul\":2546:2561   */\n      mstore\n        /* \"#utility.yul\":2580:2584   */\n      0x24\n        /* \"#utility.yul\":2577:2578   */\n      0x00\n        /* \"#utility.yul\":2570:2585   */\n      revert\n        /* \"#utility.yul\":2720:2837   */\n    tag_50:\n        /* \"#utility.yul\":2829:2830   */\n      0x00\n        /* \"#utility.yul\":2826:2827   */\n      dup1\n        /* \"#utility.yul\":2819:2831   */\n      revert\n        /* \"#utility.yul\":2843:2965   */\n    tag_46:\n        /* \"#utility.yul\":2916:2940   */\n      tag_90\n        /* \"#utility.yul\":2934:2939   */\n      dup2\n        /* \"#utility.yul\":2916:2940   */\n      tag_56\n      jump\t// in\n    tag_90:\n        /* \"#utility.yul\":2909:2914   */\n      dup2\n        /* \"#utility.yul\":2906:2941   */\n      eq\n        /* \"#utility.yul\":2896:2959   */\n      tag_91\n      jumpi\n        /* \"#utility.yul\":2955:2956   */\n      0x00\n        /* \"#utility.yul\":2952:2953   */\n      dup1\n        /* \"#utility.yul\":2945:2957   */\n      revert\n        /* \"#utility.yul\":2896:2959   */\n    tag_91:\n        /* \"#utility.yul\":2843:2965   */\n      pop\n      jump\t// out\n\n    auxdata: 0xa264697066735822122084b6f3dc092adde6862e3f07f3a30ff3bd29de0000404ad8313f37c0c401f47764736f6c63430008070033\n}\n",
				"bytecode": {
					"linkReferences": {},
					"object": "610409610053600b82828239805160001a607314610046577f4e487b7100000000000000000000000000000000000000000000000000000000600052600060045260246000fd5b30600052607381538281f3fe73000000000000000000000000000000000000000030146080604052600436106100565760003560e01c8063a293d1e81461005b578063b5931f7c1461008b578063d05c78da146100bb578063e6cb9013146100eb575b600080fd5b610075600480360381019061007091906101d0565b61011b565b604051610082919061021f565b60405180910390f35b6100a560048036038101906100a091906101d0565b61013e565b6040516100b2919061021f565b60405180910390f35b6100d560048036038101906100d091906101d0565b610160565b6040516100e2919061021f565b60405180910390f35b610105600480360381019061010091906101d0565b610198565b604051610112919061021f565b60405180910390f35b60008282111561012a57600080fd5b8183610136919061031b565b905092915050565b600080821161014c57600080fd5b81836101589190610290565b905092915050565b6000818361016e91906102c1565b9050600083148061018957508183826101879190610290565b145b61019257600080fd5b92915050565b600081836101a6919061023a565b9050828110156101b557600080fd5b92915050565b6000813590506101ca816103bc565b92915050565b600080604083850312156101e7576101e66103b7565b5b60006101f5858286016101bb565b9250506020610206858286016101bb565b9150509250929050565b6102198161034f565b82525050565b60006020820190506102346000830184610210565b92915050565b60006102458261034f565b91506102508361034f565b9250827fffffffffffffffffffffffffffffffffffffffffffffffffffffffffffffffff0382111561028557610284610359565b5b828201905092915050565b600061029b8261034f565b91506102a68361034f565b9250826102b6576102b5610388565b5b828204905092915050565b60006102cc8261034f565b91506102d78361034f565b9250817fffffffffffffffffffffffffffffffffffffffffffffffffffffffffffffffff04831182151516156103105761030f610359565b5b828202905092915050565b60006103268261034f565b91506103318361034f565b92508282101561034457610343610359565b5b828203905092915050565b6000819050919050565b7f4e487b7100000000000000000000000000000000000000000000000000000000600052601160045260246000fd5b7f4e487b7100000000000000000000000000000000000000000000000000000000600052601260045260246000fd5b600080fd5b6103c58161034f565b81146103d057600080fd5b5056fea264697066735822122084b6f3dc092adde6862e3f07f3a30ff3bd29de0000404ad8313f37c0c401f47764736f6c63430008070033",
					"opcodes": "PUSH2 0x409 PUSH2 0x53 PUSH1 0xB DUP3 DUP3 DUP3 CODECOPY DUP1 MLOAD PUSH1 0x0 BYTE PUSH1 0x73 EQ PUSH2 0x46 JUMPI PUSH32 0x4E487B7100000000000000000000000000000000000000000000000000000000 PUSH1 0x0 MSTORE PUSH1 0x0 PUSH1 0x4 MSTORE PUSH1 0x24 PUSH1 0x0 REVERT JUMPDEST ADDRESS PUSH1 0x0 MSTORE PUSH1 0x73 DUP2 MSTORE8 DUP3 DUP2 RETURN INVALID PUSH20 0x0 ADDRESS EQ PUSH1 0x80 PUSH1 0x40 MSTORE PUSH1 0x4 CALLDATASIZE LT PUSH2 0x56 JUMPI PUSH1 0x0 CALLDATALOAD PUSH1 0xE0 SHR DUP1 PUSH4 0xA293D1E8 EQ PUSH2 0x5B JUMPI DUP1 PUSH4 0xB5931F7C EQ PUSH2 0x8B JUMPI DUP1 PUSH4 0xD05C78DA EQ PUSH2 0xBB JUMPI DUP1 PUSH4 0xE6CB9013 EQ PUSH2 0xEB JUMPI JUMPDEST PUSH1 0x0 DUP1 REVERT JUMPDEST PUSH2 0x75 PUSH1 0x4 DUP1 CALLDATASIZE SUB DUP2 ADD SWAP1 PUSH2 0x70 SWAP2 SWAP1 PUSH2 0x1D0 JUMP JUMPDEST PUSH2 0x11B JUMP JUMPDEST PUSH1 0x40 MLOAD PUSH2 0x82 SWAP2 SWAP1 PUSH2 0x21F JUMP JUMPDEST PUSH1 0x40 MLOAD DUP1 SWAP2 SUB SWAP1 RETURN JUMPDEST PUSH2 0xA5 PUSH1 0x4 DUP1 CALLDATASIZE SUB DUP2 ADD SWAP1 PUSH2 0xA0 SWAP2 SWAP1 PUSH2 0x1D0 JUMP JUMPDEST PUSH2 0x13E JUMP JUMPDEST PUSH1 0x40 MLOAD PUSH2 0xB2 SWAP2 SWAP1 PUSH2 0x21F JUMP JUMPDEST PUSH1 0x40 MLOAD DUP1 SWAP2 SUB SWAP1 RETURN JUMPDEST PUSH2 0xD5 PUSH1 0x4 DUP1 CALLDATASIZE SUB DUP2 ADD SWAP1 PUSH2 0xD0 SWAP2 SWAP1 PUSH2 0x1D0 JUMP JUMPDEST PUSH2 0x160 JUMP JUMPDEST PUSH1 0x40 MLOAD PUSH2 0xE2 SWAP2 SWAP1 PUSH2 0x21F JUMP JUMPDEST PUSH1 0x40 MLOAD DUP1 SWAP2 SUB SWAP1 RETURN JUMPDEST PUSH2 0x105 PUSH1 0x4 DUP1 CALLDATASIZE SUB DUP2 ADD SWAP1 PUSH2 0x100 SWAP2 SWAP1 PUSH2 0x1D0 JUMP JUMPDEST PUSH2 0x198 JUMP JUMPDEST PUSH1 0x40 MLOAD PUSH2 0x112 SWAP2 SWAP1 PUSH2 0x21F JUMP JUMPDEST PUSH1 0x40 MLOAD DUP1 SWAP2 SUB SWAP1 RETURN JUMPDEST PUSH1 0x0 DUP3 DUP3 GT ISZERO PUSH2 0x12A JUMPI PUSH1 0x0 DUP1 REVERT JUMPDEST DUP2 DUP4 PUSH2 0x136 SWAP2 SWAP1 PUSH2 0x31B JUMP JUMPDEST SWAP1 POP SWAP3 SWAP2 POP POP JUMP JUMPDEST PUSH1 0x0 DUP1 DUP3 GT PUSH2 0x14C JUMPI PUSH1 0x0 DUP1 REVERT JUMPDEST DUP2 DUP4 PUSH2 0x158 SWAP2 SWAP1 PUSH2 0x290 JUMP JUMPDEST SWAP1 POP SWAP3 SWAP2 POP POP JUMP JUMPDEST PUSH1 0x0 DUP2 DUP4 PUSH2 0x16E SWAP2 SWAP1 PUSH2 0x2C1 JUMP JUMPDEST SWAP1 POP PUSH1 0x0 DUP4 EQ DUP1 PUSH2 0x189 JUMPI POP DUP2 DUP4 DUP3 PUSH2 0x187 SWAP2 SWAP1 PUSH2 0x290 JUMP JUMPDEST EQ JUMPDEST PUSH2 0x192 JUMPI PUSH1 0x0 DUP1 REVERT JUMPDEST SWAP3 SWAP2 POP POP JUMP JUMPDEST PUSH1 0x0 DUP2 DUP4 PUSH2 0x1A6 SWAP2 SWAP1 PUSH2 0x23A JUMP JUMPDEST SWAP1 POP DUP3 DUP2 LT ISZERO PUSH2 0x1B5 JUMPI PUSH1 0x0 DUP1 REVERT JUMPDEST SWAP3 SWAP2 POP POP JUMP JUMPDEST PUSH1 0x0 DUP2 CALLDATALOAD SWAP1 POP PUSH2 0x1CA DUP2 PUSH2 0x3BC JUMP JUMPDEST SWAP3 SWAP2 POP POP JUMP JUMPDEST PUSH1 0x0 DUP1 PUSH1 0x40 DUP4 DUP6 SUB SLT ISZERO PUSH2 0x1E7 JUMPI PUSH2 0x1E6 PUSH2 0x3B7 JUMP JUMPDEST JUMPDEST PUSH1 0x0 PUSH2 0x1F5 DUP6 DUP3 DUP7 ADD PUSH2 0x1BB JUMP JUMPDEST SWAP3 POP POP PUSH1 0x20 PUSH2 0x206 DUP6 DUP3 DUP7 ADD PUSH2 0x1BB JUMP JUMPDEST SWAP2 POP POP SWAP3 POP SWAP3 SWAP1 POP JUMP JUMPDEST PUSH2 0x219 DUP2 PUSH2 0x34F JUMP JUMPDEST DUP3 MSTORE POP POP JUMP JUMPDEST PUSH1 0x0 PUSH1 0x20 DUP3 ADD SWAP1 POP PUSH2 0x234 PUSH1 0x0 DUP4 ADD DUP5 PUSH2 0x210 JUMP JUMPDEST SWAP3 SWAP2 POP POP JUMP JUMPDEST PUSH1 0x0 PUSH2 0x245 DUP3 PUSH2 0x34F JUMP JUMPDEST SWAP2 POP PUSH2 0x250 DUP4 PUSH2 0x34F JUMP JUMPDEST SWAP3 POP DUP3 PUSH32 0xFFFFFFFFFFFFFFFFFFFFFFFFFFFFFFFFFFFFFFFFFFFFFFFFFFFFFFFFFFFFFFFF SUB DUP3 GT ISZERO PUSH2 0x285 JUMPI PUSH2 0x284 PUSH2 0x359 JUMP JUMPDEST JUMPDEST DUP3 DUP3 ADD SWAP1 POP SWAP3 SWAP2 POP POP JUMP JUMPDEST PUSH1 0x0 PUSH2 0x29B DUP3 PUSH2 0x34F JUMP JUMPDEST SWAP2 POP PUSH2 0x2A6 DUP4 PUSH2 0x34F JUMP JUMPDEST SWAP3 POP DUP3 PUSH2 0x2B6 JUMPI PUSH2 0x2B5 PUSH2 0x388 JUMP JUMPDEST JUMPDEST DUP3 DUP3 DIV SWAP1 POP SWAP3 SWAP2 POP POP JUMP JUMPDEST PUSH1 0x0 PUSH2 0x2CC DUP3 PUSH2 0x34F JUMP JUMPDEST SWAP2 POP PUSH2 0x2D7 DUP4 PUSH2 0x34F JUMP JUMPDEST SWAP3 POP DUP2 PUSH32 0xFFFFFFFFFFFFFFFFFFFFFFFFFFFFFFFFFFFFFFFFFFFFFFFFFFFFFFFFFFFFFFFF DIV DUP4 GT DUP3 ISZERO ISZERO AND ISZERO PUSH2 0x310 JUMPI PUSH2 0x30F PUSH2 0x359 JUMP JUMPDEST JUMPDEST DUP3 DUP3 MUL SWAP1 POP SWAP3 SWAP2 POP POP JUMP JUMPDEST PUSH1 0x0 PUSH2 0x326 DUP3 PUSH2 0x34F JUMP JUMPDEST SWAP2 POP PUSH2 0x331 DUP4 PUSH2 0x34F JUMP JUMPDEST SWAP3 POP DUP3 DUP3 LT ISZERO PUSH2 0x344 JUMPI PUSH2 0x343 PUSH2 0x359 JUMP JUMPDEST JUMPDEST DUP3 DUP3 SUB SWAP1 POP SWAP3 SWAP2 POP POP JUMP JUMPDEST PUSH1 0x0 DUP2 SWAP1 POP SWAP2 SWAP1 POP JUMP JUMPDEST PUSH32 0x4E487B7100000000000000000000000000000000000000000000000000000000 PUSH1 0x0 MSTORE PUSH1 0x11 PUSH1 0x4 MSTORE PUSH1 0x24 PUSH1 0x0 REVERT JUMPDEST PUSH32 0x4E487B7100000000000000000000000000000000000000000000000000000000 PUSH1 0x0 MSTORE PUSH1 0x12 PUSH1 0x4 MSTORE PUSH1 0x24 PUSH1 0x0 REVERT JUMPDEST PUSH1 0x0 DUP1 REVERT JUMPDEST PUSH2 0x3C5 DUP2 PUSH2 0x34F JUMP JUMPDEST DUP2 EQ PUSH2 0x3D0 JUMPI PUSH1 0x0 DUP1 REVERT JUMPDEST POP JUMP INVALID LOG2 PUSH5 0x6970667358 0x22 SLT KECCAK256 DUP5 0xB6 RETURN 0xDC MULMOD 0x2A 0xDD 0xE6 DUP7 0x2E EXTCODEHASH SMOD RETURN LOG3 0xF RETURN 0xBD 0x29 0xDE STOP STOP BLOCKHASH 0x4A 0xD8 BALANCE EXTCODEHASH CALLDATACOPY 0xC0 0xC4 ADD DELEGATECALL PUSH24 0x64736F6C6343000807003300000000000000000000000000 "
				},
				"gasEstimates": {
					"creation": {
						"codeDepositCost": "206600",
						"executionCost": "276",
						"totalCost": "206876"
					},
					"external": {
						"safeAdd(uint256,uint256)": "infinite",
						"safeDiv(uint256,uint256)": "infinite",
						"safeMul(uint256,uint256)": "infinite",
						"safeSub(uint256,uint256)": "infinite"
					},
					"internal": {
						"add(uint256,uint256)": "infinite",
						"div(uint256,uint256)": "infinite",
						"mul(uint256,uint256)": "infinite",
						"sub(uint256,uint256)": "infinite"
					}
				},
				"methodIdentifiers": {
					"safeAdd(uint256,uint256)": "e6cb9013",
					"safeDiv(uint256,uint256)": "b5931f7c",
					"safeMul(uint256,uint256)": "d05c78da",
					"safeSub(uint256,uint256)": "a293d1e8"
				}
			},
			"storageLayout": {
				"storage": [],
				"types": null
			},
			"userdoc": {
				"kind": "user",
				"methods": {},
				"version": 1
			}
		}
	}
}