{
	"Testing Smart Contracts with Truffle/contracts/zombiefeeding.sol": {
		"ZombieFeeding": {
			"abi": [
				{
					"anonymous": false,
					"inputs": [
						{
							"indexed": false,
							"internalType": "uint256",
							"name": "zombieId",
							"type": "uint256"
						},
						{
							"indexed": false,
							"internalType": "string",
							"name": "name",
							"type": "string"
						},
						{
							"indexed": false,
							"internalType": "uint256",
							"name": "dna",
							"type": "uint256"
						}
					],
					"name": "NewZombie",
					"type": "event"
				},
				{
					"anonymous": false,
					"inputs": [
						{
							"indexed": true,
							"internalType": "address",
							"name": "previousOwner",
							"type": "address"
						},
						{
							"indexed": true,
							"internalType": "address",
							"name": "newOwner",
							"type": "address"
						}
					],
					"name": "OwnershipTransferred",
					"type": "event"
				},
				{
					"inputs": [
						{
							"internalType": "string",
							"name": "_name",
							"type": "string"
						}
					],
					"name": "createRandomZombie",
					"outputs": [],
					"stateMutability": "nonpayable",
					"type": "function"
				},
				{
					"inputs": [
						{
							"internalType": "uint256",
							"name": "_zombieId",
							"type": "uint256"
						},
						{
							"internalType": "uint256",
							"name": "_kittyId",
							"type": "uint256"
						}
					],
					"name": "feedOnKitty",
					"outputs": [],
					"stateMutability": "nonpayable",
					"type": "function"
				},
				{
					"inputs": [],
					"name": "isOwner",
					"outputs": [
						{
							"internalType": "bool",
							"name": "",
							"type": "bool"
						}
					],
					"stateMutability": "view",
					"type": "function"
				},
				{
					"inputs": [],
					"name": "owner",
					"outputs": [
						{
							"internalType": "address",
							"name": "",
							"type": "address"
						}
					],
					"stateMutability": "view",
					"type": "function"
				},
				{
					"inputs": [],
					"name": "renounceOwnership",
					"outputs": [],
					"stateMutability": "nonpayable",
					"type": "function"
				},
				{
					"inputs": [
						{
							"internalType": "address",
							"name": "_address",
							"type": "address"
						}
					],
					"name": "setKittyContractAddress",
					"outputs": [],
					"stateMutability": "nonpayable",
					"type": "function"
				},
				{
					"inputs": [
						{
							"internalType": "address",
							"name": "newOwner",
							"type": "address"
						}
					],
					"name": "transferOwnership",
					"outputs": [],
					"stateMutability": "nonpayable",
					"type": "function"
				},
				{
					"inputs": [
						{
							"internalType": "uint256",
							"name": "",
							"type": "uint256"
						}
					],
					"name": "zombieToOwner",
					"outputs": [
						{
							"internalType": "address",
							"name": "",
							"type": "address"
						}
					],
					"stateMutability": "view",
					"type": "function"
				},
				{
					"inputs": [
						{
							"internalType": "uint256",
							"name": "",
							"type": "uint256"
						}
					],
					"name": "zombies",
					"outputs": [
						{
							"internalType": "string",
							"name": "name",
							"type": "string"
						},
						{
							"internalType": "uint256",
							"name": "dna",
							"type": "uint256"
						},
						{
							"internalType": "uint32",
							"name": "level",
							"type": "uint32"
						},
						{
							"internalType": "uint32",
							"name": "readyTime",
							"type": "uint32"
						},
						{
							"internalType": "uint16",
							"name": "winCount",
							"type": "uint16"
						},
						{
							"internalType": "uint16",
							"name": "lossCount",
							"type": "uint16"
						}
					],
					"stateMutability": "view",
					"type": "function"
				}
			],
			"devdoc": {
				"kind": "dev",
				"methods": {
					"isOwner()": {
						"returns": {
							"_0": "true if `msg.sender` is the owner of the contract."
						}
					},
					"owner()": {
						"returns": {
							"_0": "the address of the owner."
						}
					},
					"renounceOwnership()": {
						"details": "Allows the current owner to relinquish control of the contract."
					},
					"transferOwnership(address)": {
						"details": "Allows the current owner to transfer control of the contract to a newOwner.",
						"params": {
							"newOwner": "The address to transfer ownership to."
						}
					}
				},
				"version": 1
			},
			"evm": {
				"assembly": "    /* \"Testing Smart Contracts with Truffle/contracts/zombiefeeding.sol\":545:2010  contract ZombieFeeding is ZombieFactory {... */\n  mstore(0x40, 0x80)\n    /* \"Testing Smart Contracts with Truffle/contracts/zombiefactory.sol\":348:350  16 */\n  0x10\n    /* \"Testing Smart Contracts with Truffle/contracts/zombiefactory.sol\":328:350  uint256 dnaDigits = 16 */\n  0x01\n  sstore\n    /* \"Testing Smart Contracts with Truffle/contracts/zombiefactory.sol\":381:390  dnaDigits */\n  sload(0x01)\n    /* \"Testing Smart Contracts with Truffle/contracts/zombiefactory.sol\":377:379  10 */\n  0x0a\n    /* \"Testing Smart Contracts with Truffle/contracts/zombiefactory.sol\":377:390  10**dnaDigits */\n  tag_1\n  swap2\n  swap1\n  tag_2\n  jump\t// in\ntag_1:\n    /* \"Testing Smart Contracts with Truffle/contracts/zombiefactory.sol\":356:390  uint256 dnaModulus = 10**dnaDigits */\n  0x02\n  sstore\n    /* \"Testing Smart Contracts with Truffle/contracts/zombiefactory.sol\":419:425  1 days */\n  0x015180\n    /* \"Testing Smart Contracts with Truffle/contracts/zombiefactory.sol\":396:425  uint256 cooldownTime = 1 days */\n  0x03\n  sstore\n    /* \"Testing Smart Contracts with Truffle/contracts/zombiefeeding.sol\":545:2010  contract ZombieFeeding is ZombieFactory {... */\n  callvalue\n  dup1\n  iszero\n  tag_3\n  jumpi\n  0x00\n  dup1\n  revert\ntag_3:\n  pop\n    /* \"Testing Smart Contracts with Truffle/contracts/ownable.sol\":585:595  msg.sender */\n  caller\n    /* \"Testing Smart Contracts with Truffle/contracts/ownable.sol\":576:582  _owner */\n  0x00\n  dup1\n    /* \"Testing Smart Contracts with Truffle/contracts/ownable.sol\":576:595  _owner = msg.sender */\n  0x0100\n  exp\n  dup2\n  sload\n  dup2\n  0xffffffffffffffffffffffffffffffffffffffff\n  mul\n  not\n  and\n  swap1\n  dup4\n  0xffffffffffffffffffffffffffffffffffffffff\n  and\n  mul\n  or\n  swap1\n  sstore\n  pop\n    /* \"Testing Smart Contracts with Truffle/contracts/ownable.sol\":643:649  _owner */\n  0x00\n  dup1\n  sload\n  swap1\n  0x0100\n  exp\n  swap1\n  div\n  0xffffffffffffffffffffffffffffffffffffffff\n  and\n    /* \"Testing Smart Contracts with Truffle/contracts/ownable.sol\":610:650  OwnershipTransferred(address(0), _owner) */\n  0xffffffffffffffffffffffffffffffffffffffff\n  and\n    /* \"Testing Smart Contracts with Truffle/contracts/ownable.sol\":639:640  0 */\n  0x00\n    /* \"Testing Smart Contracts with Truffle/contracts/ownable.sol\":610:650  OwnershipTransferred(address(0), _owner) */\n  0xffffffffffffffffffffffffffffffffffffffff\n  and\n  0x8be0079c531659141344cd1fd0a4f28419497f9722a3daafe3b4186f6b6457e0\n  mload(0x40)\n  mload(0x40)\n  dup1\n  swap2\n  sub\n  swap1\n  log3\n    /* \"Testing Smart Contracts with Truffle/contracts/zombiefeeding.sol\":545:2010  contract ZombieFeeding is ZombieFactory {... */\n  jump(tag_6)\n    /* \"#utility.yul\":7:855   */\ntag_8:\n    /* \"#utility.yul\":68:73   */\n  0x00\n    /* \"#utility.yul\":75:79   */\n  dup1\n    /* \"#utility.yul\":99:105   */\n  dup3\n    /* \"#utility.yul\":90:105   */\n  swap2\n  pop\n    /* \"#utility.yul\":123:128   */\n  dup4\n    /* \"#utility.yul\":114:128   */\n  swap1\n  pop\n    /* \"#utility.yul\":137:849   */\ntag_10:\n    /* \"#utility.yul\":158:159   */\n  0x01\n    /* \"#utility.yul\":148:156   */\n  dup6\n    /* \"#utility.yul\":145:160   */\n  gt\n    /* \"#utility.yul\":137:849   */\n  iszero\n  tag_12\n  jumpi\n    /* \"#utility.yul\":253:257   */\n  dup1\n    /* \"#utility.yul\":248:251   */\n  dup7\n    /* \"#utility.yul\":244:258   */\n  div\n    /* \"#utility.yul\":238:242   */\n  dup2\n    /* \"#utility.yul\":235:259   */\n  gt\n    /* \"#utility.yul\":232:282   */\n  iszero\n  tag_13\n  jumpi\n    /* \"#utility.yul\":262:280   */\n  tag_14\n  tag_15\n  jump\t// in\ntag_14:\n    /* \"#utility.yul\":232:282   */\ntag_13:\n    /* \"#utility.yul\":312:313   */\n  0x01\n    /* \"#utility.yul\":302:310   */\n  dup6\n    /* \"#utility.yul\":298:314   */\n  and\n    /* \"#utility.yul\":295:746   */\n  iszero\n  tag_16\n  jumpi\n    /* \"#utility.yul\":727:731   */\n  dup1\n    /* \"#utility.yul\":720:725   */\n  dup3\n    /* \"#utility.yul\":716:732   */\n  mul\n    /* \"#utility.yul\":707:732   */\n  swap2\n  pop\n    /* \"#utility.yul\":295:746   */\ntag_16:\n    /* \"#utility.yul\":777:781   */\n  dup1\n    /* \"#utility.yul\":771:775   */\n  dup2\n    /* \"#utility.yul\":767:782   */\n  mul\n    /* \"#utility.yul\":759:782   */\n  swap1\n  pop\n    /* \"#utility.yul\":807:839   */\n  tag_17\n    /* \"#utility.yul\":830:838   */\n  dup6\n    /* \"#utility.yul\":807:839   */\n  tag_18\n  jump\t// in\ntag_17:\n    /* \"#utility.yul\":795:839   */\n  swap5\n  pop\n    /* \"#utility.yul\":137:849   */\n  jump(tag_10)\ntag_12:\n    /* \"#utility.yul\":7:855   */\n  swap5\n  pop\n  swap5\n  swap3\n  pop\n  pop\n  pop\n  jump\t// out\n    /* \"#utility.yul\":861:1146   */\ntag_2:\n    /* \"#utility.yul\":921:926   */\n  0x00\n    /* \"#utility.yul\":945:968   */\n  tag_20\n    /* \"#utility.yul\":963:967   */\n  dup3\n    /* \"#utility.yul\":945:968   */\n  tag_21\n  jump\t// in\ntag_20:\n    /* \"#utility.yul\":937:968   */\n  swap2\n  pop\n    /* \"#utility.yul\":989:1016   */\n  tag_22\n    /* \"#utility.yul\":1007:1015   */\n  dup4\n    /* \"#utility.yul\":989:1016   */\n  tag_21\n  jump\t// in\ntag_22:\n    /* \"#utility.yul\":977:1016   */\n  swap3\n  pop\n    /* \"#utility.yul\":1035:1139   */\n  tag_23\n    /* \"#utility.yul\":1072:1138   */\n  0xffffffffffffffffffffffffffffffffffffffffffffffffffffffffffffffff\n    /* \"#utility.yul\":1062:1070   */\n  dup5\n    /* \"#utility.yul\":1056:1060   */\n  dup5\n    /* \"#utility.yul\":1035:1139   */\n  tag_24\n  jump\t// in\ntag_23:\n    /* \"#utility.yul\":1026:1139   */\n  swap1\n  pop\n    /* \"#utility.yul\":861:1146   */\n  swap3\n  swap2\n  pop\n  pop\n  jump\t// out\n    /* \"#utility.yul\":1152:2225   */\ntag_24:\n    /* \"#utility.yul\":1206:1211   */\n  0x00\n    /* \"#utility.yul\":1397:1405   */\n  dup3\n    /* \"#utility.yul\":1387:1427   */\n  tag_26\n  jumpi\n    /* \"#utility.yul\":1418:1419   */\n  0x01\n    /* \"#utility.yul\":1409:1419   */\n  swap1\n  pop\n    /* \"#utility.yul\":1420:1425   */\n  jump(tag_25)\n    /* \"#utility.yul\":1387:1427   */\ntag_26:\n    /* \"#utility.yul\":1446:1450   */\n  dup2\n    /* \"#utility.yul\":1436:1472   */\n  tag_27\n  jumpi\n    /* \"#utility.yul\":1463:1464   */\n  0x00\n    /* \"#utility.yul\":1454:1464   */\n  swap1\n  pop\n    /* \"#utility.yul\":1465:1470   */\n  jump(tag_25)\n    /* \"#utility.yul\":1436:1472   */\ntag_27:\n    /* \"#utility.yul\":1532:1536   */\n  dup2\n    /* \"#utility.yul\":1580:1581   */\n  0x01\n    /* \"#utility.yul\":1575:1602   */\n  dup2\n  eq\n  tag_29\n  jumpi\n    /* \"#utility.yul\":1616:1617   */\n  0x02\n    /* \"#utility.yul\":1611:1802   */\n  dup2\n  eq\n  tag_30\n  jumpi\n    /* \"#utility.yul\":1525:1802   */\n  jump(tag_28)\n    /* \"#utility.yul\":1575:1602   */\ntag_29:\n    /* \"#utility.yul\":1593:1594   */\n  0x01\n    /* \"#utility.yul\":1584:1594   */\n  swap2\n  pop\n    /* \"#utility.yul\":1595:1600   */\n  pop\n  jump(tag_25)\n    /* \"#utility.yul\":1611:1802   */\ntag_30:\n    /* \"#utility.yul\":1656:1659   */\n  0xff\n    /* \"#utility.yul\":1646:1654   */\n  dup5\n    /* \"#utility.yul\":1643:1660   */\n  gt\n    /* \"#utility.yul\":1640:1683   */\n  iszero\n  tag_31\n  jumpi\n    /* \"#utility.yul\":1663:1681   */\n  tag_32\n  tag_15\n  jump\t// in\ntag_32:\n    /* \"#utility.yul\":1640:1683   */\ntag_31:\n    /* \"#utility.yul\":1712:1720   */\n  dup4\n    /* \"#utility.yul\":1709:1710   */\n  0x02\n    /* \"#utility.yul\":1705:1721   */\n  exp\n    /* \"#utility.yul\":1696:1721   */\n  swap2\n  pop\n    /* \"#utility.yul\":1747:1750   */\n  dup5\n    /* \"#utility.yul\":1740:1745   */\n  dup3\n    /* \"#utility.yul\":1737:1751   */\n  gt\n    /* \"#utility.yul\":1734:1774   */\n  iszero\n  tag_33\n  jumpi\n    /* \"#utility.yul\":1754:1772   */\n  tag_34\n  tag_15\n  jump\t// in\ntag_34:\n    /* \"#utility.yul\":1734:1774   */\ntag_33:\n    /* \"#utility.yul\":1787:1792   */\n  pop\n  jump(tag_25)\n    /* \"#utility.yul\":1525:1802   */\ntag_28:\n  pop\n    /* \"#utility.yul\":1911:1913   */\n  0x20\n    /* \"#utility.yul\":1901:1909   */\n  dup4\n    /* \"#utility.yul\":1898:1914   */\n  lt\n    /* \"#utility.yul\":1892:1895   */\n  0x0133\n    /* \"#utility.yul\":1886:1890   */\n  dup4\n    /* \"#utility.yul\":1883:1896   */\n  lt\n    /* \"#utility.yul\":1879:1915   */\n  and\n    /* \"#utility.yul\":1861:1863   */\n  0x4e\n    /* \"#utility.yul\":1851:1859   */\n  dup5\n    /* \"#utility.yul\":1848:1864   */\n  lt\n    /* \"#utility.yul\":1843:1845   */\n  0x0b\n    /* \"#utility.yul\":1837:1841   */\n  dup5\n    /* \"#utility.yul\":1834:1846   */\n  lt\n    /* \"#utility.yul\":1830:1865   */\n  and\n    /* \"#utility.yul\":1814:1925   */\n  or\n    /* \"#utility.yul\":1811:2057   */\n  iszero\n  tag_35\n  jumpi\n    /* \"#utility.yul\":1967:1975   */\n  dup3\n    /* \"#utility.yul\":1961:1965   */\n  dup3\n    /* \"#utility.yul\":1957:1976   */\n  exp\n    /* \"#utility.yul\":1948:1976   */\n  swap1\n  pop\n    /* \"#utility.yul\":2002:2005   */\n  dup4\n    /* \"#utility.yul\":1995:2000   */\n  dup2\n    /* \"#utility.yul\":1992:2006   */\n  gt\n    /* \"#utility.yul\":1989:2029   */\n  iszero\n  tag_36\n  jumpi\n    /* \"#utility.yul\":2009:2027   */\n  tag_37\n  tag_15\n  jump\t// in\ntag_37:\n    /* \"#utility.yul\":1989:2029   */\ntag_36:\n    /* \"#utility.yul\":2042:2047   */\n  jump(tag_25)\n    /* \"#utility.yul\":1811:2057   */\ntag_35:\n    /* \"#utility.yul\":2082:2124   */\n  tag_38\n    /* \"#utility.yul\":2120:2123   */\n  dup5\n    /* \"#utility.yul\":2110:2118   */\n  dup5\n    /* \"#utility.yul\":2104:2108   */\n  dup5\n    /* \"#utility.yul\":2101:2102   */\n  0x01\n    /* \"#utility.yul\":2082:2124   */\n  tag_8\n  jump\t// in\ntag_38:\n    /* \"#utility.yul\":2067:2124   */\n  swap3\n  pop\n  swap1\n  pop\n    /* \"#utility.yul\":2156:2160   */\n  dup2\n    /* \"#utility.yul\":2151:2154   */\n  dup5\n    /* \"#utility.yul\":2147:2161   */\n  div\n    /* \"#utility.yul\":2140:2145   */\n  dup2\n    /* \"#utility.yul\":2137:2162   */\n  gt\n    /* \"#utility.yul\":2134:2185   */\n  iszero\n  tag_39\n  jumpi\n    /* \"#utility.yul\":2165:2183   */\n  tag_40\n  tag_15\n  jump\t// in\ntag_40:\n    /* \"#utility.yul\":2134:2185   */\ntag_39:\n    /* \"#utility.yul\":2214:2218   */\n  dup2\n    /* \"#utility.yul\":2207:2212   */\n  dup2\n    /* \"#utility.yul\":2203:2219   */\n  mul\n    /* \"#utility.yul\":2194:2219   */\n  swap1\n  pop\n    /* \"#utility.yul\":1152:2225   */\ntag_25:\n  swap4\n  swap3\n  pop\n  pop\n  pop\n  jump\t// out\n    /* \"#utility.yul\":2231:2308   */\ntag_21:\n    /* \"#utility.yul\":2268:2275   */\n  0x00\n    /* \"#utility.yul\":2297:2302   */\n  dup2\n    /* \"#utility.yul\":2286:2302   */\n  swap1\n  pop\n    /* \"#utility.yul\":2231:2308   */\n  swap2\n  swap1\n  pop\n  jump\t// out\n    /* \"#utility.yul\":2314:2494   */\ntag_15:\n    /* \"#utility.yul\":2362:2439   */\n  0x4e487b7100000000000000000000000000000000000000000000000000000000\n    /* \"#utility.yul\":2359:2360   */\n  0x00\n    /* \"#utility.yul\":2352:2440   */\n  mstore\n    /* \"#utility.yul\":2459:2463   */\n  0x11\n    /* \"#utility.yul\":2456:2457   */\n  0x04\n    /* \"#utility.yul\":2449:2464   */\n  mstore\n    /* \"#utility.yul\":2483:2487   */\n  0x24\n    /* \"#utility.yul\":2480:2481   */\n  0x00\n    /* \"#utility.yul\":2473:2488   */\n  revert\n    /* \"#utility.yul\":2500:2602   */\ntag_18:\n    /* \"#utility.yul\":2542:2550   */\n  0x00\n    /* \"#utility.yul\":2589:2594   */\n  dup2\n    /* \"#utility.yul\":2586:2587   */\n  0x01\n    /* \"#utility.yul\":2582:2595   */\n  shr\n    /* \"#utility.yul\":2561:2595   */\n  swap1\n  pop\n    /* \"#utility.yul\":2500:2602   */\n  swap2\n  swap1\n  pop\n  jump\t// out\n    /* \"Testing Smart Contracts with Truffle/contracts/zombiefeeding.sol\":545:2010  contract ZombieFeeding is ZombieFactory {... */\ntag_6:\n  dataSize(sub_0)\n  dup1\n  dataOffset(sub_0)\n  0x00\n  codecopy\n  0x00\n  return\nstop\n\nsub_0: assembly {\n        /* \"Testing Smart Contracts with Truffle/contracts/zombiefeeding.sol\":545:2010  contract ZombieFeeding is ZombieFactory {... */\n      mstore(0x40, 0x80)\n      callvalue\n      dup1\n      iszero\n      tag_1\n      jumpi\n      0x00\n      dup1\n      revert\n    tag_1:\n      pop\n      jumpi(tag_2, lt(calldatasize, 0x04))\n      shr(0xe0, calldataload(0x00))\n      dup1\n      0x715018a6\n      gt\n      tag_12\n      jumpi\n      dup1\n      0x715018a6\n      eq\n      tag_7\n      jumpi\n      dup1\n      0x7bff0a01\n      eq\n      tag_8\n      jumpi\n      dup1\n      0x8da5cb5b\n      eq\n      tag_9\n      jumpi\n      dup1\n      0x8f32d59b\n      eq\n      tag_10\n      jumpi\n      dup1\n      0xf2fde38b\n      eq\n      tag_11\n      jumpi\n      jump(tag_2)\n    tag_12:\n      dup1\n      0x17a7f4cc\n      eq\n      tag_3\n      jumpi\n      dup1\n      0x2052465e\n      eq\n      tag_4\n      jumpi\n      dup1\n      0x528b7b8f\n      eq\n      tag_5\n      jumpi\n      dup1\n      0x5f4623f1\n      eq\n      tag_6\n      jumpi\n    tag_2:\n      0x00\n      dup1\n      revert\n        /* \"Testing Smart Contracts with Truffle/contracts/zombiefeeding.sol\":1782:2008  function feedOnKitty(uint256 _zombieId, uint256 _kittyId) public {... */\n    tag_3:\n      tag_13\n      0x04\n      dup1\n      calldatasize\n      sub\n      dup2\n      add\n      swap1\n      tag_14\n      swap2\n      swap1\n      tag_15\n      jump\t// in\n    tag_14:\n      tag_16\n      jump\t// in\n    tag_13:\n      stop\n        /* \"Testing Smart Contracts with Truffle/contracts/zombiefactory.sol\":600:623  Zombie[] public zombies */\n    tag_4:\n      tag_17\n      0x04\n      dup1\n      calldatasize\n      sub\n      dup2\n      add\n      swap1\n      tag_18\n      swap2\n      swap1\n      tag_19\n      jump\t// in\n    tag_18:\n      tag_20\n      jump\t// in\n    tag_17:\n      mload(0x40)\n      tag_21\n      swap7\n      swap6\n      swap5\n      swap4\n      swap3\n      swap2\n      swap1\n      tag_22\n      jump\t// in\n    tag_21:\n      mload(0x40)\n      dup1\n      swap2\n      sub\n      swap1\n      return\n        /* \"Testing Smart Contracts with Truffle/contracts/zombiefactory.sol\":630:678  mapping(uint256 => address) public zombieToOwner */\n    tag_5:\n      tag_23\n      0x04\n      dup1\n      calldatasize\n      sub\n      dup2\n      add\n      swap1\n      tag_24\n      swap2\n      swap1\n      tag_19\n      jump\t// in\n    tag_24:\n      tag_25\n      jump\t// in\n    tag_23:\n      mload(0x40)\n      tag_26\n      swap2\n      swap1\n      tag_27\n      jump\t// in\n    tag_26:\n      mload(0x40)\n      dup1\n      swap2\n      sub\n      swap1\n      return\n        /* \"Testing Smart Contracts with Truffle/contracts/zombiefeeding.sol\":747:874  function setKittyContractAddress(address _address) external onlyOwner {... */\n    tag_6:\n      tag_28\n      0x04\n      dup1\n      calldatasize\n      sub\n      dup2\n      add\n      swap1\n      tag_29\n      swap2\n      swap1\n      tag_30\n      jump\t// in\n    tag_29:\n      tag_31\n      jump\t// in\n    tag_28:\n      stop\n        /* \"Testing Smart Contracts with Truffle/contracts/ownable.sol\":1408:1545  function renounceOwnership() public onlyOwner {... */\n    tag_7:\n      tag_32\n      tag_33\n      jump\t// in\n    tag_32:\n      stop\n        /* \"Testing Smart Contracts with Truffle/contracts/zombiefactory.sol\":1344:1596  function createRandomZombie(string memory _name) public {... */\n    tag_8:\n      tag_34\n      0x04\n      dup1\n      calldatasize\n      sub\n      dup2\n      add\n      swap1\n      tag_35\n      swap2\n      swap1\n      tag_36\n      jump\t// in\n    tag_35:\n      tag_37\n      jump\t// in\n    tag_34:\n      stop\n        /* \"Testing Smart Contracts with Truffle/contracts/ownable.sol\":720:797  function owner() public view returns (address) {... */\n    tag_9:\n      tag_38\n      tag_39\n      jump\t// in\n    tag_38:\n      mload(0x40)\n      tag_40\n      swap2\n      swap1\n      tag_27\n      jump\t// in\n    tag_40:\n      mload(0x40)\n      dup1\n      swap2\n      sub\n      swap1\n      return\n        /* \"Testing Smart Contracts with Truffle/contracts/ownable.sol\":1040:1130  function isOwner() public view returns (bool) {... */\n    tag_10:\n      tag_41\n      tag_42\n      jump\t// in\n    tag_41:\n      mload(0x40)\n      tag_43\n      swap2\n      swap1\n      tag_44\n      jump\t// in\n    tag_43:\n      mload(0x40)\n      dup1\n      swap2\n      sub\n      swap1\n      return\n        /* \"Testing Smart Contracts with Truffle/contracts/ownable.sol\":1716:1823  function transferOwnership(address newOwner) public onlyOwner {... */\n    tag_11:\n      tag_45\n      0x04\n      dup1\n      calldatasize\n      sub\n      dup2\n      add\n      swap1\n      tag_46\n      swap2\n      swap1\n      tag_30\n      jump\t// in\n    tag_46:\n      tag_47\n      jump\t// in\n    tag_45:\n      stop\n        /* \"Testing Smart Contracts with Truffle/contracts/zombiefeeding.sol\":1782:2008  function feedOnKitty(uint256 _zombieId, uint256 _kittyId) public {... */\n    tag_16:\n        /* \"Testing Smart Contracts with Truffle/contracts/zombiefeeding.sol\":1857:1873  uint256 kittyDna */\n      0x00\n        /* \"Testing Smart Contracts with Truffle/contracts/zombiefeeding.sol\":1914:1927  kittyContract */\n      0x07\n      0x00\n      swap1\n      sload\n      swap1\n      0x0100\n      exp\n      swap1\n      div\n      0xffffffffffffffffffffffffffffffffffffffff\n      and\n        /* \"Testing Smart Contracts with Truffle/contracts/zombiefeeding.sol\":1914:1936  kittyContract.getKitty */\n      0xffffffffffffffffffffffffffffffffffffffff\n      and\n      0xe98b7f4d\n        /* \"Testing Smart Contracts with Truffle/contracts/zombiefeeding.sol\":1937:1945  _kittyId */\n      dup4\n        /* \"Testing Smart Contracts with Truffle/contracts/zombiefeeding.sol\":1914:1946  kittyContract.getKitty(_kittyId) */\n      mload(0x40)\n      dup3\n      0xffffffff\n      and\n      0xe0\n      shl\n      dup2\n      mstore\n      0x04\n      add\n      tag_49\n      swap2\n      swap1\n      tag_50\n      jump\t// in\n    tag_49:\n      0x0140\n      mload(0x40)\n      dup1\n      dup4\n      sub\n      dup2\n      0x00\n      dup8\n      dup1\n      extcodesize\n      iszero\n      dup1\n      iszero\n      tag_51\n      jumpi\n      0x00\n      dup1\n      revert\n    tag_51:\n      pop\n      gas\n      call\n      iszero\n      dup1\n      iszero\n      tag_53\n      jumpi\n      returndatasize\n      0x00\n      dup1\n      returndatacopy\n      revert(0x00, returndatasize)\n    tag_53:\n      pop\n      pop\n      pop\n      pop\n      mload(0x40)\n      returndatasize\n      not(0x1f)\n      0x1f\n      dup3\n      add\n      and\n      dup3\n      add\n      dup1\n      0x40\n      mstore\n      pop\n      dup2\n      add\n      swap1\n      tag_54\n      swap2\n      swap1\n      tag_55\n      jump\t// in\n    tag_54:\n        /* \"Testing Smart Contracts with Truffle/contracts/zombiefeeding.sol\":1883:1946  (, , , , , , , , , kittyDna) = kittyContract.getKitty(_kittyId) */\n      swap1\n      swap2\n      swap3\n      swap4\n      swap5\n      swap6\n      swap7\n      swap8\n      swap9\n      pop\n      swap1\n      swap2\n      swap3\n      swap4\n      swap5\n      swap6\n      swap7\n      swap8\n      pop\n      swap1\n      swap2\n      swap3\n      swap4\n      swap5\n      swap6\n      swap7\n      pop\n      swap1\n      swap2\n      swap3\n      swap4\n      swap5\n      swap6\n      pop\n      swap1\n      swap2\n      swap3\n      swap4\n      swap5\n      pop\n      swap1\n      swap2\n      swap3\n      swap4\n      pop\n      swap1\n      swap2\n      swap3\n      pop\n      swap1\n      swap2\n      pop\n      swap1\n      pop\n      dup1\n      swap2\n      pop\n      pop\n        /* \"Testing Smart Contracts with Truffle/contracts/zombiefeeding.sol\":1956:2001  feedAndMultiply(_zombieId, kittyDna, \"kitty\") */\n      tag_56\n        /* \"Testing Smart Contracts with Truffle/contracts/zombiefeeding.sol\":1972:1981  _zombieId */\n      dup4\n        /* \"Testing Smart Contracts with Truffle/contracts/zombiefeeding.sol\":1983:1991  kittyDna */\n      dup3\n        /* \"Testing Smart Contracts with Truffle/contracts/zombiefeeding.sol\":1956:2001  feedAndMultiply(_zombieId, kittyDna, \"kitty\") */\n      mload(0x40)\n      dup1\n      0x40\n      add\n      0x40\n      mstore\n      dup1\n      0x05\n      dup2\n      mstore\n      0x20\n      add\n      0x6b69747479000000000000000000000000000000000000000000000000000000\n      dup2\n      mstore\n      pop\n        /* \"Testing Smart Contracts with Truffle/contracts/zombiefeeding.sol\":1956:1971  feedAndMultiply */\n      tag_57\n        /* \"Testing Smart Contracts with Truffle/contracts/zombiefeeding.sol\":1956:2001  feedAndMultiply(_zombieId, kittyDna, \"kitty\") */\n      jump\t// in\n    tag_56:\n        /* \"Testing Smart Contracts with Truffle/contracts/zombiefeeding.sol\":1847:2008  {... */\n      pop\n        /* \"Testing Smart Contracts with Truffle/contracts/zombiefeeding.sol\":1782:2008  function feedOnKitty(uint256 _zombieId, uint256 _kittyId) public {... */\n      pop\n      pop\n      jump\t// out\n        /* \"Testing Smart Contracts with Truffle/contracts/zombiefactory.sol\":600:623  Zombie[] public zombies */\n    tag_20:\n      0x04\n      dup2\n      dup2\n      sload\n      dup2\n      lt\n      tag_58\n      jumpi\n      0x00\n      dup1\n      revert\n    tag_58:\n      swap1\n      0x00\n      mstore\n      keccak256(0x00, 0x20)\n      swap1\n      0x03\n      mul\n      add\n      0x00\n      swap2\n      pop\n      swap1\n      pop\n      dup1\n      0x00\n      add\n      dup1\n      sload\n      tag_60\n      swap1\n      tag_61\n      jump\t// in\n    tag_60:\n      dup1\n      0x1f\n      add\n      0x20\n      dup1\n      swap2\n      div\n      mul\n      0x20\n      add\n      mload(0x40)\n      swap1\n      dup2\n      add\n      0x40\n      mstore\n      dup1\n      swap3\n      swap2\n      swap1\n      dup2\n      dup2\n      mstore\n      0x20\n      add\n      dup3\n      dup1\n      sload\n      tag_62\n      swap1\n      tag_61\n      jump\t// in\n    tag_62:\n      dup1\n      iszero\n      tag_63\n      jumpi\n      dup1\n      0x1f\n      lt\n      tag_64\n      jumpi\n      0x0100\n      dup1\n      dup4\n      sload\n      div\n      mul\n      dup4\n      mstore\n      swap2\n      0x20\n      add\n      swap2\n      jump(tag_63)\n    tag_64:\n      dup3\n      add\n      swap2\n      swap1\n      0x00\n      mstore\n      keccak256(0x00, 0x20)\n      swap1\n    tag_65:\n      dup2\n      sload\n      dup2\n      mstore\n      swap1\n      0x01\n      add\n      swap1\n      0x20\n      add\n      dup1\n      dup4\n      gt\n      tag_65\n      jumpi\n      dup3\n      swap1\n      sub\n      0x1f\n      and\n      dup3\n      add\n      swap2\n    tag_63:\n      pop\n      pop\n      pop\n      pop\n      pop\n      swap1\n      dup1\n      0x01\n      add\n      sload\n      swap1\n      dup1\n      0x02\n      add\n      0x00\n      swap1\n      sload\n      swap1\n      0x0100\n      exp\n      swap1\n      div\n      0xffffffff\n      and\n      swap1\n      dup1\n      0x02\n      add\n      0x04\n      swap1\n      sload\n      swap1\n      0x0100\n      exp\n      swap1\n      div\n      0xffffffff\n      and\n      swap1\n      dup1\n      0x02\n      add\n      0x08\n      swap1\n      sload\n      swap1\n      0x0100\n      exp\n      swap1\n      div\n      0xffff\n      and\n      swap1\n      dup1\n      0x02\n      add\n      0x0a\n      swap1\n      sload\n      swap1\n      0x0100\n      exp\n      swap1\n      div\n      0xffff\n      and\n      swap1\n      pop\n      dup7\n      jump\t// out\n        /* \"Testing Smart Contracts with Truffle/contracts/zombiefactory.sol\":630:678  mapping(uint256 => address) public zombieToOwner */\n    tag_25:\n      mstore(0x20, 0x05)\n      dup1\n      0x00\n      mstore\n      keccak256(0x00, 0x40)\n      0x00\n      swap2\n      pop\n      sload\n      swap1\n      0x0100\n      exp\n      swap1\n      div\n      0xffffffffffffffffffffffffffffffffffffffff\n      and\n      dup2\n      jump\t// out\n        /* \"Testing Smart Contracts with Truffle/contracts/zombiefeeding.sol\":747:874  function setKittyContractAddress(address _address) external onlyOwner {... */\n    tag_31:\n        /* \"Testing Smart Contracts with Truffle/contracts/ownable.sol\":924:933  isOwner() */\n      tag_67\n        /* \"Testing Smart Contracts with Truffle/contracts/ownable.sol\":924:931  isOwner */\n      tag_42\n        /* \"Testing Smart Contracts with Truffle/contracts/ownable.sol\":924:933  isOwner() */\n      jump\t// in\n    tag_67:\n        /* \"Testing Smart Contracts with Truffle/contracts/ownable.sol\":916:934  require(isOwner()) */\n      tag_68\n      jumpi\n      0x00\n      dup1\n      revert\n    tag_68:\n        /* \"Testing Smart Contracts with Truffle/contracts/zombiefeeding.sol\":858:866  _address */\n      dup1\n        /* \"Testing Smart Contracts with Truffle/contracts/zombiefeeding.sol\":827:840  kittyContract */\n      0x07\n      0x00\n        /* \"Testing Smart Contracts with Truffle/contracts/zombiefeeding.sol\":827:867  kittyContract = KittyInterface(_address) */\n      0x0100\n      exp\n      dup2\n      sload\n      dup2\n      0xffffffffffffffffffffffffffffffffffffffff\n      mul\n      not\n      and\n      swap1\n      dup4\n      0xffffffffffffffffffffffffffffffffffffffff\n      and\n      mul\n      or\n      swap1\n      sstore\n      pop\n        /* \"Testing Smart Contracts with Truffle/contracts/zombiefeeding.sol\":747:874  function setKittyContractAddress(address _address) external onlyOwner {... */\n      pop\n      jump\t// out\n        /* \"Testing Smart Contracts with Truffle/contracts/ownable.sol\":1408:1545  function renounceOwnership() public onlyOwner {... */\n    tag_33:\n        /* \"Testing Smart Contracts with Truffle/contracts/ownable.sol\":924:933  isOwner() */\n      tag_71\n        /* \"Testing Smart Contracts with Truffle/contracts/ownable.sol\":924:931  isOwner */\n      tag_42\n        /* \"Testing Smart Contracts with Truffle/contracts/ownable.sol\":924:933  isOwner() */\n      jump\t// in\n    tag_71:\n        /* \"Testing Smart Contracts with Truffle/contracts/ownable.sol\":916:934  require(isOwner()) */\n      tag_72\n      jumpi\n      0x00\n      dup1\n      revert\n    tag_72:\n        /* \"Testing Smart Contracts with Truffle/contracts/ownable.sol\":1506:1507  0 */\n      0x00\n        /* \"Testing Smart Contracts with Truffle/contracts/ownable.sol\":1469:1509  OwnershipTransferred(_owner, address(0)) */\n      0xffffffffffffffffffffffffffffffffffffffff\n      and\n        /* \"Testing Smart Contracts with Truffle/contracts/ownable.sol\":1490:1496  _owner */\n      0x00\n      dup1\n      sload\n      swap1\n      0x0100\n      exp\n      swap1\n      div\n      0xffffffffffffffffffffffffffffffffffffffff\n      and\n        /* \"Testing Smart Contracts with Truffle/contracts/ownable.sol\":1469:1509  OwnershipTransferred(_owner, address(0)) */\n      0xffffffffffffffffffffffffffffffffffffffff\n      and\n      0x8be0079c531659141344cd1fd0a4f28419497f9722a3daafe3b4186f6b6457e0\n      mload(0x40)\n      mload(0x40)\n      dup1\n      swap2\n      sub\n      swap1\n      log3\n        /* \"Testing Smart Contracts with Truffle/contracts/ownable.sol\":1536:1537  0 */\n      0x00\n        /* \"Testing Smart Contracts with Truffle/contracts/ownable.sol\":1519:1525  _owner */\n      dup1\n      0x00\n        /* \"Testing Smart Contracts with Truffle/contracts/ownable.sol\":1519:1538  _owner = address(0) */\n      0x0100\n      exp\n      dup2\n      sload\n      dup2\n      0xffffffffffffffffffffffffffffffffffffffff\n      mul\n      not\n      and\n      swap1\n      dup4\n      0xffffffffffffffffffffffffffffffffffffffff\n      and\n      mul\n      or\n      swap1\n      sstore\n      pop\n        /* \"Testing Smart Contracts with Truffle/contracts/ownable.sol\":1408:1545  function renounceOwnership() public onlyOwner {... */\n      jump\t// out\n        /* \"Testing Smart Contracts with Truffle/contracts/zombiefactory.sol\":1344:1596  function createRandomZombie(string memory _name) public {... */\n    tag_37:\n        /* \"Testing Smart Contracts with Truffle/contracts/zombiefactory.sol\":1450:1451  0 */\n      0x00\n        /* \"Testing Smart Contracts with Truffle/contracts/zombiefactory.sol\":1418:1434  ownerZombieCount */\n      0x06\n        /* \"Testing Smart Contracts with Truffle/contracts/zombiefactory.sol\":1418:1446  ownerZombieCount[msg.sender] */\n      0x00\n        /* \"Testing Smart Contracts with Truffle/contracts/zombiefactory.sol\":1435:1445  msg.sender */\n      caller\n        /* \"Testing Smart Contracts with Truffle/contracts/zombiefactory.sol\":1418:1446  ownerZombieCount[msg.sender] */\n      0xffffffffffffffffffffffffffffffffffffffff\n      and\n      0xffffffffffffffffffffffffffffffffffffffff\n      and\n      dup2\n      mstore\n      0x20\n      add\n      swap1\n      dup2\n      mstore\n      0x20\n      add\n      0x00\n      keccak256\n      sload\n        /* \"Testing Smart Contracts with Truffle/contracts/zombiefactory.sol\":1418:1451  ownerZombieCount[msg.sender] == 0 */\n      eq\n        /* \"Testing Smart Contracts with Truffle/contracts/zombiefactory.sol\":1410:1452  require(ownerZombieCount[msg.sender] == 0) */\n      tag_75\n      jumpi\n      0x00\n      dup1\n      revert\n    tag_75:\n        /* \"Testing Smart Contracts with Truffle/contracts/zombiefactory.sol\":1462:1477  uint256 randDna */\n      0x00\n        /* \"Testing Smart Contracts with Truffle/contracts/zombiefactory.sol\":1480:1505  _generateRandomDna(_name) */\n      tag_76\n        /* \"Testing Smart Contracts with Truffle/contracts/zombiefactory.sol\":1499:1504  _name */\n      dup3\n        /* \"Testing Smart Contracts with Truffle/contracts/zombiefactory.sol\":1480:1498  _generateRandomDna */\n      tag_77\n        /* \"Testing Smart Contracts with Truffle/contracts/zombiefactory.sol\":1480:1505  _generateRandomDna(_name) */\n      jump\t// in\n    tag_76:\n        /* \"Testing Smart Contracts with Truffle/contracts/zombiefactory.sol\":1462:1505  uint256 randDna = _generateRandomDna(_name) */\n      swap1\n      pop\n        /* \"Testing Smart Contracts with Truffle/contracts/zombiefactory.sol\":1546:1549  100 */\n      0x64\n        /* \"Testing Smart Contracts with Truffle/contracts/zombiefactory.sol\":1536:1543  randDna */\n      dup2\n        /* \"Testing Smart Contracts with Truffle/contracts/zombiefactory.sol\":1536:1549  randDna % 100 */\n      tag_78\n      swap2\n      swap1\n      tag_79\n      jump\t// in\n    tag_78:\n        /* \"Testing Smart Contracts with Truffle/contracts/zombiefactory.sol\":1525:1532  randDna */\n      dup2\n        /* \"Testing Smart Contracts with Truffle/contracts/zombiefactory.sol\":1525:1550  randDna - (randDna % 100) */\n      tag_80\n      swap2\n      swap1\n      tag_81\n      jump\t// in\n    tag_80:\n        /* \"Testing Smart Contracts with Truffle/contracts/zombiefactory.sol\":1515:1550  randDna = randDna - (randDna % 100) */\n      swap1\n      pop\n        /* \"Testing Smart Contracts with Truffle/contracts/zombiefactory.sol\":1560:1589  _createZombie(_name, randDna) */\n      tag_82\n        /* \"Testing Smart Contracts with Truffle/contracts/zombiefactory.sol\":1574:1579  _name */\n      dup3\n        /* \"Testing Smart Contracts with Truffle/contracts/zombiefactory.sol\":1581:1588  randDna */\n      dup3\n        /* \"Testing Smart Contracts with Truffle/contracts/zombiefactory.sol\":1560:1573  _createZombie */\n      tag_83\n        /* \"Testing Smart Contracts with Truffle/contracts/zombiefactory.sol\":1560:1589  _createZombie(_name, randDna) */\n      jump\t// in\n    tag_82:\n        /* \"Testing Smart Contracts with Truffle/contracts/zombiefactory.sol\":1400:1596  {... */\n      pop\n        /* \"Testing Smart Contracts with Truffle/contracts/zombiefactory.sol\":1344:1596  function createRandomZombie(string memory _name) public {... */\n      pop\n      jump\t// out\n        /* \"Testing Smart Contracts with Truffle/contracts/ownable.sol\":720:797  function owner() public view returns (address) {... */\n    tag_39:\n        /* \"Testing Smart Contracts with Truffle/contracts/ownable.sol\":758:765  address */\n      0x00\n        /* \"Testing Smart Contracts with Truffle/contracts/ownable.sol\":784:790  _owner */\n      dup1\n      0x00\n      swap1\n      sload\n      swap1\n      0x0100\n      exp\n      swap1\n      div\n      0xffffffffffffffffffffffffffffffffffffffff\n      and\n        /* \"Testing Smart Contracts with Truffle/contracts/ownable.sol\":777:790  return _owner */\n      swap1\n      pop\n        /* \"Testing Smart Contracts with Truffle/contracts/ownable.sol\":720:797  function owner() public view returns (address) {... */\n      swap1\n      jump\t// out\n        /* \"Testing Smart Contracts with Truffle/contracts/ownable.sol\":1040:1130  function isOwner() public view returns (bool) {... */\n    tag_42:\n        /* \"Testing Smart Contracts with Truffle/contracts/ownable.sol\":1080:1084  bool */\n      0x00\n        /* \"Testing Smart Contracts with Truffle/contracts/ownable.sol\":1117:1123  _owner */\n      dup1\n      0x00\n      swap1\n      sload\n      swap1\n      0x0100\n      exp\n      swap1\n      div\n      0xffffffffffffffffffffffffffffffffffffffff\n      and\n        /* \"Testing Smart Contracts with Truffle/contracts/ownable.sol\":1103:1123  msg.sender == _owner */\n      0xffffffffffffffffffffffffffffffffffffffff\n      and\n        /* \"Testing Smart Contracts with Truffle/contracts/ownable.sol\":1103:1113  msg.sender */\n      caller\n        /* \"Testing Smart Contracts with Truffle/contracts/ownable.sol\":1103:1123  msg.sender == _owner */\n      0xffffffffffffffffffffffffffffffffffffffff\n      and\n      eq\n        /* \"Testing Smart Contracts with Truffle/contracts/ownable.sol\":1096:1123  return msg.sender == _owner */\n      swap1\n      pop\n        /* \"Testing Smart Contracts with Truffle/contracts/ownable.sol\":1040:1130  function isOwner() public view returns (bool) {... */\n      swap1\n      jump\t// out\n        /* \"Testing Smart Contracts with Truffle/contracts/ownable.sol\":1716:1823  function transferOwnership(address newOwner) public onlyOwner {... */\n    tag_47:\n        /* \"Testing Smart Contracts with Truffle/contracts/ownable.sol\":924:933  isOwner() */\n      tag_87\n        /* \"Testing Smart Contracts with Truffle/contracts/ownable.sol\":924:931  isOwner */\n      tag_42\n        /* \"Testing Smart Contracts with Truffle/contracts/ownable.sol\":924:933  isOwner() */\n      jump\t// in\n    tag_87:\n        /* \"Testing Smart Contracts with Truffle/contracts/ownable.sol\":916:934  require(isOwner()) */\n      tag_88\n      jumpi\n      0x00\n      dup1\n      revert\n    tag_88:\n        /* \"Testing Smart Contracts with Truffle/contracts/ownable.sol\":1788:1816  _transferOwnership(newOwner) */\n      tag_90\n        /* \"Testing Smart Contracts with Truffle/contracts/ownable.sol\":1807:1815  newOwner */\n      dup2\n        /* \"Testing Smart Contracts with Truffle/contracts/ownable.sol\":1788:1806  _transferOwnership */\n      tag_91\n        /* \"Testing Smart Contracts with Truffle/contracts/ownable.sol\":1788:1816  _transferOwnership(newOwner) */\n      jump\t// in\n    tag_90:\n        /* \"Testing Smart Contracts with Truffle/contracts/ownable.sol\":1716:1823  function transferOwnership(address newOwner) public onlyOwner {... */\n      pop\n      jump\t// out\n        /* \"Testing Smart Contracts with Truffle/contracts/zombiefeeding.sol\":1159:1776  function feedAndMultiply(... */\n    tag_57:\n        /* \"Testing Smart Contracts with Truffle/contracts/zombiefeeding.sol\":1298:1307  _zombieId */\n      dup3\n        /* \"Testing Smart Contracts with Truffle/contracts/zombiefeeding.sol\":698:711  zombieToOwner */\n      0x05\n        /* \"Testing Smart Contracts with Truffle/contracts/zombiefeeding.sol\":698:722  zombieToOwner[_zombieId] */\n      0x00\n        /* \"Testing Smart Contracts with Truffle/contracts/zombiefeeding.sol\":712:721  _zombieId */\n      dup3\n        /* \"Testing Smart Contracts with Truffle/contracts/zombiefeeding.sol\":698:722  zombieToOwner[_zombieId] */\n      dup2\n      mstore\n      0x20\n      add\n      swap1\n      dup2\n      mstore\n      0x20\n      add\n      0x00\n      keccak256\n      0x00\n      swap1\n      sload\n      swap1\n      0x0100\n      exp\n      swap1\n      div\n      0xffffffffffffffffffffffffffffffffffffffff\n      and\n        /* \"Testing Smart Contracts with Truffle/contracts/zombiefeeding.sol\":684:722  msg.sender == zombieToOwner[_zombieId] */\n      0xffffffffffffffffffffffffffffffffffffffff\n      and\n        /* \"Testing Smart Contracts with Truffle/contracts/zombiefeeding.sol\":684:694  msg.sender */\n      caller\n        /* \"Testing Smart Contracts with Truffle/contracts/zombiefeeding.sol\":684:722  msg.sender == zombieToOwner[_zombieId] */\n      0xffffffffffffffffffffffffffffffffffffffff\n      and\n      eq\n        /* \"Testing Smart Contracts with Truffle/contracts/zombiefeeding.sol\":676:723  require(msg.sender == zombieToOwner[_zombieId]) */\n      tag_93\n      jumpi\n      0x00\n      dup1\n      revert\n    tag_93:\n        /* \"Testing Smart Contracts with Truffle/contracts/zombiefeeding.sol\":1319:1342  Zombie storage myZombie */\n      0x00\n        /* \"Testing Smart Contracts with Truffle/contracts/zombiefeeding.sol\":1345:1352  zombies */\n      0x04\n        /* \"Testing Smart Contracts with Truffle/contracts/zombiefeeding.sol\":1353:1362  _zombieId */\n      dup6\n        /* \"Testing Smart Contracts with Truffle/contracts/zombiefeeding.sol\":1345:1363  zombies[_zombieId] */\n      dup2\n      sload\n      dup2\n      lt\n      tag_95\n      jumpi\n      tag_96\n      tag_97\n      jump\t// in\n    tag_96:\n    tag_95:\n      swap1\n      0x00\n      mstore\n      keccak256(0x00, 0x20)\n      swap1\n      0x03\n      mul\n      add\n        /* \"Testing Smart Contracts with Truffle/contracts/zombiefeeding.sol\":1319:1363  Zombie storage myZombie = zombies[_zombieId] */\n      swap1\n      pop\n        /* \"Testing Smart Contracts with Truffle/contracts/zombiefeeding.sol\":1381:1399  _isReady(myZombie) */\n      tag_99\n        /* \"Testing Smart Contracts with Truffle/contracts/zombiefeeding.sol\":1390:1398  myZombie */\n      dup2\n        /* \"Testing Smart Contracts with Truffle/contracts/zombiefeeding.sol\":1381:1389  _isReady */\n      tag_100\n        /* \"Testing Smart Contracts with Truffle/contracts/zombiefeeding.sol\":1381:1399  _isReady(myZombie) */\n      jump\t// in\n    tag_99:\n        /* \"Testing Smart Contracts with Truffle/contracts/zombiefeeding.sol\":1373:1400  require(_isReady(myZombie)) */\n      tag_101\n      jumpi\n      0x00\n      dup1\n      revert\n    tag_101:\n        /* \"Testing Smart Contracts with Truffle/contracts/zombiefeeding.sol\":1436:1446  dnaModulus */\n      sload(0x02)\n        /* \"Testing Smart Contracts with Truffle/contracts/zombiefeeding.sol\":1423:1433  _targetDna */\n      dup5\n        /* \"Testing Smart Contracts with Truffle/contracts/zombiefeeding.sol\":1423:1446  _targetDna % dnaModulus */\n      tag_102\n      swap2\n      swap1\n      tag_79\n      jump\t// in\n    tag_102:\n        /* \"Testing Smart Contracts with Truffle/contracts/zombiefeeding.sol\":1410:1446  _targetDna = _targetDna % dnaModulus */\n      swap4\n      pop\n        /* \"Testing Smart Contracts with Truffle/contracts/zombiefeeding.sol\":1456:1470  uint256 newDna */\n      0x00\n        /* \"Testing Smart Contracts with Truffle/contracts/zombiefeeding.sol\":1503:1504  2 */\n      0x02\n        /* \"Testing Smart Contracts with Truffle/contracts/zombiefeeding.sol\":1489:1499  _targetDna */\n      dup6\n        /* \"Testing Smart Contracts with Truffle/contracts/zombiefeeding.sol\":1474:1482  myZombie */\n      dup4\n        /* \"Testing Smart Contracts with Truffle/contracts/zombiefeeding.sol\":1474:1486  myZombie.dna */\n      0x01\n      add\n      sload\n        /* \"Testing Smart Contracts with Truffle/contracts/zombiefeeding.sol\":1474:1499  myZombie.dna + _targetDna */\n      tag_103\n      swap2\n      swap1\n      tag_104\n      jump\t// in\n    tag_103:\n        /* \"Testing Smart Contracts with Truffle/contracts/zombiefeeding.sol\":1473:1504  (myZombie.dna + _targetDna) / 2 */\n      tag_105\n      swap2\n      swap1\n      tag_106\n      jump\t// in\n    tag_105:\n        /* \"Testing Smart Contracts with Truffle/contracts/zombiefeeding.sol\":1456:1504  uint256 newDna = (myZombie.dna + _targetDna) / 2 */\n      swap1\n      pop\n        /* \"Testing Smart Contracts with Truffle/contracts/zombiefeeding.sol\":1594:1619  abi.encodePacked(\"kitty\") */\n      add(0x20, mload(0x40))\n      tag_107\n      swap1\n      tag_108\n      jump\t// in\n    tag_107:\n      mload(0x40)\n      0x20\n      dup2\n      dup4\n      sub\n      sub\n      dup2\n      mstore\n      swap1\n      0x40\n      mstore\n        /* \"Testing Smart Contracts with Truffle/contracts/zombiefeeding.sol\":1584:1620  keccak256(abi.encodePacked(\"kitty\")) */\n      dup1\n      mload\n      swap1\n      0x20\n      add\n      keccak256\n        /* \"Testing Smart Contracts with Truffle/contracts/zombiefeeding.sol\":1558:1566  _species */\n      dup5\n        /* \"Testing Smart Contracts with Truffle/contracts/zombiefeeding.sol\":1541:1567  abi.encodePacked(_species) */\n      add(0x20, mload(0x40))\n      tag_109\n      swap2\n      swap1\n      tag_110\n      jump\t// in\n    tag_109:\n      mload(0x40)\n      0x20\n      dup2\n      dup4\n      sub\n      sub\n      dup2\n      mstore\n      swap1\n      0x40\n      mstore\n        /* \"Testing Smart Contracts with Truffle/contracts/zombiefeeding.sol\":1531:1568  keccak256(abi.encodePacked(_species)) */\n      dup1\n      mload\n      swap1\n      0x20\n      add\n      keccak256\n        /* \"Testing Smart Contracts with Truffle/contracts/zombiefeeding.sol\":1531:1620  keccak256(abi.encodePacked(_species)) ==... */\n      eq\n        /* \"Testing Smart Contracts with Truffle/contracts/zombiefeeding.sol\":1514:1693  if (... */\n      iszero\n      tag_111\n      jumpi\n        /* \"Testing Smart Contracts with Truffle/contracts/zombiefeeding.sol\":1680:1682  99 */\n      0x63\n        /* \"Testing Smart Contracts with Truffle/contracts/zombiefeeding.sol\":1673:1676  100 */\n      0x64\n        /* \"Testing Smart Contracts with Truffle/contracts/zombiefeeding.sol\":1664:1670  newDna */\n      dup3\n        /* \"Testing Smart Contracts with Truffle/contracts/zombiefeeding.sol\":1664:1676  newDna % 100 */\n      tag_112\n      swap2\n      swap1\n      tag_79\n      jump\t// in\n    tag_112:\n        /* \"Testing Smart Contracts with Truffle/contracts/zombiefeeding.sol\":1654:1660  newDna */\n      dup3\n        /* \"Testing Smart Contracts with Truffle/contracts/zombiefeeding.sol\":1654:1677  newDna - (newDna % 100) */\n      tag_113\n      swap2\n      swap1\n      tag_81\n      jump\t// in\n    tag_113:\n        /* \"Testing Smart Contracts with Truffle/contracts/zombiefeeding.sol\":1654:1682  newDna - (newDna % 100) + 99 */\n      tag_114\n      swap2\n      swap1\n      tag_104\n      jump\t// in\n    tag_114:\n        /* \"Testing Smart Contracts with Truffle/contracts/zombiefeeding.sol\":1645:1682  newDna = newDna - (newDna % 100) + 99 */\n      swap1\n      pop\n        /* \"Testing Smart Contracts with Truffle/contracts/zombiefeeding.sol\":1514:1693  if (... */\n    tag_111:\n        /* \"Testing Smart Contracts with Truffle/contracts/zombiefeeding.sol\":1702:1733  _createZombie(\"NoName\", newDna) */\n      tag_115\n      mload(0x40)\n      dup1\n      0x40\n      add\n      0x40\n      mstore\n      dup1\n      0x06\n      dup2\n      mstore\n      0x20\n      add\n      0x4e6f4e616d650000000000000000000000000000000000000000000000000000\n      dup2\n      mstore\n      pop\n        /* \"Testing Smart Contracts with Truffle/contracts/zombiefeeding.sol\":1726:1732  newDna */\n      dup3\n        /* \"Testing Smart Contracts with Truffle/contracts/zombiefeeding.sol\":1702:1715  _createZombie */\n      tag_83\n        /* \"Testing Smart Contracts with Truffle/contracts/zombiefeeding.sol\":1702:1733  _createZombie(\"NoName\", newDna) */\n      jump\t// in\n    tag_115:\n        /* \"Testing Smart Contracts with Truffle/contracts/zombiefeeding.sol\":1743:1769  _triggerCooldown(myZombie) */\n      tag_116\n        /* \"Testing Smart Contracts with Truffle/contracts/zombiefeeding.sol\":1760:1768  myZombie */\n      dup3\n        /* \"Testing Smart Contracts with Truffle/contracts/zombiefeeding.sol\":1743:1759  _triggerCooldown */\n      tag_117\n        /* \"Testing Smart Contracts with Truffle/contracts/zombiefeeding.sol\":1743:1769  _triggerCooldown(myZombie) */\n      jump\t// in\n    tag_116:\n        /* \"Testing Smart Contracts with Truffle/contracts/zombiefeeding.sol\":1309:1776  {... */\n      pop\n      pop\n        /* \"Testing Smart Contracts with Truffle/contracts/zombiefeeding.sol\":1159:1776  function feedAndMultiply(... */\n      pop\n      pop\n      pop\n      pop\n      jump\t// out\n        /* \"Testing Smart Contracts with Truffle/contracts/zombiefactory.sol\":1123:1338  function _generateRandomDna(string memory _str)... */\n    tag_77:\n        /* \"Testing Smart Contracts with Truffle/contracts/zombiefactory.sol\":1217:1224  uint256 */\n      0x00\n        /* \"Testing Smart Contracts with Truffle/contracts/zombiefactory.sol\":1240:1252  uint256 rand */\n      dup1\n        /* \"Testing Smart Contracts with Truffle/contracts/zombiefactory.sol\":1290:1294  _str */\n      dup3\n        /* \"Testing Smart Contracts with Truffle/contracts/zombiefactory.sol\":1273:1295  abi.encodePacked(_str) */\n      add(0x20, mload(0x40))\n      tag_119\n      swap2\n      swap1\n      tag_110\n      jump\t// in\n    tag_119:\n      mload(0x40)\n      0x20\n      dup2\n      dup4\n      sub\n      sub\n      dup2\n      mstore\n      swap1\n      0x40\n      mstore\n        /* \"Testing Smart Contracts with Truffle/contracts/zombiefactory.sol\":1263:1296  keccak256(abi.encodePacked(_str)) */\n      dup1\n      mload\n      swap1\n      0x20\n      add\n      keccak256\n        /* \"Testing Smart Contracts with Truffle/contracts/zombiefactory.sol\":1255:1297  uint256(keccak256(abi.encodePacked(_str))) */\n      0x00\n      shr\n        /* \"Testing Smart Contracts with Truffle/contracts/zombiefactory.sol\":1240:1297  uint256 rand = uint256(keccak256(abi.encodePacked(_str))) */\n      swap1\n      pop\n        /* \"Testing Smart Contracts with Truffle/contracts/zombiefactory.sol\":1321:1331  dnaModulus */\n      sload(0x02)\n        /* \"Testing Smart Contracts with Truffle/contracts/zombiefactory.sol\":1314:1318  rand */\n      dup2\n        /* \"Testing Smart Contracts with Truffle/contracts/zombiefactory.sol\":1314:1331  rand % dnaModulus */\n      tag_120\n      swap2\n      swap1\n      tag_79\n      jump\t// in\n    tag_120:\n        /* \"Testing Smart Contracts with Truffle/contracts/zombiefactory.sol\":1307:1331  return rand % dnaModulus */\n      swap2\n      pop\n      pop\n        /* \"Testing Smart Contracts with Truffle/contracts/zombiefactory.sol\":1123:1338  function _generateRandomDna(string memory _str)... */\n      swap2\n      swap1\n      pop\n      jump\t// out\n        /* \"Testing Smart Contracts with Truffle/contracts/zombiefactory.sol\":735:1117  function _createZombie(string memory _name, uint256 _dna) internal {... */\n    tag_83:\n        /* \"Testing Smart Contracts with Truffle/contracts/zombiefactory.sol\":812:819  zombies */\n      0x04\n        /* \"Testing Smart Contracts with Truffle/contracts/zombiefactory.sol\":838:906  Zombie(_name, _dna, 1, uint32(block.timestamp + cooldownTime), 0, 0) */\n      mload(0x40)\n      dup1\n      0xc0\n      add\n      0x40\n      mstore\n      dup1\n        /* \"Testing Smart Contracts with Truffle/contracts/zombiefactory.sol\":845:850  _name */\n      dup5\n        /* \"Testing Smart Contracts with Truffle/contracts/zombiefactory.sol\":838:906  Zombie(_name, _dna, 1, uint32(block.timestamp + cooldownTime), 0, 0) */\n      dup2\n      mstore\n      0x20\n      add\n        /* \"Testing Smart Contracts with Truffle/contracts/zombiefactory.sol\":852:856  _dna */\n      dup4\n        /* \"Testing Smart Contracts with Truffle/contracts/zombiefactory.sol\":838:906  Zombie(_name, _dna, 1, uint32(block.timestamp + cooldownTime), 0, 0) */\n      dup2\n      mstore\n      0x20\n      add\n        /* \"Testing Smart Contracts with Truffle/contracts/zombiefactory.sol\":858:859  1 */\n      0x01\n        /* \"Testing Smart Contracts with Truffle/contracts/zombiefactory.sol\":838:906  Zombie(_name, _dna, 1, uint32(block.timestamp + cooldownTime), 0, 0) */\n      0xffffffff\n      and\n      dup2\n      mstore\n      0x20\n      add\n        /* \"Testing Smart Contracts with Truffle/contracts/zombiefactory.sol\":886:898  cooldownTime */\n      sload(0x03)\n        /* \"Testing Smart Contracts with Truffle/contracts/zombiefactory.sol\":868:883  block.timestamp */\n      timestamp\n        /* \"Testing Smart Contracts with Truffle/contracts/zombiefactory.sol\":868:898  block.timestamp + cooldownTime */\n      tag_122\n      swap2\n      swap1\n      tag_104\n      jump\t// in\n    tag_122:\n        /* \"Testing Smart Contracts with Truffle/contracts/zombiefactory.sol\":838:906  Zombie(_name, _dna, 1, uint32(block.timestamp + cooldownTime), 0, 0) */\n      0xffffffff\n      and\n      dup2\n      mstore\n      0x20\n      add\n        /* \"Testing Smart Contracts with Truffle/contracts/zombiefactory.sol\":901:902  0 */\n      0x00\n        /* \"Testing Smart Contracts with Truffle/contracts/zombiefactory.sol\":838:906  Zombie(_name, _dna, 1, uint32(block.timestamp + cooldownTime), 0, 0) */\n      0xffff\n      and\n      dup2\n      mstore\n      0x20\n      add\n        /* \"Testing Smart Contracts with Truffle/contracts/zombiefactory.sol\":904:905  0 */\n      0x00\n        /* \"Testing Smart Contracts with Truffle/contracts/zombiefactory.sol\":838:906  Zombie(_name, _dna, 1, uint32(block.timestamp + cooldownTime), 0, 0) */\n      0xffff\n      and\n      dup2\n      mstore\n      pop\n        /* \"Testing Smart Contracts with Truffle/contracts/zombiefactory.sol\":812:916  zombies.push(... */\n      swap1\n      dup1\n      0x01\n      dup2\n      sload\n      add\n      dup1\n      dup3\n      sstore\n      dup1\n      swap2\n      pop\n      pop\n      0x01\n      swap1\n      sub\n      swap1\n      0x00\n      mstore\n      keccak256(0x00, 0x20)\n      swap1\n      0x03\n      mul\n      add\n      0x00\n      swap1\n      swap2\n      swap1\n      swap2\n      swap1\n      swap2\n      pop\n      0x00\n      dup3\n      add\n      mload\n      dup2\n      0x00\n      add\n      swap1\n      dup1\n      mload\n      swap1\n      0x20\n      add\n      swap1\n      tag_124\n      swap3\n      swap2\n      swap1\n      tag_125\n      jump\t// in\n    tag_124:\n      pop\n      0x20\n      dup3\n      add\n      mload\n      dup2\n      0x01\n      add\n      sstore\n      0x40\n      dup3\n      add\n      mload\n      dup2\n      0x02\n      add\n      exp(0x0100, 0x00)\n      dup2\n      sload\n      dup2\n      0xffffffff\n      mul\n      not\n      and\n      swap1\n      dup4\n      0xffffffff\n      and\n      mul\n      or\n      swap1\n      sstore\n      pop\n      0x60\n      dup3\n      add\n      mload\n      dup2\n      0x02\n      add\n      exp(0x0100, 0x04)\n      dup2\n      sload\n      dup2\n      0xffffffff\n      mul\n      not\n      and\n      swap1\n      dup4\n      0xffffffff\n      and\n      mul\n      or\n      swap1\n      sstore\n      pop\n      0x80\n      dup3\n      add\n      mload\n      dup2\n      0x02\n      add\n      exp(0x0100, 0x08)\n      dup2\n      sload\n      dup2\n      0xffff\n      mul\n      not\n      and\n      swap1\n      dup4\n      0xffff\n      and\n      mul\n      or\n      swap1\n      sstore\n      pop\n      0xa0\n      dup3\n      add\n      mload\n      dup2\n      0x02\n      add\n      exp(0x0100, 0x0a)\n      dup2\n      sload\n      dup2\n      0xffff\n      mul\n      not\n      and\n      swap1\n      dup4\n      0xffff\n      and\n      mul\n      or\n      swap1\n      sstore\n      pop\n      pop\n      pop\n        /* \"Testing Smart Contracts with Truffle/contracts/zombiefactory.sol\":926:933  uint id */\n      0x00\n        /* \"Testing Smart Contracts with Truffle/contracts/zombiefactory.sol\":952:953  1 */\n      0x01\n        /* \"Testing Smart Contracts with Truffle/contracts/zombiefactory.sol\":936:943  zombies */\n      0x04\n        /* \"Testing Smart Contracts with Truffle/contracts/zombiefactory.sol\":936:950  zombies.length */\n      dup1\n      sload\n      swap1\n      pop\n        /* \"Testing Smart Contracts with Truffle/contracts/zombiefactory.sol\":936:953  zombies.length -1 */\n      tag_126\n      swap2\n      swap1\n      tag_81\n      jump\t// in\n    tag_126:\n        /* \"Testing Smart Contracts with Truffle/contracts/zombiefactory.sol\":926:953  uint id = zombies.length -1 */\n      swap1\n      pop\n        /* \"Testing Smart Contracts with Truffle/contracts/zombiefactory.sol\":983:993  msg.sender */\n      caller\n        /* \"Testing Smart Contracts with Truffle/contracts/zombiefactory.sol\":963:976  zombieToOwner */\n      0x05\n        /* \"Testing Smart Contracts with Truffle/contracts/zombiefactory.sol\":963:980  zombieToOwner[id] */\n      0x00\n        /* \"Testing Smart Contracts with Truffle/contracts/zombiefactory.sol\":977:979  id */\n      dup4\n        /* \"Testing Smart Contracts with Truffle/contracts/zombiefactory.sol\":963:980  zombieToOwner[id] */\n      dup2\n      mstore\n      0x20\n      add\n      swap1\n      dup2\n      mstore\n      0x20\n      add\n      0x00\n      keccak256\n      0x00\n        /* \"Testing Smart Contracts with Truffle/contracts/zombiefactory.sol\":963:993  zombieToOwner[id] = msg.sender */\n      0x0100\n      exp\n      dup2\n      sload\n      dup2\n      0xffffffffffffffffffffffffffffffffffffffff\n      mul\n      not\n      and\n      swap1\n      dup4\n      0xffffffffffffffffffffffffffffffffffffffff\n      and\n      mul\n      or\n      swap1\n      sstore\n      pop\n        /* \"Testing Smart Contracts with Truffle/contracts/zombiefactory.sol\":1034:1069  ownerZombieCount[msg.sender].add(1) */\n      tag_127\n        /* \"Testing Smart Contracts with Truffle/contracts/zombiefactory.sol\":1067:1068  1 */\n      0x01\n        /* \"Testing Smart Contracts with Truffle/contracts/zombiefactory.sol\":1034:1050  ownerZombieCount */\n      0x06\n        /* \"Testing Smart Contracts with Truffle/contracts/zombiefactory.sol\":1034:1062  ownerZombieCount[msg.sender] */\n      0x00\n        /* \"Testing Smart Contracts with Truffle/contracts/zombiefactory.sol\":1051:1061  msg.sender */\n      caller\n        /* \"Testing Smart Contracts with Truffle/contracts/zombiefactory.sol\":1034:1062  ownerZombieCount[msg.sender] */\n      0xffffffffffffffffffffffffffffffffffffffff\n      and\n      0xffffffffffffffffffffffffffffffffffffffff\n      and\n      dup2\n      mstore\n      0x20\n      add\n      swap1\n      dup2\n      mstore\n      0x20\n      add\n      0x00\n      keccak256\n      sload\n        /* \"Testing Smart Contracts with Truffle/contracts/zombiefactory.sol\":1034:1066  ownerZombieCount[msg.sender].add */\n      tag_128\n      swap1\n        /* \"Testing Smart Contracts with Truffle/contracts/zombiefactory.sol\":1034:1069  ownerZombieCount[msg.sender].add(1) */\n      swap2\n      swap1\n      0xffffffff\n      and\n      jump\t// in\n    tag_127:\n        /* \"Testing Smart Contracts with Truffle/contracts/zombiefactory.sol\":1003:1019  ownerZombieCount */\n      0x06\n        /* \"Testing Smart Contracts with Truffle/contracts/zombiefactory.sol\":1003:1031  ownerZombieCount[msg.sender] */\n      0x00\n        /* \"Testing Smart Contracts with Truffle/contracts/zombiefactory.sol\":1020:1030  msg.sender */\n      caller\n        /* \"Testing Smart Contracts with Truffle/contracts/zombiefactory.sol\":1003:1031  ownerZombieCount[msg.sender] */\n      0xffffffffffffffffffffffffffffffffffffffff\n      and\n      0xffffffffffffffffffffffffffffffffffffffff\n      and\n      dup2\n      mstore\n      0x20\n      add\n      swap1\n      dup2\n      mstore\n      0x20\n      add\n      0x00\n      keccak256\n        /* \"Testing Smart Contracts with Truffle/contracts/zombiefactory.sol\":1003:1069  ownerZombieCount[msg.sender] = ownerZombieCount[msg.sender].add(1) */\n      dup2\n      swap1\n      sstore\n      pop\n        /* \"Testing Smart Contracts with Truffle/contracts/zombiefactory.sol\":1084:1110  NewZombie(id, _name, _dna) */\n      0x88f026aacbbecc90c18411df4b1185fd8d9be2470f1962f192bf84a27d0704b7\n        /* \"Testing Smart Contracts with Truffle/contracts/zombiefactory.sol\":1094:1096  id */\n      dup2\n        /* \"Testing Smart Contracts with Truffle/contracts/zombiefactory.sol\":1098:1103  _name */\n      dup5\n        /* \"Testing Smart Contracts with Truffle/contracts/zombiefactory.sol\":1105:1109  _dna */\n      dup5\n        /* \"Testing Smart Contracts with Truffle/contracts/zombiefactory.sol\":1084:1110  NewZombie(id, _name, _dna) */\n      mload(0x40)\n      tag_129\n      swap4\n      swap3\n      swap2\n      swap1\n      tag_130\n      jump\t// in\n    tag_129:\n      mload(0x40)\n      dup1\n      swap2\n      sub\n      swap1\n      log1\n        /* \"Testing Smart Contracts with Truffle/contracts/zombiefactory.sol\":802:1117  {... */\n      pop\n        /* \"Testing Smart Contracts with Truffle/contracts/zombiefactory.sol\":735:1117  function _createZombie(string memory _name, uint256 _dna) internal {... */\n      pop\n      pop\n      jump\t// out\n        /* \"Testing Smart Contracts with Truffle/contracts/ownable.sol\":1967:2150  function _transferOwnership(address newOwner) internal {... */\n    tag_91:\n        /* \"Testing Smart Contracts with Truffle/contracts/ownable.sol\":2060:2061  0 */\n      0x00\n        /* \"Testing Smart Contracts with Truffle/contracts/ownable.sol\":2040:2062  newOwner != address(0) */\n      0xffffffffffffffffffffffffffffffffffffffff\n      and\n        /* \"Testing Smart Contracts with Truffle/contracts/ownable.sol\":2040:2048  newOwner */\n      dup2\n        /* \"Testing Smart Contracts with Truffle/contracts/ownable.sol\":2040:2062  newOwner != address(0) */\n      0xffffffffffffffffffffffffffffffffffffffff\n      and\n      eq\n      iszero\n        /* \"Testing Smart Contracts with Truffle/contracts/ownable.sol\":2032:2063  require(newOwner != address(0)) */\n      tag_132\n      jumpi\n      0x00\n      dup1\n      revert\n    tag_132:\n        /* \"Testing Smart Contracts with Truffle/contracts/ownable.sol\":2107:2115  newOwner */\n      dup1\n        /* \"Testing Smart Contracts with Truffle/contracts/ownable.sol\":2078:2116  OwnershipTransferred(_owner, newOwner) */\n      0xffffffffffffffffffffffffffffffffffffffff\n      and\n        /* \"Testing Smart Contracts with Truffle/contracts/ownable.sol\":2099:2105  _owner */\n      0x00\n      dup1\n      sload\n      swap1\n      0x0100\n      exp\n      swap1\n      div\n      0xffffffffffffffffffffffffffffffffffffffff\n      and\n        /* \"Testing Smart Contracts with Truffle/contracts/ownable.sol\":2078:2116  OwnershipTransferred(_owner, newOwner) */\n      0xffffffffffffffffffffffffffffffffffffffff\n      and\n      0x8be0079c531659141344cd1fd0a4f28419497f9722a3daafe3b4186f6b6457e0\n      mload(0x40)\n      mload(0x40)\n      dup1\n      swap2\n      sub\n      swap1\n      log3\n        /* \"Testing Smart Contracts with Truffle/contracts/ownable.sol\":2135:2143  newOwner */\n      dup1\n        /* \"Testing Smart Contracts with Truffle/contracts/ownable.sol\":2126:2132  _owner */\n      0x00\n      dup1\n        /* \"Testing Smart Contracts with Truffle/contracts/ownable.sol\":2126:2143  _owner = newOwner */\n      0x0100\n      exp\n      dup2\n      sload\n      dup2\n      0xffffffffffffffffffffffffffffffffffffffff\n      mul\n      not\n      and\n      swap1\n      dup4\n      0xffffffffffffffffffffffffffffffffffffffff\n      and\n      mul\n      or\n      swap1\n      sstore\n      pop\n        /* \"Testing Smart Contracts with Truffle/contracts/ownable.sol\":1967:2150  function _transferOwnership(address newOwner) internal {... */\n      pop\n      jump\t// out\n        /* \"Testing Smart Contracts with Truffle/contracts/zombiefeeding.sol\":1020:1153  function _isReady(Zombie storage _zombie) internal view returns (bool) {... */\n    tag_100:\n        /* \"Testing Smart Contracts with Truffle/contracts/zombiefeeding.sol\":1085:1089  bool */\n      0x00\n        /* \"Testing Smart Contracts with Truffle/contracts/zombiefeeding.sol\":1130:1145  block.timestamp */\n      timestamp\n        /* \"Testing Smart Contracts with Truffle/contracts/zombiefeeding.sol\":1109:1116  _zombie */\n      dup3\n        /* \"Testing Smart Contracts with Truffle/contracts/zombiefeeding.sol\":1109:1126  _zombie.readyTime */\n      0x02\n      add\n      0x04\n      swap1\n      sload\n      swap1\n      0x0100\n      exp\n      swap1\n      div\n      0xffffffff\n      and\n        /* \"Testing Smart Contracts with Truffle/contracts/zombiefeeding.sol\":1109:1145  _zombie.readyTime <= block.timestamp */\n      0xffffffff\n      and\n      gt\n      iszero\n        /* \"Testing Smart Contracts with Truffle/contracts/zombiefeeding.sol\":1101:1146  return (_zombie.readyTime <= block.timestamp) */\n      swap1\n      pop\n        /* \"Testing Smart Contracts with Truffle/contracts/zombiefeeding.sol\":1020:1153  function _isReady(Zombie storage _zombie) internal view returns (bool) {... */\n      swap2\n      swap1\n      pop\n      jump\t// out\n        /* \"Testing Smart Contracts with Truffle/contracts/zombiefeeding.sol\":880:1014  function _triggerCooldown(Zombie storage _zombie) internal {... */\n    tag_117:\n        /* \"Testing Smart Contracts with Truffle/contracts/zombiefeeding.sol\":994:1006  cooldownTime */\n      sload(0x03)\n        /* \"Testing Smart Contracts with Truffle/contracts/zombiefeeding.sol\":976:991  block.timestamp */\n      timestamp\n        /* \"Testing Smart Contracts with Truffle/contracts/zombiefeeding.sol\":976:1006  block.timestamp + cooldownTime */\n      tag_135\n      swap2\n      swap1\n      tag_104\n      jump\t// in\n    tag_135:\n        /* \"Testing Smart Contracts with Truffle/contracts/zombiefeeding.sol\":949:956  _zombie */\n      dup2\n        /* \"Testing Smart Contracts with Truffle/contracts/zombiefeeding.sol\":949:966  _zombie.readyTime */\n      0x02\n      add\n      0x04\n        /* \"Testing Smart Contracts with Truffle/contracts/zombiefeeding.sol\":949:1007  _zombie.readyTime = uint32(block.timestamp + cooldownTime) */\n      0x0100\n      exp\n      dup2\n      sload\n      dup2\n      0xffffffff\n      mul\n      not\n      and\n      swap1\n      dup4\n      0xffffffff\n      and\n      mul\n      or\n      swap1\n      sstore\n      pop\n        /* \"Testing Smart Contracts with Truffle/contracts/zombiefeeding.sol\":880:1014  function _triggerCooldown(Zombie storage _zombie) internal {... */\n      pop\n      jump\t// out\n        /* \"Testing Smart Contracts with Truffle/contracts/safemath.sol\":1450:1587  function add(uint256 a, uint256 b) internal pure returns (uint256 c) {... */\n    tag_128:\n        /* \"Testing Smart Contracts with Truffle/contracts/safemath.sol\":1508:1517  uint256 c */\n      0x00\n        /* \"Testing Smart Contracts with Truffle/contracts/safemath.sol\":1537:1538  b */\n      dup2\n        /* \"Testing Smart Contracts with Truffle/contracts/safemath.sol\":1533:1534  a */\n      dup4\n        /* \"Testing Smart Contracts with Truffle/contracts/safemath.sol\":1533:1538  a + b */\n      tag_137\n      swap2\n      swap1\n      tag_104\n      jump\t// in\n    tag_137:\n        /* \"Testing Smart Contracts with Truffle/contracts/safemath.sol\":1529:1538  c = a + b */\n      swap1\n      pop\n        /* \"Testing Smart Contracts with Truffle/contracts/safemath.sol\":1560:1561  a */\n      dup3\n        /* \"Testing Smart Contracts with Truffle/contracts/safemath.sol\":1555:1556  c */\n      dup2\n        /* \"Testing Smart Contracts with Truffle/contracts/safemath.sol\":1555:1561  c >= a */\n      lt\n      iszero\n        /* \"Testing Smart Contracts with Truffle/contracts/safemath.sol\":1548:1562  assert(c >= a) */\n      tag_138\n      jumpi\n      tag_139\n      tag_140\n      jump\t// in\n    tag_139:\n    tag_138:\n        /* \"Testing Smart Contracts with Truffle/contracts/safemath.sol\":1450:1587  function add(uint256 a, uint256 b) internal pure returns (uint256 c) {... */\n      swap3\n      swap2\n      pop\n      pop\n      jump\t// out\n    tag_125:\n      dup3\n      dup1\n      sload\n      tag_141\n      swap1\n      tag_61\n      jump\t// in\n    tag_141:\n      swap1\n      0x00\n      mstore\n      keccak256(0x00, 0x20)\n      swap1\n      0x1f\n      add\n      0x20\n      swap1\n      div\n      dup2\n      add\n      swap3\n      dup3\n      tag_143\n      jumpi\n      0x00\n      dup6\n      sstore\n      jump(tag_142)\n    tag_143:\n      dup3\n      0x1f\n      lt\n      tag_144\n      jumpi\n      dup1\n      mload\n      not(0xff)\n      and\n      dup4\n      dup1\n      add\n      or\n      dup6\n      sstore\n      jump(tag_142)\n    tag_144:\n      dup3\n      dup1\n      add\n      0x01\n      add\n      dup6\n      sstore\n      dup3\n      iszero\n      tag_142\n      jumpi\n      swap2\n      dup3\n      add\n    tag_145:\n      dup3\n      dup2\n      gt\n      iszero\n      tag_146\n      jumpi\n      dup3\n      mload\n      dup3\n      sstore\n      swap2\n      0x20\n      add\n      swap2\n      swap1\n      0x01\n      add\n      swap1\n      jump(tag_145)\n    tag_146:\n    tag_142:\n      pop\n      swap1\n      pop\n      tag_147\n      swap2\n      swap1\n      tag_148\n      jump\t// in\n    tag_147:\n      pop\n      swap1\n      jump\t// out\n    tag_148:\n    tag_149:\n      dup1\n      dup3\n      gt\n      iszero\n      tag_150\n      jumpi\n      0x00\n      dup2\n      0x00\n      swap1\n      sstore\n      pop\n      0x01\n      add\n      jump(tag_149)\n    tag_150:\n      pop\n      swap1\n      jump\t// out\n        /* \"#utility.yul\":7:419   */\n    tag_152:\n        /* \"#utility.yul\":85:90   */\n      0x00\n        /* \"#utility.yul\":110:176   */\n      tag_154\n        /* \"#utility.yul\":126:175   */\n      tag_155\n        /* \"#utility.yul\":168:174   */\n      dup5\n        /* \"#utility.yul\":126:175   */\n      tag_156\n      jump\t// in\n    tag_155:\n        /* \"#utility.yul\":110:176   */\n      tag_157\n      jump\t// in\n    tag_154:\n        /* \"#utility.yul\":101:176   */\n      swap1\n      pop\n        /* \"#utility.yul\":199:205   */\n      dup3\n        /* \"#utility.yul\":192:197   */\n      dup2\n        /* \"#utility.yul\":185:206   */\n      mstore\n        /* \"#utility.yul\":237:241   */\n      0x20\n        /* \"#utility.yul\":230:235   */\n      dup2\n        /* \"#utility.yul\":226:242   */\n      add\n        /* \"#utility.yul\":275:278   */\n      dup5\n        /* \"#utility.yul\":266:272   */\n      dup5\n        /* \"#utility.yul\":261:264   */\n      dup5\n        /* \"#utility.yul\":257:273   */\n      add\n        /* \"#utility.yul\":254:279   */\n      gt\n        /* \"#utility.yul\":251:363   */\n      iszero\n      tag_158\n      jumpi\n        /* \"#utility.yul\":282:361   */\n      tag_159\n      tag_160\n      jump\t// in\n    tag_159:\n        /* \"#utility.yul\":251:363   */\n    tag_158:\n        /* \"#utility.yul\":372:413   */\n      tag_161\n        /* \"#utility.yul\":406:412   */\n      dup5\n        /* \"#utility.yul\":401:404   */\n      dup3\n        /* \"#utility.yul\":396:399   */\n      dup6\n        /* \"#utility.yul\":372:413   */\n      tag_162\n      jump\t// in\n    tag_161:\n        /* \"#utility.yul\":91:419   */\n      pop\n        /* \"#utility.yul\":7:419   */\n      swap4\n      swap3\n      pop\n      pop\n      pop\n      jump\t// out\n        /* \"#utility.yul\":425:564   */\n    tag_163:\n        /* \"#utility.yul\":471:476   */\n      0x00\n        /* \"#utility.yul\":509:515   */\n      dup2\n        /* \"#utility.yul\":496:516   */\n      calldataload\n        /* \"#utility.yul\":487:516   */\n      swap1\n      pop\n        /* \"#utility.yul\":525:558   */\n      tag_165\n        /* \"#utility.yul\":552:557   */\n      dup2\n        /* \"#utility.yul\":525:558   */\n      tag_166\n      jump\t// in\n    tag_165:\n        /* \"#utility.yul\":425:564   */\n      swap3\n      swap2\n      pop\n      pop\n      jump\t// out\n        /* \"#utility.yul\":570:707   */\n    tag_167:\n        /* \"#utility.yul\":624:629   */\n      0x00\n        /* \"#utility.yul\":655:661   */\n      dup2\n        /* \"#utility.yul\":649:662   */\n      mload\n        /* \"#utility.yul\":640:662   */\n      swap1\n      pop\n        /* \"#utility.yul\":671:701   */\n      tag_169\n        /* \"#utility.yul\":695:700   */\n      dup2\n        /* \"#utility.yul\":671:701   */\n      tag_170\n      jump\t// in\n    tag_169:\n        /* \"#utility.yul\":570:707   */\n      swap3\n      swap2\n      pop\n      pop\n      jump\t// out\n        /* \"#utility.yul\":727:1067   */\n    tag_171:\n        /* \"#utility.yul\":783:788   */\n      0x00\n        /* \"#utility.yul\":832:835   */\n      dup3\n        /* \"#utility.yul\":825:829   */\n      0x1f\n        /* \"#utility.yul\":817:823   */\n      dup4\n        /* \"#utility.yul\":813:830   */\n      add\n        /* \"#utility.yul\":809:836   */\n      slt\n        /* \"#utility.yul\":799:921   */\n      tag_173\n      jumpi\n        /* \"#utility.yul\":840:919   */\n      tag_174\n      tag_175\n      jump\t// in\n    tag_174:\n        /* \"#utility.yul\":799:921   */\n    tag_173:\n        /* \"#utility.yul\":957:963   */\n      dup2\n        /* \"#utility.yul\":944:964   */\n      calldataload\n        /* \"#utility.yul\":982:1061   */\n      tag_176\n        /* \"#utility.yul\":1057:1060   */\n      dup5\n        /* \"#utility.yul\":1049:1055   */\n      dup3\n        /* \"#utility.yul\":1042:1046   */\n      0x20\n        /* \"#utility.yul\":1034:1040   */\n      dup7\n        /* \"#utility.yul\":1030:1047   */\n      add\n        /* \"#utility.yul\":982:1061   */\n      tag_152\n      jump\t// in\n    tag_176:\n        /* \"#utility.yul\":973:1061   */\n      swap2\n      pop\n        /* \"#utility.yul\":789:1067   */\n      pop\n        /* \"#utility.yul\":727:1067   */\n      swap3\n      swap2\n      pop\n      pop\n      jump\t// out\n        /* \"#utility.yul\":1073:1212   */\n    tag_177:\n        /* \"#utility.yul\":1119:1124   */\n      0x00\n        /* \"#utility.yul\":1157:1163   */\n      dup2\n        /* \"#utility.yul\":1144:1164   */\n      calldataload\n        /* \"#utility.yul\":1135:1164   */\n      swap1\n      pop\n        /* \"#utility.yul\":1173:1206   */\n      tag_179\n        /* \"#utility.yul\":1200:1205   */\n      dup2\n        /* \"#utility.yul\":1173:1206   */\n      tag_180\n      jump\t// in\n    tag_179:\n        /* \"#utility.yul\":1073:1212   */\n      swap3\n      swap2\n      pop\n      pop\n      jump\t// out\n        /* \"#utility.yul\":1218:1361   */\n    tag_181:\n        /* \"#utility.yul\":1275:1280   */\n      0x00\n        /* \"#utility.yul\":1306:1312   */\n      dup2\n        /* \"#utility.yul\":1300:1313   */\n      mload\n        /* \"#utility.yul\":1291:1313   */\n      swap1\n      pop\n        /* \"#utility.yul\":1322:1355   */\n      tag_183\n        /* \"#utility.yul\":1349:1354   */\n      dup2\n        /* \"#utility.yul\":1322:1355   */\n      tag_180\n      jump\t// in\n    tag_183:\n        /* \"#utility.yul\":1218:1361   */\n      swap3\n      swap2\n      pop\n      pop\n      jump\t// out\n        /* \"#utility.yul\":1367:1696   */\n    tag_30:\n        /* \"#utility.yul\":1426:1432   */\n      0x00\n        /* \"#utility.yul\":1475:1477   */\n      0x20\n        /* \"#utility.yul\":1463:1472   */\n      dup3\n        /* \"#utility.yul\":1454:1461   */\n      dup5\n        /* \"#utility.yul\":1450:1473   */\n      sub\n        /* \"#utility.yul\":1446:1478   */\n      slt\n        /* \"#utility.yul\":1443:1562   */\n      iszero\n      tag_185\n      jumpi\n        /* \"#utility.yul\":1481:1560   */\n      tag_186\n      tag_187\n      jump\t// in\n    tag_186:\n        /* \"#utility.yul\":1443:1562   */\n    tag_185:\n        /* \"#utility.yul\":1601:1602   */\n      0x00\n        /* \"#utility.yul\":1626:1679   */\n      tag_188\n        /* \"#utility.yul\":1671:1678   */\n      dup5\n        /* \"#utility.yul\":1662:1668   */\n      dup3\n        /* \"#utility.yul\":1651:1660   */\n      dup6\n        /* \"#utility.yul\":1647:1669   */\n      add\n        /* \"#utility.yul\":1626:1679   */\n      tag_163\n      jump\t// in\n    tag_188:\n        /* \"#utility.yul\":1616:1679   */\n      swap2\n      pop\n        /* \"#utility.yul\":1572:1689   */\n      pop\n        /* \"#utility.yul\":1367:1696   */\n      swap3\n      swap2\n      pop\n      pop\n      jump\t// out\n        /* \"#utility.yul\":1702:3452   */\n    tag_55:\n        /* \"#utility.yul\":1847:1853   */\n      0x00\n        /* \"#utility.yul\":1855:1861   */\n      dup1\n        /* \"#utility.yul\":1863:1869   */\n      0x00\n        /* \"#utility.yul\":1871:1877   */\n      dup1\n        /* \"#utility.yul\":1879:1885   */\n      0x00\n        /* \"#utility.yul\":1887:1893   */\n      dup1\n        /* \"#utility.yul\":1895:1901   */\n      0x00\n        /* \"#utility.yul\":1903:1909   */\n      dup1\n        /* \"#utility.yul\":1911:1917   */\n      0x00\n        /* \"#utility.yul\":1919:1925   */\n      dup1\n        /* \"#utility.yul\":1968:1971   */\n      0x0140\n        /* \"#utility.yul\":1956:1965   */\n      dup12\n        /* \"#utility.yul\":1947:1954   */\n      dup14\n        /* \"#utility.yul\":1943:1966   */\n      sub\n        /* \"#utility.yul\":1939:1972   */\n      slt\n        /* \"#utility.yul\":1936:2056   */\n      iszero\n      tag_190\n      jumpi\n        /* \"#utility.yul\":1975:2054   */\n      tag_191\n      tag_187\n      jump\t// in\n    tag_191:\n        /* \"#utility.yul\":1936:2056   */\n    tag_190:\n        /* \"#utility.yul\":2095:2096   */\n      0x00\n        /* \"#utility.yul\":2120:2181   */\n      tag_192\n        /* \"#utility.yul\":2173:2180   */\n      dup14\n        /* \"#utility.yul\":2164:2170   */\n      dup3\n        /* \"#utility.yul\":2153:2162   */\n      dup15\n        /* \"#utility.yul\":2149:2171   */\n      add\n        /* \"#utility.yul\":2120:2181   */\n      tag_167\n      jump\t// in\n    tag_192:\n        /* \"#utility.yul\":2110:2181   */\n      swap11\n      pop\n        /* \"#utility.yul\":2066:2191   */\n      pop\n        /* \"#utility.yul\":2230:2232   */\n      0x20\n        /* \"#utility.yul\":2256:2317   */\n      tag_193\n        /* \"#utility.yul\":2309:2316   */\n      dup14\n        /* \"#utility.yul\":2300:2306   */\n      dup3\n        /* \"#utility.yul\":2289:2298   */\n      dup15\n        /* \"#utility.yul\":2285:2307   */\n      add\n        /* \"#utility.yul\":2256:2317   */\n      tag_167\n      jump\t// in\n    tag_193:\n        /* \"#utility.yul\":2246:2317   */\n      swap10\n      pop\n        /* \"#utility.yul\":2201:2327   */\n      pop\n        /* \"#utility.yul\":2366:2368   */\n      0x40\n        /* \"#utility.yul\":2392:2456   */\n      tag_194\n        /* \"#utility.yul\":2448:2455   */\n      dup14\n        /* \"#utility.yul\":2439:2445   */\n      dup3\n        /* \"#utility.yul\":2428:2437   */\n      dup15\n        /* \"#utility.yul\":2424:2446   */\n      add\n        /* \"#utility.yul\":2392:2456   */\n      tag_181\n      jump\t// in\n    tag_194:\n        /* \"#utility.yul\":2382:2456   */\n      swap9\n      pop\n        /* \"#utility.yul\":2337:2466   */\n      pop\n        /* \"#utility.yul\":2505:2507   */\n      0x60\n        /* \"#utility.yul\":2531:2595   */\n      tag_195\n        /* \"#utility.yul\":2587:2594   */\n      dup14\n        /* \"#utility.yul\":2578:2584   */\n      dup3\n        /* \"#utility.yul\":2567:2576   */\n      dup15\n        /* \"#utility.yul\":2563:2585   */\n      add\n        /* \"#utility.yul\":2531:2595   */\n      tag_181\n      jump\t// in\n    tag_195:\n        /* \"#utility.yul\":2521:2595   */\n      swap8\n      pop\n        /* \"#utility.yul\":2476:2605   */\n      pop\n        /* \"#utility.yul\":2644:2647   */\n      0x80\n        /* \"#utility.yul\":2671:2735   */\n      tag_196\n        /* \"#utility.yul\":2727:2734   */\n      dup14\n        /* \"#utility.yul\":2718:2724   */\n      dup3\n        /* \"#utility.yul\":2707:2716   */\n      dup15\n        /* \"#utility.yul\":2703:2725   */\n      add\n        /* \"#utility.yul\":2671:2735   */\n      tag_181\n      jump\t// in\n    tag_196:\n        /* \"#utility.yul\":2661:2735   */\n      swap7\n      pop\n        /* \"#utility.yul\":2615:2745   */\n      pop\n        /* \"#utility.yul\":2784:2787   */\n      0xa0\n        /* \"#utility.yul\":2811:2875   */\n      tag_197\n        /* \"#utility.yul\":2867:2874   */\n      dup14\n        /* \"#utility.yul\":2858:2864   */\n      dup3\n        /* \"#utility.yul\":2847:2856   */\n      dup15\n        /* \"#utility.yul\":2843:2865   */\n      add\n        /* \"#utility.yul\":2811:2875   */\n      tag_181\n      jump\t// in\n    tag_197:\n        /* \"#utility.yul\":2801:2875   */\n      swap6\n      pop\n        /* \"#utility.yul\":2755:2885   */\n      pop\n        /* \"#utility.yul\":2924:2927   */\n      0xc0\n        /* \"#utility.yul\":2951:3015   */\n      tag_198\n        /* \"#utility.yul\":3007:3014   */\n      dup14\n        /* \"#utility.yul\":2998:3004   */\n      dup3\n        /* \"#utility.yul\":2987:2996   */\n      dup15\n        /* \"#utility.yul\":2983:3005   */\n      add\n        /* \"#utility.yul\":2951:3015   */\n      tag_181\n      jump\t// in\n    tag_198:\n        /* \"#utility.yul\":2941:3015   */\n      swap5\n      pop\n        /* \"#utility.yul\":2895:3025   */\n      pop\n        /* \"#utility.yul\":3064:3067   */\n      0xe0\n        /* \"#utility.yul\":3091:3155   */\n      tag_199\n        /* \"#utility.yul\":3147:3154   */\n      dup14\n        /* \"#utility.yul\":3138:3144   */\n      dup3\n        /* \"#utility.yul\":3127:3136   */\n      dup15\n        /* \"#utility.yul\":3123:3145   */\n      add\n        /* \"#utility.yul\":3091:3155   */\n      tag_181\n      jump\t// in\n    tag_199:\n        /* \"#utility.yul\":3081:3155   */\n      swap4\n      pop\n        /* \"#utility.yul\":3035:3165   */\n      pop\n        /* \"#utility.yul\":3204:3207   */\n      0x0100\n        /* \"#utility.yul\":3231:3295   */\n      tag_200\n        /* \"#utility.yul\":3287:3294   */\n      dup14\n        /* \"#utility.yul\":3278:3284   */\n      dup3\n        /* \"#utility.yul\":3267:3276   */\n      dup15\n        /* \"#utility.yul\":3263:3285   */\n      add\n        /* \"#utility.yul\":3231:3295   */\n      tag_181\n      jump\t// in\n    tag_200:\n        /* \"#utility.yul\":3221:3295   */\n      swap3\n      pop\n        /* \"#utility.yul\":3175:3305   */\n      pop\n        /* \"#utility.yul\":3344:3347   */\n      0x0120\n        /* \"#utility.yul\":3371:3435   */\n      tag_201\n        /* \"#utility.yul\":3427:3434   */\n      dup14\n        /* \"#utility.yul\":3418:3424   */\n      dup3\n        /* \"#utility.yul\":3407:3416   */\n      dup15\n        /* \"#utility.yul\":3403:3425   */\n      add\n        /* \"#utility.yul\":3371:3435   */\n      tag_181\n      jump\t// in\n    tag_201:\n        /* \"#utility.yul\":3361:3435   */\n      swap2\n      pop\n        /* \"#utility.yul\":3315:3445   */\n      pop\n        /* \"#utility.yul\":1702:3452   */\n      swap3\n      swap6\n      swap9\n      swap12\n      swap2\n      swap5\n      swap8\n      swap11\n      pop\n      swap3\n      swap6\n      swap9\n      pop\n      jump\t// out\n        /* \"#utility.yul\":3458:3967   */\n    tag_36:\n        /* \"#utility.yul\":3527:3533   */\n      0x00\n        /* \"#utility.yul\":3576:3578   */\n      0x20\n        /* \"#utility.yul\":3564:3573   */\n      dup3\n        /* \"#utility.yul\":3555:3562   */\n      dup5\n        /* \"#utility.yul\":3551:3574   */\n      sub\n        /* \"#utility.yul\":3547:3579   */\n      slt\n        /* \"#utility.yul\":3544:3663   */\n      iszero\n      tag_203\n      jumpi\n        /* \"#utility.yul\":3582:3661   */\n      tag_204\n      tag_187\n      jump\t// in\n    tag_204:\n        /* \"#utility.yul\":3544:3663   */\n    tag_203:\n        /* \"#utility.yul\":3730:3731   */\n      0x00\n        /* \"#utility.yul\":3719:3728   */\n      dup3\n        /* \"#utility.yul\":3715:3732   */\n      add\n        /* \"#utility.yul\":3702:3733   */\n      calldataload\n        /* \"#utility.yul\":3760:3778   */\n      0xffffffffffffffff\n        /* \"#utility.yul\":3752:3758   */\n      dup2\n        /* \"#utility.yul\":3749:3779   */\n      gt\n        /* \"#utility.yul\":3746:3863   */\n      iszero\n      tag_205\n      jumpi\n        /* \"#utility.yul\":3782:3861   */\n      tag_206\n      tag_207\n      jump\t// in\n    tag_206:\n        /* \"#utility.yul\":3746:3863   */\n    tag_205:\n        /* \"#utility.yul\":3887:3950   */\n      tag_208\n        /* \"#utility.yul\":3942:3949   */\n      dup5\n        /* \"#utility.yul\":3933:3939   */\n      dup3\n        /* \"#utility.yul\":3922:3931   */\n      dup6\n        /* \"#utility.yul\":3918:3940   */\n      add\n        /* \"#utility.yul\":3887:3950   */\n      tag_171\n      jump\t// in\n    tag_208:\n        /* \"#utility.yul\":3877:3950   */\n      swap2\n      pop\n        /* \"#utility.yul\":3673:3960   */\n      pop\n        /* \"#utility.yul\":3458:3967   */\n      swap3\n      swap2\n      pop\n      pop\n      jump\t// out\n        /* \"#utility.yul\":3973:4302   */\n    tag_19:\n        /* \"#utility.yul\":4032:4038   */\n      0x00\n        /* \"#utility.yul\":4081:4083   */\n      0x20\n        /* \"#utility.yul\":4069:4078   */\n      dup3\n        /* \"#utility.yul\":4060:4067   */\n      dup5\n        /* \"#utility.yul\":4056:4079   */\n      sub\n        /* \"#utility.yul\":4052:4084   */\n      slt\n        /* \"#utility.yul\":4049:4168   */\n      iszero\n      tag_210\n      jumpi\n        /* \"#utility.yul\":4087:4166   */\n      tag_211\n      tag_187\n      jump\t// in\n    tag_211:\n        /* \"#utility.yul\":4049:4168   */\n    tag_210:\n        /* \"#utility.yul\":4207:4208   */\n      0x00\n        /* \"#utility.yul\":4232:4285   */\n      tag_212\n        /* \"#utility.yul\":4277:4284   */\n      dup5\n        /* \"#utility.yul\":4268:4274   */\n      dup3\n        /* \"#utility.yul\":4257:4266   */\n      dup6\n        /* \"#utility.yul\":4253:4275   */\n      add\n        /* \"#utility.yul\":4232:4285   */\n      tag_177\n      jump\t// in\n    tag_212:\n        /* \"#utility.yul\":4222:4285   */\n      swap2\n      pop\n        /* \"#utility.yul\":4178:4295   */\n      pop\n        /* \"#utility.yul\":3973:4302   */\n      swap3\n      swap2\n      pop\n      pop\n      jump\t// out\n        /* \"#utility.yul\":4308:4782   */\n    tag_15:\n        /* \"#utility.yul\":4376:4382   */\n      0x00\n        /* \"#utility.yul\":4384:4390   */\n      dup1\n        /* \"#utility.yul\":4433:4435   */\n      0x40\n        /* \"#utility.yul\":4421:4430   */\n      dup4\n        /* \"#utility.yul\":4412:4419   */\n      dup6\n        /* \"#utility.yul\":4408:4431   */\n      sub\n        /* \"#utility.yul\":4404:4436   */\n      slt\n        /* \"#utility.yul\":4401:4520   */\n      iszero\n      tag_214\n      jumpi\n        /* \"#utility.yul\":4439:4518   */\n      tag_215\n      tag_187\n      jump\t// in\n    tag_215:\n        /* \"#utility.yul\":4401:4520   */\n    tag_214:\n        /* \"#utility.yul\":4559:4560   */\n      0x00\n        /* \"#utility.yul\":4584:4637   */\n      tag_216\n        /* \"#utility.yul\":4629:4636   */\n      dup6\n        /* \"#utility.yul\":4620:4626   */\n      dup3\n        /* \"#utility.yul\":4609:4618   */\n      dup7\n        /* \"#utility.yul\":4605:4627   */\n      add\n        /* \"#utility.yul\":4584:4637   */\n      tag_177\n      jump\t// in\n    tag_216:\n        /* \"#utility.yul\":4574:4637   */\n      swap3\n      pop\n        /* \"#utility.yul\":4530:4647   */\n      pop\n        /* \"#utility.yul\":4686:4688   */\n      0x20\n        /* \"#utility.yul\":4712:4765   */\n      tag_217\n        /* \"#utility.yul\":4757:4764   */\n      dup6\n        /* \"#utility.yul\":4748:4754   */\n      dup3\n        /* \"#utility.yul\":4737:4746   */\n      dup7\n        /* \"#utility.yul\":4733:4755   */\n      add\n        /* \"#utility.yul\":4712:4765   */\n      tag_177\n      jump\t// in\n    tag_217:\n        /* \"#utility.yul\":4702:4765   */\n      swap2\n      pop\n        /* \"#utility.yul\":4657:4775   */\n      pop\n        /* \"#utility.yul\":4308:4782   */\n      swap3\n      pop\n      swap3\n      swap1\n      pop\n      jump\t// out\n        /* \"#utility.yul\":4788:4906   */\n    tag_218:\n        /* \"#utility.yul\":4875:4899   */\n      tag_220\n        /* \"#utility.yul\":4893:4898   */\n      dup2\n        /* \"#utility.yul\":4875:4899   */\n      tag_221\n      jump\t// in\n    tag_220:\n        /* \"#utility.yul\":4870:4873   */\n      dup3\n        /* \"#utility.yul\":4863:4900   */\n      mstore\n        /* \"#utility.yul\":4788:4906   */\n      pop\n      pop\n      jump\t// out\n        /* \"#utility.yul\":4912:5021   */\n    tag_222:\n        /* \"#utility.yul\":4993:5014   */\n      tag_224\n        /* \"#utility.yul\":5008:5013   */\n      dup2\n        /* \"#utility.yul\":4993:5014   */\n      tag_225\n      jump\t// in\n    tag_224:\n        /* \"#utility.yul\":4988:4991   */\n      dup3\n        /* \"#utility.yul\":4981:5015   */\n      mstore\n        /* \"#utility.yul\":4912:5021   */\n      pop\n      pop\n      jump\t// out\n        /* \"#utility.yul\":5027:5391   */\n    tag_226:\n        /* \"#utility.yul\":5115:5118   */\n      0x00\n        /* \"#utility.yul\":5143:5182   */\n      tag_228\n        /* \"#utility.yul\":5176:5181   */\n      dup3\n        /* \"#utility.yul\":5143:5182   */\n      tag_229\n      jump\t// in\n    tag_228:\n        /* \"#utility.yul\":5198:5269   */\n      tag_230\n        /* \"#utility.yul\":5262:5268   */\n      dup2\n        /* \"#utility.yul\":5257:5260   */\n      dup6\n        /* \"#utility.yul\":5198:5269   */\n      tag_231\n      jump\t// in\n    tag_230:\n        /* \"#utility.yul\":5191:5269   */\n      swap4\n      pop\n        /* \"#utility.yul\":5278:5330   */\n      tag_232\n        /* \"#utility.yul\":5323:5329   */\n      dup2\n        /* \"#utility.yul\":5318:5321   */\n      dup6\n        /* \"#utility.yul\":5311:5315   */\n      0x20\n        /* \"#utility.yul\":5304:5309   */\n      dup7\n        /* \"#utility.yul\":5300:5316   */\n      add\n        /* \"#utility.yul\":5278:5330   */\n      tag_233\n      jump\t// in\n    tag_232:\n        /* \"#utility.yul\":5355:5384   */\n      tag_234\n        /* \"#utility.yul\":5377:5383   */\n      dup2\n        /* \"#utility.yul\":5355:5384   */\n      tag_235\n      jump\t// in\n    tag_234:\n        /* \"#utility.yul\":5350:5353   */\n      dup5\n        /* \"#utility.yul\":5346:5385   */\n      add\n        /* \"#utility.yul\":5339:5385   */\n      swap2\n      pop\n        /* \"#utility.yul\":5119:5391   */\n      pop\n        /* \"#utility.yul\":5027:5391   */\n      swap3\n      swap2\n      pop\n      pop\n      jump\t// out\n        /* \"#utility.yul\":5397:5774   */\n    tag_236:\n        /* \"#utility.yul\":5503:5506   */\n      0x00\n        /* \"#utility.yul\":5531:5570   */\n      tag_238\n        /* \"#utility.yul\":5564:5569   */\n      dup3\n        /* \"#utility.yul\":5531:5570   */\n      tag_229\n      jump\t// in\n    tag_238:\n        /* \"#utility.yul\":5586:5675   */\n      tag_239\n        /* \"#utility.yul\":5668:5674   */\n      dup2\n        /* \"#utility.yul\":5663:5666   */\n      dup6\n        /* \"#utility.yul\":5586:5675   */\n      tag_240\n      jump\t// in\n    tag_239:\n        /* \"#utility.yul\":5579:5675   */\n      swap4\n      pop\n        /* \"#utility.yul\":5684:5736   */\n      tag_241\n        /* \"#utility.yul\":5729:5735   */\n      dup2\n        /* \"#utility.yul\":5724:5727   */\n      dup6\n        /* \"#utility.yul\":5717:5721   */\n      0x20\n        /* \"#utility.yul\":5710:5715   */\n      dup7\n        /* \"#utility.yul\":5706:5722   */\n      add\n        /* \"#utility.yul\":5684:5736   */\n      tag_233\n      jump\t// in\n    tag_241:\n        /* \"#utility.yul\":5761:5767   */\n      dup1\n        /* \"#utility.yul\":5756:5759   */\n      dup5\n        /* \"#utility.yul\":5752:5768   */\n      add\n        /* \"#utility.yul\":5745:5768   */\n      swap2\n      pop\n        /* \"#utility.yul\":5507:5774   */\n      pop\n        /* \"#utility.yul\":5397:5774   */\n      swap3\n      swap2\n      pop\n      pop\n      jump\t// out\n        /* \"#utility.yul\":5780:6180   */\n    tag_242:\n        /* \"#utility.yul\":5940:5943   */\n      0x00\n        /* \"#utility.yul\":5961:6045   */\n      tag_244\n        /* \"#utility.yul\":6043:6044   */\n      0x05\n        /* \"#utility.yul\":6038:6041   */\n      dup4\n        /* \"#utility.yul\":5961:6045   */\n      tag_240\n      jump\t// in\n    tag_244:\n        /* \"#utility.yul\":5954:6045   */\n      swap2\n      pop\n        /* \"#utility.yul\":6054:6147   */\n      tag_245\n        /* \"#utility.yul\":6143:6146   */\n      dup3\n        /* \"#utility.yul\":6054:6147   */\n      tag_246\n      jump\t// in\n    tag_245:\n        /* \"#utility.yul\":6172:6173   */\n      0x05\n        /* \"#utility.yul\":6167:6170   */\n      dup3\n        /* \"#utility.yul\":6163:6174   */\n      add\n        /* \"#utility.yul\":6156:6174   */\n      swap1\n      pop\n        /* \"#utility.yul\":5780:6180   */\n      swap2\n      swap1\n      pop\n      jump\t// out\n        /* \"#utility.yul\":6186:6301   */\n    tag_247:\n        /* \"#utility.yul\":6271:6294   */\n      tag_249\n        /* \"#utility.yul\":6288:6293   */\n      dup2\n        /* \"#utility.yul\":6271:6294   */\n      tag_250\n      jump\t// in\n    tag_249:\n        /* \"#utility.yul\":6266:6269   */\n      dup3\n        /* \"#utility.yul\":6259:6295   */\n      mstore\n        /* \"#utility.yul\":6186:6301   */\n      pop\n      pop\n      jump\t// out\n        /* \"#utility.yul\":6307:6425   */\n    tag_251:\n        /* \"#utility.yul\":6394:6418   */\n      tag_253\n        /* \"#utility.yul\":6412:6417   */\n      dup2\n        /* \"#utility.yul\":6394:6418   */\n      tag_254\n      jump\t// in\n    tag_253:\n        /* \"#utility.yul\":6389:6392   */\n      dup3\n        /* \"#utility.yul\":6382:6419   */\n      mstore\n        /* \"#utility.yul\":6307:6425   */\n      pop\n      pop\n      jump\t// out\n        /* \"#utility.yul\":6431:6546   */\n    tag_255:\n        /* \"#utility.yul\":6516:6539   */\n      tag_257\n        /* \"#utility.yul\":6533:6538   */\n      dup2\n        /* \"#utility.yul\":6516:6539   */\n      tag_258\n      jump\t// in\n    tag_257:\n        /* \"#utility.yul\":6511:6514   */\n      dup3\n        /* \"#utility.yul\":6504:6540   */\n      mstore\n        /* \"#utility.yul\":6431:6546   */\n      pop\n      pop\n      jump\t// out\n        /* \"#utility.yul\":6552:6827   */\n    tag_110:\n        /* \"#utility.yul\":6684:6687   */\n      0x00\n        /* \"#utility.yul\":6706:6801   */\n      tag_260\n        /* \"#utility.yul\":6797:6800   */\n      dup3\n        /* \"#utility.yul\":6788:6794   */\n      dup5\n        /* \"#utility.yul\":6706:6801   */\n      tag_236\n      jump\t// in\n    tag_260:\n        /* \"#utility.yul\":6699:6801   */\n      swap2\n      pop\n        /* \"#utility.yul\":6818:6821   */\n      dup2\n        /* \"#utility.yul\":6811:6821   */\n      swap1\n      pop\n        /* \"#utility.yul\":6552:6827   */\n      swap3\n      swap2\n      pop\n      pop\n      jump\t// out\n        /* \"#utility.yul\":6833:7214   */\n    tag_108:\n        /* \"#utility.yul\":7018:7021   */\n      0x00\n        /* \"#utility.yul\":7040:7188   */\n      tag_262\n        /* \"#utility.yul\":7184:7187   */\n      dup3\n        /* \"#utility.yul\":7040:7188   */\n      tag_242\n      jump\t// in\n    tag_262:\n        /* \"#utility.yul\":7033:7188   */\n      swap2\n      pop\n        /* \"#utility.yul\":7205:7208   */\n      dup2\n        /* \"#utility.yul\":7198:7208   */\n      swap1\n      pop\n        /* \"#utility.yul\":6833:7214   */\n      swap2\n      swap1\n      pop\n      jump\t// out\n        /* \"#utility.yul\":7220:7442   */\n    tag_27:\n        /* \"#utility.yul\":7313:7317   */\n      0x00\n        /* \"#utility.yul\":7351:7353   */\n      0x20\n        /* \"#utility.yul\":7340:7349   */\n      dup3\n        /* \"#utility.yul\":7336:7354   */\n      add\n        /* \"#utility.yul\":7328:7354   */\n      swap1\n      pop\n        /* \"#utility.yul\":7364:7435   */\n      tag_264\n        /* \"#utility.yul\":7432:7433   */\n      0x00\n        /* \"#utility.yul\":7421:7430   */\n      dup4\n        /* \"#utility.yul\":7417:7434   */\n      add\n        /* \"#utility.yul\":7408:7414   */\n      dup5\n        /* \"#utility.yul\":7364:7435   */\n      tag_218\n      jump\t// in\n    tag_264:\n        /* \"#utility.yul\":7220:7442   */\n      swap3\n      swap2\n      pop\n      pop\n      jump\t// out\n        /* \"#utility.yul\":7448:7658   */\n    tag_44:\n        /* \"#utility.yul\":7535:7539   */\n      0x00\n        /* \"#utility.yul\":7573:7575   */\n      0x20\n        /* \"#utility.yul\":7562:7571   */\n      dup3\n        /* \"#utility.yul\":7558:7576   */\n      add\n        /* \"#utility.yul\":7550:7576   */\n      swap1\n      pop\n        /* \"#utility.yul\":7586:7651   */\n      tag_266\n        /* \"#utility.yul\":7648:7649   */\n      0x00\n        /* \"#utility.yul\":7637:7646   */\n      dup4\n        /* \"#utility.yul\":7633:7650   */\n      add\n        /* \"#utility.yul\":7624:7630   */\n      dup5\n        /* \"#utility.yul\":7586:7651   */\n      tag_222\n      jump\t// in\n    tag_266:\n        /* \"#utility.yul\":7448:7658   */\n      swap3\n      swap2\n      pop\n      pop\n      jump\t// out\n        /* \"#utility.yul\":7664:8514   */\n    tag_22:\n        /* \"#utility.yul\":7909:7913   */\n      0x00\n        /* \"#utility.yul\":7947:7950   */\n      0xc0\n        /* \"#utility.yul\":7936:7945   */\n      dup3\n        /* \"#utility.yul\":7932:7951   */\n      add\n        /* \"#utility.yul\":7924:7951   */\n      swap1\n      pop\n        /* \"#utility.yul\":7997:8006   */\n      dup2\n        /* \"#utility.yul\":7991:7995   */\n      dup2\n        /* \"#utility.yul\":7987:8007   */\n      sub\n        /* \"#utility.yul\":7983:7984   */\n      0x00\n        /* \"#utility.yul\":7972:7981   */\n      dup4\n        /* \"#utility.yul\":7968:7985   */\n      add\n        /* \"#utility.yul\":7961:8008   */\n      mstore\n        /* \"#utility.yul\":8025:8103   */\n      tag_268\n        /* \"#utility.yul\":8098:8102   */\n      dup2\n        /* \"#utility.yul\":8089:8095   */\n      dup10\n        /* \"#utility.yul\":8025:8103   */\n      tag_226\n      jump\t// in\n    tag_268:\n        /* \"#utility.yul\":8017:8103   */\n      swap1\n      pop\n        /* \"#utility.yul\":8113:8185   */\n      tag_269\n        /* \"#utility.yul\":8181:8183   */\n      0x20\n        /* \"#utility.yul\":8170:8179   */\n      dup4\n        /* \"#utility.yul\":8166:8184   */\n      add\n        /* \"#utility.yul\":8157:8163   */\n      dup9\n        /* \"#utility.yul\":8113:8185   */\n      tag_251\n      jump\t// in\n    tag_269:\n        /* \"#utility.yul\":8195:8265   */\n      tag_270\n        /* \"#utility.yul\":8261:8263   */\n      0x40\n        /* \"#utility.yul\":8250:8259   */\n      dup4\n        /* \"#utility.yul\":8246:8264   */\n      add\n        /* \"#utility.yul\":8237:8243   */\n      dup8\n        /* \"#utility.yul\":8195:8265   */\n      tag_255\n      jump\t// in\n    tag_270:\n        /* \"#utility.yul\":8275:8345   */\n      tag_271\n        /* \"#utility.yul\":8341:8343   */\n      0x60\n        /* \"#utility.yul\":8330:8339   */\n      dup4\n        /* \"#utility.yul\":8326:8344   */\n      add\n        /* \"#utility.yul\":8317:8323   */\n      dup7\n        /* \"#utility.yul\":8275:8345   */\n      tag_255\n      jump\t// in\n    tag_271:\n        /* \"#utility.yul\":8355:8426   */\n      tag_272\n        /* \"#utility.yul\":8421:8424   */\n      0x80\n        /* \"#utility.yul\":8410:8419   */\n      dup4\n        /* \"#utility.yul\":8406:8425   */\n      add\n        /* \"#utility.yul\":8397:8403   */\n      dup6\n        /* \"#utility.yul\":8355:8426   */\n      tag_247\n      jump\t// in\n    tag_272:\n        /* \"#utility.yul\":8436:8507   */\n      tag_273\n        /* \"#utility.yul\":8502:8505   */\n      0xa0\n        /* \"#utility.yul\":8491:8500   */\n      dup4\n        /* \"#utility.yul\":8487:8506   */\n      add\n        /* \"#utility.yul\":8478:8484   */\n      dup5\n        /* \"#utility.yul\":8436:8507   */\n      tag_247\n      jump\t// in\n    tag_273:\n        /* \"#utility.yul\":7664:8514   */\n      swap8\n      swap7\n      pop\n      pop\n      pop\n      pop\n      pop\n      pop\n      pop\n      jump\t// out\n        /* \"#utility.yul\":8520:8742   */\n    tag_50:\n        /* \"#utility.yul\":8613:8617   */\n      0x00\n        /* \"#utility.yul\":8651:8653   */\n      0x20\n        /* \"#utility.yul\":8640:8649   */\n      dup3\n        /* \"#utility.yul\":8636:8654   */\n      add\n        /* \"#utility.yul\":8628:8654   */\n      swap1\n      pop\n        /* \"#utility.yul\":8664:8735   */\n      tag_275\n        /* \"#utility.yul\":8732:8733   */\n      0x00\n        /* \"#utility.yul\":8721:8730   */\n      dup4\n        /* \"#utility.yul\":8717:8734   */\n      add\n        /* \"#utility.yul\":8708:8714   */\n      dup5\n        /* \"#utility.yul\":8664:8735   */\n      tag_251\n      jump\t// in\n    tag_275:\n        /* \"#utility.yul\":8520:8742   */\n      swap3\n      swap2\n      pop\n      pop\n      jump\t// out\n        /* \"#utility.yul\":8748:9281   */\n    tag_130:\n        /* \"#utility.yul\":8917:8921   */\n      0x00\n        /* \"#utility.yul\":8955:8957   */\n      0x60\n        /* \"#utility.yul\":8944:8953   */\n      dup3\n        /* \"#utility.yul\":8940:8958   */\n      add\n        /* \"#utility.yul\":8932:8958   */\n      swap1\n      pop\n        /* \"#utility.yul\":8968:9039   */\n      tag_277\n        /* \"#utility.yul\":9036:9037   */\n      0x00\n        /* \"#utility.yul\":9025:9034   */\n      dup4\n        /* \"#utility.yul\":9021:9038   */\n      add\n        /* \"#utility.yul\":9012:9018   */\n      dup7\n        /* \"#utility.yul\":8968:9039   */\n      tag_251\n      jump\t// in\n    tag_277:\n        /* \"#utility.yul\":9086:9095   */\n      dup2\n        /* \"#utility.yul\":9080:9084   */\n      dup2\n        /* \"#utility.yul\":9076:9096   */\n      sub\n        /* \"#utility.yul\":9071:9073   */\n      0x20\n        /* \"#utility.yul\":9060:9069   */\n      dup4\n        /* \"#utility.yul\":9056:9074   */\n      add\n        /* \"#utility.yul\":9049:9097   */\n      mstore\n        /* \"#utility.yul\":9114:9192   */\n      tag_278\n        /* \"#utility.yul\":9187:9191   */\n      dup2\n        /* \"#utility.yul\":9178:9184   */\n      dup6\n        /* \"#utility.yul\":9114:9192   */\n      tag_226\n      jump\t// in\n    tag_278:\n        /* \"#utility.yul\":9106:9192   */\n      swap1\n      pop\n        /* \"#utility.yul\":9202:9274   */\n      tag_279\n        /* \"#utility.yul\":9270:9272   */\n      0x40\n        /* \"#utility.yul\":9259:9268   */\n      dup4\n        /* \"#utility.yul\":9255:9273   */\n      add\n        /* \"#utility.yul\":9246:9252   */\n      dup5\n        /* \"#utility.yul\":9202:9274   */\n      tag_251\n      jump\t// in\n    tag_279:\n        /* \"#utility.yul\":8748:9281   */\n      swap5\n      swap4\n      pop\n      pop\n      pop\n      pop\n      jump\t// out\n        /* \"#utility.yul\":9287:9416   */\n    tag_157:\n        /* \"#utility.yul\":9321:9327   */\n      0x00\n        /* \"#utility.yul\":9348:9368   */\n      tag_281\n      tag_282\n      jump\t// in\n    tag_281:\n        /* \"#utility.yul\":9338:9368   */\n      swap1\n      pop\n        /* \"#utility.yul\":9377:9410   */\n      tag_283\n        /* \"#utility.yul\":9405:9409   */\n      dup3\n        /* \"#utility.yul\":9397:9403   */\n      dup3\n        /* \"#utility.yul\":9377:9410   */\n      tag_284\n      jump\t// in\n    tag_283:\n        /* \"#utility.yul\":9287:9416   */\n      swap2\n      swap1\n      pop\n      jump\t// out\n        /* \"#utility.yul\":9422:9497   */\n    tag_282:\n        /* \"#utility.yul\":9455:9461   */\n      0x00\n        /* \"#utility.yul\":9488:9490   */\n      0x40\n        /* \"#utility.yul\":9482:9491   */\n      mload\n        /* \"#utility.yul\":9472:9491   */\n      swap1\n      pop\n        /* \"#utility.yul\":9422:9497   */\n      swap1\n      jump\t// out\n        /* \"#utility.yul\":9503:9811   */\n    tag_156:\n        /* \"#utility.yul\":9565:9569   */\n      0x00\n        /* \"#utility.yul\":9655:9673   */\n      0xffffffffffffffff\n        /* \"#utility.yul\":9647:9653   */\n      dup3\n        /* \"#utility.yul\":9644:9674   */\n      gt\n        /* \"#utility.yul\":9641:9697   */\n      iszero\n      tag_287\n      jumpi\n        /* \"#utility.yul\":9677:9695   */\n      tag_288\n      tag_289\n      jump\t// in\n    tag_288:\n        /* \"#utility.yul\":9641:9697   */\n    tag_287:\n        /* \"#utility.yul\":9715:9744   */\n      tag_290\n        /* \"#utility.yul\":9737:9743   */\n      dup3\n        /* \"#utility.yul\":9715:9744   */\n      tag_235\n      jump\t// in\n    tag_290:\n        /* \"#utility.yul\":9707:9744   */\n      swap1\n      pop\n        /* \"#utility.yul\":9799:9803   */\n      0x20\n        /* \"#utility.yul\":9793:9797   */\n      dup2\n        /* \"#utility.yul\":9789:9804   */\n      add\n        /* \"#utility.yul\":9781:9804   */\n      swap1\n      pop\n        /* \"#utility.yul\":9503:9811   */\n      swap2\n      swap1\n      pop\n      jump\t// out\n        /* \"#utility.yul\":9817:9916   */\n    tag_229:\n        /* \"#utility.yul\":9869:9875   */\n      0x00\n        /* \"#utility.yul\":9903:9908   */\n      dup2\n        /* \"#utility.yul\":9897:9909   */\n      mload\n        /* \"#utility.yul\":9887:9909   */\n      swap1\n      pop\n        /* \"#utility.yul\":9817:9916   */\n      swap2\n      swap1\n      pop\n      jump\t// out\n        /* \"#utility.yul\":9922:10091   */\n    tag_231:\n        /* \"#utility.yul\":10006:10017   */\n      0x00\n        /* \"#utility.yul\":10040:10046   */\n      dup3\n        /* \"#utility.yul\":10035:10038   */\n      dup3\n        /* \"#utility.yul\":10028:10047   */\n      mstore\n        /* \"#utility.yul\":10080:10084   */\n      0x20\n        /* \"#utility.yul\":10075:10078   */\n      dup3\n        /* \"#utility.yul\":10071:10085   */\n      add\n        /* \"#utility.yul\":10056:10085   */\n      swap1\n      pop\n        /* \"#utility.yul\":9922:10091   */\n      swap3\n      swap2\n      pop\n      pop\n      jump\t// out\n        /* \"#utility.yul\":10097:10245   */\n    tag_240:\n        /* \"#utility.yul\":10199:10210   */\n      0x00\n        /* \"#utility.yul\":10236:10239   */\n      dup2\n        /* \"#utility.yul\":10221:10239   */\n      swap1\n      pop\n        /* \"#utility.yul\":10097:10245   */\n      swap3\n      swap2\n      pop\n      pop\n      jump\t// out\n        /* \"#utility.yul\":10251:10556   */\n    tag_104:\n        /* \"#utility.yul\":10291:10294   */\n      0x00\n        /* \"#utility.yul\":10310:10330   */\n      tag_295\n        /* \"#utility.yul\":10328:10329   */\n      dup3\n        /* \"#utility.yul\":10310:10330   */\n      tag_254\n      jump\t// in\n    tag_295:\n        /* \"#utility.yul\":10305:10330   */\n      swap2\n      pop\n        /* \"#utility.yul\":10344:10364   */\n      tag_296\n        /* \"#utility.yul\":10362:10363   */\n      dup4\n        /* \"#utility.yul\":10344:10364   */\n      tag_254\n      jump\t// in\n    tag_296:\n        /* \"#utility.yul\":10339:10364   */\n      swap3\n      pop\n        /* \"#utility.yul\":10498:10499   */\n      dup3\n        /* \"#utility.yul\":10430:10496   */\n      0xffffffffffffffffffffffffffffffffffffffffffffffffffffffffffffffff\n        /* \"#utility.yul\":10426:10500   */\n      sub\n        /* \"#utility.yul\":10423:10424   */\n      dup3\n        /* \"#utility.yul\":10420:10501   */\n      gt\n        /* \"#utility.yul\":10417:10524   */\n      iszero\n      tag_297\n      jumpi\n        /* \"#utility.yul\":10504:10522   */\n      tag_298\n      tag_299\n      jump\t// in\n    tag_298:\n        /* \"#utility.yul\":10417:10524   */\n    tag_297:\n        /* \"#utility.yul\":10548:10549   */\n      dup3\n        /* \"#utility.yul\":10545:10546   */\n      dup3\n        /* \"#utility.yul\":10541:10550   */\n      add\n        /* \"#utility.yul\":10534:10550   */\n      swap1\n      pop\n        /* \"#utility.yul\":10251:10556   */\n      swap3\n      swap2\n      pop\n      pop\n      jump\t// out\n        /* \"#utility.yul\":10562:10747   */\n    tag_106:\n        /* \"#utility.yul\":10602:10603   */\n      0x00\n        /* \"#utility.yul\":10619:10639   */\n      tag_301\n        /* \"#utility.yul\":10637:10638   */\n      dup3\n        /* \"#utility.yul\":10619:10639   */\n      tag_254\n      jump\t// in\n    tag_301:\n        /* \"#utility.yul\":10614:10639   */\n      swap2\n      pop\n        /* \"#utility.yul\":10653:10673   */\n      tag_302\n        /* \"#utility.yul\":10671:10672   */\n      dup4\n        /* \"#utility.yul\":10653:10673   */\n      tag_254\n      jump\t// in\n    tag_302:\n        /* \"#utility.yul\":10648:10673   */\n      swap3\n      pop\n        /* \"#utility.yul\":10692:10693   */\n      dup3\n        /* \"#utility.yul\":10682:10717   */\n      tag_303\n      jumpi\n        /* \"#utility.yul\":10697:10715   */\n      tag_304\n      tag_305\n      jump\t// in\n    tag_304:\n        /* \"#utility.yul\":10682:10717   */\n    tag_303:\n        /* \"#utility.yul\":10739:10740   */\n      dup3\n        /* \"#utility.yul\":10736:10737   */\n      dup3\n        /* \"#utility.yul\":10732:10741   */\n      div\n        /* \"#utility.yul\":10727:10741   */\n      swap1\n      pop\n        /* \"#utility.yul\":10562:10747   */\n      swap3\n      swap2\n      pop\n      pop\n      jump\t// out\n        /* \"#utility.yul\":10753:10944   */\n    tag_81:\n        /* \"#utility.yul\":10793:10797   */\n      0x00\n        /* \"#utility.yul\":10813:10833   */\n      tag_307\n        /* \"#utility.yul\":10831:10832   */\n      dup3\n        /* \"#utility.yul\":10813:10833   */\n      tag_254\n      jump\t// in\n    tag_307:\n        /* \"#utility.yul\":10808:10833   */\n      swap2\n      pop\n        /* \"#utility.yul\":10847:10867   */\n      tag_308\n        /* \"#utility.yul\":10865:10866   */\n      dup4\n        /* \"#utility.yul\":10847:10867   */\n      tag_254\n      jump\t// in\n    tag_308:\n        /* \"#utility.yul\":10842:10867   */\n      swap3\n      pop\n        /* \"#utility.yul\":10886:10887   */\n      dup3\n        /* \"#utility.yul\":10883:10884   */\n      dup3\n        /* \"#utility.yul\":10880:10888   */\n      lt\n        /* \"#utility.yul\":10877:10911   */\n      iszero\n      tag_309\n      jumpi\n        /* \"#utility.yul\":10891:10909   */\n      tag_310\n      tag_299\n      jump\t// in\n    tag_310:\n        /* \"#utility.yul\":10877:10911   */\n    tag_309:\n        /* \"#utility.yul\":10936:10937   */\n      dup3\n        /* \"#utility.yul\":10933:10934   */\n      dup3\n        /* \"#utility.yul\":10929:10938   */\n      sub\n        /* \"#utility.yul\":10921:10938   */\n      swap1\n      pop\n        /* \"#utility.yul\":10753:10944   */\n      swap3\n      swap2\n      pop\n      pop\n      jump\t// out\n        /* \"#utility.yul\":10950:11046   */\n    tag_221:\n        /* \"#utility.yul\":10987:10994   */\n      0x00\n        /* \"#utility.yul\":11016:11040   */\n      tag_312\n        /* \"#utility.yul\":11034:11039   */\n      dup3\n        /* \"#utility.yul\":11016:11040   */\n      tag_313\n      jump\t// in\n    tag_312:\n        /* \"#utility.yul\":11005:11040   */\n      swap1\n      pop\n        /* \"#utility.yul\":10950:11046   */\n      swap2\n      swap1\n      pop\n      jump\t// out\n        /* \"#utility.yul\":11052:11142   */\n    tag_225:\n        /* \"#utility.yul\":11086:11093   */\n      0x00\n        /* \"#utility.yul\":11129:11134   */\n      dup2\n        /* \"#utility.yul\":11122:11135   */\n      iszero\n        /* \"#utility.yul\":11115:11136   */\n      iszero\n        /* \"#utility.yul\":11104:11136   */\n      swap1\n      pop\n        /* \"#utility.yul\":11052:11142   */\n      swap2\n      swap1\n      pop\n      jump\t// out\n        /* \"#utility.yul\":11148:11237   */\n    tag_250:\n        /* \"#utility.yul\":11184:11191   */\n      0x00\n        /* \"#utility.yul\":11224:11230   */\n      0xffff\n        /* \"#utility.yul\":11217:11222   */\n      dup3\n        /* \"#utility.yul\":11213:11231   */\n      and\n        /* \"#utility.yul\":11202:11231   */\n      swap1\n      pop\n        /* \"#utility.yul\":11148:11237   */\n      swap2\n      swap1\n      pop\n      jump\t// out\n        /* \"#utility.yul\":11243:11369   */\n    tag_313:\n        /* \"#utility.yul\":11280:11287   */\n      0x00\n        /* \"#utility.yul\":11320:11362   */\n      0xffffffffffffffffffffffffffffffffffffffff\n        /* \"#utility.yul\":11313:11318   */\n      dup3\n        /* \"#utility.yul\":11309:11363   */\n      and\n        /* \"#utility.yul\":11298:11363   */\n      swap1\n      pop\n        /* \"#utility.yul\":11243:11369   */\n      swap2\n      swap1\n      pop\n      jump\t// out\n        /* \"#utility.yul\":11375:11452   */\n    tag_254:\n        /* \"#utility.yul\":11412:11419   */\n      0x00\n        /* \"#utility.yul\":11441:11446   */\n      dup2\n        /* \"#utility.yul\":11430:11446   */\n      swap1\n      pop\n        /* \"#utility.yul\":11375:11452   */\n      swap2\n      swap1\n      pop\n      jump\t// out\n        /* \"#utility.yul\":11458:11551   */\n    tag_258:\n        /* \"#utility.yul\":11494:11501   */\n      0x00\n        /* \"#utility.yul\":11534:11544   */\n      0xffffffff\n        /* \"#utility.yul\":11527:11532   */\n      dup3\n        /* \"#utility.yul\":11523:11545   */\n      and\n        /* \"#utility.yul\":11512:11545   */\n      swap1\n      pop\n        /* \"#utility.yul\":11458:11551   */\n      swap2\n      swap1\n      pop\n      jump\t// out\n        /* \"#utility.yul\":11557:11711   */\n    tag_162:\n        /* \"#utility.yul\":11641:11647   */\n      dup3\n        /* \"#utility.yul\":11636:11639   */\n      dup2\n        /* \"#utility.yul\":11631:11634   */\n      dup4\n        /* \"#utility.yul\":11618:11648   */\n      calldatacopy\n        /* \"#utility.yul\":11703:11704   */\n      0x00\n        /* \"#utility.yul\":11694:11700   */\n      dup4\n        /* \"#utility.yul\":11689:11692   */\n      dup4\n        /* \"#utility.yul\":11685:11701   */\n      add\n        /* \"#utility.yul\":11678:11705   */\n      mstore\n        /* \"#utility.yul\":11557:11711   */\n      pop\n      pop\n      pop\n      jump\t// out\n        /* \"#utility.yul\":11717:12024   */\n    tag_233:\n        /* \"#utility.yul\":11785:11786   */\n      0x00\n        /* \"#utility.yul\":11795:11908   */\n    tag_321:\n        /* \"#utility.yul\":11809:11815   */\n      dup4\n        /* \"#utility.yul\":11806:11807   */\n      dup2\n        /* \"#utility.yul\":11803:11816   */\n      lt\n        /* \"#utility.yul\":11795:11908   */\n      iszero\n      tag_323\n      jumpi\n        /* \"#utility.yul\":11894:11895   */\n      dup1\n        /* \"#utility.yul\":11889:11892   */\n      dup3\n        /* \"#utility.yul\":11885:11896   */\n      add\n        /* \"#utility.yul\":11879:11897   */\n      mload\n        /* \"#utility.yul\":11875:11876   */\n      dup2\n        /* \"#utility.yul\":11870:11873   */\n      dup5\n        /* \"#utility.yul\":11866:11877   */\n      add\n        /* \"#utility.yul\":11859:11898   */\n      mstore\n        /* \"#utility.yul\":11831:11833   */\n      0x20\n        /* \"#utility.yul\":11828:11829   */\n      dup2\n        /* \"#utility.yul\":11824:11834   */\n      add\n        /* \"#utility.yul\":11819:11834   */\n      swap1\n      pop\n        /* \"#utility.yul\":11795:11908   */\n      jump(tag_321)\n    tag_323:\n        /* \"#utility.yul\":11926:11932   */\n      dup4\n        /* \"#utility.yul\":11923:11924   */\n      dup2\n        /* \"#utility.yul\":11920:11933   */\n      gt\n        /* \"#utility.yul\":11917:12018   */\n      iszero\n      tag_324\n      jumpi\n        /* \"#utility.yul\":12006:12007   */\n      0x00\n        /* \"#utility.yul\":11997:12003   */\n      dup5\n        /* \"#utility.yul\":11992:11995   */\n      dup5\n        /* \"#utility.yul\":11988:12004   */\n      add\n        /* \"#utility.yul\":11981:12008   */\n      mstore\n        /* \"#utility.yul\":11917:12018   */\n    tag_324:\n        /* \"#utility.yul\":11766:12024   */\n      pop\n        /* \"#utility.yul\":11717:12024   */\n      pop\n      pop\n      pop\n      jump\t// out\n        /* \"#utility.yul\":12030:12350   */\n    tag_61:\n        /* \"#utility.yul\":12074:12080   */\n      0x00\n        /* \"#utility.yul\":12111:12112   */\n      0x02\n        /* \"#utility.yul\":12105:12109   */\n      dup3\n        /* \"#utility.yul\":12101:12113   */\n      div\n        /* \"#utility.yul\":12091:12113   */\n      swap1\n      pop\n        /* \"#utility.yul\":12158:12159   */\n      0x01\n        /* \"#utility.yul\":12152:12156   */\n      dup3\n        /* \"#utility.yul\":12148:12160   */\n      and\n        /* \"#utility.yul\":12179:12197   */\n      dup1\n        /* \"#utility.yul\":12169:12250   */\n      tag_326\n      jumpi\n        /* \"#utility.yul\":12235:12239   */\n      0x7f\n        /* \"#utility.yul\":12227:12233   */\n      dup3\n        /* \"#utility.yul\":12223:12240   */\n      and\n        /* \"#utility.yul\":12213:12240   */\n      swap2\n      pop\n        /* \"#utility.yul\":12169:12250   */\n    tag_326:\n        /* \"#utility.yul\":12297:12299   */\n      0x20\n        /* \"#utility.yul\":12289:12295   */\n      dup3\n        /* \"#utility.yul\":12286:12300   */\n      lt\n        /* \"#utility.yul\":12266:12284   */\n      dup2\n        /* \"#utility.yul\":12263:12301   */\n      eq\n        /* \"#utility.yul\":12260:12344   */\n      iszero\n      tag_327\n      jumpi\n        /* \"#utility.yul\":12316:12334   */\n      tag_328\n      tag_329\n      jump\t// in\n    tag_328:\n        /* \"#utility.yul\":12260:12344   */\n    tag_327:\n        /* \"#utility.yul\":12081:12350   */\n      pop\n        /* \"#utility.yul\":12030:12350   */\n      swap2\n      swap1\n      pop\n      jump\t// out\n        /* \"#utility.yul\":12356:12637   */\n    tag_284:\n        /* \"#utility.yul\":12439:12466   */\n      tag_331\n        /* \"#utility.yul\":12461:12465   */\n      dup3\n        /* \"#utility.yul\":12439:12466   */\n      tag_235\n      jump\t// in\n    tag_331:\n        /* \"#utility.yul\":12431:12437   */\n      dup2\n        /* \"#utility.yul\":12427:12467   */\n      add\n        /* \"#utility.yul\":12569:12575   */\n      dup2\n        /* \"#utility.yul\":12557:12567   */\n      dup2\n        /* \"#utility.yul\":12554:12576   */\n      lt\n        /* \"#utility.yul\":12533:12551   */\n      0xffffffffffffffff\n        /* \"#utility.yul\":12521:12531   */\n      dup3\n        /* \"#utility.yul\":12518:12552   */\n      gt\n        /* \"#utility.yul\":12515:12577   */\n      or\n        /* \"#utility.yul\":12512:12600   */\n      iszero\n      tag_332\n      jumpi\n        /* \"#utility.yul\":12580:12598   */\n      tag_333\n      tag_289\n      jump\t// in\n    tag_333:\n        /* \"#utility.yul\":12512:12600   */\n    tag_332:\n        /* \"#utility.yul\":12620:12630   */\n      dup1\n        /* \"#utility.yul\":12616:12618   */\n      0x40\n        /* \"#utility.yul\":12609:12631   */\n      mstore\n        /* \"#utility.yul\":12399:12637   */\n      pop\n        /* \"#utility.yul\":12356:12637   */\n      pop\n      pop\n      jump\t// out\n        /* \"#utility.yul\":12643:12819   */\n    tag_79:\n        /* \"#utility.yul\":12675:12676   */\n      0x00\n        /* \"#utility.yul\":12692:12712   */\n      tag_335\n        /* \"#utility.yul\":12710:12711   */\n      dup3\n        /* \"#utility.yul\":12692:12712   */\n      tag_254\n      jump\t// in\n    tag_335:\n        /* \"#utility.yul\":12687:12712   */\n      swap2\n      pop\n        /* \"#utility.yul\":12726:12746   */\n      tag_336\n        /* \"#utility.yul\":12744:12745   */\n      dup4\n        /* \"#utility.yul\":12726:12746   */\n      tag_254\n      jump\t// in\n    tag_336:\n        /* \"#utility.yul\":12721:12746   */\n      swap3\n      pop\n        /* \"#utility.yul\":12765:12766   */\n      dup3\n        /* \"#utility.yul\":12755:12790   */\n      tag_337\n      jumpi\n        /* \"#utility.yul\":12770:12788   */\n      tag_338\n      tag_305\n      jump\t// in\n    tag_338:\n        /* \"#utility.yul\":12755:12790   */\n    tag_337:\n        /* \"#utility.yul\":12811:12812   */\n      dup3\n        /* \"#utility.yul\":12808:12809   */\n      dup3\n        /* \"#utility.yul\":12804:12813   */\n      mod\n        /* \"#utility.yul\":12799:12813   */\n      swap1\n      pop\n        /* \"#utility.yul\":12643:12819   */\n      swap3\n      swap2\n      pop\n      pop\n      jump\t// out\n        /* \"#utility.yul\":12825:13005   */\n    tag_140:\n        /* \"#utility.yul\":12873:12950   */\n      0x4e487b7100000000000000000000000000000000000000000000000000000000\n        /* \"#utility.yul\":12870:12871   */\n      0x00\n        /* \"#utility.yul\":12863:12951   */\n      mstore\n        /* \"#utility.yul\":12970:12974   */\n      0x01\n        /* \"#utility.yul\":12967:12968   */\n      0x04\n        /* \"#utility.yul\":12960:12975   */\n      mstore\n        /* \"#utility.yul\":12994:12998   */\n      0x24\n        /* \"#utility.yul\":12991:12992   */\n      0x00\n        /* \"#utility.yul\":12984:12999   */\n      revert\n        /* \"#utility.yul\":13011:13191   */\n    tag_299:\n        /* \"#utility.yul\":13059:13136   */\n      0x4e487b7100000000000000000000000000000000000000000000000000000000\n        /* \"#utility.yul\":13056:13057   */\n      0x00\n        /* \"#utility.yul\":13049:13137   */\n      mstore\n        /* \"#utility.yul\":13156:13160   */\n      0x11\n        /* \"#utility.yul\":13153:13154   */\n      0x04\n        /* \"#utility.yul\":13146:13161   */\n      mstore\n        /* \"#utility.yul\":13180:13184   */\n      0x24\n        /* \"#utility.yul\":13177:13178   */\n      0x00\n        /* \"#utility.yul\":13170:13185   */\n      revert\n        /* \"#utility.yul\":13197:13377   */\n    tag_305:\n        /* \"#utility.yul\":13245:13322   */\n      0x4e487b7100000000000000000000000000000000000000000000000000000000\n        /* \"#utility.yul\":13242:13243   */\n      0x00\n        /* \"#utility.yul\":13235:13323   */\n      mstore\n        /* \"#utility.yul\":13342:13346   */\n      0x12\n        /* \"#utility.yul\":13339:13340   */\n      0x04\n        /* \"#utility.yul\":13332:13347   */\n      mstore\n        /* \"#utility.yul\":13366:13370   */\n      0x24\n        /* \"#utility.yul\":13363:13364   */\n      0x00\n        /* \"#utility.yul\":13356:13371   */\n      revert\n        /* \"#utility.yul\":13383:13563   */\n    tag_329:\n        /* \"#utility.yul\":13431:13508   */\n      0x4e487b7100000000000000000000000000000000000000000000000000000000\n        /* \"#utility.yul\":13428:13429   */\n      0x00\n        /* \"#utility.yul\":13421:13509   */\n      mstore\n        /* \"#utility.yul\":13528:13532   */\n      0x22\n        /* \"#utility.yul\":13525:13526   */\n      0x04\n        /* \"#utility.yul\":13518:13533   */\n      mstore\n        /* \"#utility.yul\":13552:13556   */\n      0x24\n        /* \"#utility.yul\":13549:13550   */\n      0x00\n        /* \"#utility.yul\":13542:13557   */\n      revert\n        /* \"#utility.yul\":13569:13749   */\n    tag_97:\n        /* \"#utility.yul\":13617:13694   */\n      0x4e487b7100000000000000000000000000000000000000000000000000000000\n        /* \"#utility.yul\":13614:13615   */\n      0x00\n        /* \"#utility.yul\":13607:13695   */\n      mstore\n        /* \"#utility.yul\":13714:13718   */\n      0x32\n        /* \"#utility.yul\":13711:13712   */\n      0x04\n        /* \"#utility.yul\":13704:13719   */\n      mstore\n        /* \"#utility.yul\":13738:13742   */\n      0x24\n        /* \"#utility.yul\":13735:13736   */\n      0x00\n        /* \"#utility.yul\":13728:13743   */\n      revert\n        /* \"#utility.yul\":13755:13935   */\n    tag_289:\n        /* \"#utility.yul\":13803:13880   */\n      0x4e487b7100000000000000000000000000000000000000000000000000000000\n        /* \"#utility.yul\":13800:13801   */\n      0x00\n        /* \"#utility.yul\":13793:13881   */\n      mstore\n        /* \"#utility.yul\":13900:13904   */\n      0x41\n        /* \"#utility.yul\":13897:13898   */\n      0x04\n        /* \"#utility.yul\":13890:13905   */\n      mstore\n        /* \"#utility.yul\":13924:13928   */\n      0x24\n        /* \"#utility.yul\":13921:13922   */\n      0x00\n        /* \"#utility.yul\":13914:13929   */\n      revert\n        /* \"#utility.yul\":13941:14058   */\n    tag_175:\n        /* \"#utility.yul\":14050:14051   */\n      0x00\n        /* \"#utility.yul\":14047:14048   */\n      dup1\n        /* \"#utility.yul\":14040:14052   */\n      revert\n        /* \"#utility.yul\":14064:14181   */\n    tag_160:\n        /* \"#utility.yul\":14173:14174   */\n      0x00\n        /* \"#utility.yul\":14170:14171   */\n      dup1\n        /* \"#utility.yul\":14163:14175   */\n      revert\n        /* \"#utility.yul\":14187:14304   */\n    tag_207:\n        /* \"#utility.yul\":14296:14297   */\n      0x00\n        /* \"#utility.yul\":14293:14294   */\n      dup1\n        /* \"#utility.yul\":14286:14298   */\n      revert\n        /* \"#utility.yul\":14310:14427   */\n    tag_187:\n        /* \"#utility.yul\":14419:14420   */\n      0x00\n        /* \"#utility.yul\":14416:14417   */\n      dup1\n        /* \"#utility.yul\":14409:14421   */\n      revert\n        /* \"#utility.yul\":14433:14535   */\n    tag_235:\n        /* \"#utility.yul\":14474:14480   */\n      0x00\n        /* \"#utility.yul\":14525:14527   */\n      0x1f\n        /* \"#utility.yul\":14521:14528   */\n      not\n        /* \"#utility.yul\":14516:14518   */\n      0x1f\n        /* \"#utility.yul\":14509:14514   */\n      dup4\n        /* \"#utility.yul\":14505:14519   */\n      add\n        /* \"#utility.yul\":14501:14529   */\n      and\n        /* \"#utility.yul\":14491:14529   */\n      swap1\n      pop\n        /* \"#utility.yul\":14433:14535   */\n      swap2\n      swap1\n      pop\n      jump\t// out\n        /* \"#utility.yul\":14541:14696   */\n    tag_246:\n        /* \"#utility.yul\":14681:14688   */\n      0x6b69747479000000000000000000000000000000000000000000000000000000\n        /* \"#utility.yul\":14677:14678   */\n      0x00\n        /* \"#utility.yul\":14669:14675   */\n      dup3\n        /* \"#utility.yul\":14665:14679   */\n      add\n        /* \"#utility.yul\":14658:14689   */\n      mstore\n        /* \"#utility.yul\":14541:14696   */\n      pop\n      jump\t// out\n        /* \"#utility.yul\":14702:14824   */\n    tag_166:\n        /* \"#utility.yul\":14775:14799   */\n      tag_352\n        /* \"#utility.yul\":14793:14798   */\n      dup2\n        /* \"#utility.yul\":14775:14799   */\n      tag_221\n      jump\t// in\n    tag_352:\n        /* \"#utility.yul\":14768:14773   */\n      dup2\n        /* \"#utility.yul\":14765:14800   */\n      eq\n        /* \"#utility.yul\":14755:14818   */\n      tag_353\n      jumpi\n        /* \"#utility.yul\":14814:14815   */\n      0x00\n        /* \"#utility.yul\":14811:14812   */\n      dup1\n        /* \"#utility.yul\":14804:14816   */\n      revert\n        /* \"#utility.yul\":14755:14818   */\n    tag_353:\n        /* \"#utility.yul\":14702:14824   */\n      pop\n      jump\t// out\n        /* \"#utility.yul\":14830:14946   */\n    tag_170:\n        /* \"#utility.yul\":14900:14921   */\n      tag_355\n        /* \"#utility.yul\":14915:14920   */\n      dup2\n        /* \"#utility.yul\":14900:14921   */\n      tag_225\n      jump\t// in\n    tag_355:\n        /* \"#utility.yul\":14893:14898   */\n      dup2\n        /* \"#utility.yul\":14890:14922   */\n      eq\n        /* \"#utility.yul\":14880:14940   */\n      tag_356\n      jumpi\n        /* \"#utility.yul\":14936:14937   */\n      0x00\n        /* \"#utility.yul\":14933:14934   */\n      dup1\n        /* \"#utility.yul\":14926:14938   */\n      revert\n        /* \"#utility.yul\":14880:14940   */\n    tag_356:\n        /* \"#utility.yul\":14830:14946   */\n      pop\n      jump\t// out\n        /* \"#utility.yul\":14952:15074   */\n    tag_180:\n        /* \"#utility.yul\":15025:15049   */\n      tag_358\n        /* \"#utility.yul\":15043:15048   */\n      dup2\n        /* \"#utility.yul\":15025:15049   */\n      tag_254\n      jump\t// in\n    tag_358:\n        /* \"#utility.yul\":15018:15023   */\n      dup2\n        /* \"#utility.yul\":15015:15050   */\n      eq\n        /* \"#utility.yul\":15005:15068   */\n      tag_359\n      jumpi\n        /* \"#utility.yul\":15064:15065   */\n      0x00\n        /* \"#utility.yul\":15061:15062   */\n      dup1\n        /* \"#utility.yul\":15054:15066   */\n      revert\n        /* \"#utility.yul\":15005:15068   */\n    tag_359:\n        /* \"#utility.yul\":14952:15074   */\n      pop\n      jump\t// out\n\n    auxdata: 0xa26469706673582212205e4240adbf8c0135f0abe99c79a33cfd229d92827514c1a6f6b5ed1d9b193c1464736f6c63430008070033\n}\n",
				"bytecode": {
					"linkReferences": {},
					"object": "60806040526010600155600154600a6200001a91906200014e565b600255620151806003553480156200003157600080fd5b50336000806101000a81548173ffffffffffffffffffffffffffffffffffffffff021916908373ffffffffffffffffffffffffffffffffffffffff16021790555060008054906101000a900473ffffffffffffffffffffffffffffffffffffffff1673ffffffffffffffffffffffffffffffffffffffff16600073ffffffffffffffffffffffffffffffffffffffff167f8be0079c531659141344cd1fd0a4f28419497f9722a3daafe3b4186f6b6457e060405160405180910390a3620002d1565b6000808291508390505b600185111562000145578086048111156200011d576200011c62000295565b5b60018516156200012d5780820291505b80810290506200013d85620002c4565b9450620000fd565b94509492505050565b60006200015b826200028b565b915062000168836200028b565b9250620001977fffffffffffffffffffffffffffffffffffffffffffffffffffffffffffffffff84846200019f565b905092915050565b600082620001b1576001905062000284565b81620001c1576000905062000284565b8160018114620001da5760028114620001e5576200021b565b600191505062000284565b60ff841115620001fa57620001f962000295565b5b8360020a91508482111562000214576200021362000295565b5b5062000284565b5060208310610133831016604e8410600b8410161715620002555782820a9050838111156200024f576200024e62000295565b5b62000284565b620002648484846001620000f3565b925090508184048111156200027e576200027d62000295565b5b81810290505b9392505050565b6000819050919050565b7f4e487b7100000000000000000000000000000000000000000000000000000000600052601160045260246000fd5b60008160011c9050919050565b6115b380620002e16000396000f3fe608060405234801561001057600080fd5b50600436106100935760003560e01c8063715018a611610066578063715018a6146101355780637bff0a011461013f5780638da5cb5b1461015b5780638f32d59b14610179578063f2fde38b1461019757610093565b806317a7f4cc146100985780632052465e146100b4578063528b7b8f146100e95780635f4623f114610119575b600080fd5b6100b260048036038101906100ad9190610f21565b6101b3565b005b6100ce60048036038101906100c99190610ef4565b6102e2565b6040516100e09695949392919061109b565b60405180910390f35b61010360048036038101906100fe9190610ef4565b6103f2565b6040516101109190611065565b60405180910390f35b610133600480360381019061012e9190610d9f565b610425565b005b61013d61047a565b005b61015960048036038101906101549190610eab565b610549565b005b6101636105ca565b6040516101709190611065565b60405180910390f35b6101816105f3565b60405161018e9190611080565b60405180910390f35b6101b160048036038101906101ac9190610d9f565b61064a565b005b6000600760009054906101000a900473ffffffffffffffffffffffffffffffffffffffff1673ffffffffffffffffffffffffffffffffffffffff1663e98b7f4d836040518263ffffffff1660e01b81526004016102109190611103565b61014060405180830381600087803b15801561022b57600080fd5b505af115801561023f573d6000803e3d6000fd5b505050506040513d601f19601f820116820180604052508101906102639190610dcc565b909192939495969798509091929394959697509091929394959650909192939495509091929394509091929350909192509091509050809150506102dd83826040518060400160405280600581526020017f6b69747479000000000000000000000000000000000000000000000000000000815250610667565b505050565b600481815481106102f257600080fd5b90600052602060002090600302016000915090508060000180546103159061133c565b80601f01602080910402602001604051908101604052809291908181526020018280546103419061133c565b801561038e5780601f106103635761010080835404028352916020019161038e565b820191906000526020600020905b81548152906001019060200180831161037157829003601f168201915b5050505050908060010154908060020160009054906101000a900463ffffffff16908060020160049054906101000a900463ffffffff16908060020160089054906101000a900461ffff169080600201600a9054906101000a900461ffff16905086565b60056020528060005260406000206000915054906101000a900473ffffffffffffffffffffffffffffffffffffffff1681565b61042d6105f3565b61043657600080fd5b80600760006101000a81548173ffffffffffffffffffffffffffffffffffffffff021916908373ffffffffffffffffffffffffffffffffffffffff16021790555050565b6104826105f3565b61048b57600080fd5b600073ffffffffffffffffffffffffffffffffffffffff1660008054906101000a900473ffffffffffffffffffffffffffffffffffffffff1673ffffffffffffffffffffffffffffffffffffffff167f8be0079c531659141344cd1fd0a4f28419497f9722a3daafe3b4186f6b6457e060405160405180910390a360008060006101000a81548173ffffffffffffffffffffffffffffffffffffffff021916908373ffffffffffffffffffffffffffffffffffffffff160217905550565b6000600660003373ffffffffffffffffffffffffffffffffffffffff1673ffffffffffffffffffffffffffffffffffffffff168152602001908152602001600020541461059557600080fd5b60006105a082610804565b90506064816105af919061139f565b816105ba9190611260565b90506105c68282610849565b5050565b60008060009054906101000a900473ffffffffffffffffffffffffffffffffffffffff16905090565b60008060009054906101000a900473ffffffffffffffffffffffffffffffffffffffff1673ffffffffffffffffffffffffffffffffffffffff163373ffffffffffffffffffffffffffffffffffffffff1614905090565b6106526105f3565b61065b57600080fd5b61066481610ac0565b50565b826005600082815260200190815260200160002060009054906101000a900473ffffffffffffffffffffffffffffffffffffffff1673ffffffffffffffffffffffffffffffffffffffff163373ffffffffffffffffffffffffffffffffffffffff16146106d357600080fd5b6000600485815481106106e9576106e861148c565b5b9060005260206000209060030201905061070281610bb7565b61070b57600080fd5b60025484610719919061139f565b93506000600285836001015461072f91906111d9565b610739919061122f565b905060405160200161074a90611050565b60405160208183030381529060405280519060200120846040516020016107719190611039565b6040516020818303038152906040528051906020012014156107b457606360648261079c919061139f565b826107a79190611260565b6107b191906111d9565b90505b6107f36040518060400160405280600681526020017f4e6f4e616d65000000000000000000000000000000000000000000000000000081525082610849565b6107fc82610bde565b505050505050565b600080826040516020016108189190611039565b6040516020818303038152906040528051906020012060001c905060025481610841919061139f565b915050919050565b60046040518060c00160405280848152602001838152602001600163ffffffff1681526020016003544261087d91906111d9565b63ffffffff168152602001600061ffff168152602001600061ffff16815250908060018154018082558091505060019003906000526020600020906003020160009091909190915060008201518160000190805190602001906108e1929190610c38565b506020820151816001015560408201518160020160006101000a81548163ffffffff021916908363ffffffff16021790555060608201518160020160046101000a81548163ffffffff021916908363ffffffff16021790555060808201518160020160086101000a81548161ffff021916908361ffff16021790555060a082015181600201600a6101000a81548161ffff021916908361ffff1602179055505050600060016004805490506109969190611260565b9050336005600083815260200190815260200160002060006101000a81548173ffffffffffffffffffffffffffffffffffffffff021916908373ffffffffffffffffffffffffffffffffffffffff160217905550610a3d6001600660003373ffffffffffffffffffffffffffffffffffffffff1673ffffffffffffffffffffffffffffffffffffffff16815260200190815260200160002054610c1190919063ffffffff16565b600660003373ffffffffffffffffffffffffffffffffffffffff1673ffffffffffffffffffffffffffffffffffffffff168152602001908152602001600020819055507f88f026aacbbecc90c18411df4b1185fd8d9be2470f1962f192bf84a27d0704b7818484604051610ab39392919061111e565b60405180910390a1505050565b600073ffffffffffffffffffffffffffffffffffffffff168173ffffffffffffffffffffffffffffffffffffffff161415610afa57600080fd5b8073ffffffffffffffffffffffffffffffffffffffff1660008054906101000a900473ffffffffffffffffffffffffffffffffffffffff1673ffffffffffffffffffffffffffffffffffffffff167f8be0079c531659141344cd1fd0a4f28419497f9722a3daafe3b4186f6b6457e060405160405180910390a3806000806101000a81548173ffffffffffffffffffffffffffffffffffffffff021916908373ffffffffffffffffffffffffffffffffffffffff16021790555050565b6000428260020160049054906101000a900463ffffffff1663ffffffff1611159050919050565b60035442610bec91906111d9565b8160020160046101000a81548163ffffffff021916908363ffffffff16021790555050565b60008183610c1f91906111d9565b905082811015610c3257610c316113d0565b5b92915050565b828054610c449061133c565b90600052602060002090601f016020900481019282610c665760008555610cad565b82601f10610c7f57805160ff1916838001178555610cad565b82800160010185558215610cad579182015b82811115610cac578251825591602001919060010190610c91565b5b509050610cba9190610cbe565b5090565b5b80821115610cd7576000816000905550600101610cbf565b5090565b6000610cee610ce984611181565b61115c565b905082815260208101848484011115610d0a57610d096114ef565b5b610d158482856112fa565b509392505050565b600081359050610d2c81611538565b92915050565b600081519050610d418161154f565b92915050565b600082601f830112610d5c57610d5b6114ea565b5b8135610d6c848260208601610cdb565b91505092915050565b600081359050610d8481611566565b92915050565b600081519050610d9981611566565b92915050565b600060208284031215610db557610db46114f9565b5b6000610dc384828501610d1d565b91505092915050565b6000806000806000806000806000806101408b8d031215610df057610def6114f9565b5b6000610dfe8d828e01610d32565b9a50506020610e0f8d828e01610d32565b9950506040610e208d828e01610d8a565b9850506060610e318d828e01610d8a565b9750506080610e428d828e01610d8a565b96505060a0610e538d828e01610d8a565b95505060c0610e648d828e01610d8a565b94505060e0610e758d828e01610d8a565b935050610100610e878d828e01610d8a565b925050610120610e998d828e01610d8a565b9150509295989b9194979a5092959850565b600060208284031215610ec157610ec06114f9565b5b600082013567ffffffffffffffff811115610edf57610ede6114f4565b5b610eeb84828501610d47565b91505092915050565b600060208284031215610f0a57610f096114f9565b5b6000610f1884828501610d75565b91505092915050565b60008060408385031215610f3857610f376114f9565b5b6000610f4685828601610d75565b9250506020610f5785828601610d75565b9150509250929050565b610f6a81611294565b82525050565b610f79816112a6565b82525050565b6000610f8a826111b2565b610f9481856111bd565b9350610fa4818560208601611309565b610fad816114fe565b840191505092915050565b6000610fc3826111b2565b610fcd81856111ce565b9350610fdd818560208601611309565b80840191505092915050565b6000610ff66005836111ce565b91506110018261150f565b600582019050919050565b611015816112b2565b82525050565b611024816112e0565b82525050565b611033816112ea565b82525050565b60006110458284610fb8565b915081905092915050565b600061105b82610fe9565b9150819050919050565b600060208201905061107a6000830184610f61565b92915050565b60006020820190506110956000830184610f70565b92915050565b600060c08201905081810360008301526110b58189610f7f565b90506110c4602083018861101b565b6110d1604083018761102a565b6110de606083018661102a565b6110eb608083018561100c565b6110f860a083018461100c565b979650505050505050565b6000602082019050611118600083018461101b565b92915050565b6000606082019050611133600083018661101b565b81810360208301526111458185610f7f565b9050611154604083018461101b565b949350505050565b6000611166611177565b9050611172828261136e565b919050565b6000604051905090565b600067ffffffffffffffff82111561119c5761119b6114bb565b5b6111a5826114fe565b9050602081019050919050565b600081519050919050565b600082825260208201905092915050565b600081905092915050565b60006111e4826112e0565b91506111ef836112e0565b9250827fffffffffffffffffffffffffffffffffffffffffffffffffffffffffffffffff03821115611224576112236113ff565b5b828201905092915050565b600061123a826112e0565b9150611245836112e0565b9250826112555761125461142e565b5b828204905092915050565b600061126b826112e0565b9150611276836112e0565b925082821015611289576112886113ff565b5b828203905092915050565b600061129f826112c0565b9050919050565b60008115159050919050565b600061ffff82169050919050565b600073ffffffffffffffffffffffffffffffffffffffff82169050919050565b6000819050919050565b600063ffffffff82169050919050565b82818337600083830152505050565b60005b8381101561132757808201518184015260208101905061130c565b83811115611336576000848401525b50505050565b6000600282049050600182168061135457607f821691505b602082108114156113685761136761145d565b5b50919050565b611377826114fe565b810181811067ffffffffffffffff82111715611396576113956114bb565b5b80604052505050565b60006113aa826112e0565b91506113b5836112e0565b9250826113c5576113c461142e565b5b828206905092915050565b7f4e487b7100000000000000000000000000000000000000000000000000000000600052600160045260246000fd5b7f4e487b7100000000000000000000000000000000000000000000000000000000600052601160045260246000fd5b7f4e487b7100000000000000000000000000000000000000000000000000000000600052601260045260246000fd5b7f4e487b7100000000000000000000000000000000000000000000000000000000600052602260045260246000fd5b7f4e487b7100000000000000000000000000000000000000000000000000000000600052603260045260246000fd5b7f4e487b7100000000000000000000000000000000000000000000000000000000600052604160045260246000fd5b600080fd5b600080fd5b600080fd5b600080fd5b6000601f19601f8301169050919050565b7f6b69747479000000000000000000000000000000000000000000000000000000600082015250565b61154181611294565b811461154c57600080fd5b50565b611558816112a6565b811461156357600080fd5b50565b61156f816112e0565b811461157a57600080fd5b5056fea26469706673582212205e4240adbf8c0135f0abe99c79a33cfd229d92827514c1a6f6b5ed1d9b193c1464736f6c63430008070033",
					"opcodes": "PUSH1 0x80 PUSH1 0x40 MSTORE PUSH1 0x10 PUSH1 0x1 SSTORE PUSH1 0x1 SLOAD PUSH1 0xA PUSH3 0x1A SWAP2 SWAP1 PUSH3 0x14E JUMP JUMPDEST PUSH1 0x2 SSTORE PUSH3 0x15180 PUSH1 0x3 SSTORE CALLVALUE DUP1 ISZERO PUSH3 0x31 JUMPI PUSH1 0x0 DUP1 REVERT JUMPDEST POP CALLER PUSH1 0x0 DUP1 PUSH2 0x100 EXP DUP2 SLOAD DUP2 PUSH20 0xFFFFFFFFFFFFFFFFFFFFFFFFFFFFFFFFFFFFFFFF MUL NOT AND SWAP1 DUP4 PUSH20 0xFFFFFFFFFFFFFFFFFFFFFFFFFFFFFFFFFFFFFFFF AND MUL OR SWAP1 SSTORE POP PUSH1 0x0 DUP1 SLOAD SWAP1 PUSH2 0x100 EXP SWAP1 DIV PUSH20 0xFFFFFFFFFFFFFFFFFFFFFFFFFFFFFFFFFFFFFFFF AND PUSH20 0xFFFFFFFFFFFFFFFFFFFFFFFFFFFFFFFFFFFFFFFF AND PUSH1 0x0 PUSH20 0xFFFFFFFFFFFFFFFFFFFFFFFFFFFFFFFFFFFFFFFF AND PUSH32 0x8BE0079C531659141344CD1FD0A4F28419497F9722A3DAAFE3B4186F6B6457E0 PUSH1 0x40 MLOAD PUSH1 0x40 MLOAD DUP1 SWAP2 SUB SWAP1 LOG3 PUSH3 0x2D1 JUMP JUMPDEST PUSH1 0x0 DUP1 DUP3 SWAP2 POP DUP4 SWAP1 POP JUMPDEST PUSH1 0x1 DUP6 GT ISZERO PUSH3 0x145 JUMPI DUP1 DUP7 DIV DUP2 GT ISZERO PUSH3 0x11D JUMPI PUSH3 0x11C PUSH3 0x295 JUMP JUMPDEST JUMPDEST PUSH1 0x1 DUP6 AND ISZERO PUSH3 0x12D JUMPI DUP1 DUP3 MUL SWAP2 POP JUMPDEST DUP1 DUP2 MUL SWAP1 POP PUSH3 0x13D DUP6 PUSH3 0x2C4 JUMP JUMPDEST SWAP5 POP PUSH3 0xFD JUMP JUMPDEST SWAP5 POP SWAP5 SWAP3 POP POP POP JUMP JUMPDEST PUSH1 0x0 PUSH3 0x15B DUP3 PUSH3 0x28B JUMP JUMPDEST SWAP2 POP PUSH3 0x168 DUP4 PUSH3 0x28B JUMP JUMPDEST SWAP3 POP PUSH3 0x197 PUSH32 0xFFFFFFFFFFFFFFFFFFFFFFFFFFFFFFFFFFFFFFFFFFFFFFFFFFFFFFFFFFFFFFFF DUP5 DUP5 PUSH3 0x19F JUMP JUMPDEST SWAP1 POP SWAP3 SWAP2 POP POP JUMP JUMPDEST PUSH1 0x0 DUP3 PUSH3 0x1B1 JUMPI PUSH1 0x1 SWAP1 POP PUSH3 0x284 JUMP JUMPDEST DUP2 PUSH3 0x1C1 JUMPI PUSH1 0x0 SWAP1 POP PUSH3 0x284 JUMP JUMPDEST DUP2 PUSH1 0x1 DUP2 EQ PUSH3 0x1DA JUMPI PUSH1 0x2 DUP2 EQ PUSH3 0x1E5 JUMPI PUSH3 0x21B JUMP JUMPDEST PUSH1 0x1 SWAP2 POP POP PUSH3 0x284 JUMP JUMPDEST PUSH1 0xFF DUP5 GT ISZERO PUSH3 0x1FA JUMPI PUSH3 0x1F9 PUSH3 0x295 JUMP JUMPDEST JUMPDEST DUP4 PUSH1 0x2 EXP SWAP2 POP DUP5 DUP3 GT ISZERO PUSH3 0x214 JUMPI PUSH3 0x213 PUSH3 0x295 JUMP JUMPDEST JUMPDEST POP PUSH3 0x284 JUMP JUMPDEST POP PUSH1 0x20 DUP4 LT PUSH2 0x133 DUP4 LT AND PUSH1 0x4E DUP5 LT PUSH1 0xB DUP5 LT AND OR ISZERO PUSH3 0x255 JUMPI DUP3 DUP3 EXP SWAP1 POP DUP4 DUP2 GT ISZERO PUSH3 0x24F JUMPI PUSH3 0x24E PUSH3 0x295 JUMP JUMPDEST JUMPDEST PUSH3 0x284 JUMP JUMPDEST PUSH3 0x264 DUP5 DUP5 DUP5 PUSH1 0x1 PUSH3 0xF3 JUMP JUMPDEST SWAP3 POP SWAP1 POP DUP2 DUP5 DIV DUP2 GT ISZERO PUSH3 0x27E JUMPI PUSH3 0x27D PUSH3 0x295 JUMP JUMPDEST JUMPDEST DUP2 DUP2 MUL SWAP1 POP JUMPDEST SWAP4 SWAP3 POP POP POP JUMP JUMPDEST PUSH1 0x0 DUP2 SWAP1 POP SWAP2 SWAP1 POP JUMP JUMPDEST PUSH32 0x4E487B7100000000000000000000000000000000000000000000000000000000 PUSH1 0x0 MSTORE PUSH1 0x11 PUSH1 0x4 MSTORE PUSH1 0x24 PUSH1 0x0 REVERT JUMPDEST PUSH1 0x0 DUP2 PUSH1 0x1 SHR SWAP1 POP SWAP2 SWAP1 POP JUMP JUMPDEST PUSH2 0x15B3 DUP1 PUSH3 0x2E1 PUSH1 0x0 CODECOPY PUSH1 0x0 RETURN INVALID PUSH1 0x80 PUSH1 0x40 MSTORE CALLVALUE DUP1 ISZERO PUSH2 0x10 JUMPI PUSH1 0x0 DUP1 REVERT JUMPDEST POP PUSH1 0x4 CALLDATASIZE LT PUSH2 0x93 JUMPI PUSH1 0x0 CALLDATALOAD PUSH1 0xE0 SHR DUP1 PUSH4 0x715018A6 GT PUSH2 0x66 JUMPI DUP1 PUSH4 0x715018A6 EQ PUSH2 0x135 JUMPI DUP1 PUSH4 0x7BFF0A01 EQ PUSH2 0x13F JUMPI DUP1 PUSH4 0x8DA5CB5B EQ PUSH2 0x15B JUMPI DUP1 PUSH4 0x8F32D59B EQ PUSH2 0x179 JUMPI DUP1 PUSH4 0xF2FDE38B EQ PUSH2 0x197 JUMPI PUSH2 0x93 JUMP JUMPDEST DUP1 PUSH4 0x17A7F4CC EQ PUSH2 0x98 JUMPI DUP1 PUSH4 0x2052465E EQ PUSH2 0xB4 JUMPI DUP1 PUSH4 0x528B7B8F EQ PUSH2 0xE9 JUMPI DUP1 PUSH4 0x5F4623F1 EQ PUSH2 0x119 JUMPI JUMPDEST PUSH1 0x0 DUP1 REVERT JUMPDEST PUSH2 0xB2 PUSH1 0x4 DUP1 CALLDATASIZE SUB DUP2 ADD SWAP1 PUSH2 0xAD SWAP2 SWAP1 PUSH2 0xF21 JUMP JUMPDEST PUSH2 0x1B3 JUMP JUMPDEST STOP JUMPDEST PUSH2 0xCE PUSH1 0x4 DUP1 CALLDATASIZE SUB DUP2 ADD SWAP1 PUSH2 0xC9 SWAP2 SWAP1 PUSH2 0xEF4 JUMP JUMPDEST PUSH2 0x2E2 JUMP JUMPDEST PUSH1 0x40 MLOAD PUSH2 0xE0 SWAP7 SWAP6 SWAP5 SWAP4 SWAP3 SWAP2 SWAP1 PUSH2 0x109B JUMP JUMPDEST PUSH1 0x40 MLOAD DUP1 SWAP2 SUB SWAP1 RETURN JUMPDEST PUSH2 0x103 PUSH1 0x4 DUP1 CALLDATASIZE SUB DUP2 ADD SWAP1 PUSH2 0xFE SWAP2 SWAP1 PUSH2 0xEF4 JUMP JUMPDEST PUSH2 0x3F2 JUMP JUMPDEST PUSH1 0x40 MLOAD PUSH2 0x110 SWAP2 SWAP1 PUSH2 0x1065 JUMP JUMPDEST PUSH1 0x40 MLOAD DUP1 SWAP2 SUB SWAP1 RETURN JUMPDEST PUSH2 0x133 PUSH1 0x4 DUP1 CALLDATASIZE SUB DUP2 ADD SWAP1 PUSH2 0x12E SWAP2 SWAP1 PUSH2 0xD9F JUMP JUMPDEST PUSH2 0x425 JUMP JUMPDEST STOP JUMPDEST PUSH2 0x13D PUSH2 0x47A JUMP JUMPDEST STOP JUMPDEST PUSH2 0x159 PUSH1 0x4 DUP1 CALLDATASIZE SUB DUP2 ADD SWAP1 PUSH2 0x154 SWAP2 SWAP1 PUSH2 0xEAB JUMP JUMPDEST PUSH2 0x549 JUMP JUMPDEST STOP JUMPDEST PUSH2 0x163 PUSH2 0x5CA JUMP JUMPDEST PUSH1 0x40 MLOAD PUSH2 0x170 SWAP2 SWAP1 PUSH2 0x1065 JUMP JUMPDEST PUSH1 0x40 MLOAD DUP1 SWAP2 SUB SWAP1 RETURN JUMPDEST PUSH2 0x181 PUSH2 0x5F3 JUMP JUMPDEST PUSH1 0x40 MLOAD PUSH2 0x18E SWAP2 SWAP1 PUSH2 0x1080 JUMP JUMPDEST PUSH1 0x40 MLOAD DUP1 SWAP2 SUB SWAP1 RETURN JUMPDEST PUSH2 0x1B1 PUSH1 0x4 DUP1 CALLDATASIZE SUB DUP2 ADD SWAP1 PUSH2 0x1AC SWAP2 SWAP1 PUSH2 0xD9F JUMP JUMPDEST PUSH2 0x64A JUMP JUMPDEST STOP JUMPDEST PUSH1 0x0 PUSH1 0x7 PUSH1 0x0 SWAP1 SLOAD SWAP1 PUSH2 0x100 EXP SWAP1 DIV PUSH20 0xFFFFFFFFFFFFFFFFFFFFFFFFFFFFFFFFFFFFFFFF AND PUSH20 0xFFFFFFFFFFFFFFFFFFFFFFFFFFFFFFFFFFFFFFFF AND PUSH4 0xE98B7F4D DUP4 PUSH1 0x40 MLOAD DUP3 PUSH4 0xFFFFFFFF AND PUSH1 0xE0 SHL DUP2 MSTORE PUSH1 0x4 ADD PUSH2 0x210 SWAP2 SWAP1 PUSH2 0x1103 JUMP JUMPDEST PUSH2 0x140 PUSH1 0x40 MLOAD DUP1 DUP4 SUB DUP2 PUSH1 0x0 DUP8 DUP1 EXTCODESIZE ISZERO DUP1 ISZERO PUSH2 0x22B JUMPI PUSH1 0x0 DUP1 REVERT JUMPDEST POP GAS CALL ISZERO DUP1 ISZERO PUSH2 0x23F JUMPI RETURNDATASIZE PUSH1 0x0 DUP1 RETURNDATACOPY RETURNDATASIZE PUSH1 0x0 REVERT JUMPDEST POP POP POP POP PUSH1 0x40 MLOAD RETURNDATASIZE PUSH1 0x1F NOT PUSH1 0x1F DUP3 ADD AND DUP3 ADD DUP1 PUSH1 0x40 MSTORE POP DUP2 ADD SWAP1 PUSH2 0x263 SWAP2 SWAP1 PUSH2 0xDCC JUMP JUMPDEST SWAP1 SWAP2 SWAP3 SWAP4 SWAP5 SWAP6 SWAP7 SWAP8 SWAP9 POP SWAP1 SWAP2 SWAP3 SWAP4 SWAP5 SWAP6 SWAP7 SWAP8 POP SWAP1 SWAP2 SWAP3 SWAP4 SWAP5 SWAP6 SWAP7 POP SWAP1 SWAP2 SWAP3 SWAP4 SWAP5 SWAP6 POP SWAP1 SWAP2 SWAP3 SWAP4 SWAP5 POP SWAP1 SWAP2 SWAP3 SWAP4 POP SWAP1 SWAP2 SWAP3 POP SWAP1 SWAP2 POP SWAP1 POP DUP1 SWAP2 POP POP PUSH2 0x2DD DUP4 DUP3 PUSH1 0x40 MLOAD DUP1 PUSH1 0x40 ADD PUSH1 0x40 MSTORE DUP1 PUSH1 0x5 DUP2 MSTORE PUSH1 0x20 ADD PUSH32 0x6B69747479000000000000000000000000000000000000000000000000000000 DUP2 MSTORE POP PUSH2 0x667 JUMP JUMPDEST POP POP POP JUMP JUMPDEST PUSH1 0x4 DUP2 DUP2 SLOAD DUP2 LT PUSH2 0x2F2 JUMPI PUSH1 0x0 DUP1 REVERT JUMPDEST SWAP1 PUSH1 0x0 MSTORE PUSH1 0x20 PUSH1 0x0 KECCAK256 SWAP1 PUSH1 0x3 MUL ADD PUSH1 0x0 SWAP2 POP SWAP1 POP DUP1 PUSH1 0x0 ADD DUP1 SLOAD PUSH2 0x315 SWAP1 PUSH2 0x133C JUMP JUMPDEST DUP1 PUSH1 0x1F ADD PUSH1 0x20 DUP1 SWAP2 DIV MUL PUSH1 0x20 ADD PUSH1 0x40 MLOAD SWAP1 DUP2 ADD PUSH1 0x40 MSTORE DUP1 SWAP3 SWAP2 SWAP1 DUP2 DUP2 MSTORE PUSH1 0x20 ADD DUP3 DUP1 SLOAD PUSH2 0x341 SWAP1 PUSH2 0x133C JUMP JUMPDEST DUP1 ISZERO PUSH2 0x38E JUMPI DUP1 PUSH1 0x1F LT PUSH2 0x363 JUMPI PUSH2 0x100 DUP1 DUP4 SLOAD DIV MUL DUP4 MSTORE SWAP2 PUSH1 0x20 ADD SWAP2 PUSH2 0x38E JUMP JUMPDEST DUP3 ADD SWAP2 SWAP1 PUSH1 0x0 MSTORE PUSH1 0x20 PUSH1 0x0 KECCAK256 SWAP1 JUMPDEST DUP2 SLOAD DUP2 MSTORE SWAP1 PUSH1 0x1 ADD SWAP1 PUSH1 0x20 ADD DUP1 DUP4 GT PUSH2 0x371 JUMPI DUP3 SWAP1 SUB PUSH1 0x1F AND DUP3 ADD SWAP2 JUMPDEST POP POP POP POP POP SWAP1 DUP1 PUSH1 0x1 ADD SLOAD SWAP1 DUP1 PUSH1 0x2 ADD PUSH1 0x0 SWAP1 SLOAD SWAP1 PUSH2 0x100 EXP SWAP1 DIV PUSH4 0xFFFFFFFF AND SWAP1 DUP1 PUSH1 0x2 ADD PUSH1 0x4 SWAP1 SLOAD SWAP1 PUSH2 0x100 EXP SWAP1 DIV PUSH4 0xFFFFFFFF AND SWAP1 DUP1 PUSH1 0x2 ADD PUSH1 0x8 SWAP1 SLOAD SWAP1 PUSH2 0x100 EXP SWAP1 DIV PUSH2 0xFFFF AND SWAP1 DUP1 PUSH1 0x2 ADD PUSH1 0xA SWAP1 SLOAD SWAP1 PUSH2 0x100 EXP SWAP1 DIV PUSH2 0xFFFF AND SWAP1 POP DUP7 JUMP JUMPDEST PUSH1 0x5 PUSH1 0x20 MSTORE DUP1 PUSH1 0x0 MSTORE PUSH1 0x40 PUSH1 0x0 KECCAK256 PUSH1 0x0 SWAP2 POP SLOAD SWAP1 PUSH2 0x100 EXP SWAP1 DIV PUSH20 0xFFFFFFFFFFFFFFFFFFFFFFFFFFFFFFFFFFFFFFFF AND DUP2 JUMP JUMPDEST PUSH2 0x42D PUSH2 0x5F3 JUMP JUMPDEST PUSH2 0x436 JUMPI PUSH1 0x0 DUP1 REVERT JUMPDEST DUP1 PUSH1 0x7 PUSH1 0x0 PUSH2 0x100 EXP DUP2 SLOAD DUP2 PUSH20 0xFFFFFFFFFFFFFFFFFFFFFFFFFFFFFFFFFFFFFFFF MUL NOT AND SWAP1 DUP4 PUSH20 0xFFFFFFFFFFFFFFFFFFFFFFFFFFFFFFFFFFFFFFFF AND MUL OR SWAP1 SSTORE POP POP JUMP JUMPDEST PUSH2 0x482 PUSH2 0x5F3 JUMP JUMPDEST PUSH2 0x48B JUMPI PUSH1 0x0 DUP1 REVERT JUMPDEST PUSH1 0x0 PUSH20 0xFFFFFFFFFFFFFFFFFFFFFFFFFFFFFFFFFFFFFFFF AND PUSH1 0x0 DUP1 SLOAD SWAP1 PUSH2 0x100 EXP SWAP1 DIV PUSH20 0xFFFFFFFFFFFFFFFFFFFFFFFFFFFFFFFFFFFFFFFF AND PUSH20 0xFFFFFFFFFFFFFFFFFFFFFFFFFFFFFFFFFFFFFFFF AND PUSH32 0x8BE0079C531659141344CD1FD0A4F28419497F9722A3DAAFE3B4186F6B6457E0 PUSH1 0x40 MLOAD PUSH1 0x40 MLOAD DUP1 SWAP2 SUB SWAP1 LOG3 PUSH1 0x0 DUP1 PUSH1 0x0 PUSH2 0x100 EXP DUP2 SLOAD DUP2 PUSH20 0xFFFFFFFFFFFFFFFFFFFFFFFFFFFFFFFFFFFFFFFF MUL NOT AND SWAP1 DUP4 PUSH20 0xFFFFFFFFFFFFFFFFFFFFFFFFFFFFFFFFFFFFFFFF AND MUL OR SWAP1 SSTORE POP JUMP JUMPDEST PUSH1 0x0 PUSH1 0x6 PUSH1 0x0 CALLER PUSH20 0xFFFFFFFFFFFFFFFFFFFFFFFFFFFFFFFFFFFFFFFF AND PUSH20 0xFFFFFFFFFFFFFFFFFFFFFFFFFFFFFFFFFFFFFFFF AND DUP2 MSTORE PUSH1 0x20 ADD SWAP1 DUP2 MSTORE PUSH1 0x20 ADD PUSH1 0x0 KECCAK256 SLOAD EQ PUSH2 0x595 JUMPI PUSH1 0x0 DUP1 REVERT JUMPDEST PUSH1 0x0 PUSH2 0x5A0 DUP3 PUSH2 0x804 JUMP JUMPDEST SWAP1 POP PUSH1 0x64 DUP2 PUSH2 0x5AF SWAP2 SWAP1 PUSH2 0x139F JUMP JUMPDEST DUP2 PUSH2 0x5BA SWAP2 SWAP1 PUSH2 0x1260 JUMP JUMPDEST SWAP1 POP PUSH2 0x5C6 DUP3 DUP3 PUSH2 0x849 JUMP JUMPDEST POP POP JUMP JUMPDEST PUSH1 0x0 DUP1 PUSH1 0x0 SWAP1 SLOAD SWAP1 PUSH2 0x100 EXP SWAP1 DIV PUSH20 0xFFFFFFFFFFFFFFFFFFFFFFFFFFFFFFFFFFFFFFFF AND SWAP1 POP SWAP1 JUMP JUMPDEST PUSH1 0x0 DUP1 PUSH1 0x0 SWAP1 SLOAD SWAP1 PUSH2 0x100 EXP SWAP1 DIV PUSH20 0xFFFFFFFFFFFFFFFFFFFFFFFFFFFFFFFFFFFFFFFF AND PUSH20 0xFFFFFFFFFFFFFFFFFFFFFFFFFFFFFFFFFFFFFFFF AND CALLER PUSH20 0xFFFFFFFFFFFFFFFFFFFFFFFFFFFFFFFFFFFFFFFF AND EQ SWAP1 POP SWAP1 JUMP JUMPDEST PUSH2 0x652 PUSH2 0x5F3 JUMP JUMPDEST PUSH2 0x65B JUMPI PUSH1 0x0 DUP1 REVERT JUMPDEST PUSH2 0x664 DUP2 PUSH2 0xAC0 JUMP JUMPDEST POP JUMP JUMPDEST DUP3 PUSH1 0x5 PUSH1 0x0 DUP3 DUP2 MSTORE PUSH1 0x20 ADD SWAP1 DUP2 MSTORE PUSH1 0x20 ADD PUSH1 0x0 KECCAK256 PUSH1 0x0 SWAP1 SLOAD SWAP1 PUSH2 0x100 EXP SWAP1 DIV PUSH20 0xFFFFFFFFFFFFFFFFFFFFFFFFFFFFFFFFFFFFFFFF AND PUSH20 0xFFFFFFFFFFFFFFFFFFFFFFFFFFFFFFFFFFFFFFFF AND CALLER PUSH20 0xFFFFFFFFFFFFFFFFFFFFFFFFFFFFFFFFFFFFFFFF AND EQ PUSH2 0x6D3 JUMPI PUSH1 0x0 DUP1 REVERT JUMPDEST PUSH1 0x0 PUSH1 0x4 DUP6 DUP2 SLOAD DUP2 LT PUSH2 0x6E9 JUMPI PUSH2 0x6E8 PUSH2 0x148C JUMP JUMPDEST JUMPDEST SWAP1 PUSH1 0x0 MSTORE PUSH1 0x20 PUSH1 0x0 KECCAK256 SWAP1 PUSH1 0x3 MUL ADD SWAP1 POP PUSH2 0x702 DUP2 PUSH2 0xBB7 JUMP JUMPDEST PUSH2 0x70B JUMPI PUSH1 0x0 DUP1 REVERT JUMPDEST PUSH1 0x2 SLOAD DUP5 PUSH2 0x719 SWAP2 SWAP1 PUSH2 0x139F JUMP JUMPDEST SWAP4 POP PUSH1 0x0 PUSH1 0x2 DUP6 DUP4 PUSH1 0x1 ADD SLOAD PUSH2 0x72F SWAP2 SWAP1 PUSH2 0x11D9 JUMP JUMPDEST PUSH2 0x739 SWAP2 SWAP1 PUSH2 0x122F JUMP JUMPDEST SWAP1 POP PUSH1 0x40 MLOAD PUSH1 0x20 ADD PUSH2 0x74A SWAP1 PUSH2 0x1050 JUMP JUMPDEST PUSH1 0x40 MLOAD PUSH1 0x20 DUP2 DUP4 SUB SUB DUP2 MSTORE SWAP1 PUSH1 0x40 MSTORE DUP1 MLOAD SWAP1 PUSH1 0x20 ADD KECCAK256 DUP5 PUSH1 0x40 MLOAD PUSH1 0x20 ADD PUSH2 0x771 SWAP2 SWAP1 PUSH2 0x1039 JUMP JUMPDEST PUSH1 0x40 MLOAD PUSH1 0x20 DUP2 DUP4 SUB SUB DUP2 MSTORE SWAP1 PUSH1 0x40 MSTORE DUP1 MLOAD SWAP1 PUSH1 0x20 ADD KECCAK256 EQ ISZERO PUSH2 0x7B4 JUMPI PUSH1 0x63 PUSH1 0x64 DUP3 PUSH2 0x79C SWAP2 SWAP1 PUSH2 0x139F JUMP JUMPDEST DUP3 PUSH2 0x7A7 SWAP2 SWAP1 PUSH2 0x1260 JUMP JUMPDEST PUSH2 0x7B1 SWAP2 SWAP1 PUSH2 0x11D9 JUMP JUMPDEST SWAP1 POP JUMPDEST PUSH2 0x7F3 PUSH1 0x40 MLOAD DUP1 PUSH1 0x40 ADD PUSH1 0x40 MSTORE DUP1 PUSH1 0x6 DUP2 MSTORE PUSH1 0x20 ADD PUSH32 0x4E6F4E616D650000000000000000000000000000000000000000000000000000 DUP2 MSTORE POP DUP3 PUSH2 0x849 JUMP JUMPDEST PUSH2 0x7FC DUP3 PUSH2 0xBDE JUMP JUMPDEST POP POP POP POP POP POP JUMP JUMPDEST PUSH1 0x0 DUP1 DUP3 PUSH1 0x40 MLOAD PUSH1 0x20 ADD PUSH2 0x818 SWAP2 SWAP1 PUSH2 0x1039 JUMP JUMPDEST PUSH1 0x40 MLOAD PUSH1 0x20 DUP2 DUP4 SUB SUB DUP2 MSTORE SWAP1 PUSH1 0x40 MSTORE DUP1 MLOAD SWAP1 PUSH1 0x20 ADD KECCAK256 PUSH1 0x0 SHR SWAP1 POP PUSH1 0x2 SLOAD DUP2 PUSH2 0x841 SWAP2 SWAP1 PUSH2 0x139F JUMP JUMPDEST SWAP2 POP POP SWAP2 SWAP1 POP JUMP JUMPDEST PUSH1 0x4 PUSH1 0x40 MLOAD DUP1 PUSH1 0xC0 ADD PUSH1 0x40 MSTORE DUP1 DUP5 DUP2 MSTORE PUSH1 0x20 ADD DUP4 DUP2 MSTORE PUSH1 0x20 ADD PUSH1 0x1 PUSH4 0xFFFFFFFF AND DUP2 MSTORE PUSH1 0x20 ADD PUSH1 0x3 SLOAD TIMESTAMP PUSH2 0x87D SWAP2 SWAP1 PUSH2 0x11D9 JUMP JUMPDEST PUSH4 0xFFFFFFFF AND DUP2 MSTORE PUSH1 0x20 ADD PUSH1 0x0 PUSH2 0xFFFF AND DUP2 MSTORE PUSH1 0x20 ADD PUSH1 0x0 PUSH2 0xFFFF AND DUP2 MSTORE POP SWAP1 DUP1 PUSH1 0x1 DUP2 SLOAD ADD DUP1 DUP3 SSTORE DUP1 SWAP2 POP POP PUSH1 0x1 SWAP1 SUB SWAP1 PUSH1 0x0 MSTORE PUSH1 0x20 PUSH1 0x0 KECCAK256 SWAP1 PUSH1 0x3 MUL ADD PUSH1 0x0 SWAP1 SWAP2 SWAP1 SWAP2 SWAP1 SWAP2 POP PUSH1 0x0 DUP3 ADD MLOAD DUP2 PUSH1 0x0 ADD SWAP1 DUP1 MLOAD SWAP1 PUSH1 0x20 ADD SWAP1 PUSH2 0x8E1 SWAP3 SWAP2 SWAP1 PUSH2 0xC38 JUMP JUMPDEST POP PUSH1 0x20 DUP3 ADD MLOAD DUP2 PUSH1 0x1 ADD SSTORE PUSH1 0x40 DUP3 ADD MLOAD DUP2 PUSH1 0x2 ADD PUSH1 0x0 PUSH2 0x100 EXP DUP2 SLOAD DUP2 PUSH4 0xFFFFFFFF MUL NOT AND SWAP1 DUP4 PUSH4 0xFFFFFFFF AND MUL OR SWAP1 SSTORE POP PUSH1 0x60 DUP3 ADD MLOAD DUP2 PUSH1 0x2 ADD PUSH1 0x4 PUSH2 0x100 EXP DUP2 SLOAD DUP2 PUSH4 0xFFFFFFFF MUL NOT AND SWAP1 DUP4 PUSH4 0xFFFFFFFF AND MUL OR SWAP1 SSTORE POP PUSH1 0x80 DUP3 ADD MLOAD DUP2 PUSH1 0x2 ADD PUSH1 0x8 PUSH2 0x100 EXP DUP2 SLOAD DUP2 PUSH2 0xFFFF MUL NOT AND SWAP1 DUP4 PUSH2 0xFFFF AND MUL OR SWAP1 SSTORE POP PUSH1 0xA0 DUP3 ADD MLOAD DUP2 PUSH1 0x2 ADD PUSH1 0xA PUSH2 0x100 EXP DUP2 SLOAD DUP2 PUSH2 0xFFFF MUL NOT AND SWAP1 DUP4 PUSH2 0xFFFF AND MUL OR SWAP1 SSTORE POP POP POP PUSH1 0x0 PUSH1 0x1 PUSH1 0x4 DUP1 SLOAD SWAP1 POP PUSH2 0x996 SWAP2 SWAP1 PUSH2 0x1260 JUMP JUMPDEST SWAP1 POP CALLER PUSH1 0x5 PUSH1 0x0 DUP4 DUP2 MSTORE PUSH1 0x20 ADD SWAP1 DUP2 MSTORE PUSH1 0x20 ADD PUSH1 0x0 KECCAK256 PUSH1 0x0 PUSH2 0x100 EXP DUP2 SLOAD DUP2 PUSH20 0xFFFFFFFFFFFFFFFFFFFFFFFFFFFFFFFFFFFFFFFF MUL NOT AND SWAP1 DUP4 PUSH20 0xFFFFFFFFFFFFFFFFFFFFFFFFFFFFFFFFFFFFFFFF AND MUL OR SWAP1 SSTORE POP PUSH2 0xA3D PUSH1 0x1 PUSH1 0x6 PUSH1 0x0 CALLER PUSH20 0xFFFFFFFFFFFFFFFFFFFFFFFFFFFFFFFFFFFFFFFF AND PUSH20 0xFFFFFFFFFFFFFFFFFFFFFFFFFFFFFFFFFFFFFFFF AND DUP2 MSTORE PUSH1 0x20 ADD SWAP1 DUP2 MSTORE PUSH1 0x20 ADD PUSH1 0x0 KECCAK256 SLOAD PUSH2 0xC11 SWAP1 SWAP2 SWAP1 PUSH4 0xFFFFFFFF AND JUMP JUMPDEST PUSH1 0x6 PUSH1 0x0 CALLER PUSH20 0xFFFFFFFFFFFFFFFFFFFFFFFFFFFFFFFFFFFFFFFF AND PUSH20 0xFFFFFFFFFFFFFFFFFFFFFFFFFFFFFFFFFFFFFFFF AND DUP2 MSTORE PUSH1 0x20 ADD SWAP1 DUP2 MSTORE PUSH1 0x20 ADD PUSH1 0x0 KECCAK256 DUP2 SWAP1 SSTORE POP PUSH32 0x88F026AACBBECC90C18411DF4B1185FD8D9BE2470F1962F192BF84A27D0704B7 DUP2 DUP5 DUP5 PUSH1 0x40 MLOAD PUSH2 0xAB3 SWAP4 SWAP3 SWAP2 SWAP1 PUSH2 0x111E JUMP JUMPDEST PUSH1 0x40 MLOAD DUP1 SWAP2 SUB SWAP1 LOG1 POP POP POP JUMP JUMPDEST PUSH1 0x0 PUSH20 0xFFFFFFFFFFFFFFFFFFFFFFFFFFFFFFFFFFFFFFFF AND DUP2 PUSH20 0xFFFFFFFFFFFFFFFFFFFFFFFFFFFFFFFFFFFFFFFF AND EQ ISZERO PUSH2 0xAFA JUMPI PUSH1 0x0 DUP1 REVERT JUMPDEST DUP1 PUSH20 0xFFFFFFFFFFFFFFFFFFFFFFFFFFFFFFFFFFFFFFFF AND PUSH1 0x0 DUP1 SLOAD SWAP1 PUSH2 0x100 EXP SWAP1 DIV PUSH20 0xFFFFFFFFFFFFFFFFFFFFFFFFFFFFFFFFFFFFFFFF AND PUSH20 0xFFFFFFFFFFFFFFFFFFFFFFFFFFFFFFFFFFFFFFFF AND PUSH32 0x8BE0079C531659141344CD1FD0A4F28419497F9722A3DAAFE3B4186F6B6457E0 PUSH1 0x40 MLOAD PUSH1 0x40 MLOAD DUP1 SWAP2 SUB SWAP1 LOG3 DUP1 PUSH1 0x0 DUP1 PUSH2 0x100 EXP DUP2 SLOAD DUP2 PUSH20 0xFFFFFFFFFFFFFFFFFFFFFFFFFFFFFFFFFFFFFFFF MUL NOT AND SWAP1 DUP4 PUSH20 0xFFFFFFFFFFFFFFFFFFFFFFFFFFFFFFFFFFFFFFFF AND MUL OR SWAP1 SSTORE POP POP JUMP JUMPDEST PUSH1 0x0 TIMESTAMP DUP3 PUSH1 0x2 ADD PUSH1 0x4 SWAP1 SLOAD SWAP1 PUSH2 0x100 EXP SWAP1 DIV PUSH4 0xFFFFFFFF AND PUSH4 0xFFFFFFFF AND GT ISZERO SWAP1 POP SWAP2 SWAP1 POP JUMP JUMPDEST PUSH1 0x3 SLOAD TIMESTAMP PUSH2 0xBEC SWAP2 SWAP1 PUSH2 0x11D9 JUMP JUMPDEST DUP2 PUSH1 0x2 ADD PUSH1 0x4 PUSH2 0x100 EXP DUP2 SLOAD DUP2 PUSH4 0xFFFFFFFF MUL NOT AND SWAP1 DUP4 PUSH4 0xFFFFFFFF AND MUL OR SWAP1 SSTORE POP POP JUMP JUMPDEST PUSH1 0x0 DUP2 DUP4 PUSH2 0xC1F SWAP2 SWAP1 PUSH2 0x11D9 JUMP JUMPDEST SWAP1 POP DUP3 DUP2 LT ISZERO PUSH2 0xC32 JUMPI PUSH2 0xC31 PUSH2 0x13D0 JUMP JUMPDEST JUMPDEST SWAP3 SWAP2 POP POP JUMP JUMPDEST DUP3 DUP1 SLOAD PUSH2 0xC44 SWAP1 PUSH2 0x133C JUMP JUMPDEST SWAP1 PUSH1 0x0 MSTORE PUSH1 0x20 PUSH1 0x0 KECCAK256 SWAP1 PUSH1 0x1F ADD PUSH1 0x20 SWAP1 DIV DUP2 ADD SWAP3 DUP3 PUSH2 0xC66 JUMPI PUSH1 0x0 DUP6 SSTORE PUSH2 0xCAD JUMP JUMPDEST DUP3 PUSH1 0x1F LT PUSH2 0xC7F JUMPI DUP1 MLOAD PUSH1 0xFF NOT AND DUP4 DUP1 ADD OR DUP6 SSTORE PUSH2 0xCAD JUMP JUMPDEST DUP3 DUP1 ADD PUSH1 0x1 ADD DUP6 SSTORE DUP3 ISZERO PUSH2 0xCAD JUMPI SWAP2 DUP3 ADD JUMPDEST DUP3 DUP2 GT ISZERO PUSH2 0xCAC JUMPI DUP3 MLOAD DUP3 SSTORE SWAP2 PUSH1 0x20 ADD SWAP2 SWAP1 PUSH1 0x1 ADD SWAP1 PUSH2 0xC91 JUMP JUMPDEST JUMPDEST POP SWAP1 POP PUSH2 0xCBA SWAP2 SWAP1 PUSH2 0xCBE JUMP JUMPDEST POP SWAP1 JUMP JUMPDEST JUMPDEST DUP1 DUP3 GT ISZERO PUSH2 0xCD7 JUMPI PUSH1 0x0 DUP2 PUSH1 0x0 SWAP1 SSTORE POP PUSH1 0x1 ADD PUSH2 0xCBF JUMP JUMPDEST POP SWAP1 JUMP JUMPDEST PUSH1 0x0 PUSH2 0xCEE PUSH2 0xCE9 DUP5 PUSH2 0x1181 JUMP JUMPDEST PUSH2 0x115C JUMP JUMPDEST SWAP1 POP DUP3 DUP2 MSTORE PUSH1 0x20 DUP2 ADD DUP5 DUP5 DUP5 ADD GT ISZERO PUSH2 0xD0A JUMPI PUSH2 0xD09 PUSH2 0x14EF JUMP JUMPDEST JUMPDEST PUSH2 0xD15 DUP5 DUP3 DUP6 PUSH2 0x12FA JUMP JUMPDEST POP SWAP4 SWAP3 POP POP POP JUMP JUMPDEST PUSH1 0x0 DUP2 CALLDATALOAD SWAP1 POP PUSH2 0xD2C DUP2 PUSH2 0x1538 JUMP JUMPDEST SWAP3 SWAP2 POP POP JUMP JUMPDEST PUSH1 0x0 DUP2 MLOAD SWAP1 POP PUSH2 0xD41 DUP2 PUSH2 0x154F JUMP JUMPDEST SWAP3 SWAP2 POP POP JUMP JUMPDEST PUSH1 0x0 DUP3 PUSH1 0x1F DUP4 ADD SLT PUSH2 0xD5C JUMPI PUSH2 0xD5B PUSH2 0x14EA JUMP JUMPDEST JUMPDEST DUP2 CALLDATALOAD PUSH2 0xD6C DUP5 DUP3 PUSH1 0x20 DUP7 ADD PUSH2 0xCDB JUMP JUMPDEST SWAP2 POP POP SWAP3 SWAP2 POP POP JUMP JUMPDEST PUSH1 0x0 DUP2 CALLDATALOAD SWAP1 POP PUSH2 0xD84 DUP2 PUSH2 0x1566 JUMP JUMPDEST SWAP3 SWAP2 POP POP JUMP JUMPDEST PUSH1 0x0 DUP2 MLOAD SWAP1 POP PUSH2 0xD99 DUP2 PUSH2 0x1566 JUMP JUMPDEST SWAP3 SWAP2 POP POP JUMP JUMPDEST PUSH1 0x0 PUSH1 0x20 DUP3 DUP5 SUB SLT ISZERO PUSH2 0xDB5 JUMPI PUSH2 0xDB4 PUSH2 0x14F9 JUMP JUMPDEST JUMPDEST PUSH1 0x0 PUSH2 0xDC3 DUP5 DUP3 DUP6 ADD PUSH2 0xD1D JUMP JUMPDEST SWAP2 POP POP SWAP3 SWAP2 POP POP JUMP JUMPDEST PUSH1 0x0 DUP1 PUSH1 0x0 DUP1 PUSH1 0x0 DUP1 PUSH1 0x0 DUP1 PUSH1 0x0 DUP1 PUSH2 0x140 DUP12 DUP14 SUB SLT ISZERO PUSH2 0xDF0 JUMPI PUSH2 0xDEF PUSH2 0x14F9 JUMP JUMPDEST JUMPDEST PUSH1 0x0 PUSH2 0xDFE DUP14 DUP3 DUP15 ADD PUSH2 0xD32 JUMP JUMPDEST SWAP11 POP POP PUSH1 0x20 PUSH2 0xE0F DUP14 DUP3 DUP15 ADD PUSH2 0xD32 JUMP JUMPDEST SWAP10 POP POP PUSH1 0x40 PUSH2 0xE20 DUP14 DUP3 DUP15 ADD PUSH2 0xD8A JUMP JUMPDEST SWAP9 POP POP PUSH1 0x60 PUSH2 0xE31 DUP14 DUP3 DUP15 ADD PUSH2 0xD8A JUMP JUMPDEST SWAP8 POP POP PUSH1 0x80 PUSH2 0xE42 DUP14 DUP3 DUP15 ADD PUSH2 0xD8A JUMP JUMPDEST SWAP7 POP POP PUSH1 0xA0 PUSH2 0xE53 DUP14 DUP3 DUP15 ADD PUSH2 0xD8A JUMP JUMPDEST SWAP6 POP POP PUSH1 0xC0 PUSH2 0xE64 DUP14 DUP3 DUP15 ADD PUSH2 0xD8A JUMP JUMPDEST SWAP5 POP POP PUSH1 0xE0 PUSH2 0xE75 DUP14 DUP3 DUP15 ADD PUSH2 0xD8A JUMP JUMPDEST SWAP4 POP POP PUSH2 0x100 PUSH2 0xE87 DUP14 DUP3 DUP15 ADD PUSH2 0xD8A JUMP JUMPDEST SWAP3 POP POP PUSH2 0x120 PUSH2 0xE99 DUP14 DUP3 DUP15 ADD PUSH2 0xD8A JUMP JUMPDEST SWAP2 POP POP SWAP3 SWAP6 SWAP9 SWAP12 SWAP2 SWAP5 SWAP8 SWAP11 POP SWAP3 SWAP6 SWAP9 POP JUMP JUMPDEST PUSH1 0x0 PUSH1 0x20 DUP3 DUP5 SUB SLT ISZERO PUSH2 0xEC1 JUMPI PUSH2 0xEC0 PUSH2 0x14F9 JUMP JUMPDEST JUMPDEST PUSH1 0x0 DUP3 ADD CALLDATALOAD PUSH8 0xFFFFFFFFFFFFFFFF DUP2 GT ISZERO PUSH2 0xEDF JUMPI PUSH2 0xEDE PUSH2 0x14F4 JUMP JUMPDEST JUMPDEST PUSH2 0xEEB DUP5 DUP3 DUP6 ADD PUSH2 0xD47 JUMP JUMPDEST SWAP2 POP POP SWAP3 SWAP2 POP POP JUMP JUMPDEST PUSH1 0x0 PUSH1 0x20 DUP3 DUP5 SUB SLT ISZERO PUSH2 0xF0A JUMPI PUSH2 0xF09 PUSH2 0x14F9 JUMP JUMPDEST JUMPDEST PUSH1 0x0 PUSH2 0xF18 DUP5 DUP3 DUP6 ADD PUSH2 0xD75 JUMP JUMPDEST SWAP2 POP POP SWAP3 SWAP2 POP POP JUMP JUMPDEST PUSH1 0x0 DUP1 PUSH1 0x40 DUP4 DUP6 SUB SLT ISZERO PUSH2 0xF38 JUMPI PUSH2 0xF37 PUSH2 0x14F9 JUMP JUMPDEST JUMPDEST PUSH1 0x0 PUSH2 0xF46 DUP6 DUP3 DUP7 ADD PUSH2 0xD75 JUMP JUMPDEST SWAP3 POP POP PUSH1 0x20 PUSH2 0xF57 DUP6 DUP3 DUP7 ADD PUSH2 0xD75 JUMP JUMPDEST SWAP2 POP POP SWAP3 POP SWAP3 SWAP1 POP JUMP JUMPDEST PUSH2 0xF6A DUP2 PUSH2 0x1294 JUMP JUMPDEST DUP3 MSTORE POP POP JUMP JUMPDEST PUSH2 0xF79 DUP2 PUSH2 0x12A6 JUMP JUMPDEST DUP3 MSTORE POP POP JUMP JUMPDEST PUSH1 0x0 PUSH2 0xF8A DUP3 PUSH2 0x11B2 JUMP JUMPDEST PUSH2 0xF94 DUP2 DUP6 PUSH2 0x11BD JUMP JUMPDEST SWAP4 POP PUSH2 0xFA4 DUP2 DUP6 PUSH1 0x20 DUP7 ADD PUSH2 0x1309 JUMP JUMPDEST PUSH2 0xFAD DUP2 PUSH2 0x14FE JUMP JUMPDEST DUP5 ADD SWAP2 POP POP SWAP3 SWAP2 POP POP JUMP JUMPDEST PUSH1 0x0 PUSH2 0xFC3 DUP3 PUSH2 0x11B2 JUMP JUMPDEST PUSH2 0xFCD DUP2 DUP6 PUSH2 0x11CE JUMP JUMPDEST SWAP4 POP PUSH2 0xFDD DUP2 DUP6 PUSH1 0x20 DUP7 ADD PUSH2 0x1309 JUMP JUMPDEST DUP1 DUP5 ADD SWAP2 POP POP SWAP3 SWAP2 POP POP JUMP JUMPDEST PUSH1 0x0 PUSH2 0xFF6 PUSH1 0x5 DUP4 PUSH2 0x11CE JUMP JUMPDEST SWAP2 POP PUSH2 0x1001 DUP3 PUSH2 0x150F JUMP JUMPDEST PUSH1 0x5 DUP3 ADD SWAP1 POP SWAP2 SWAP1 POP JUMP JUMPDEST PUSH2 0x1015 DUP2 PUSH2 0x12B2 JUMP JUMPDEST DUP3 MSTORE POP POP JUMP JUMPDEST PUSH2 0x1024 DUP2 PUSH2 0x12E0 JUMP JUMPDEST DUP3 MSTORE POP POP JUMP JUMPDEST PUSH2 0x1033 DUP2 PUSH2 0x12EA JUMP JUMPDEST DUP3 MSTORE POP POP JUMP JUMPDEST PUSH1 0x0 PUSH2 0x1045 DUP3 DUP5 PUSH2 0xFB8 JUMP JUMPDEST SWAP2 POP DUP2 SWAP1 POP SWAP3 SWAP2 POP POP JUMP JUMPDEST PUSH1 0x0 PUSH2 0x105B DUP3 PUSH2 0xFE9 JUMP JUMPDEST SWAP2 POP DUP2 SWAP1 POP SWAP2 SWAP1 POP JUMP JUMPDEST PUSH1 0x0 PUSH1 0x20 DUP3 ADD SWAP1 POP PUSH2 0x107A PUSH1 0x0 DUP4 ADD DUP5 PUSH2 0xF61 JUMP JUMPDEST SWAP3 SWAP2 POP POP JUMP JUMPDEST PUSH1 0x0 PUSH1 0x20 DUP3 ADD SWAP1 POP PUSH2 0x1095 PUSH1 0x0 DUP4 ADD DUP5 PUSH2 0xF70 JUMP JUMPDEST SWAP3 SWAP2 POP POP JUMP JUMPDEST PUSH1 0x0 PUSH1 0xC0 DUP3 ADD SWAP1 POP DUP2 DUP2 SUB PUSH1 0x0 DUP4 ADD MSTORE PUSH2 0x10B5 DUP2 DUP10 PUSH2 0xF7F JUMP JUMPDEST SWAP1 POP PUSH2 0x10C4 PUSH1 0x20 DUP4 ADD DUP9 PUSH2 0x101B JUMP JUMPDEST PUSH2 0x10D1 PUSH1 0x40 DUP4 ADD DUP8 PUSH2 0x102A JUMP JUMPDEST PUSH2 0x10DE PUSH1 0x60 DUP4 ADD DUP7 PUSH2 0x102A JUMP JUMPDEST PUSH2 0x10EB PUSH1 0x80 DUP4 ADD DUP6 PUSH2 0x100C JUMP JUMPDEST PUSH2 0x10F8 PUSH1 0xA0 DUP4 ADD DUP5 PUSH2 0x100C JUMP JUMPDEST SWAP8 SWAP7 POP POP POP POP POP POP POP JUMP JUMPDEST PUSH1 0x0 PUSH1 0x20 DUP3 ADD SWAP1 POP PUSH2 0x1118 PUSH1 0x0 DUP4 ADD DUP5 PUSH2 0x101B JUMP JUMPDEST SWAP3 SWAP2 POP POP JUMP JUMPDEST PUSH1 0x0 PUSH1 0x60 DUP3 ADD SWAP1 POP PUSH2 0x1133 PUSH1 0x0 DUP4 ADD DUP7 PUSH2 0x101B JUMP JUMPDEST DUP2 DUP2 SUB PUSH1 0x20 DUP4 ADD MSTORE PUSH2 0x1145 DUP2 DUP6 PUSH2 0xF7F JUMP JUMPDEST SWAP1 POP PUSH2 0x1154 PUSH1 0x40 DUP4 ADD DUP5 PUSH2 0x101B JUMP JUMPDEST SWAP5 SWAP4 POP POP POP POP JUMP JUMPDEST PUSH1 0x0 PUSH2 0x1166 PUSH2 0x1177 JUMP JUMPDEST SWAP1 POP PUSH2 0x1172 DUP3 DUP3 PUSH2 0x136E JUMP JUMPDEST SWAP2 SWAP1 POP JUMP JUMPDEST PUSH1 0x0 PUSH1 0x40 MLOAD SWAP1 POP SWAP1 JUMP JUMPDEST PUSH1 0x0 PUSH8 0xFFFFFFFFFFFFFFFF DUP3 GT ISZERO PUSH2 0x119C JUMPI PUSH2 0x119B PUSH2 0x14BB JUMP JUMPDEST JUMPDEST PUSH2 0x11A5 DUP3 PUSH2 0x14FE JUMP JUMPDEST SWAP1 POP PUSH1 0x20 DUP2 ADD SWAP1 POP SWAP2 SWAP1 POP JUMP JUMPDEST PUSH1 0x0 DUP2 MLOAD SWAP1 POP SWAP2 SWAP1 POP JUMP JUMPDEST PUSH1 0x0 DUP3 DUP3 MSTORE PUSH1 0x20 DUP3 ADD SWAP1 POP SWAP3 SWAP2 POP POP JUMP JUMPDEST PUSH1 0x0 DUP2 SWAP1 POP SWAP3 SWAP2 POP POP JUMP JUMPDEST PUSH1 0x0 PUSH2 0x11E4 DUP3 PUSH2 0x12E0 JUMP JUMPDEST SWAP2 POP PUSH2 0x11EF DUP4 PUSH2 0x12E0 JUMP JUMPDEST SWAP3 POP DUP3 PUSH32 0xFFFFFFFFFFFFFFFFFFFFFFFFFFFFFFFFFFFFFFFFFFFFFFFFFFFFFFFFFFFFFFFF SUB DUP3 GT ISZERO PUSH2 0x1224 JUMPI PUSH2 0x1223 PUSH2 0x13FF JUMP JUMPDEST JUMPDEST DUP3 DUP3 ADD SWAP1 POP SWAP3 SWAP2 POP POP JUMP JUMPDEST PUSH1 0x0 PUSH2 0x123A DUP3 PUSH2 0x12E0 JUMP JUMPDEST SWAP2 POP PUSH2 0x1245 DUP4 PUSH2 0x12E0 JUMP JUMPDEST SWAP3 POP DUP3 PUSH2 0x1255 JUMPI PUSH2 0x1254 PUSH2 0x142E JUMP JUMPDEST JUMPDEST DUP3 DUP3 DIV SWAP1 POP SWAP3 SWAP2 POP POP JUMP JUMPDEST PUSH1 0x0 PUSH2 0x126B DUP3 PUSH2 0x12E0 JUMP JUMPDEST SWAP2 POP PUSH2 0x1276 DUP4 PUSH2 0x12E0 JUMP JUMPDEST SWAP3 POP DUP3 DUP3 LT ISZERO PUSH2 0x1289 JUMPI PUSH2 0x1288 PUSH2 0x13FF JUMP JUMPDEST JUMPDEST DUP3 DUP3 SUB SWAP1 POP SWAP3 SWAP2 POP POP JUMP JUMPDEST PUSH1 0x0 PUSH2 0x129F DUP3 PUSH2 0x12C0 JUMP JUMPDEST SWAP1 POP SWAP2 SWAP1 POP JUMP JUMPDEST PUSH1 0x0 DUP2 ISZERO ISZERO SWAP1 POP SWAP2 SWAP1 POP JUMP JUMPDEST PUSH1 0x0 PUSH2 0xFFFF DUP3 AND SWAP1 POP SWAP2 SWAP1 POP JUMP JUMPDEST PUSH1 0x0 PUSH20 0xFFFFFFFFFFFFFFFFFFFFFFFFFFFFFFFFFFFFFFFF DUP3 AND SWAP1 POP SWAP2 SWAP1 POP JUMP JUMPDEST PUSH1 0x0 DUP2 SWAP1 POP SWAP2 SWAP1 POP JUMP JUMPDEST PUSH1 0x0 PUSH4 0xFFFFFFFF DUP3 AND SWAP1 POP SWAP2 SWAP1 POP JUMP JUMPDEST DUP3 DUP2 DUP4 CALLDATACOPY PUSH1 0x0 DUP4 DUP4 ADD MSTORE POP POP POP JUMP JUMPDEST PUSH1 0x0 JUMPDEST DUP4 DUP2 LT ISZERO PUSH2 0x1327 JUMPI DUP1 DUP3 ADD MLOAD DUP2 DUP5 ADD MSTORE PUSH1 0x20 DUP2 ADD SWAP1 POP PUSH2 0x130C JUMP JUMPDEST DUP4 DUP2 GT ISZERO PUSH2 0x1336 JUMPI PUSH1 0x0 DUP5 DUP5 ADD MSTORE JUMPDEST POP POP POP POP JUMP JUMPDEST PUSH1 0x0 PUSH1 0x2 DUP3 DIV SWAP1 POP PUSH1 0x1 DUP3 AND DUP1 PUSH2 0x1354 JUMPI PUSH1 0x7F DUP3 AND SWAP2 POP JUMPDEST PUSH1 0x20 DUP3 LT DUP2 EQ ISZERO PUSH2 0x1368 JUMPI PUSH2 0x1367 PUSH2 0x145D JUMP JUMPDEST JUMPDEST POP SWAP2 SWAP1 POP JUMP JUMPDEST PUSH2 0x1377 DUP3 PUSH2 0x14FE JUMP JUMPDEST DUP2 ADD DUP2 DUP2 LT PUSH8 0xFFFFFFFFFFFFFFFF DUP3 GT OR ISZERO PUSH2 0x1396 JUMPI PUSH2 0x1395 PUSH2 0x14BB JUMP JUMPDEST JUMPDEST DUP1 PUSH1 0x40 MSTORE POP POP POP JUMP JUMPDEST PUSH1 0x0 PUSH2 0x13AA DUP3 PUSH2 0x12E0 JUMP JUMPDEST SWAP2 POP PUSH2 0x13B5 DUP4 PUSH2 0x12E0 JUMP JUMPDEST SWAP3 POP DUP3 PUSH2 0x13C5 JUMPI PUSH2 0x13C4 PUSH2 0x142E JUMP JUMPDEST JUMPDEST DUP3 DUP3 MOD SWAP1 POP SWAP3 SWAP2 POP POP JUMP JUMPDEST PUSH32 0x4E487B7100000000000000000000000000000000000000000000000000000000 PUSH1 0x0 MSTORE PUSH1 0x1 PUSH1 0x4 MSTORE PUSH1 0x24 PUSH1 0x0 REVERT JUMPDEST PUSH32 0x4E487B7100000000000000000000000000000000000000000000000000000000 PUSH1 0x0 MSTORE PUSH1 0x11 PUSH1 0x4 MSTORE PUSH1 0x24 PUSH1 0x0 REVERT JUMPDEST PUSH32 0x4E487B7100000000000000000000000000000000000000000000000000000000 PUSH1 0x0 MSTORE PUSH1 0x12 PUSH1 0x4 MSTORE PUSH1 0x24 PUSH1 0x0 REVERT JUMPDEST PUSH32 0x4E487B7100000000000000000000000000000000000000000000000000000000 PUSH1 0x0 MSTORE PUSH1 0x22 PUSH1 0x4 MSTORE PUSH1 0x24 PUSH1 0x0 REVERT JUMPDEST PUSH32 0x4E487B7100000000000000000000000000000000000000000000000000000000 PUSH1 0x0 MSTORE PUSH1 0x32 PUSH1 0x4 MSTORE PUSH1 0x24 PUSH1 0x0 REVERT JUMPDEST PUSH32 0x4E487B7100000000000000000000000000000000000000000000000000000000 PUSH1 0x0 MSTORE PUSH1 0x41 PUSH1 0x4 MSTORE PUSH1 0x24 PUSH1 0x0 REVERT JUMPDEST PUSH1 0x0 DUP1 REVERT JUMPDEST PUSH1 0x0 DUP1 REVERT JUMPDEST PUSH1 0x0 DUP1 REVERT JUMPDEST PUSH1 0x0 DUP1 REVERT JUMPDEST PUSH1 0x0 PUSH1 0x1F NOT PUSH1 0x1F DUP4 ADD AND SWAP1 POP SWAP2 SWAP1 POP JUMP JUMPDEST PUSH32 0x6B69747479000000000000000000000000000000000000000000000000000000 PUSH1 0x0 DUP3 ADD MSTORE POP JUMP JUMPDEST PUSH2 0x1541 DUP2 PUSH2 0x1294 JUMP JUMPDEST DUP2 EQ PUSH2 0x154C JUMPI PUSH1 0x0 DUP1 REVERT JUMPDEST POP JUMP JUMPDEST PUSH2 0x1558 DUP2 PUSH2 0x12A6 JUMP JUMPDEST DUP2 EQ PUSH2 0x1563 JUMPI PUSH1 0x0 DUP1 REVERT JUMPDEST POP JUMP JUMPDEST PUSH2 0x156F DUP2 PUSH2 0x12E0 JUMP JUMPDEST DUP2 EQ PUSH2 0x157A JUMPI PUSH1 0x0 DUP1 REVERT JUMPDEST POP JUMP INVALID LOG2 PUSH5 0x6970667358 0x22 SLT KECCAK256 0x5E TIMESTAMP BLOCKHASH 0xAD 0xBF DUP13 ADD CALLDATALOAD CREATE 0xAB 0xE9 SWAP13 PUSH26 0xA33CFD229D92827514C1A6F6B5ED1D9B193C1464736F6C634300 ADDMOD SMOD STOP CALLER "
				},
				"gasEstimates": {
					"creation": {
						"codeDepositCost": "1111000",
						"executionCost": "infinite",
						"totalCost": "infinite"
					},
					"external": {
						"createRandomZombie(string)": "infinite",
						"feedOnKitty(uint256,uint256)": "infinite",
						"isOwner()": "2562",
						"owner()": "2566",
						"renounceOwnership()": "30294",
						"setKittyContractAddress(address)": "26994",
						"transferOwnership(address)": "30760",
						"zombieToOwner(uint256)": "2884",
						"zombies(uint256)": "infinite"
					},
					"internal": {
						"_isReady(struct ZombieFactory.Zombie storage pointer)": "2234",
						"_triggerCooldown(struct ZombieFactory.Zombie storage pointer)": "infinite",
						"feedAndMultiply(uint256,uint256,string memory)": "infinite"
					}
				},
				"methodIdentifiers": {
					"createRandomZombie(string)": "7bff0a01",
					"feedOnKitty(uint256,uint256)": "17a7f4cc",
					"isOwner()": "8f32d59b",
					"owner()": "8da5cb5b",
					"renounceOwnership()": "715018a6",
					"setKittyContractAddress(address)": "5f4623f1",
					"transferOwnership(address)": "f2fde38b",
					"zombieToOwner(uint256)": "528b7b8f",
					"zombies(uint256)": "2052465e"
				}
			},
			"storageLayout": {
				"storage": [
					{
						"astId": 4,
						"contract": "Testing Smart Contracts with Truffle/contracts/zombiefeeding.sol:ZombieFeeding",
						"label": "_owner",
						"offset": 0,
						"slot": "0",
						"type": "t_address"
					},
					{
						"astId": 536,
						"contract": "Testing Smart Contracts with Truffle/contracts/zombiefeeding.sol:ZombieFeeding",
						"label": "dnaDigits",
						"offset": 0,
						"slot": "1",
						"type": "t_uint256"
					},
					{
						"astId": 541,
						"contract": "Testing Smart Contracts with Truffle/contracts/zombiefeeding.sol:ZombieFeeding",
						"label": "dnaModulus",
						"offset": 0,
						"slot": "2",
						"type": "t_uint256"
					},
					{
						"astId": 544,
						"contract": "Testing Smart Contracts with Truffle/contracts/zombiefeeding.sol:ZombieFeeding",
						"label": "cooldownTime",
						"offset": 0,
						"slot": "3",
						"type": "t_uint256"
					},
					{
						"astId": 561,
						"contract": "Testing Smart Contracts with Truffle/contracts/zombiefeeding.sol:ZombieFeeding",
						"label": "zombies",
						"offset": 0,
						"slot": "4",
						"type": "t_array(t_struct(Zombie)557_storage)dyn_storage"
					},
					{
						"astId": 565,
						"contract": "Testing Smart Contracts with Truffle/contracts/zombiefeeding.sol:ZombieFeeding",
						"label": "zombieToOwner",
						"offset": 0,
						"slot": "5",
						"type": "t_mapping(t_uint256,t_address)"
					},
					{
						"astId": 569,
						"contract": "Testing Smart Contracts with Truffle/contracts/zombiefeeding.sol:ZombieFeeding",
						"label": "ownerZombieCount",
						"offset": 0,
						"slot": "6",
						"type": "t_mapping(t_address,t_uint256)"
					},
					{
						"astId": 723,
						"contract": "Testing Smart Contracts with Truffle/contracts/zombiefeeding.sol:ZombieFeeding",
						"label": "kittyContract",
						"offset": 0,
						"slot": "7",
						"type": "t_contract(KittyInterface)718"
					}
				],
				"types": {
					"t_address": {
						"encoding": "inplace",
						"label": "address",
						"numberOfBytes": "20"
					},
					"t_array(t_struct(Zombie)557_storage)dyn_storage": {
						"base": "t_struct(Zombie)557_storage",
						"encoding": "dynamic_array",
						"label": "struct ZombieFactory.Zombie[]",
						"numberOfBytes": "32"
					},
					"t_contract(KittyInterface)718": {
						"encoding": "inplace",
						"label": "contract KittyInterface",
						"numberOfBytes": "20"
					},
					"t_mapping(t_address,t_uint256)": {
						"encoding": "mapping",
						"key": "t_address",
						"label": "mapping(address => uint256)",
						"numberOfBytes": "32",
						"value": "t_uint256"
					},
					"t_mapping(t_uint256,t_address)": {
						"encoding": "mapping",
						"key": "t_uint256",
						"label": "mapping(uint256 => address)",
						"numberOfBytes": "32",
						"value": "t_address"
					},
					"t_string_storage": {
						"encoding": "bytes",
						"label": "string",
						"numberOfBytes": "32"
					},
					"t_struct(Zombie)557_storage": {
						"encoding": "inplace",
						"label": "struct ZombieFactory.Zombie",
						"members": [
							{
								"astId": 546,
								"contract": "Testing Smart Contracts with Truffle/contracts/zombiefeeding.sol:ZombieFeeding",
								"label": "name",
								"offset": 0,
								"slot": "0",
								"type": "t_string_storage"
							},
							{
								"astId": 548,
								"contract": "Testing Smart Contracts with Truffle/contracts/zombiefeeding.sol:ZombieFeeding",
								"label": "dna",
								"offset": 0,
								"slot": "1",
								"type": "t_uint256"
							},
							{
								"astId": 550,
								"contract": "Testing Smart Contracts with Truffle/contracts/zombiefeeding.sol:ZombieFeeding",
								"label": "level",
								"offset": 0,
								"slot": "2",
								"type": "t_uint32"
							},
							{
								"astId": 552,
								"contract": "Testing Smart Contracts with Truffle/contracts/zombiefeeding.sol:ZombieFeeding",
								"label": "readyTime",
								"offset": 4,
								"slot": "2",
								"type": "t_uint32"
							},
							{
								"astId": 554,
								"contract": "Testing Smart Contracts with Truffle/contracts/zombiefeeding.sol:ZombieFeeding",
								"label": "winCount",
								"offset": 8,
								"slot": "2",
								"type": "t_uint16"
							},
							{
								"astId": 556,
								"contract": "Testing Smart Contracts with Truffle/contracts/zombiefeeding.sol:ZombieFeeding",
								"label": "lossCount",
								"offset": 10,
								"slot": "2",
								"type": "t_uint16"
							}
						],
						"numberOfBytes": "96"
					},
					"t_uint16": {
						"encoding": "inplace",
						"label": "uint16",
						"numberOfBytes": "2"
					},
					"t_uint256": {
						"encoding": "inplace",
						"label": "uint256",
						"numberOfBytes": "32"
					},
					"t_uint32": {
						"encoding": "inplace",
						"label": "uint32",
						"numberOfBytes": "4"
					}
				}
			},
			"userdoc": {
				"kind": "user",
				"methods": {
					"renounceOwnership()": {
						"notice": "Renouncing to ownership will leave the contract without an owner. It will not be possible to call the functions with the `onlyOwner` modifier anymore."
					}
				},
				"version": 1
			}
		}
	}
}